:020000040000FA
:100000000C945D000C9485000C9485000C94850084
:100010000C9485000C9485000C9485000C9485004C
:100020000C9485000C9485000C9485000C9485003C
:100030000C9485000C9485000C9485000C9485002C
:100040000C9465020C9485000C94D5020C94AF02BC
:100050000C9485000C9485000C9485000C9485000C
:100060000C9485000C9485000000000024002700FB
:100070002A0000000000250028002B0004040404CE
:100080000404040402020202020203030303030342
:10009000010204081020408001020408102001021F
:1000A00004081020000000080002010000030407FB
:1000B00000000000000000006F0411241FBECFEFFD
:1000C000D8E0DEBFCDBF21E0ACE3B1E001C01D92BE
:1000D000A63EB207E1F711E0A0E0B1E0E4ECFDE0FC
:1000E00002C005900D92AC33B107D9F710E0CDE511
:1000F000D0E004C02197FE010E94DF04CC35D10777
:10010000C9F70E9407030C94E0060C94000090E0ED
:10011000FC01EC55FF4F2491FC01E057FF4F349157
:10012000FC01E458FF4FE491EE23C9F0222339F09B
:10013000233001F1A8F4213019F1223029F1F0E047
:10014000EE0FFF1FEE58FF4FA591B4918FB7F894B3
:10015000EC91611126C030953E233C938FBF0895EA
:100160002730A9F02830C9F0243049F78091800069
:100170008F7D03C0809180008F7780938000DFCFD8
:1001800084B58F7784BDDBCF84B58F7DFBCF809125
:10019000B0008F778093B000D2CF8091B0008F7D78
:1001A000F9CF3E2BDACFAF92BF92CF92DF92EF9290
:1001B000FF920F931F93CF93DF936C017B018B0111
:1001C000040F151FEB015E01AE18BF08C017D10761
:1001D00059F06991D601ED91FC910190F081E02DEB
:1001E000C6010995892B79F7C501DF91CF911F9140
:1001F0000F91FF90EF90DF90CF90BF90AF90089558
:10020000FC01538D448D252F30E0842F90E0821B1C
:10021000930B541710F0CF96089501970895FC01A1
:10022000918D828D981761F0A28DAE0FBF2FB11DF9
:100230005D968C91928D9F5F9F73928F90E0089551
:100240008FEF9FEF08952FB7F8948091410190911F
:100250004201A0914301B09144012FBF80934D0111
:1002600090934E01A0934F01B093500185E491E02B
:100270000E940F0197FF26C02FB7F894809141018B
:1002800090914201A0914301B09144012FBF409150
:100290004D0150914E0160914F0170915001841BAE
:1002A000950BA60BB70B4091490150914A01609103
:1002B0004B0170914C0184179507A607B707B0F260
:1002C0008FEF9FEF0895FC01918D828D981731F08B
:1002D000828DE80FF11D858D90E008958FEF9FEFDF
:1002E0000895FC01918D228D892F90E0805C9F4FB5
:1002F000821B91098F739927089585E491E00E94EC
:10030000710121E0892B09F420E0822F089580E01B
:1003100090E0892B29F00E947D0181110C9400004E
:100320000895FC01A48DA80FB92FB11DA35ABF4F8A
:100330002C91848D90E001968F739927848FA689E4
:10034000B7892C93A089B1898C91837080648C9338
:10035000938D848D981306C00288F389E02D8081E7
:100360008F7D80830895EF92FF920F931F93CF9319
:10037000DF93EC0181E0888F9B8D8C8D98131AC0E0
:10038000E889F989808185FF15C09FB7F894EE89C7
:10039000FF896083E889F989808183708064808324
:1003A0009FBF81E090E0DF91CF911F910F91FF906F
:1003B000EF900895F62E0B8D10E00F5F1F4F0F7317
:1003C0001127E02E8C8D8E110CC00FB607FCFACFD2
:1003D000E889F989808185FFF5CFCE010E949101DE
:1003E000F1CFEB8DEC0FFD2FF11DE35AFF4FF082A3
:1003F0009FB7F8940B8FEA89FB8980818062CFCF09
:10040000CF93DF93EC01888D8823B9F0AA89BB894B
:10041000E889F9898C9185FD03C0808186FD0DC036
:100420000FB607FCF7CF8C9185FFF2CF808185FF57
:10043000EDCFCE010E949101E9CFDF91CF910895D8
:10044000CF93DF93FC0101900020E9F73197AF01D2
:10045000481B590BBC0185E491E00E94D300EC01DC
:1004600042E050E068E171E085E491E00E94D30051
:100470008C0F9D1FDF91CF9108950F931F93CF9302
:10048000DF93EC0188819981009759F02A813B81A3
:100490002617370730F081E0DF91CF911F910F9140
:1004A00008958B016F5F7F4F0E940A06009759F0F5
:1004B000998388831B830A832C813D81232B59F7E1
:1004C000FC011082E8CF80E0E7CF1F920F920FB6B9
:1004D0000F9211242F933F938F939F93AF93BF93CA
:1004E0008091410190914201A0914301B09144015A
:1004F0003091400123E0230F2D3758F50196A11DBF
:10050000B11D209340018093410190934201A0933B
:100510004301B093440180913C0190913D01A09131
:100520003E01B0913F010196A11DB11D80933C0198
:1005300090933D01A0933E01B0933F01BF91AF91D5
:100540009F918F913F912F910F900FBE0F901F9011
:10055000189526E8230F0296A11DB11DD2CF1F9238
:100560000F920FB60F9211242F933F934F935F93E7
:100570006F937F938F939F93AF93BF93EF93FF936B
:1005800085E491E00E949101FF91EF91BF91AF91BD
:100590009F918F917F916F915F914F913F912F919B
:1005A0000F900FBE0F901F9018951F920F920FB6CD
:1005B0000F9211242F938F939F93EF93FF93E091CA
:1005C0005501F09156018081E0915B01F0915C0151
:1005D00082FD1BC0908180915E018F5F8F7320919F
:1005E0005F01821741F0E0915E01F0E0EB5BFE4FAE
:1005F000958F80935E01FF91EF919F918F912F9145
:100600000F900FBE0F901F9018958081F4CFCF935D
:10061000DF93CDB7DEB728970FB6F894DEBF0FBED5
:10062000CDBF789484B5826084BD84B5816084BD7B
:1006300085B5826085BD85B5816085BD80916E0080
:10064000816080936E0010928100809181008260B1
:1006500080938100809181008160809381008091EE
:1006600080008160809380008091B10084608093DD
:10067000B1008091B00081608093B00080917A00D9
:10068000846080937A0080917A00826080937A00FF
:1006900080917A00816080937A0080917A008068EE
:1006A00080937A001092C100EDE9F0E02491E9E82E
:1006B000F0E08491882399F090E0880F991FFC0165
:1006C000E859FF4FA591B491FC01EE58FF4F859179
:1006D00094918FB7F894EC91E22BEC938FBFE0915B
:1006E0005501F091560182E08083E0915101F09133
:1006F00052011082E0915301F09154018FEC8083FC
:1007000010925D01E0915901F0915A0186E08083D9
:10071000E0915701F0915801808180618083E091E0
:100720005701F0915801808188608083E0915701E2
:10073000F0915801808180688083E0915701F091A9
:10074000580180818F7D808380E0A82E80E0B82EC4
:1007500085E491E00E947101892B09F47DC01A8221
:1007600019821C821B821E821D8270E060E0CE0115
:1007700001960E943D0229813A8181112EC02115E6
:10078000310519F0C9010E9481051A8219821E8261
:100790001D821C821B820E9423010D811E8197FDF8
:1007A00024C08A30910509F18F8318860F5F1F4F8F
:1007B000B801CE0101960E943D02882361F3298190
:1007C0003A818D819E81BE01695F7F4F820F931FA9
:1007D0000E94D9061E830D83DECF1E821D826AE130
:1007E00071E0C9010E94D906D6CFC980DA80C11450
:1007F000D10421F0760101151105D9F58D819E8175
:10080000892B81F06BE171E089819A810E94D00689
:10081000892B41F461E08DE00E9487008EE191E038
:100820000E9420028D819E81892B81F06CE271E013
:1008300089819A810E94D006892B41F460E08DE085
:100840000E94870080E391E00E94200289819A81C2
:10085000009711F00E948105A114B10409F478CF2A
:100860000E947D01882309F473CF0E94000070CF9D
:10087000740147018FEF881A980AF7018081082ECA
:10088000000C990B0E949C04892B91F701501109CF
:100890000C0D1D1DF8018081082E000C990B0E9483
:1008A0009C04892B31F00E151F0518F00150110919
:1008B000F1CFA8014F5F5F4F4E195F095E834D83F3
:1008C000CE14DF0420F4B701C6010E94C706E981F7
:1008D000FA818D819E81E80FF91F10828FCFE5E4A8
:1008E000F1E01382128288EE93E0A0E0B0E084830E
:1008F0009583A683B7838AE091E09183808385EC1A
:1009000090E09587848784EC90E09787868780ECD9
:1009100090E0918B808B81EC90E0938B828B82ECCA
:1009200090E0958B848B86EC90E0978B868B118E74
:10093000128E138E148E089591110C94A50480329A
:1009400019F089508550C8F7089599278827089588
:100950002F923F924F925F926F927F928F929F92CF
:10096000AF92BF92CF92DF92EF92FF920F931F93BD
:10097000CF93DF93CDB7DEB7CA1BDB0B0FB6F8946E
:10098000DEBF0FBECDBF09942A88398848885F84AE
:100990006E847D848C849B84AA84B984C884DF801F
:1009A000EE80FD800C811B81AA81B981CE0FD11D03
:1009B0000FB6F894DEBF0FBECDBFED010895EE0F68
:1009C000FF1F0590F491E02D09940F931F93CF938F
:1009D000DF938230910510F482E090E0E091E40131
:1009E000F091E50130E020E0B0E0A0E0309799F42C
:1009F0002115310509F44AC0281B390B2430310573
:100A0000D8F58A819B816115710589F1FB0193837A
:100A10008283FE0111C040815181028113814817F8
:100A20005907E0F04817590799F4109761F01296AA
:100A30000C93129713961C933296CF01DF91CF91AE
:100A40001F910F9108950093E4011093E501F4CFF5
:100A50002115310551F04217530738F0A901DB0188
:100A60009A01BD01DF01F801C1CFEF01F9CF9093E9
:100A7000E5018093E401CDCFFE01E20FF31F8193E6
:100A800091932250310939832883D7CF2091E201F5
:100A90003091E301232B41F42091020130910301B5
:100AA0003093E3012093E201209100013091010194
:100AB0002115310541F42DB73EB740910401509105
:100AC0000501241B350BE091E201F091E301E217EF
:100AD000F307A0F42E1B3F0B2817390778F0AC0161
:100AE0004E5F5F4F2417350748F04E0F5F1F50933E
:100AF000E3014093E201819391939FCFF0E0E0E026
:100B00009CCFCF93DF930097E9F0FC0132971382DB
:100B10001282A091E401B091E501ED0130E020E006
:100B20001097A1F420813181820F931F2091E2015F
:100B30003091E3012817390709F061C0F093E30110
:100B4000E093E201DF91CF910895EA01CE17DF072C
:100B5000E8F54A815B819E0141155105B1F7E90134
:100B6000FB83EA8349915991C40FD51FEC17FD0708
:100B700061F4808191810296840F951FE901998328
:100B80008883828193819B838A83F0E0E0E01296E0
:100B90008D919C9113970097B9F52D913C911197E8
:100BA000CD010296820F931F2091E2013091E30163
:100BB0002817390739F6309751F51092E501109250
:100BC000E401B093E301A093E201BCCFD383C283DD
:100BD00040815181840F951FC817D90761F44E5F7A
:100BE0005F4F88819981480F591F518340838A81C3
:100BF0009B81938382832115310509F0B0CFF09357
:100C0000E501E093E4019ECFFD01DC01C0CF13823A
:100C10001282D7CFB0E0A0E0E0E1F6E00C94AA04A5
:100C20008C01009751F4CB010E94E5048C01C801AE
:100C3000CDB7DEB7E0E10C94C604FC01E60FF71F68
:100C40009C0122503109E217F30708F49DC0D90135
:100C5000CD91DC911197C617D70798F0C530D10513
:100C600030F3CE0104978617970708F3C61BD70BFE
:100C70002297C193D1936D937C93CF010E948105FC
:100C8000D6CF5B01AC1ABD0A4C018C0E9D1EA09103
:100C9000E401B091E501512C412CF12CE12C10978D
:100CA00031F58091E2019091E3018815990509F0F1
:100CB0005CC04616570608F058C08091000190911C
:100CC0000101009741F48DB79EB740910401509106
:100CD0000501841B950BE817F90708F055C0F09340
:100CE000E301E093E201F90171836083A0CF8D916C
:100CF0009C91119712966C90129713967C90139773
:100D0000A815B90559F56C0142E0C40ED11CCA14EE
:100D1000DB0420F1AC014A195B09DA011296159740
:100D200080F06282738251834083D9016D937C93FA
:100D3000E114F10471F0D7011396FC93EE9312972E
:100D400076CF22968C0F9D1FF90191838083F3014A
:100D5000EFCFF093E501E093E40169CF481659061F
:100D600008F42C017D01D3019ACFCB010E94E50448
:100D70007C01009749F0AE01B8010E94C706C80186
:100D80000E948105870153CF10E000E050CFFB01A6
:100D9000DC0102C001900D9241505040D8F70895F7
:100DA000FB01DC018D91019080190110D9F3990BA1
:100DB0000895FB01DC0101900D920020E1F70895F8
:100DC000F894FFCF0000E601800000000000B301AE
:100DD000D3000001000271010F0163010D0A004FF1
:100DE0004E004C454420454E43454E4449444F0037
:100DF0004F4646004C4544204150414741444F0036
:107E0000112484B714BE81FFF0D085E080938100F7
:107E100082E08093C00088E18093C10086E0809377
:107E2000C20080E18093C4008EE0C9D0259A86E02C
:107E300020E33CEF91E0309385002093840096BBD3
:107E4000B09BFECF1D9AA8958150A9F7CC24DD24C4
:107E500088248394B5E0AB2EA1E19A2EF3E0BF2EE7
:107E6000A2D0813461F49FD0082FAFD0023811F036
:107E7000013811F484E001C083E08DD089C08234E0
:107E800011F484E103C0853419F485E0A6D080C0E4
:107E9000853579F488D0E82EFF2485D0082F10E0AE
:107EA000102F00270E291F29000F111F8ED06801E7
:107EB0006FC0863521F484E090D080E0DECF843638
:107EC00009F040C070D06FD0082F6DD080E0C81688
:107ED00080E7D80618F4F601B7BEE895C0E0D1E017
:107EE00062D089930C17E1F7F0E0CF16F0E7DF06D8
:107EF00018F0F601B7BEE89568D007B600FCFDCFD4
:107F0000A601A0E0B1E02C9130E011968C91119780
:107F100090E0982F8827822B932B1296FA010C0160
:107F200087BEE89511244E5F5F4FF1E0A038BF0790
:107F300051F7F601A7BEE89507B600FCFDCF97BE46
:107F4000E89526C08437B1F42ED02DD0F82E2BD052
:107F50003CD0F601EF2C8F010F5F1F4F84911BD097
:107F6000EA94F801C1F70894C11CD11CFA94CF0C13
:107F7000D11C0EC0853739F428D08EE10CD085E9AC
:107F80000AD08FE07ACF813511F488E018D01DD067
:107F900080E101D065CF982F8091C00085FFFCCF94
:107FA0009093C60008958091C00087FFFCCF809118
:107FB000C00084FD01C0A8958091C6000895E0E648
:107FC000F0E098E1908380830895EDDF803219F02E
:107FD00088E0F5DFFFCF84E1DECF1F93182FE3DFCA
:107FE0001150E9F7F2DF1F91089580E0E8DFEE27F6
:047FF000FF270994CA
:027FFE00040479
:00000001FF
