:100000000C9491000C94B9000C94B9000C94B900B4
:100010000C94B9000C94B9000C94B9000C94B9007C
:100020000C94B9000C94B9000C94B9000C94B9006C
:100030000C94B9000C94B9000C94B9000C94B9005C
:100040000C94B00E0C94B9000C947E0E0C94580EC7
:100050000C94B9000C94B9000C94B9000C94B9003C
:100060000C94FA0E0C94B9004E414E494E49545925
:10007000494E46CDCCCC3D0AD7233C17B7D1387773
:10008000CC2B329595E6241FB14F0A000020410089
:1000900000C84200401C4620BCBE4CCA1B0E5AAED3
:1000A000C59D74005EBCE2613FDD83C29C7E20A3DF
:1000B000FD1F41009D23BE46DB65F88C11AF32CA9F
:1000C00057E97400000000240027002A0000000007
:1000D0000800020100000304070000000000000007
:1000E0000000000000250028002B00000000002375
:1000F000002600290004040404040404040202028B
:100100000202020303030303030102040810204058
:10011000800102040810200102040810200076105B
:10012000801711241FBECFEFD8E0DEBFCDBF25E082
:10013000A2E7B3E001C01D92A035B207E1F713E0DA
:10014000A0E0B1E0EEE4FCE302C005900D92A2371E
:10015000B107D9F710E0C0E9D0E004C02197FE0153
:100160000E94EE1BCF38D107C9F70E941A110C94D8
:100170001A1E0C940000CF93DF93EC016885693759
:1001800001F129853A856150B9F070E08FEF98E769
:100190000E94A41BF9014C815D81CF01821B930B4E
:1001A0008417950760F44081469FC001479F900DDA
:1001B000112490833196EFCF70E060E0EBCF89E7B8
:1001C0008887DF91CF91089508950895AF92BF92E7
:1001D000CF92DF92EF92FF920F931F93CF93DF9313
:1001E0006C017B018B01040F151FEB015E01AE1842
:1001F000BF08C017D10759F06991D601ED91FC9164
:100200000190F081E02DC6010995892B79F7C50190
:10021000DF91CF911F910F91FF90EF90DF90CF90E2
:10022000BF90AF900895FC01538D448D252F30E091
:10023000842F90E0821B930B541710F0CF960895F3
:1002400001970895FC01918D828D981761F0A28D20
:10025000AE0FBF2FB11D5D968C91928D9F5F9F73E6
:10026000928F90E008958FEF9FEF0895FC01918D9C
:10027000828D981731F0828DE80FF11D858D90E009
:1002800008958FEF9FEF0895FC01918D228D892FA6
:1002900090E0805C9F4F821B91098F73992708958E
:1002A00084E494E00E94440121E0892B09F420E0D9
:1002B000822F089580E090E0892B29F00E94500160
:1002C00081110C9400000895FC01A48DA80FB92F92
:1002D000B11DA35ABF4F2C91848D90E001968F736E
:1002E0009927848FA689B7892C93A089B1898C918D
:1002F000837080648C93938D848D981306C00288DC
:10030000F389E02D80818F7D80830895EF92FF92A5
:100310000F931F93CF93DF93EC0181E0888F9B8D28
:100320008C8D98131AC0E889F989808185FF15C0E2
:100330009FB7F894EE89FF896083E889F989808105
:100340008370806480839FBF81E090E0DF91CF91D4
:100350001F910F91FF90EF900895F62E0B8D10E0F6
:100360000F5F1F4F0F731127E02E8C8D8E110CC065
:100370000FB607FCFACFE889F989808185FFF5CFB0
:10038000CE010E946401F1CFEB8DEC0FFD2FF11D2A
:10039000E35AFF4FF0829FB7F8940B8FEA89FB89ED
:1003A00080818062CFCFCF93DF93EC01888D88234B
:1003B000B9F0AA89BB89E889F9898C9185FD03C0C8
:1003C000808186FD0DC00FB607FCF7CF8C9185FFAD
:1003D000F2CF808185FFEDCFCE010E946401E9CF8D
:1003E000DF91CF910895833081F028F4813099F026
:1003F0008230A9F008958730A9F08830C9F08430A0
:10040000B1F4809180008F7D03C0809180008F7750
:1004100080938000089584B58F7784BD089584B556
:100420008F7DFBCF8091B0008F778093B0000895CF
:100430008091B0008F7DF9CF1F93CF93DF93282F4A
:1004400030E0F901E353FF4F8491F901E75FFE4F7C
:10045000D491F901EB50FF4FC491CC23A9F0162F92
:1004600081110E94F301EC2FF0E0EE0FFF1FEF511E
:10047000FF4FA591B4918FB7F894EC91111108C07A
:10048000D095DE23DC938FBFDF91CF911F9108952C
:10049000DE2BF8CFCF93DF9390E0FC01E75FFE4FB8
:1004A00024918B509F4FFC0184918823C9F090E0E8
:1004B000880F991FFC01ED53FF4FA591B491FC01EA
:1004C000EF51FF4FC591D49161110DC09FB7F894C2
:1004D0008C91209582238C938881282328839FBF29
:1004E000DF91CF910895623051F49FB7F8943C9119
:1004F000822F809583238C93E8812E2BEFCF8FB7AB
:10050000F894EC912E2B2C938FBFEACF3FB7F89441
:100510008091290490912A04A0912B04B0912C047D
:1005200026B5A89B05C02F3F19F00196A11DB11D4E
:100530003FBFBA2FA92F982F8827BC01CD01620F8A
:10054000711D811D911D42E0660F771F881F991F45
:100550004A95D1F708958F929F92AF92BF92CF9212
:10056000DF92EF92FF926B017C010E9486024B01A9
:100570005C01C114D104E104F104B9F00E948602C7
:10058000681979098A099B09683E734081059105BC
:1005900080F321E0C21AD108E108F10888EE880E44
:1005A00083E0981EA11CB11CE4CFFF90EF90DF9078
:1005B000CF90BF90AF909F908F9008952FB7F894F1
:1005C000609125047091260480912704909128045D
:1005D0002FBF08950F931F930E94DE0260934C0477
:1005E00070934D0480934E0490934F0484E494E000
:1005F0000E94220197FF1DC00E94DE0200914C0460
:1006000010914D0420914E0430914F04601B710BEA
:10061000820B930B009148041091490420914A04E5
:1006200030914B046017710782079307F8F28FEF40
:100630009FEF1F910F9108952091DA03260F332722
:10064000331F21323105ECF42091FE03FC0190E0D0
:1006500080E0243069F082E00895A091DA032191CE
:10066000AC0146545C4FA40FB52FB11D2C930196DD
:10067000861798F38091DA03680F6093DA0380E0BD
:10068000089581E008951092FE0381E080930004B4
:100690001092FF0361E082E10E941C0261E083E1AD
:1006A0000E941C02E9EBF0E080818E7F80838081D4
:1006B0008D7F808388E48093B80085E48093BC00BC
:1006C0000895CF93DF9391E09093B9038823B9F015
:1006D000C091B800D091BA008091BC008A7B809311
:1006E000BC0060E082E10E941C0260E083E10E94A5
:1006F0001C020E944303D093BA00C093B800DF915C
:10070000CF9108950895E091340480913304E8175F
:1007100030F4F0E0EC56FC4F808190E008958FEFCC
:100720009FEF089590913404809133042FEF3FEFB1
:10073000981748F4E92FF0E0EC56FC4F208130E0A8
:100740009F5F90933404C901089580913304909180
:100750003404891B990B0895CF92DF92EF92FF9298
:100760000F931F93CF93DF937C01CB018A012091DC
:100770009303222389F0EB016B01C40ED51ECC1527
:10078000DD0569F06991D701ED91FC910190F0814F
:10079000E02DC7010995F3CF642F0E941C03C80107
:1007A000DF91CF911F910F91FF90EF90DF90CF904D
:1007B0000895CF93DF931F92CDB7DEB76983209161
:1007C00093032223F9F020913104203258F021E0E4
:1007D00030E0FC013383228390E080E00F90DF91D2
:1007E000CF91089580913204E82FF0E0ED58FC4F4E
:1007F000998190838F5F809332048093310481E0EC
:1008000090E0ECCF61E0CE0101960E941C03F7CF8F
:10081000CF92DF92EF92FF920F931F93CF93DF93CC
:10082000D62F672FFC01C48181E080939303C0938E
:100830007203109232041092310481EE94E00E940F
:10084000D9036D2F81EE94E00E94D903D091310439
:10085000D13208F092C00E9486026B017C01809127
:10086000FE03811165C082E08093FE0381E08093E6
:1008700000048FEF8093FD0310922204D093210493
:10088000A3E7B3E0E1E0F4E080E0D81385C0109284
:10089000230480912304CC0FC82BC09323048091A0
:1008A000FF03813009F07CC01092FF030E94860292
:1008B0006B017C01809123048093BB008091B50380
:1008C0009091B603A091B703B091B803892B8A2BFE
:1008D0008B2B99F00E9486020091B5031091B6030C
:1008E0002091B7033091B8036C197D098E099F09D7
:1008F0000617170728073907E0F18091BC0083FD30
:10090000D9CF85EC8093BC000E9486026B017C01EC
:100910008091FE03823009F445C08091FD038F3F32
:1009200061F18091FD03803241F18091FD0325C08A
:100930008091B5039091B603A091B703B091B8032D
:10094000892B8A2B8B2B09F48ACF0E948602009177
:10095000B5031091B6032091B7033091B8036C1919
:100960007D098E099F09061717072807390708F020
:1009700076CF8091B4030E946103109232041092EA
:10098000310410929303DF91CF911F910F91FF904B
:10099000EF90DF90CF9008959D9191938F5F75CFE9
:1009A00085EEB0CF8091B5039091B603A091B703C7
:1009B000B091B803892B8A2B8B2B09F4A9CF0E9405
:1009C00086020091B5031091B6032091B7033091D0
:1009D000B8036C197D098E099F09061717072807A8
:1009E000390708F095CFC5CFCF93DF93CDB7DEB7EA
:1009F00028970FB6F894DEBF0FBECDBF98E0EDE2AA
:100A0000F1E0DE01119601900D929A95E1F7909137
:100A1000F504981708F48FEF90E0880F991F21E0F4
:100A200030E02C0F3D1F820F931FFC016081606836
:100A300070E08DEE94E028960FB6F894DEBF0FBEFE
:100A4000CDBFDF91CF910C94080461E070E08DEE92
:100A500094E00E9408048BE39FE10197F1F78091F5
:100A6000F604882319F080E00C94F404089570E0F3
:100A700070640E94080481E090E00895089590E079
:100A800080E008958F929F92AF92BF92CF92DF92B3
:100A9000EF92FF921F93CF93DF93FC014A01AA24A8
:100AA000BB24C82DC32ED42EE52EFF241C2DD22FFF
:100AB0008085882361F0889E40011124C92D8C9D7A
:100AC000600111241D2D829FD0011124DB2FA685EA
:100AD000E184F2849385A91322C0CB01880F991F6A
:100AE000680F791F6E0D7F1DA385A60FB72FB11D4F
:100AF000CC93A485A60FB72FB11D1C938585680FD5
:100B0000711DFB01D083DF91CF911F91FF90EF907A
:100B1000DF90CF90BF90AF909F908F900895660F19
:100B2000771F660F771F6E0D7F1D252F33274427F4
:100B30005527882349F090E0829F7001839FF00C35
:100B4000929FF00C11242F2DA60FB72FB11D2C93BF
:100B5000CBCFCF92DF92EF92FF920F931F93CF9361
:100B6000DF93CDB7DEB729970FB6F894DEBF0FBE7F
:100B7000CDBF8C01DC0119968D919C91892B09F4D4
:100B800073C00E948602F801C784D088E188F28889
:100B90006C157D058E059F0520F46787708B818B12
:100BA000928BF801C784D088E188F2886C197D099E
:100BB0008E099F096C3271408105910510F3F894FC
:100BC000D80114968D919C9115979A8389831996D3
:100BD000ED91FC917F01BFEFEB1AFB0A80818987C1
:100BE000F80190810388F489E02DD80155968C9105
:100BF000992309F448C09081982B9887908180951B
:100C000089238F838F818C8388E08B8358856F81C4
:100C100049853B812C8189819A81D701508347FD89
:100C2000252F3A952083262F39F0441F00C000005D
:100C30006083000000C0F2CF38E04D916083000077
:100C4000019761F7D8015496FC93EE935397498727
:100C50003B832C839A83898378940E948602F801CF
:100C60006787708B818B928B29960FB6F894DEBFC5
:100C70000FBECDBFDF91CF911F910F91FF90EF90ED
:100C8000DF90CF9008959081982B988790818095E0
:100C900089238F838F818E8388E08D8358856F8130
:100CA00049853D812E8189819A81D701508347FDF5
:100CB000252F00C000C0208300C000C000C000C0BD
:100CC00000C060830000262F3A9541F0441F0000C9
:100CD00000C000C000C000C000C0E8CF38E04D91A7
:100CE00000C0608300C0019709F7D8015496FC93B7
:100CF000EE93539749873D832E83ACCFCF93DF93F9
:100D0000EC018E819F8197FD0CC061E00E944A0238
:100D100060E08E810E941C0281E08983DF91CF9187
:100D20000895198280E0FACFDC0180E0615090F0F4
:100D30009D919827E92FEF70F0E0ED55FF4F24913A
:100D4000E92FE295EF70F0E0ED54FF4FE491822F30
:100D50008E27ECCF0895DC012C911196ED91FC913A
:100D6000F8948181822B81839281322F3095932355
:100D7000928387E090E00197F1F78181832381835B
:100D800083E290E00197F1F790817894EFECF0E046
:100D90003197F1F7922381E009F480E00895FC0196
:100DA00090810180F281E02D292F209560FF14C0F1
:100DB000F8948281822382838181892B8183A3E2BB
:100DC000B0E01197F1F78281982B9283789487EDA8
:100DD00090E00197F1F70895F8948281822382834D
:100DE0008181892B8183AFEFB0E01197F1F7828188
:100DF000982B928378948FE090E0EBCFDF92EF9284
:100E0000FF920F931F93CF93DF93EC01D62EE42E26
:100E100008E010E0FF24F39461E08D2D8F2109F4A8
:100E200060E0CE010E94CF06FF0C01501109A1F72E
:100E3000E11010C0F894E981FA8191818881809550
:100E400089238183E981FA81928188818095892330
:100E500082837894DF91CF911F910F91FF90EF9053
:100E6000DF900895EF92FF920F931F93CF93DF933C
:100E70008C017B0140E065E50E94FE06E70188E009
:100E8000E80EF11C699140E0C8010E94FE06CE15F3
:100E9000DF05C1F7DF91CF911F910F91FF90EF9088
:100EA0000895FC0190810180F281E02DF894818108
:100EB000292F20958223818378943DE743E050E0F9
:100EC000315029F1DA011197F1F780818923C1F3BB
:100ED000F8948281822382838181892B8183789413
:100EE000ABE7B7E01197F1F7F89481818223818312
:100EF000A3E1B1E01197F1F78081982381E009F037
:100F000080E07894E3E6F6E03197F1F7089580E029
:100F100008956F927F928F929F92AF92BF92CF92DD
:100F2000DF92EF92FF920F931F93CF93DF938C0189
:100F3000EB0180912E0590912F050E945107882387
:100F400009F43FC0B80180912E0590912F050E94B1
:100F5000320740E06EEB80912E0590912F050E94A4
:100F6000FE067E016E0189E0C80ED11C8E01A090A4
:100F70002E05B0902F0588E0882E912C712C6624C8
:100F80006394C5010E94AB0681117628660CE1E0EE
:100F90008E1A9108B1F7F80171928F01CE16DF0613
:100FA00031F780912E0590912F050E9451078130D5
:100FB00041F4F70181917F01811105C0E017F1072C
:100FC000C1F790E008C068E0CE010E94940691E06D
:100FD00028852813F6CF892FDF91CF911F910F918C
:100FE000FF90EF90DF90CF90BF90AF909F908F9049
:100FF0007F906F900895CF92DF92EF92FF920F93C0
:101000001F93CF93DF93CDB7DEB729970FB6F89430
:10101000DEBF0FBECDBF8C01BE016F5F7F4F0E9450
:101020008907811105C060E070E08EEF92EC4EC040
:101030008A81C12CD12C760187FF06C0C12CD12C0E
:10104000F8EFEF2EFF24FA94F801908149819B3349
:1010500009F04BC02D8127FF48C040FDE4CF042F8D
:1010600010E030E020E073E0000F111F221F331F5B
:101070007A95D1F7B901A801407E57706627772786
:1010800090E0B0E0A0E08C019D01EBE0000F111FAB
:10109000221F331FEA95D1F7042B152B262B372B54
:1010A0000C291D292E293F29013854EE15075FEF21
:1010B000250735070CF4B7CFC901B8010E941B19E9
:1010C00020E030E040E05CE30E947A1929960FB6F8
:1010D000F894DEBF0FBECDBFDF91CF911F910F916E
:1010E000FF90EF90DF90CF900895082F10E0102F21
:1010F0000027110F110F110FF8E04F9FA0011124CD
:10110000042B152B012E000C220B330B0C291D294F
:101110002E293F29903141F66885662329F270E037
:101120008F81AB01481B5109CA019695982F8827DA
:10113000979587950E94B81BCB01770FAA0BBB0B25
:1011400053E0000F111F221F331F5A95D1F700786B
:10115000277033270052110921093109800F911F8F
:10116000A21FB31F97018601082B192B2A2B3B2B9B
:101170009BCF0F931F93CF93DF93CDB7DEB7299704
:101180000FB6F894DEBF0FBECDBF8C01BE016F5FFE
:101190007F4F0E948907882361F08D81F80190813B
:1011A0009B3311F487FD0BC08F3359F020F48F313E
:1011B000A1F080E007C08F3591F08F37D1F78CE038
:1011C00001C08AE029960FB6F894DEBF0FBECDBFEE
:1011D000DF91CF911F910F91089589E0F3CF8BE0BC
:1011E000F1CFBF92CF92DF92EF92FF920F931F93B6
:1011F000CF93DF93EC01B62EC72E8D85811105C0EC
:10120000CE010E94510781110EC01B861D861C86CF
:1012100080E0DF91CF911F910F91FF90EF90DF90D1
:10122000CF90BF90089540E060EFCE010E94FE068F
:1012300001E0E12CD12C11E0CE010E94AB06F82E8A
:10124000CE010E94AB0691E0F91218C0813099F5E9
:101250001134D8F2DB86D11002C081E08D878B81FA
:10126000882399F22396EB2DFC2DCF010896299126
:101270002193E817F907D9F781E0CBCFEE2DF0E005
:10128000F8120FC08B851817A0F4DE01AE0FBF1F38
:1012900013968C91802379F4F12C193008F41C8773
:1012A000D12EEC0FFD1F8381902F9095892383838E
:1012B0000AC08113F1CFFE01EE0DF11D8381802B59
:1012C0008383FF24F3946F2DCE010E94CF061F5F0E
:1012D000000F11F4E39401E087E08E1508F0ACCF25
:1012E000B7CF0F931F93CF93DF93CDB7DEB7299777
:1012F0000FB6F894DEBF0FBECDBF8C01FC0180811C
:10130000803109F46CC0BE016F5F7F4FC8010E943D
:101310008907882309F4C3C08D818F3709F45FC022
:101320008FE78D8380912E0590912F050E945107A4
:10133000B80180912E0590912F050E94320740E060
:101340006EE480912E0590912F050E94FE0640E0EC
:101350006B8180912E0590912F050E94FE0640E042
:101360006C8180912E0590912F050E94FE06F80158
:101370008081803141F040E06D8180912E05909117
:101380002F050E94FE0680912E0590912F05209139
:101390002B05222311F10E945107882301F1B80186
:1013A00080912E0590912F050E94320740912505CE
:1013B00068E480912E0590912F050E94FE06809191
:1013C000250581114FC064E170E080E090E00E944B
:1013D000AB0280912E0590912F050E9451078CE061
:1013E0008093280580912C05823008F457C0E09145
:1013F0002E05F0912F051386158614861286118608
:1014000010861782168215821482138210E0809152
:101410002C05181708F042C0809128058C30F1F196
:10142000BE016F5F7F4F80912E0590912F050E9426
:10143000F1088823A9F067E0CE0101960E94940686
:10144000988589130DC08981803131F1CE010196D3
:101450000E94B90890912805981710F480932805E8
:101460001F5FD5CF80912605882329F060E0809109
:1014700027050E941C0264E170E080E090E00E9479
:10148000AB0280912605882309F4A3CF61E0809107
:1014900027050E941C029DCF8CE0DCCF81E02996BD
:1014A0000FB6F894DEBF0FBECDBFDF91CF911F9175
:1014B0000F910895CF93DF93EC0188819981009774
:1014C00011F00E94901C198218821D821C821B82BE
:1014D0001A82DF91CF910895FC018081918100975C
:1014E00011F00C94901C0895FC0101900020E9F784
:1014F0003197AF01481B590BBC0184E494E00C9474
:10150000E6008F929F92AF92BF920F931F93CF935B
:10151000DF93CDB7DEB7A1970FB6F894DEBF0FBE4D
:10152000CDBF19A2423008F44AE08E010F5D1F4F73
:10153000842E912CB12CA12CA50194010E94CC1BCE
:10154000E62FB901CA01EA30F4F4E05DD801EE9368
:101550008D01232B242B252B79F790E080E0109729
:1015600019F0CD010E94740AA1960FB6F894DEBF5F
:101570000FBECDBFDF91CF911F910F91BF90AF9064
:101580009F908F900895E95CE1CF0C94740ACF93FB
:10159000DF930E94740AEC018BE691E00E94740ACA
:1015A0008C0F9D1FDF91CF9108954F925F926F92A4
:1015B0007F928F929F92AF92BF92CF92DF92EF92E3
:1015C000FF920F931F93CF936B017C01742EAC019C
:1015D0009B010E949F1B882399F08EE691E0CF919A
:1015E0001F910F91FF90EF90DF90CF90BF90AF9041
:1015F0009F908F907F906F905F904F900C94740AA3
:1016000046015701E894B7F82FEF3FEF4FE75FE748
:10161000C501B4010E949F1B81110DC02FEF3FEF48
:101620004FE75FE7C501B4010E94141918161CF4B6
:1016300082E791E0D4CF2FEF3FEF4FE75FE4C701A0
:10164000B6010E949A1B18161CF486E791E0C7CFDA
:101650002FEF3FEF4FE75FECC701B6010E9414196F
:1016600087FDF3CF20E030E0A901C701B6010E9459
:10167000141910E000E087FF0AC06DE284E494E0F2
:101680000E9486018C01F7FAF094F7F8F094C0E01C
:1016900060E070E080E09FE37C1641F020E030E005
:1016A00040E251E40E94F91ACF5FF6CFA7019601FC
:1016B0000E948D1A2B013C010E946B1B4B015C01A7
:1016C0004AE00E94810A7C01E00EF11ECC23C1F1A8
:1016D000C501B4010E9419199B01AC01C301B201FB
:1016E0000E948C1A4B015C016EE284E494E00E943B
:1016F0008601E80EF91EC15018F120E030E040E20A
:1017000051E4C501B4010E947A192B013C010E94E9
:101710006B1B4B01B12CA12C4AE0C501B4010E9406
:10172000810AE80EF91EC501B4010E9419199B0136
:10173000AC01C301B2010E948C1A4B015C01DBCFEA
:10174000C701CF911F910F91FF90EF90DF90CF9045
:10175000BF90AF909F908F907F906F905F904F90D1
:101760000895CF93DF9342E00E94D50AEC018BE607
:1017700091E00E94740A8C0F9D1FDF91CF91089514
:101780004F925F926F927F928F929F92AF92BF9291
:10179000CF92DF92EF92FF920F931F93CF93DF933D
:1017A000CDB7DEB72C970FB6F894DEBF0FBECDBF16
:1017B00080912E0590912F050E94510740E06CEC1E
:1017C00080912E0590912F050E94FE0640912505DF
:1017D00064E480912E0590912F050E94FE060E94E0
:1017E000DE026B017C01809129058823E1F0809164
:1017F0002A05882309F49FC08091250581119BC08B
:1018000080912E0590912F050E94AB06813059F0F2
:101810000E94DE026C197D098E099F096E3E72409E
:101820008105910568F380E191E00E94FB072B019F
:101830003C0188E091E00E94FB074B015C0180E0E5
:1018400091E00E94FB076B017C018AE791E00E9416
:10185000C70A80EA91E00E94C50A42E0C301B201D2
:101860000E94D50A8BEA91E00E94C70A8EEA91E0B5
:101870000E94C50A42E0C501B4010E94D50A8BEA64
:1018800091E00E94C70A89EB91E00E94C50A42E0FC
:10189000C701B6010E94D50A8BEA91E00E94C70AEF
:1018A00049825A826B827C828D829E82AF82B88608
:1018B000C986DA86EB86FC86CE0101967C0110E0B3
:1018C00000E0F70181909190A190B1907F0120916B
:1018D0002201309123014091240150912501C5013D
:1018E000B4010E94141987FD4FC020911A01309154
:1018F0001B0140911C0150911D01C501B4010E94C2
:101900009A1B18160CF440C020911E0130911F0143
:101910004091200150912101C501B4010E94141988
:1019200020E035EA4FEF50E0181694F120E03FEF49
:1019300040E050E02DC0E0912805E9508EEE92E0A5
:10194000E33038F4F0E0EE0FFF1FEB5CFE4F8081D8
:1019500091816C01F12CE12C80912605882329F0DE
:1019600060E0809127050E941C02C701B6010E9419
:10197000AB0280912605882309F455CF61E0809160
:1019800027050E941C024FCF20E030E04FEF50E0CF
:101990008091FB049091FC040817190728F4B80102
:1019A00089EF94E00E9442050F5F1F4F033011053D
:1019B00009F087CF89EF94E02C960FB6F894DEBF3C
:1019C0000FBECDBFDF91CF911F910F91FF90EF9090
:1019D000DF90CF90BF90AF909F908F907F906F904F
:1019E0005F904F900C94A905CF93DF93FC01448145
:1019F00055816081718184E494E00E94E600EC01ED
:101A00008BE691E00E94740A8C0F9D1FDF91CF91AD
:101A10000895FB0144815581FC01248135812417FF
:101A2000350778F080819181009759F0FB01608142
:101A300071816115710529F00E94011E21E0892B39
:101A400009F020E0822F0895FC0124813581232BA9
:101A500039F421E0FB018081882349F020E007C0B0
:101A6000808191810E94F11D21E0892BB9F7822F9D
:101A700008950F931F93CF93DF93EC018881998191
:101A8000009759F02A813B812617370730F081E013
:101A9000DF91CF911F910F9108958B016F5F7F4F61
:101AA0000E94191D009759F0998388831B830A832C
:101AB0002C813D81232B59F7FC011082E8CF80E077
:101AC000E7CFEF92FF920F931F93CF93DF936115B0
:101AD000710541F480E0DF91CF911F910F91FF904C
:101AE000EF90089541155105B1F07B01EC010C8197
:101AF0001D81040F151FB8010E94390D882351F371
:101B0000288139818C819D81B701820F931F0E94AA
:101B1000FA1D1D830C8381E0DECFEF92FF920F93BD
:101B20001F93CF93DF93EC017B01198218821B82F4
:101B30001A821D821C82FB0101900020E9F7319777
:101B40008F01061B170BB8010E94390D811109C0C6
:101B5000CE01DF91CF911F910F91FF90EF900C94E8
:101B60005A0A1D830C83B70188819981DF91CF9137
:101B70001F910F91FF90EF900C94FA1D9F92AF92DE
:101B8000BF92CF92DF92EF92FF920F931F93CF936A
:101B9000DF937C016B015A0189012417350720F47A
:101BA0008B2D5901042F182F6DE671E0C7010E949B
:101BB0008D0DD6011496CD91DC91AC16BD0650F575
:101BC0000C171D0708F4E801D601ED91FC9111975F
:101BD000EC0FFD1F908010820D911C910A0D1B1DB2
:101BE0000115110571F0F80101900020E9F7319716
:101BF0005F01A01AB10AB501C7010E94390D811118
:101C000016C0C7010E945A0AD6018D919C91C80F37
:101C1000D91F9882C701DF91CF911F910F91FF903B
:101C2000EF90DF90CF90BF90AF909F900895F70115
:101C3000B582A482B801808191810E94FA1DE4CF0F
:101C400085ED8093BC008091B5039091B603A0917F
:101C5000B703B091B8030796A11DB11D23E0B69557
:101C6000A795979587952A95D1F72091BC0024FDDB
:101C700003C01092FE0308954091B5035091B6033E
:101C80006091B7037091B803452B462B472B69F33E
:101C90000097A105B10541F025E32A95F1F7000071
:101CA0000197A109B109E1CF8091B4030C946103BC
:101CB0001F920F920FB60F9211242F933F934F93C1
:101CC0005F936F937F938F939F93AF93BF93EF93A4
:101CD000FF9384E494E00E946401FF91EF91BF912F
:101CE000AF919F918F917F916F915F914F913F91B4
:101CF0002F910F900FBE0F901F9018951F920F926B
:101D00000FB60F9211242F938F939F93EF93FF930E
:101D1000E0915404F09155048081E0915A04F091CF
:101D20005B0482FD1BC0908180915D048F5F8F7387
:101D300020915E04821741F0E0915D04F0E0EC5BDD
:101D4000FB4F958F80935D04FF91EF919F918F9151
:101D50002F910F900FBE0F901F9018958081F4CF98
:101D60001F920F920FB60F9211242F933F938F93D0
:101D70009F93AF93BF938091250490912604A091E7
:101D80002704B09128043091240423E0230F2D3739
:101D900058F50196A11DB11D2093240480932504BC
:101DA00090932604A0932704B093280480912904DB
:101DB00090912A04A0912B04B0912C040196A11DAE
:101DC000B11D8093290490932A04A0932B04B0930F
:101DD0002C04BF91AF919F918F913F912F910F90C4
:101DE0000FBE0F901F90189526E8230F0296A11D95
:101DF000B11DD2CF1F920F920FB60F9211242F93C5
:101E00003F934F935F936F937F938F939F93AF9382
:101E1000BF93EF93FF938091B900887F803609F4D8
:101E20004AC0F0F5883209F4A7C018F5803109F4EA
:101E30009BC0B8F4882309F4F9C0883009F494C031
:101E4000FF91EF91BF91AF919F918F917F916F9192
:101E50005F914F913F912F910F900FBE0F901F9068
:101E60001895883109F488C0803251F78093FD03BA
:101E700014C0803409F49DC040F48033B9F3883332
:101E8000F9F68093FD0385ECB0C0803509F485C078
:101E9000883509F496C0883499F60E94200ED0CF78
:101EA000883909F48CC038F5883729F050F4883621
:101EB00011F0803729F683E08093FE031092FC0333
:101EC00057C0883809F47BC0803919F0803809F090
:101ED000B7CF8091FC03803208F071C0E091FC0321
:101EE00081E08E0F8093FC038091BB00F0E0E45210
:101EF000FC4F80833DC0803B39F0E0F4803A09F428
:101F000079C0883A09F09CCF84E08093FE03109258
:101F1000DB031092DA03E0912F04F091300409956D
:101F20008091DA0381110FC081E08093DA0310926F
:101F3000BA0309C0803C09F4A6CF883C09F4A3CFBA
:101F4000883B09F07DCFE091DB0381E08E0F809329
:101F5000DB03F0E0E654FC4F80818093BB0090915E
:101F6000DB038091DA0329C0809123048093BB00B6
:101F700085EC8093BC0064CF909122048091210471
:101F8000981758F5E091220481E08E0F8093220487
:101F9000F0E0EF5FFB4F8081E9CFE091220481E028
:101FA0008E0F809322048091BB00F0E0EF5FFB4F27
:101FB000808390912204809121049817C8F285E8CB
:101FC000D8CFE091220481E08E0F8093220480918B
:101FD000BB00F0E0EF5FFB4F808380910004811134
:101FE0005CCF81E08093FF0384EA8093BC00109271
:101FF000FE0326CF85EC8093BC001092FE038091F7
:10200000FC03803230F4E091FC03F0E0E452FC4F3A
:1020100010826091FC0370E0E0912D04F0912E0499
:102020008CED93E009951092FC030ACF1092FD030A
:1020300034CFCF92DF92EF92FF920F931F93CF9303
:10204000DF93EC016B01F42EE52E198218861F86B2
:10205000188A198A1A8A81E08E878B871C8692E0FB
:102060009D8788838B01000F111F060F171F1D838B
:102070000C83C8010E94F41B9A878987009789F115
:10208000A80170E060E00E94DF1DDB82CA82FE8250
:10209000EF828981882341F061E08F2D0E944A02FE
:1020A00060E08F2D0E941C028F2D9E2DFC01EB50B5
:1020B000FF4FE491F0E0EE0FFF1FEF51FF4F25912E
:1020C00034913C8B2B8BFC01E75FFE4FE491ED8B51
:1020D000DF91CF911F910F91FF90EF90DF90CF9004
:1020E00008951D821C821B821A82D1CFE4E4F4E0A1
:1020F0001382128288EE93E0A0E0B0E0848395839F
:10210000A683B7832FE331E03183208325EC30E0D1
:102110003587248724EC30E03787268720EC30E0B1
:10212000318B208B21EC30E0338B228B22EC30E0A2
:10213000358B248B26EC30E0378B268B118E128E5C
:10214000138E148EE1EEF4E0138212828483958361
:10215000A683B78381E591E09183808360E087E087
:102160000E944A02E0E1F1E0E491ACE3B5E0EC93D7
:10217000ECEFF0E0E491F0E0EE0FFF1FE551FF4FD0
:102180008591949112969C938E9311971B961C9215
:102190001B971D961C921D971C961C921C971A96B5
:1021A0001C921A9719961C92199718961C921897B8
:1021B00017961C92179716961C92169715961C92B6
:1021C000159714961C92149713961C921397E5E298
:1021D000F5E017821086108289E0838381E0848392
:1021E000858386831182168A158A8FEF838B148AE2
:1021F000B287A1874AE050E062E070E08FE095E0AE
:102200000E94191045E050E063E070E089EF94E02F
:102210000E941910EDEEF4E01382128283E691E041
:102220009183808311868EE3848380E1828782E0BC
:1022300083870895CF93DF93CDB7DEB764970FB64A
:10224000F894DEBF0FBECDBF789484B5826084BDA4
:1022500084B5816084BD85B5826085BD85B58160AA
:1022600085BD80916E00816080936E001092810028
:1022700080918100826080938100809181008160E3
:1022800080938100809180008160809380008091A4
:10229000B10084608093B1008091B0008160809330
:1022A000B00080917A00846080937A0080917A00F7
:1022B000826080937A0080917A00816080937A00B6
:1022C00080917A00806880937A001092C10061E06A
:1022D00088E00E944A0261E089E00E944A0261E0CF
:1022E0008CE00E944A0262E082E00E944A02E09191
:1022F0005404F091550482E08083E0915004F09101
:1023000051041082E0915204F09153048FEC8083C9
:1023100010925C04E0915804F091590486E08083A7
:10232000E0915604F0915704808180618083E091B0
:102330005604F0915704808188608083E0915604B0
:10234000F0915704808180688083E0915604F09179
:10235000570480818F7D808310923404109233045F
:1023600010923204109231040E94430384EE90E0F4
:102370009093300480932F0485EE90E090932E0488
:1023800080932D0480E18093F2048091F8048230E0
:1023900018F098E19093F2048093F5048BE39DE0AC
:1023A0000197F1F76091F204606270E08DEE94E0C5
:1023B0000E9408048BE496E40197F1F76091F2041F
:1023C000606270E08DEE94E00E94080483E592E084
:1023D0000197F1F76091F204606270E08DEE94E095
:1023E0000E9408046091F204606270E08DEE94E057
:1023F0000E94080484E08093F3046CE070E08DEEAA
:1024000094E00E9408040E94250582E08093F40471
:1024100066E070E08DEE94E00E94080462E070E0F7
:102420008DEE94E00E9408048BE39FE10197F1F7A1
:102430008FE095E00E947E068FE095E00E94A9055E
:102440008FE095E00E94BB0089EF94E00E947E0639
:1024500089EF94E00E94A90589EF94E00E94BB00F7
:1024600013E001E0E0912E05F0912F05138615860B
:10247000148612861186108617821682158214829F
:10248000138210922C0510922D0562E370E080E01B
:1024900090E00E94AB02BE016F5F7F4F80912E05DE
:1024A00090912F050E94F108882309F45FC067E02E
:1024B000CE0101960E94940698858913ECCF8091F5
:1024C0002C058F5F80932C058981883231F008F0CC
:1024D00044C0803111F08232F1F680912D058F5F7A
:1024E00080932D0580912505811128C080912E05AE
:1024F00090912F050E945107BE016F5F7F4F809121
:102500002E0590912F050E94320740E064EB8091E8
:102510002E0590912F050E94FE0680912E05909128
:102520002F050E94AB06F82E80912E0590912F0565
:102530000E945107F11002C0009325058981803166
:1025400099F0CE0101960E94B9089091280598173C
:1025500008F0A1CF809328059ECF8B3309F4BDCF1F
:10256000823409F098CFB9CF8CE0EFCF80912C0561
:10257000811103C0115009F075CF80E191E00E94F4
:10258000710988E091E00E94710980E091E00E9469
:10259000710985EF91E00E94C50A60912201709156
:1025A0002301809124019091250142E00E94D50AE7
:1025B0008FEF91E00E94C50A60911E0170911F018A
:1025C000809120019091210142E00E94D50A8FEF75
:1025D00091E00E94C50A60911A0170911B018091DF
:1025E0001C0190911D010E94B10B61E08CE00E94E2
:1025F0001C028CE692E00E94C70AEFECF0E08491A6
:10260000EBE0F1E00491E7EFF0E0149111112FC03D
:102610008091180190911901019709F43AC090E056
:1026200080E0909319018093180184E494E00E9463
:102630004401181619060CF0B3C06DE671E0CE0126
:102640000F960E948D0D0E94EA0297FD4FC08A30BE
:10265000910509F44BC089831A8241E050E0BE0124
:102660006F5F7F4FCE010F960E94610DECCF8111FD
:102670000E94F301E12FF0E0EE0FFF1FE551FF4F45
:10268000A591B491EC91E02309F4C2CF81E090E0F0
:10269000C8CF62E370E080E090E00E94AB0210914E
:1026A000260181E018271093260160E088E00E944F
:1026B0001C0260E089E00E941C0260E08CE00E9445
:1026C0001C028DE192E0112371F081E092E00E9402
:1026D000C70A10923A041092390461E08CE00E941B
:1026E0001C028CE692E00E94C70A99CFCF84D8885A
:1026F000C114D10439F00B891C897601011511052B
:1027000009F0C1C06BE372E0CE0101960E948D0D0D
:102710004B895C896F857889CE0101960E94610D95
:10272000811104C0CE0101960E945A0A41E050E096
:102730006DE472E0CE0101960E94610D811104C02A
:10274000CE0101960E945A0ACE0101960E94F40C15
:10275000CE0101960E946C0A6FE472E0CE010F96E2
:102760000E94240D882309F4C4C081E080932601CF
:1027700010923A041092390460E088E00E941C0232
:1027800060E089E00E941C0261E08CE00E941C0273
:1027900087E592E00E94C70ACE010F960E946C0A5C
:1027A00080912601882309F470C30E94DE02009103
:1027B0003B0410913C0420913D0430913E04601B89
:1027C000710B820B930B683E73408105910560F09D
:1027D0000E94C00B0E94DE0260933B0470933C0495
:1027E00080933D0490933E040E94DE026B017C01C5
:1027F0008091390490913A048130910509F4F9C22D
:102800008230910509F41AC3892B79F5809135043A
:1028100090913604A0913704B0913804A701960135
:10282000281B390B4A0B5B0BDA01C901883893412D
:10283000A105B105D0F060E08CE00E941C0261E0CF
:1028400088E00E941C028DE593E00E94C70A81E0A7
:1028500090E090933A0480933904C0923504D0926A
:102860003604E0923704F092380480E090E0892B3F
:1028700009F4C3CE0E945001882309F4BECE0E9401
:102880000000BBCE750157012FEFA21AB20AF70163
:102890008081082E000C990B0E94F318892B91F768
:1028A000015011090C0D1D1DF8018081082E000C2E
:1028B000990B0E94F318892B31F00E151F0518F0A3
:1028C00001501109F1CFA8014F5F5F4F4E195F0909
:1028D0005C8B4B8BCE14DF0420F4B701C6010E9441
:1028E000D61DEF85F8898B899C89E80FF91F108226
:1028F00009CF66E772E0CE010F960E94240D88236F
:1029000089F01092260160E088E00E941C0260E0DD
:1029100089E00E941C0260E08CE00E941C028DE7AE
:1029200092E038CF63EA72E0CE0101960E948D0DED
:10293000BE016F5F7F4FCE010F960E94090D182FC9
:10294000CE0101960E946C0A112309F448C02B891C
:102950003C8944E050E0BE01615F7F4FCE010996A3
:102960000E94BE0D0E94250580E00E94F40420E133
:1029700030E050E040E0BE01675F7F4FCE0101963E
:102980000E94BE0D4D815E8169817A818DEE94E059
:102990000E94E600CE0101960E946C0A8D859E85FC
:1029A0004197D0F081E00E94F40420E230E040E161
:1029B00050E0BE01675F7F4FCE0101960E94BE0DC1
:1029C0004D815E8169817A818DEE94E00E94E600FE
:1029D000CE0101960E946C0ACE010996D2C068EA27
:1029E00072E0CE0101960E948D0DBE016F5F7F4F98
:1029F000CE010F960E94090D182FCE0101960E945C
:102A00006C0A112309F4C0C02B893C8943E050E0D3
:102A1000BE01615F7F4FCE0101960E94BE0D6CEA40
:102A200072E0CE0101960E94240DC12CD12C7601BA
:102A3000DA94811177C062EB72E0CE0101960E94B8
:102A4000240DC12CD12C7601EA9481116BC067EB67
:102A500072E0CE0101960E94240DC12CD12C76018A
:102A6000CA9481115FC06CEB72E0CE0101960E94A6
:102A7000240DC12C75EAD72EEE24EA94F12C811195
:102A800051C064EC72E0CE0101960E94240DC12C6D
:102A9000DD24DA94ED2CF12C811144C06DEC72E050
:102AA000CE0101960E94240DCC24CA94DC2CE12C8A
:102AB000F12C811137C065ED72E0CE0101960E94C4
:102AC000240D40E8C42ED12C760181112BC06DED70
:102AD00072E0CE0101960E94240D3BECC32E30EC37
:102AE000D32EEE24EA94F12C81111CC062EE72E028
:102AF000CE0101960E94240DCC24CA94DC2CEC2C2F
:102B0000F12C81110FC069EE72E0CE0101960E9496
:102B1000240DC12CD12C7601882321F0CC24CA9419
:102B2000D12C76018091110590911205892B41F0ED
:102B3000A701960170E060E08FE095E00E944205F9
:102B40008091110590911205029740F0A70196011E
:102B500061E070E08FE095E00E9442058FE095E033
:102B60000E94A90581EF92E00E94C50A40E1C701D9
:102B7000B6010E94810A8BE691E00E94740ACE01A0
:102B800001960E946C0A08CE60E073E0CE010196C7
:102B90000E948D0DBE016F5F7F4FCE010F960E9488
:102BA000090D182FCE0101960E946C0A112309F419
:102BB00003C12B893C8947E050E0BE01615F7F4F34
:102BC000CE0109960E94BE0DCD84DE84C114D104CD
:102BD00009F402CFE984FA846CE270E0C7010E9434
:102BE000E61D8C010E191F09892B11F40FEF1FEF41
:102BF000F701EC0DFD1DB0801082E984FA846CE2CF
:102C000070E0C7010E940F1ECE0CDF1CF601B082DF
:102C1000009721F4EE24EA94FE2C05C029853A851C
:102C20007C01E21AF30A101611060CF0D5CE0E152F
:102C30001F050CF0D1CE980150E040E0BE01675F67
:102C40007F4FCE0101960E94BE0D89819A81412C51
:102C5000512C3201009721F00E949F172B013C015B
:102C6000CE0101960E946C0AA8014F5F5F4F970149
:102C7000BE01675F7F4FCE0101960E94BE0D898124
:102C80009A81812C912C5401009721F00E949F176A
:102C90004B015C01CE0101960E946C0A2D853E8598
:102CA000A7014F5F5F4FBE01675F7F4FCE01019667
:102CB0000E94BE0D89819A81C12CD12C760100978A
:102CC00021F00E949F176B017C01CE0101960E94AA
:102CD0006C0A40922201509223016092240170926A
:102CE000250180921E0190921F01A0922001B092B6
:102CF0002101C0921A01D0921B01E0921C01F092B6
:102D00001D0188E093E00E94C50A60912201709144
:102D10002301809124019091250142E00E94D50A6F
:102D20008AE293E00E94C50A60911E0170911F0122
:102D3000809120019091210142E00E94D50A8BE30D
:102D400093E00E94C50A60911A0170911B01809165
:102D50001C0190911D010E94B10B85EF91E00E9432
:102D6000C50A609122017091230180912401909104
:102D7000250142E00E94D50A8FEF91E00E94C50A2A
:102D800060911E0170911F0180912001909121019D
:102D900042E00E94D50A8FEF91E00E94C50A60913F
:102DA0001A0170911B0180911C0190911D010E94DC
:102DB000B10B0E94C00B10CE67E473E0CE01019608
:102DC0000E948D0D4B895C896F857889CE010196B3
:102DD0000E94610D811104C0CE0101960E945A0A21
:102DE000CE0101960E94F40CCE0101960E946C0A5D
:102DF000D3CC8091350490913604A0913704B091E2
:102E00003804A7019601281B390B4A0B5B0BDA012A
:102E1000C901883B9B40A105B10508F426CD60E0BF
:102E200088E00E941C0261E089E00E941C0287E6A3
:102E300093E00E94C70A82E090E00BCD80913504B8
:102E400090913604A0913704B0913804A7019601FF
:102E5000281B390B4A0B5B0BDA01C901883E9340F2
:102E6000A105B10508F401CD60E089E00E941C02D3
:102E700061E08CE00E941C028CE692E00E94C70A8E
:102E800010923A0410923904E8CC0E94DE020091BC
:102E900040041091410420914204309143046B019D
:102EA0007C01C01AD10AE20AF30A97018601043FA5
:102EB00011402105310508F4D8CC6093400470938B
:102EC0004104809342049093430410913F0481E0B5
:102ED000182710933F04612F88E00E941C02612F85
:102EE00089E00E941C02612F8CE00E941C028CED84
:102EF00091E0112311F084EC91E00E94C70AB5CC57
:102F000080910205909103050E94901C8091FF041E
:102F10009091000597FD03C060E00E944A028091F5
:102F20001805909119050E94901C809115059091AB
:102F3000160597FD03C060E00C944A0208956627C9
:102F400077270C94A317B0E0A0E0E9EAF7E10C942E
:102F50004C1A5C017B016115710519F0DB018D9341
:102F60009C9385010F5F1F4FF501D0818D2F90E05D
:102F70000E94F3186C01892BB9F5DD32B9F50F5FAA
:102F80001F4FD5011196DC91C1E05801F1E0AF1A55
:102F9000B10843E050E060E770E0C5010E94FC1812
:102FA000892B69F5680182E0C80ED11C45E050E02C
:102FB0006BE670E0C6010E94FC18892B21F46801C1
:102FC00097E0C90ED11CE114F10419F0D701CD929C
:102FD000DC9260E070E080E89FEFC111FFC060E02C
:102FE00070E080E89FE7FAC05801BBCFDB3229F4DC
:102FF00085010E5F1F4FF501D181C0E0C6CF43E0D0
:1030000050E068E670E0C5010E94FC18892BE9F0E9
:10301000F80110E000E020E030E0A9015F01B0ED30
:103020008B2E8D0E89E08815C8F19C2E689491F83E
:103030008C2F8870C2FF16C0811102C00F5F1F4F16
:103040003196D501DC91C92DE9CFE114F10429F0C5
:103050000E5F1F4FF7011183008360E070E080EC8A
:103060009FE7BCC0882311F001501109A5E0B0E032
:103070000E943B1A9B01AC01220F331F441F551FB6
:10308000280D311D411D511D283999E9390749077E
:1030900099E15907A8F2C6609C2ED2CFAEEF8A12F2
:1030A00006C0C3FD3CC09C2E689493F8C9CFDF7D59
:1030B000D534A9F580818D3239F4C061DF011296D3
:1030C000818162E070E006C0DF018B32C1F31196AE
:1030D00061E070E080535D01A61AB70A8A30F8F407
:1030E000E0E8CE16ECE0DE065CF4B601660F771F72
:1030F000660F771FC60ED71ECC0CDD1CC80ED11C68
:103100005D01FFEFAF1ABF0A8C9180538A30A8F19E
:10311000C4FF03C0D194C194D1080C0D1D1DC1FF83
:1031200009C0E114F10431F081E0A81AB108D70117
:10313000AD92BC92CA01B9010E941919C370C33083
:1031400009F490584B015C0120E030E0A9010E9495
:103150001419882309F440C0CFE9D0E017FF05C057
:10316000119501951109C7E8D0E06E01B8E1CB1ABD
:10317000D10880E2E82EF12C0FC0D501B1CFFE01BD
:1031800025913591459154910E191F09C501B4013E
:103190000E947A194B015C01D501C4010E151F056F
:1031A00074F72497F594E794CC16DD06A9F78A2FD7
:1031B000880F8B2F881F8F3F49F020E030E0A90156
:1031C000C501B4010E941419811106C082E290E089
:1031D00090934B0580934A05C501B401CDB7DEB786
:1031E000ECE00C94681A91110C94E719803219F0F4
:1031F00089508550C8F70895FB01DC0141505040CB
:1032000088F08D9181341CF08B350CF4805E6591D3
:1032100061341CF06B350CF4605E861B611171F338
:10322000990B0895881BFCCF0E94561908F481E081
:103230000895E89409C097FB3EF4909580957095A9
:1032400061957F4F8F4F9F4F9923A9F0F92F96E9F2
:10325000BB279395F695879577956795B795F11167
:10326000F8CFFAF4BB0F11F460FF1BC06F5F7F4F04
:103270008F4F9F4F16C0882311F096E911C0772316
:1032800021F09EE8872F762F05C0662371F096E81F
:10329000862F70E060E02AF09A95660F771F881FEE
:1032A000DAF7880F9695879597F90895990F000892
:1032B000550FAA0BE0E8FEEF16161706E807F90708
:1032C000C0F012161306E407F50798F0621B730BA3
:1032D000840B950B39F40A2661F0232B242B252B24
:1032E00021F408950A2609F4A140A6958FEF811DC7
:1032F000811D08950E948D190C94011A0E94F319E2
:1033000038F00E94FA1920F0952311F00C94EA1974
:103310000C94F01911240C94351A0E94121A70F3AF
:10332000959FC1F3950F50E0551F629FF001729F6A
:10333000BB27F00DB11D639FAA27F00DB11DAA1F79
:10334000649F6627B00DA11D661F829F2227B00DC6
:10335000A11D621F739FB00DA11D621F839FA00D51
:10336000611D221F749F3327A00D611D231F849FA1
:10337000600D211D822F762F6A2F11249F575040F8
:103380009AF0F1F088234AF0EE0FFF1FBB1F661F73
:10339000771F881F91505040A9F79E3F510580F03C
:1033A0000C94EA190C94351A5F3FE4F3983ED4F379
:1033B000869577956795B795F795E7959F5FC1F7E0
:1033C000FE2B880F911D9695879597F9089599275B
:1033D0008827089597F99F6780E870E060E0089576
:1033E0009FEF80EC089500240A941616170618061D
:1033F0000906089500240A941216130614060506F9
:103400000895092E0394000C11F4882352F0BB0F89
:1034100040F4BF2B11F460FF04C06F5F7F4F8F4FEC
:103420009F4F089557FD9058440F551F59F05F3F27
:1034300071F04795880F97FB991F61F09F3F79F0D6
:1034400087950895121613061406551FF2CF469558
:10345000F1DF08C0161617061806991FF1CF8695DA
:103460007105610508940895E894BB2766277727BE
:10347000CB0197F908950E947D1AA59F900DB49FE6
:10348000900DA49F800D911D112408952F923F92BD
:103490004F925F926F927F928F929F92AF92BF9264
:1034A000CF92DF92EF92FF920F931F93CF93DF9310
:1034B000CDB7DEB7CA1BDB0B0FB6F894DEBF0FBE6D
:1034C000CDBF09942A88398848885F846E847D84BA
:1034D0008C849B84AA84B984C884DF80EE80FD80BC
:1034E0000C811B81AA81B981CE0FD11D0FB6F89432
:1034F000DEBF0FBECDBFED010895A29FB001B39F07
:10350000C001A39F700D811D1124911DB29F700DEC
:10351000811D1124911D08955058BB27AA270E9490
:10352000A41A0C94011A0E94F31938F00E94FA1997
:1035300020F039F49F3F19F426F40C94F0190EF49E
:10354000E095E7FB0C94EA19E92F0E94121A58F350
:10355000BA17620773078407950720F079F4A6F578
:103560000C94341A0EF4E0950B2EBA2FA02D0B01FB
:10357000B90190010C01CA01A0011124FF27591BB8
:1035800099F0593F50F4503E68F11A16F040A22FBE
:10359000232F342F4427585FF3CF4695379527952F
:1035A000A795F0405395C9F77EF41F16BA0B620B2E
:1035B000730B840BBAF09150A1F0FF0FBB1F661F75
:1035C000771F881FC2F70EC0BA0F621F731F841FB8
:1035D00048F4879577956795B795F7959E3F08F0DE
:1035E000B0CF9395880F08F09927EE0F97958795A0
:1035F00008950E940D1B0C94011A0E94FA1958F0AC
:103600000E94F31940F029F45F3F29F00C94EA1965
:1036100051110C94351A0C94F0190E94121A68F387
:103620009923B1F3552391F3951B550BBB27AA277B
:1036300062177307840738F09F5F5F4F220F331FB5
:10364000441FAA1FA9F335D00E2E3AF0E0E832D07D
:1036500091505040E695001CCAF72BD0FE2F29D080
:10366000660F771F881FBB1F261737074807AB0752
:10367000B0E809F0BB0B802DBF01FF2793585F4FC7
:103680003AF09E3F510578F00C94EA190C94351AE3
:103690005F3FE4F3983ED4F3869577956795B795A9
:1036A000F7959F5FC9F7880F911D9695879597F9B4
:1036B0000895E1E0660F771F881FBB1F621773072D
:1036C0008407BA0720F0621B730B840BBA0BEE1F42
:1036D00088F7E09508950E941A1A88F09F5798F08D
:1036E000B92F9927B751B0F0E1F0660F771F881F07
:1036F000991F1AF0BA95C9F714C0B13091F00E9421
:10370000341AB1E008950C94341A672F782F882763
:10371000B85F39F0B93FCCF3869577956795B39547
:10372000D9F73EF490958095709561957F4F8F4FB6
:103730009F4F08950E94561908F48FEF08950E9434
:103740005619880B990B0895AA1BBB1B51E107C0A2
:10375000AA1FBB1FA617B70710F0A61BB70B881F21
:10376000991F5A95A9F780959095BC01CD010895B0
:1037700097FB072E16F4009407D077FD09D00E941E
:10378000A41B07FC05D03EF4909581959F4F0895AA
:10379000709561957F4F0895A1E21A2EAA1BBB1B5D
:1037A000FD010DC0AA1FBB1FEE1FFF1FA217B3070D
:1037B000E407F50720F0A21BB30BE40BF50B661F23
:1037C000771F881F991F1A9469F7609570958095E7
:1037D00090959B01AC01BD01CF010895EE0FFF1F35
:1037E0000590F491E02D09940F931F93CF93DF93ED
:1037F0008230910510F482E090E0E0914E05F09166
:103800004F0530E020E0B0E0A0E0309799F42115BA
:10381000310509F44AC0281B390B24303105D8F58D
:103820008A819B816115710589F1FB0193838283F4
:10383000FE0111C04081518102811381481759074F
:10384000E0F04817590799F4109761F012960C931D
:10385000129713961C933296CF01DF91CF911F914F
:103860000F91089500934E0510934F05F4CF211545
:10387000310551F04217530738F0A901DB019A01D5
:10388000BD01DF01F801C1CFEF01F9CF90934F05E2
:1038900080934E05CDCFFE01E20FF31F81939193EC
:1038A0002250310939832883D7CF20914C0530919C
:1038B0004D05232B41F42091290130912A013093A9
:1038C0004D0520934C0520912701309128012115A9
:1038D000310541F42DB73EB740912B0150912C0199
:1038E000241B350BE0914C05F0914D05E217F307D1
:1038F000A0F42E1B3F0B2817390778F0AC014E5F60
:103900005F4F2417350748F04E0F5F1F50934D054A
:1039100040934C05819391939FCFF0E0E0E09CCFE2
:10392000CF93DF930097E9F0FC0132971382128264
:10393000A0914E05B0914F05ED0130E020E01097C9
:10394000A1F420813181820F931F20914C05309189
:103950004D052817390709F061C0F0934D05E09334
:103960004C05DF91CF910895EA01CE17DF07E8F506
:103970004A815B819E0141155105B1F7E901FB8345
:10398000EA8349915991C40FD51FEC17FD0761F4E3
:10399000808191810296840F951FE9019983888324
:1039A000828193819B838A83F0E0E0E012968D917F
:1039B0009C9113970097B9F52D913C911197CD01EA
:1039C0000296820F931F20914C0530914D052817C8
:1039D000390739F6309751F510924F0510924E0580
:1039E000B0934D05A0934C05BCCFD383C2834081D7
:1039F0005181840F951FC817D90761F44E5F5F4F3F
:103A000088819981480F591F518340838A819B8106
:103A1000938382832115310509F0B0CFF0934F05D0
:103A2000E0934E059ECFFD01DC01C0CF13821282D0
:103A3000D7CFB0E0A0E0EFE1FDE10C94481A8C0193
:103A4000009751F4CB010E94F41B8C01C801CDB743
:103A5000DEB7E0E10C94641AFC01E60FF71F9C014D
:103A600022503109E217F30708F49DC0D901CD9126
:103A7000DC911197C617D70798F0C530D10530F300
:103A8000CE0104978617970708F3C61BD70B22971A
:103A9000C193D1936D937C93CF010E94901CD6CF9C
:103AA0005B01AC1ABD0A4C018C0E9D1EA0914E0507
:103AB000B0914F05512C412CF12CE12C109731F590
:103AC00080914C0590914D058815990509F05CC0D1
:103AD0004616570608F058C080912701909128019A
:103AE000009741F48DB79EB740912B0150912C0166
:103AF000841B950BE817F90708F055C0F0934D05A6
:103B0000E0934C05F90171836083A0CF8D919C9166
:103B1000119712966C90129713967C901397A81594
:103B2000B90559F56C0142E0C40ED11CCA14DB047E
:103B300020F1AC014A195B09DA011296159780F061
:103B40006282738251834083D9016D937C93E11427
:103B5000F10471F0D7011396FC93EE93129776CF90
:103B600022968C0F9D1FF90191838083F301EFCF83
:103B7000F0934F05E0934E0569CF4816590608F4B7
:103B80002C017D01D3019ACFCB010E94F41B7C0153
:103B9000009749F0AE01B8010E94D61DC8010E94ED
:103BA000901C870153CF10E000E050CFFB01DC01F7
:103BB00002C001900D9241505040D8F70895DC01A9
:103BC00001C06D9341505040E0F70895FC01819190
:103BD000861721F08823D9F7992708953197CF01C7
:103BE0000895FB01DC018D91019080190110D9F33A
:103BF000990B0895FB01DC0101900D920020E1F783
:103C00000895FB01DC014150504030F08D9101904E
:103C1000801919F40020B9F7881B990B0895FC014D
:103C200081E090E00190061609F4CF010020D1F761
:103C30000197089510E0C0E9D0E004C0FE010E94A1
:0E3C4000EE1B2196C139D107C9F7F894FFCFCA
:103C4E002862A219FC00009E2851B430FF0000CD5E
:103C5E00285FA651FC0000DA010000000C420000B3
:103C6E00A041000020C1010000500580000000406E
:103C7E0000140054005E00BC0077010000000086B6
:103C8E0001E6001301D301440122013601000000B8
:103C9E0000D903AC033F058203A5039203830300FF
:103CAE000000003705E6003F053E050D0A006E6177
:103CBE006E00696E66006F7666002D2D2D2D2D2DF2
:103CCE00204C6563747572612064652054656D7057
:103CDE006572617475726173202D2D2D2D2D2D0041
:103CEE0053656E736F7220313A2000204300536586
:103CFE006E736F7220323A200053656E736F7220AE
:103D0E00333A200045737461646F204D616E7465A3
:103D1E006E696D69656E746F204F6E0045737461C8
:103D2E00646F204D616E74656E696D69656E746F3A
:103D3E00204F666600756D6272616C65733A002C79
:103D4E000043616D626961646F2061206D6F646F05
:103D5E002046554E43494F4E414E444F0043616DF0
:103D6E00626961646F2061206D6F646F204D414EFA
:103D7E0054454E494D49454E544F00436F6D616E4B
:103D8E00646F20726563696269646F3A202700610F
:103D9E006374697661720053656D61666F726F2030
:103DAE00616374697661646F202D3E204573746182
:103DBE00646F204530006170616761720053656DFC
:103DCE0061666F726F206170616761646F202D3E56
:103DDE00204D616E74656E696D69656E746F204FEE
:103DEE006666006C63643A0077733A0076657264B7
:103DFE006500726F6A6F00617A756C006E61726138
:103E0E006E6A6100616D6172696C6C6F0063656CE6
:103E1E00657374650076696F6C65746100726F739B
:103E2E006100626C616E636F006D6167656E7461D7
:103E3E000057533238313220636F6C6F723A200064
:103E4E00756D6272616C3A00556D6272616C65736C
:103E5E002061637475616C697A61646F73202D3EA5
:103E6E00204E6F726D616C3A2000207C204164768A
:103E7E00657274656E6369613A2000207C20526918
:103E8E006573676F3A2000436F6D616E646F2064D7
:103E9E006573636F6E6F6369646F3A200045737468
:103EAE0061646F2045310045737461646F20453243
:023EBE00000002
:00000001FF
