:020000040000FA
:100000000C9491000C94B9000C94B9000C94B900B4
:100010000C94B9000C94B9000C94B9000C94B9007C
:100020000C94B9000C94B9000C94B9000C94B9006C
:100030000C94B9000C94B9000C94B9000C94B9005C
:100040000C94CE0E0C94B9000C949C0E0C94760E6D
:100050000C94B9000C94B9000C94B9000C94B9003C
:100060000C94180F0C94B9004E414E494E49545906
:10007000494E46CDCCCC3D0AD7233C17B7D1387773
:10008000CC2B329595E6241FB14F0A000020410089
:1000900000C84200401C4620BCBE4CCA1B0E5AAED3
:1000A000C59D74005EBCE2613FDD83C29C7E20A3DF
:1000B000FD1F41009D23BE46DB65F88C11AF32CA9F
:1000C00057E97400000000240027002A0000000007
:1000D0000800020100000304070000000000000007
:1000E0000000000000250028002B00000000002375
:1000F000002600290004040404040404040202028B
:100100000202020303030303030102040810204058
:10011000800102040810200102040810200094103D
:10012000C31711241FBECFEFD8E0DEBFCDBF25E03F
:10013000A0EEB3E001C01D92AE3BB207E1F713E0C1
:10014000A0E0B1E0E4EDFCE302C005900D92A03E1A
:10015000B107D9F710E0C0E9D0E004C02197FE0153
:100160000E94311CCF38D107C9F70E9438110C9476
:100170005D1E0C940000CF93DF93EC016885693716
:1001800001F129853A856150B9F070E08FEF98E769
:100190000E94E71BF9014C815D81CF01821B930B0B
:1001A0008417950760F44081469FC001479F900DDA
:1001B000112490833196EFCF70E060E0EBCF89E7B8
:1001C0008887DF91CF91089508950895AF92BF92E7
:1001D000CF92DF92EF92FF920F931F93CF93DF9313
:1001E0006C017B018B01040F151FEB015E01AE1842
:1001F000BF08C017D10759F06991D601ED91FC9164
:100200000190F081E02DC6010995892B79F7C50190
:10021000DF91CF911F910F91FF90EF90DF90CF90E2
:10022000BF90AF900895FC01538D448D252F30E091
:10023000842F90E0821B930B541710F0CF960895F3
:1002400001970895FC01918D828D981761F0A28D20
:10025000AE0FBF2FB11D5D968C91928D9F5F9F73E6
:10026000928F90E008958FEF9FEF0895FC01918D9C
:10027000828D981731F0828DE80FF11D858D90E009
:1002800008958FEF9FEF0895FC01918D228D892FA6
:1002900090E0805C9F4F821B91098F73992708958E
:1002A00082EB94E00E94440121E0892B09F420E0D4
:1002B000822F089580E090E0892B29F00E94500160
:1002C00081110C9400000895FC01A48DA80FB92F92
:1002D000B11DA35ABF4F2C91848D90E001968F736E
:1002E0009927848FA689B7892C93A089B1898C918D
:1002F000837080648C93938D848D981306C00288DC
:10030000F389E02D80818F7D80830895EF92FF92A5
:100310000F931F93CF93DF93EC0181E0888F9B8D28
:100320008C8D98131AC0E889F989808185FF15C0E2
:100330009FB7F894EE89FF896083E889F989808105
:100340008370806480839FBF81E090E0DF91CF91D4
:100350001F910F91FF90EF900895F62E0B8D10E0F6
:100360000F5F1F4F0F731127E02E8C8D8E110CC065
:100370000FB607FCFACFE889F989808185FFF5CFB0
:10038000CE010E946401F1CFEB8DEC0FFD2FF11D2A
:10039000E35AFF4FF0829FB7F8940B8FEA89FB89ED
:1003A00080818062CFCFCF93DF93EC01888D88234B
:1003B000B9F0AA89BB89E889F9898C9185FD03C0C8
:1003C000808186FD0DC00FB607FCF7CF8C9185FFAD
:1003D000F2CF808185FFEDCFCE010E946401E9CF8D
:1003E000DF91CF910895833081F028F4813099F026
:1003F0008230A9F008958730A9F08830C9F08430A0
:10040000B1F4809180008F7D03C0809180008F7750
:1004100080938000089584B58F7784BD089584B556
:100420008F7DFBCF8091B0008F778093B0000895CF
:100430008091B0008F7DF9CF1F93CF93DF93282F4A
:1004400030E0F901E353FF4F8491F901E75FFE4F7C
:10045000D491F901EB50FF4FC491CC23A9F0162F92
:1004600081110E94F301EC2FF0E0EE0FFF1FEF511E
:10047000FF4FA591B4918FB7F894EC91111108C07A
:10048000D095DE23DC938FBFDF91CF911F9108952C
:10049000DE2BF8CFCF93DF9390E0FC01E75FFE4FB8
:1004A00024918B509F4FFC0184918823C9F090E0E8
:1004B000880F991FFC01ED53FF4FA591B491FC01EA
:1004C000EF51FF4FC591D49161110DC09FB7F894C2
:1004D0008C91209582238C938881282328839FBF29
:1004E000DF91CF910895623051F49FB7F8943C9119
:1004F000822F809583238C93E8812E2BEFCF8FB7AB
:10050000F894EC912E2B2C938FBFEACF3FB7F89441
:100510008091970490919804A0919904B0919A04C5
:1005200026B5A89B05C02F3F19F00196A11DB11D4E
:100530003FBFBA2FA92F982F8827BC01CD01620F8A
:10054000711D811D911D42E0660F771F881F991F45
:100550004A95D1F708958F929F92AF92BF92CF9212
:10056000DF92EF92FF926B017C010E9486024B01A9
:100570005C01C114D104E104F104B9F00E948602C7
:10058000681979098A099B09683E734081059105BC
:1005900080F321E0C21AD108E108F10888EE880E44
:1005A00083E0981EA11CB11CE4CFFF90EF90DF9078
:1005B000CF90BF90AF909F908F9008952FB7F894F1
:1005C00060919304709194048091950490919604A5
:1005D0002FBF08950F931F930E94DE026093BA0409
:1005E0007093BB048093BC049093BD0482EB94E0B1
:1005F0000E94220197FF1DC00E94DE020091BA04F2
:100600001091BB042091BC043091BD04601B710BA0
:10061000820B930B0091B6041091B7042091B8049B
:100620003091B9046017710782079307F8F28FEFD2
:100630009FEF1F910F91089520914804260F3327B3
:10064000331F21323105ECF420916C04FC0190E061
:1006500080E0243069F082E00895A091480421915F
:10066000AC01485D5B4FA40FB52FB11D2C930196D3
:10067000861798F380914804680F6093480480E0DF
:10068000089581E0089510926C0481E080936E04D7
:1006900010926D0461E082E10E941C0261E083E13E
:1006A0000E941C02E9EBF0E080818E7F80838081D4
:1006B0008D7F808388E48093B80085E48093BC00BC
:1006C0000895CF93DF9391E0909327048823B9F0A6
:1006D000C091B800D091BA008091BC008A7B809311
:1006E000BC0060E082E10E941C0260E083E10E94A5
:1006F0001C020E944303D093BA00C093B800DF915C
:10070000CF9108950895E091A2048091A104E81783
:1007100030F4F0E0EE5FFB4F808190E008958FEFC2
:100720009FEF08959091A2048091A1042FEF3FEFD5
:10073000981748F4E92FF0E0EE5FFB4F208130E09E
:100740009F5F9093A204C90108958091A1049091A4
:10075000A204891B990B0895CF92DF92EF92FF922A
:100760000F931F93CF93DF937C01CB018A012091DC
:100770000104222389F0EB016B01C40ED51ECC15B8
:10078000DD0569F06991D701ED91FC910190F0814F
:10079000E02DC7010995F3CF642F0E941C03C80107
:1007A000DF91CF911F910F91FF90EF90DF90CF904D
:1007B0000895CF93DF931F92CDB7DEB76983209161
:1007C00001042223F9F020919F04203258F021E007
:1007D00030E0FC013383228390E080E00F90DF91D2
:1007E000CF9108958091A004E82FF0E0EF51FC4FE5
:1007F000998190838F5F8093A00480939F0481E010
:1008000090E0ECCF61E0CE0101960E941C03F7CF8F
:10081000CF92DF92EF92FF920F931F93CF93DF93CC
:10082000D62F672FFC01C48181E080930104C0931F
:10083000E0031092A00410929F048FE495E00E94C0
:10084000D9036D2F8FE495E00E94D903D0919F04C6
:10085000D13208F092C00E9486026B017C01809127
:100860006C04811165C082E080936C0481E0809308
:100870006E048FEF80936B0410929004D0938F04DA
:10088000A1EEB3E0EFE6F4E080E0D81385C010926B
:10089000910480919104CC0FC82BC0939104809156
:1008A0006D04813009F07CC010926D040E948602B4
:1008B0006B017C01809191048093BB0080912304A3
:1008C00090912404A0912504B0912604892B8A2BB1
:1008D0008B2B99F00E94860200912304109124042E
:1008E00020912504309126046C197D098E099F09F9
:1008F0000617170728073907E0F18091BC0083FD30
:10090000D9CF85EC8093BC000E9486026B017C01EC
:1009100080916C04823009F445C080916B048F3F54
:1009200061F180916B04803241F180916B0425C0AC
:100930008091230490912404A0912504B091260471
:10094000892B8A2B8B2B09F48ACF0E948602009177
:1009500023041091240420912504309126046C195D
:100960007D098E099F09061717072807390708F020
:1009700076CF809122040E9461031092A00410920D
:100980009F0410920104DF91CF911F910F91FF906E
:10099000EF90DF90CF9008959D9191938F5F75CFE9
:1009A00085EEB0CF8091230490912404A09125047A
:1009B000B0912604892B8A2B8B2B09F4A9CF0E9496
:1009C0008602009123041091240420912504309183
:1009D00026046C197D098E099F0906171707280739
:1009E000390708F095CFC5CFCF93DF93CDB7DEB7EA
:1009F00028970FB6F894DEBF0FBECDBF98E0EDE2AA
:100A0000F1E0DE01119601900D929A95E1F7909137
:100A10006305981708F48FEF90E0880F991F21E085
:100A200030E02C0F3D1F820F931FFC016081606836
:100A300070E08BE595E028960FB6F894DEBF0FBE08
:100A4000CDBFDF91CF910C94080461E070E08BE59D
:100A500095E00E9408048BE39FE10197F1F78091F4
:100A60006405882319F080E00C94F404089570E084
:100A700070640E94080481E090E00895089590E079
:100A800080E008958F929F92AF92BF92CF92DF92B3
:100A9000EF92FF92CF93DF93FC014A01AA24BB247B
:100AA000C32ED42EE52EFF24DC2DC22F8085982D59
:100AB000882391F0C82FD0E0C89DD001C99DB00D0A
:100AC000D89DB00D11249B2F8C9D60011124DD2D2C
:100AD000829F90011124C32FA685218532858385AD
:100AE000A81321C0AB01440F551F640F751F620F7F
:100AF000731FA385A60FB72FB11D9C93A485A60FC6
:100B0000B72FB11DDC938585680F711DFB01C08374
:100B1000DF91CF91FF90EF90DF90CF90BF90AF909B
:100B20009F908F900895660F771F660F771F620F53
:100B3000731FA60FB72FB11D1C92DBCFCF92DF9290
:100B4000EF92FF920F931F93CF93DF93CDB7DEB752
:100B500029970FB6F894DEBF0FBECDBF8C01DC0124
:100B600019968D919C91892B09F473C00E9486027D
:100B7000F801C784D088E188F2886C157D058E0560
:100B80009F0520F46787708B818B928BF801C78457
:100B9000D088E188F2886C197D098E099F096C3232
:100BA00071408105910510F3F894D80114968D9148
:100BB0009C9115979A8389831996ED91FC917F01F9
:100BC000BFEFEB1AFB0A80818987F80190810388C7
:100BD000F489E02DD80155968C91992309F448C0E9
:100BE0009081982B98879081809589238F838F811E
:100BF0008C8388E08B8358856F8149853B812C816C
:100C000089819A81D701508347FD252F3A9520830A
:100C1000262F39F0441F00C000006083000000C090
:100C2000F2CF38E04D9160830000019761F7D80161
:100C30005496FC93EE93539749873B832C839A8376
:100C4000898378940E948602F8016787708B818B74
:100C5000928B29960FB6F894DEBF0FBECDBFDF9101
:100C6000CF911F910F91FF90EF90DF90CF9008955B
:100C70009081982B98879081809589238F838F818D
:100C80008E8388E08D8358856F8149853D812E81D3
:100C900089819A81D701508347FD252F00C000C06C
:100CA000208300C000C000C000C000C060830000FE
:100CB000262F3A9541F0441F000000C000C000C03C
:100CC00000C000C0E8CF38E04D9100C0608300C094
:100CD000019709F7D8015496FC93EE9353974987EF
:100CE0003D832E83ACCFCF93DF93EC018E819F8128
:100CF00097FD0CC061E00E944A0260E08E810E9474
:100D00001C0281E08983DF91CF910895198280E0F0
:100D1000FACFDC0180E0615090F09D919827E92F97
:100D2000EF70F0E0ED55FF4F2491E92FE295EF7061
:100D3000F0E0ED54FF4FE491822F8E27ECCF089521
:100D4000DC012C911196ED91FC91F8948181822B1C
:100D500081839281322F30959323928387E090E0B4
:100D60000197F1F781818323818383E290E00197EA
:100D7000F1F790817894EFECF0E03197F1F792235E
:100D800081E009F480E00895FC0190810180F28106
:100D9000E02D292F209560FF14C0F89482818223D2
:100DA00082838181892B8183A3E2B0E01197F1F7DF
:100DB0008281982B9283789487ED90E00197F1F7E8
:100DC0000895F8948281822382838181892B818393
:100DD000AFEFB0E01197F1F78281982B928378946E
:100DE0008FE090E0EBCFDF92EF92FF920F931F9393
:100DF000CF93DF93EC01D62EE42E08E010E0FF2421
:100E0000F39461E08D2D8F2109F460E0CE010E9402
:100E1000C406FF0C01501109A1F7E11010C0F894AD
:100E2000E981FA8191818881809589238183E98193
:100E3000FA81928188818095892382837894DF91D9
:100E4000CF911F910F91FF90EF90DF900895EF9257
:100E5000FF920F931F93CF93DF938C017B0140E0B0
:100E600065E50E94F306E70188E0E80EF11C699150
:100E700040E0C8010E94F306CE15DF05C1F7DF91FF
:100E8000CF911F910F91FF90EF900895FC019081F9
:100E90000180F281E02DF8948181292F2095822311
:100EA000818378943DE743E050E0315029F1DA0145
:100EB0001197F1F780818923C1F3F894828182230D
:100EC00082838181892B81837894ABE7B7E0119786
:100ED000F1F7F894818182238183A3E1B1E0119736
:100EE000F1F78081982381E009F080E07894E3E6CF
:100EF000F6E03197F1F7089580E008956F927F92C0
:100F00008F929F92AF92BF92CF92DF92EF92FF9219
:100F10000F931F93CF93DF938C01EB0180919C057E
:100F200090919D050E944607882309F43FC0B801AF
:100F300080919C0590919D050E94270740E06EEBF3
:100F400080919C0590919D050E94F3067E016E01A3
:100F500089E0C80ED11C8E01A0909C05B0909D0523
:100F600088E0882E912C712C66246394C5010E9420
:100F7000A00681117628660CE1E08E1A9108B1F77F
:100F8000F80171928F01CE16DF0631F780919C0532
:100F900090919D050E944607813041F4F7018191AF
:100FA0007F01811105C0E017F107C1F790E008C08B
:100FB00068E0CE010E94890691E028852813F6CFCB
:100FC000892FDF91CF911F910F91FF90EF90DF90CC
:100FD000CF90BF90AF909F908F907F906F9008952B
:100FE000CF92DF92EF92FF920F931F93CF93DF93F5
:100FF000CDB7DEB729970FB6F894DEBF0FBECDBFD1
:101000008C01BE016F5F7F4F0E947E07811105C07A
:1010100060E070E08EEF92EC4EC08A81C12CD12C42
:10102000760187FF06C0C12CD12CF8EFEF2EFF24EC
:10103000FA94F801908149819B3309F04BC02D81CE
:1010400027FF48C040FDE4CF042F10E030E020E04F
:1010500073E0000F111F221F331F7A95D1F7B901DA
:10106000A801407E57706627772790E0B0E0A0E0A7
:101070008C019D01EBE0000F111F221F331FEA9529
:10108000D1F7042B152B262B372B0C291D292E29A4
:101090003F29013854EE15075FEF250735070CF49B
:1010A000B7CFC901B8010E945E1920E030E040E0EE
:1010B0005CE30E94BD1929960FB6F894DEBF0FBEFF
:1010C000CDBFDF91CF911F910F91FF90EF90DF90F7
:1010D000CF900895082F10E0102F0027110F110F47
:1010E000110FF8E04F9FA0011124042B152B012EA6
:1010F000000C220B330B0C291D292E293F2990317E
:1011000041F66885662329F270E08F81AB01481BA8
:101110005109CA019695982F8827979587950E941F
:10112000FB1BCB01770FAA0BBB0B53E0000F111F6A
:10113000221F331F5A95D1F70078277033270052AA
:10114000110921093109800F911FA21FB31F9701B7
:101150008601082B192B2A2B3B2B9BCF0F931F9318
:10116000CF93DF93CDB7DEB729970FB6F894DEBFE4
:101170000FBECDBF8C01BE016F5F7F4F0E947E0707
:10118000882361F08D81F80190819B3311F487FDF4
:101190000BC08F3359F020F48F31A1F080E007C0ED
:1011A0008F3591F08F37D1F78CE001C08AE0299616
:1011B0000FB6F894DEBF0FBECDBFDF91CF911F9168
:1011C0000F91089589E0F3CF8BE0F1CFBF92CF92DA
:1011D000DF92EF92FF920F931F93CF93DF93EC0177
:1011E000B62EC72E8D85811105C0CE010E944607FF
:1011F00081110EC01B861D861C8680E0DF91CF9179
:101200001F910F91FF90EF90DF90CF90BF900895C6
:1012100040E060EFCE010E94F30601E0E12CD12C0A
:1012200011E0CE010E94A006F82ECE010E94A00679
:1012300091E0F91218C0813099F51134D8F2DB86AB
:10124000D11002C081E08D878B81882399F223968B
:10125000EB2DFC2DCF01089629912193E817F90772
:10126000D9F781E0CBCFEE2DF0E0F8120FC08B85DF
:101270001817A0F4DE01AE0FBF1F13968C918023C8
:1012800079F4F12C193008F41C87D12EEC0FFD1FD6
:101290008381902F9095892383830AC08113F1CF96
:1012A000FE01EE0DF11D8381802B8383FF24F394D7
:1012B0006F2DCE010E94C4061F5F000F11F4E3944E
:1012C00001E087E08E1508F0ACCFB7CF0F931F93E6
:1012D000CF93DF93CDB7DEB729970FB6F894DEBF73
:1012E0000FBECDBF8C01FC018081803109F46CC040
:1012F000BE016F5F7F4FC8010E947E07882309F4FB
:10130000C3C08D818F3709F45FC08FE78D838091D3
:101310009C0590919D050E944607B80180919C050F
:1013200090919D050E94270740E06EE480919C0506
:1013300090919D050E94F30640E06B8180919C0591
:1013400090919D050E94F30640E06C8180919C0580
:1013500090919D050E94F306F8018081803141F053
:1013600040E06D8180919C0590919D050E94F3065F
:1013700080919C0590919D0520919905222311F162
:101380000E944607882301F1B80180919C05909145
:101390009D050E9427074091930568E480919C0574
:1013A00090919D050E94F3068091930581114FC095
:1013B00064E170E080E090E00E94AB0280919C05C7
:1013C00090919D050E9446078CE080939605809140
:1013D0009A05823008F457C0E0919C05F0919D0574
:1013E0001386158614861286118610861782168239
:1013F00015821482138210E080919A05181708F064
:1014000042C0809196058C30F1F1BE016F5F7F4F35
:1014100080919C0590919D050E94E6088823A9F083
:1014200067E0CE0101960E948906988589130DC058
:101430008981803131F1CE0101960E94AE089091F0
:101440009605981710F4809396051F5FD5CF80916D
:101450009405882329F060E0809195050E941C0284
:1014600064E170E080E090E00E94AB02809194051E
:10147000882309F4A3CF61E0809195050E941C02A6
:101480009DCF8CE0DCCF81E029960FB6F894DEBFCB
:101490000FBECDBFDF91CF911F910F910895CF93D4
:1014A000DF93EC0188819981009711F00E94D31C91
:1014B000198218821D821C821B821A82DF91CF91B1
:1014C0000895FC0180819181009711F00C94D31C48
:1014D0000895FC0101900020E9F73197AF01481B06
:1014E000590BBC0182EB94E00C94E6008F929F9222
:1014F000AF92BF920F931F93CF93DF93CDB7DEB719
:10150000A1970FB6F894DEBF0FBECDBF19A242302F
:1015100008F44AE08E010F5D1F4F842E912CB12CF0
:10152000A12CA50194010E940F1CE62FB901CA014C
:10153000EA30F4F4E05DD801EE938D01232B242BE7
:10154000252B79F790E080E0109719F0CD010E94EB
:10155000690AA1960FB6F894DEBF0FBECDBFDF912A
:10156000CF911F910F91BF90AF909F908F90089552
:10157000E95CE1CF0C94690ACF93DF930E94690A7A
:10158000EC018BE691E00E94690A8C0F9D1FDF91B0
:10159000CF9108954F925F926F927F928F929F9218
:1015A000AF92BF92CF92DF92EF92FF920F931F9371
:1015B000CF936B017C01742EAC019B010E94E21B56
:1015C000882399F08EE691E0CF911F910F91FF90C3
:1015D000EF90DF90CF90BF90AF909F908F907F90D3
:1015E0006F905F904F900C94690A46015701E89400
:1015F000B7F82FEF3FEF4FE75FE7C501B4010E9457
:10160000E21B81110DC02FEF3FEF4FE75FE7C501F0
:10161000B4010E94571918161CF482E791E0D4CF48
:101620002FEF3FEF4FE75FE4C701B6010E94DD1BDC
:1016300018161CF486E791E0C7CF2FEF3FEF4FE776
:101640005FECC701B6010E94571987FDF3CF20E078
:1016500030E0A901C701B6010E94571910E000E06F
:1016600087FF0AC06DE282EB94E00E9486018C0144
:10167000F7FAF094F7F8F094C0E060E070E080E0F2
:101680009FE37C1641F020E030E040E251E40E940C
:101690003C1BCF5FF6CFA70196010E94D01A2B0109
:1016A0003C010E94AE1B4B015C014AE00E94760A9D
:1016B0007C01E00EF11ECC23C1F1C501B4010E94F2
:1016C0005C199B01AC01C301B2010E94CF1A4B010E
:1016D0005C016EE282EB94E00E948601E80EF91E46
:1016E000C15018F120E030E040E251E4C501B401FE
:1016F0000E94BD192B013C010E94AE1B4B01B12C75
:10170000A12C4AE0C501B4010E94760AE80EF91E38
:10171000C501B4010E945C199B01AC01C301B20177
:101720000E94CF1A4B015C01DBCFC701CF911F9103
:101730000F91FF90EF90DF90CF90BF90AF909F9070
:101740008F907F906F905F904F9008954F925F922F
:101750006F927F928F929F92AF92BF92CF92DF92C1
:10176000EF92FF920F931F93CF93DF93CDB7DEB726
:101770002C970FB6F894DEBF0FBECDBF80919C05AD
:1017800090919D050E94460740E06CEC80919C057D
:1017900090919D050E94F3064091930564E4809129
:1017A0009C0590919D050E94F3060E94DE026B014C
:1017B0007C01809197058823E1F08091980588232A
:1017C00009F4A3C08091930581119FC080919C056D
:1017D00090919D050E94A006813059F00E94DE0282
:1017E0006C197D098E099F096E3E72408105910535
:1017F00068F380E191E00E94F0072B013C0188E052
:1018000091E00E94F0074B015C0180E091E00E94B2
:10181000F0076B017C018AE791E00E94BC0A80EA34
:1018200091E00E94BA0A42E0C301B2010E94CA0AD2
:101830008BEA91E00E94BC0A8EEA91E00E94BA0A0B
:1018400042E0C501B4010E94CA0A8BEA91E00E94FD
:10185000BC0A89EB91E00E94BA0A42E0C701B601D6
:101860000E94CA0A8BEA91E00E94BC0A84EC91E0D3
:101870000E94BC0A49825A826B827C828D829E823F
:10188000AF82B886C986DA86EB86FC86CE010196E1
:101890007C0110E000E0F70181909190A190B1905F
:1018A0007F0120912001309121014091220150912E
:1018B0002301C501B4010E94571987FD4FC0209133
:1018C00018013091190140911A0150911B01C50175
:1018D000B4010E94DD1B18160CF440C020911C01BD
:1018E00030911D0140911E0150911F01C501B401AD
:1018F0000E94571920E035EA4FEF50E0181694F196
:1019000020E03FEF40E050E02DC0E0919605E95027
:101910008EEE92E0E33038F4F0E0EE0FFF1FEB5C68
:10192000FE4F808191816C01F12CE12C8091940516
:10193000882329F060E0809195050E941C02C70170
:10194000B6010E94AB0280919405882309F451CF1F
:1019500061E0809195050E941C024BCF20E030E0B1
:101960004FEF50E08091690590916A0508171907BB
:1019700028F4B80187E695E00E9442050F5F1F4FEB
:101980000330110509F087CF87E695E02C960FB656
:10199000F894DEBF0FBECDBFDF91CF911F910F91A5
:1019A000FF90EF90DF90CF90BF90AF909F908F907F
:1019B0007F906F905F904F900C949E05CF93DF9334
:1019C00042E00E94CA0AEC018BE691E00E94690A9B
:1019D0008C0F9D1FDF91CF910895CF93DF93FC0172
:1019E000448155816081718182EB94E00E94E60020
:1019F000EC018BE691E00E94690A8C0F9D1FDF913C
:101A0000CF910895FB0144815581FC0124813581EA
:101A10002417350778F080819181009759F0FB01F8
:101A2000608171816115710529F00E94441E21E0D9
:101A3000892B09F020E0822F0895FC012481358153
:101A4000232B39F421E0FB018081882349F020E039
:101A500007C0808191810E94341E21E0892BB9F753
:101A6000822F08950F931F93CF93DF93EC0188810A
:101A70009981009759F02A813B812617370730F06A
:101A800081E0DF91CF911F910F9108958B016F5FDE
:101A90007F4F0E945C1D009759F0998388831B83B8
:101AA0000A832C813D81232B59F7FC011082E8CF5A
:101AB00080E0E7CFEF92FF920F931F93CF93DF93D6
:101AC0006115710541F480E0DF91CF911F910F9175
:101AD000FF90EF90089541155105B1F07B01EC01A5
:101AE0000C811D81040F151FB8010E94320D88233F
:101AF00051F3288139818C819D81B701820F931F19
:101B00000E943D1E1D830C8381E0DECFCF93DF93C7
:101B1000EC0141E050E065EC72E00E945A0D811149
:101B200003C0CE010E944F0ACE01DF91CF910895EC
:101B3000CF93DF93EC01FB0144815581608171817A
:101B40000E945A0D811103C0CE010E944F0ACE019E
:101B5000DF91CF910895EF92FF920F931F93CF9350
:101B6000DF93EC017B01198218821B821A821D828D
:101B70001C82FB0101900020E9F731978F01061BC1
:101B8000170BB8010E94320D811109C0CE01DF91FF
:101B9000CF911F910F91FF90EF900C944F0A1D83EE
:101BA0000C83B70188819981DF91CF911F910F91AB
:101BB000FF90EF900C943D1E9F92AF92BF92CF92F8
:101BC000DF92EF92FF920F931F93CF93DF937C01ED
:101BD0006B015A0189012417350720F48B2D590117
:101BE000042F182F6DE671E0C7010E94AB0DD601DE
:101BF0001496CD91DC91AC16BD0650F50C171D075F
:101C000008F4E801D601ED91FC911197EC0FFD1F4E
:101C1000908010820D911C910A0D1B1D011511055C
:101C200071F0F80101900020E9F731975F01A01AE7
:101C3000B10AB501C7010E94320D811116C0C7015A
:101C40000E944F0AD6018D919C91C80FD91F98828E
:101C5000C701DF91CF911F910F91FF90EF90DF901F
:101C6000CF90BF90AF909F900895F701B582A48266
:101C7000B801808191810E943D1EE4CF85ED809363
:101C8000BC008091230490912404A0912504B0917C
:101C900026040796A11DB11D23E0B695A79597953B
:101CA00087952A95D1F72091BC0024FD03C010929E
:101CB0006C040895409123045091240460912504FC
:101CC00070912604452B462B472B69F30097A105FD
:101CD000B10541F025E32A95F1F700000197A1092C
:101CE000B109E1CF809122040C9461031F920F92FD
:101CF0000FB60F9211242F933F934F935F936F93DF
:101D00007F938F939F93AF93BF93EF93FF9382EB58
:101D100094E00E946401FF91EF91BF91AF919F9178
:101D20008F917F916F915F914F913F912F910F9084
:101D30000FBE0F901F9018951F920F920FB60F9223
:101D400011242F938F939F93EF93FF93E091C204FD
:101D5000F091C3048081E091C804F091C90482FD30
:101D60001BC090818091CB048F5F8F732091CC0436
:101D7000821741F0E091CB04F0E0EE54FB4F958FD9
:101D80008093CB04FF91EF919F918F912F910F90B2
:101D90000FBE0F901F9018958081F4CF1F920F9265
:101DA0000FB60F9211242F933F938F939F93AF936E
:101DB000BF938091930490919404A0919504B09165
:101DC00096043091920423E0230F2D3758F50196A5
:101DD000A11DB11D209392048093930490939404C9
:101DE000A0939504B09396048091970490919804E1
:101DF000A0919904B0919A040196A11DB11D809300
:101E0000970490939804A0939904B0939A04BF9177
:101E1000AF919F918F913F912F910F900FBE0F9097
:101E20001F90189526E8230F0296A11DB11DD2CF51
:101E30001F920F920FB60F9211242F933F934F933F
:101E40005F936F937F938F939F93AF93BF93EF9322
:101E5000FF938091B900887F803609F44AC0F0F57D
:101E6000883209F4A7C018F5803109F49BC0B8F492
:101E7000882309F4F9C0883009F494C0FF91EF91E8
:101E8000BF91AF919F918F917F916F915F914F9192
:101E90003F912F910F900FBE0F901F901895883192
:101EA00009F488C0803251F780936B0414C08034E9
:101EB00009F49DC040F48033B9F38833F9F6809378
:101EC0006B0485ECB0C0803509F485C0883509F411
:101ED00096C0883499F60E943E0ED0CF883909F416
:101EE0008CC038F5883729F050F4883611F08037E7
:101EF00029F683E080936C0410926A0457C08838F6
:101F000009F47BC0803919F0803809F0B7CF80918F
:101F10006A04803208F071C0E0916A0481E08E0F9B
:101F200080936A048091BB00F0E0E65BFB4F808306
:101F30003DC0803B39F0E0F4803A09F479C0883A3A
:101F400009F09CCF84E080936C04109249041092B5
:101F50004804E0919D04F0919E0409958091480405
:101F600081110FC081E0809348041092280409C0B9
:101F7000803C09F4A6CF883C09F4A3CF883B09F044
:101F80007DCFE091490481E08E0F80934904F0E019
:101F9000E85DFB4F80818093BB0090914904809164
:101FA000480429C0809191048093BB0085EC809304
:101FB000BC0064CF9091900480918F04981758F5DD
:101FC000E091900481E08E0F80939004F0E0E1595D
:101FD000FB4F8081E9CFE091900481E08E0F8093E8
:101FE00090048091BB00F0E0E159FB4F8083909119
:101FF000900480918F049817C8F285E8D8CFE091BB
:10200000900481E08E0F809390048091BB00F0E0FB
:10201000E159FB4F808380916E0481115CCF81E098
:1020200080936D0484EA8093BC0010926C0426CFE8
:1020300085EC8093BC0010926C0480916A0480321D
:1020400030F4E0916A04F0E0E65BFB4F10826091AF
:102050006A0470E0E0919B04F0919C048AE494E0AF
:10206000099510926A040ACF10926B0434CFCF9274
:10207000DF92EF92FF920F931F93CF93DF93EC01C8
:102080006B01F42EE52E198218861F86188A198A8C
:102090001A8A81E08E878B871C8692E09D878883D1
:1020A0008B01000F111F060F171F1D830C83C80122
:1020B0000E94371C9A878987009789F1A80170E0F0
:1020C00060E00E94221EDB82CA82FE82EF8289814A
:1020D000882341F061E08F2D0E944A0260E08F2D3D
:1020E0000E941C028F2D9E2DFC01EB50FF4FE491AE
:1020F000F0E0EE0FFF1FEF51FF4F259134913C8B25
:102100002B8BFC01E75FFE4FE491ED8BDF91CF91CC
:102110001F910F91FF90EF90DF90CF9008951D8257
:102120001C821B821A82D1CFE2EBF4E0138212826E
:1021300088EE93E0A0E0B0E084839583A683B78324
:102140002FE331E03183208325EC30E0358724878D
:1021500024EC30E03787268720EC30E0318B208B71
:1021600021EC30E0338B228B22EC30E0358B248B5A
:1021700026EC30E0378B268B118E128E138E148E48
:10218000EFE4F5E01382128284839583A683B783FC
:1021900081E591E09183808360E087E00E944A02BC
:1021A000E0E1F1E0E491AAEAB5E0EC93ECEFF0E0D5
:1021B000E491F0E0EE0FFF1FE551FF4F8591949100
:1021C00012969C938E9311971B961C921B971D96AB
:1021D0001C921D971C961C921C971A961C921A977B
:1021E00019961C92199718961C92189717961C927C
:1021F000179716961C92169715961C92159714967B
:102200001C92149713961C921397E3E9F5E017823A
:102210001086108289E0838381E0848385838683AE
:102220001182168A158A8FEF838B148AB287A18751
:102230004AE050E062E070E08DE795E00E943710E0
:1022400045E050E063E070E087E695E00E943710DB
:10225000EBE5F5E01382128283E691E091838083BF
:1022600011868EE3848380E1828782E083870895EC
:10227000CF93DF93CDB7DEB764970FB6F894DEBF88
:102280000FBECDBF789484B5826084BD84B5816073
:1022900084BD85B5826085BD85B5816085BD809131
:1022A0006E00816080936E001092810080918100A9
:1022B00082608093810080918100816080938100A1
:1022C000809180008160809380008091B100846063
:1022D0008093B1008091B00081608093B0008091C4
:1022E0007A00846080937A0080917A008260809383
:1022F0007A0080917A00816080937A0080917A00E0
:10230000806880937A001092C10061E088E00E94AA
:102310004A0261E089E00E944A0261E08CE00E948A
:102320004A0262E082E00E944A02E091C204F09117
:10233000C30482E08083E091BE04F091BF04108268
:10234000E091C004F091C1048FEC80831092CA0424
:10235000E091C604F091C70486E08083E091C40454
:10236000F091C504808180618083E091C404F09184
:10237000C504808188608083E091C404F091C50425
:10238000808180688083E091C404F091C5048081DD
:102390008F7D808389EE91E00E94BC0A1092A20496
:1023A0001092A1041092A00410929F040E94430373
:1023B00084EE90E090939E0480939D0485EE90E0DF
:1023C00090939C0480939B0480E1809360058091AE
:1023D0006605823018F098E190936005809363055C
:1023E0008BE39DE00197F1F760916005606270E01A
:1023F0008BE595E00E9408048BE496E40197F1F7E1
:1024000060916005606270E08BE595E00E940804D1
:1024100083E592E00197F1F760916005606270E0FA
:102420008BE595E00E94080460916005606270E0B1
:102430008BE595E00E94080484E0809361056CE0E0
:1024400070E08BE595E00E9408040E94250582E07B
:102450008093620566E070E08BE595E00E940804D9
:1024600062E070E08BE595E00E9408048BE39FE159
:102470000197F1F78DE795E00E9473068DE795E0EF
:102480000E949E058DE795E00E94BB008DE795E0D8
:102490000E949E0587E695E00E94730687E695E018
:1024A0000E949E0587E695E00E94BB0013E001E0D4
:1024B000E0919C05F0919D05138615861486128681
:1024C000118610861782168215821482138210924A
:1024D0009A0510929B0562E370E080E090E00E9414
:1024E000AB02BE016F5F7F4F80919C0590919D056F
:1024F0000E94E608882309F45FC067E0CE010196D8
:102500000E94890698858913ECCF80919A058F5F88
:1025100080939A058981883231F008F044C0803177
:1025200011F08232F1F680919B058F5F80939B05BD
:1025300080919305811128C080919C0590919D0503
:102540000E944607BE016F5F7F4F80919C0590916E
:102550009D050E94270740E064EB80919C059091C7
:102560009D050E94F30680919C0590919D050E9417
:10257000A006F82E80919C0590919D050E9446072B
:10258000F11002C0009393058981803199F0CE014A
:1025900001960E94AE0890919605981708F0A1CF79
:1025A000809396059ECF8B3309F4BDCF823409F01A
:1025B00098CFB9CF8CE0EFCF80919A05811103C0FD
:1025C000115009F075CF80E191E00E94660988E022
:1025D00091E00E94660980E091E00E9466098FEF19
:1025E00091E00E94BA0A60912001709121018091CE
:1025F00022019091230142E00E94CA0A89E092E000
:102600000E94BA0A60911C0170911D0180911E0107
:1026100090911F0142E00E94CA0A89E092E00E9464
:10262000BA0A609118017091190180911A01909174
:102630001B010E94DE0C61E08CE00E941C028BE01A
:1026400092E00E94BC0AEFECF0E08491EBE0F1E054
:102650000491E7EFF0E0149111112FC08091250152
:1026600090912601019709F43AC090E080E09093A0
:1026700026018093250182EB94E00E944401181604
:1026800019060CF0A2C06DE671E0CE010F960E9413
:10269000AB0D0E94EA0297FD4FC08A30910509F404
:1026A0004BC089831A8241E050E0BE016F5F7F4FCB
:1026B000CE010F960E945A0DECCF81110E94F301BA
:1026C000E12FF0E0EE0FFF1FE551FF4FA591B49110
:1026D000EC91E02309F4C2CF81E090E0C8CF62E33F
:1026E00070E080E090E00E94AB021091240181E054
:1026F00018271093240160E088E00E941C0260E02B
:1027000089E00E941C0260E08CE00E941C0281E3D0
:1027100092E0112371F085E192E00E94BC0A1092D0
:10272000B1041092B00461E08CE00E941C028BE0C6
:1027300092E00E94BC0A99CFCF84D888C114D104FA
:1027400039F00B891C8976010115110509F0B5C016
:102750006FE472E0CE0101960E94AB0DBE01615F95
:102760007F4FCE0101960E94980D0E94860D0E9417
:10277000ED0CCE0101960E94610A63E672E0CE0183
:102780000F960E941D0D882309F4CDC081E080932F
:1027900024018BE692E00E94BC0A1092B1041092D0
:1027A000B00460E088E00E941C0260E089E00E94C2
:1027B0001C0261E08CE00E941C028BE092E00E940F
:1027C000BC0ACE010F960E94610A809124018823E1
:1027D00009F49EC30E94DE020091AC041091AD0486
:1027E0002091AE043091AF04601B710B820B930BF0
:1027F000683E73408105910588F00E94A60B0E94F7
:10280000DE026093AC047093AD048093AE049093A9
:10281000AF0480912401882309F47AC30E94DE0268
:102820006B017C018091B0049091B10481309105DD
:1028300009F422C38230910509F443C3892B79F549
:102840008091A8049091A904A091AA04B091AB042E
:10285000A7019601281B390B4A0B5B0BDA01C90152
:1028600088389341A105B105D0F060E08CE00E946A
:102870001C0261E088E00E941C0284EB93E00E944D
:10288000BC0A81E090E09093B1048093B004C092C0
:10289000A804D092A904E092AA04F092AB0480E0CC
:1028A00090E0892B09F4CFCE0E945001882309F4CF
:1028B000CACE0E940000C7CE750157012FEFA21AA1
:1028C000B20AF7018081082E000C990B0E9436197C
:1028D000892B91F7015011090C0D1D1DF801808104
:1028E000082E000C990B0E943619892B31F00E1519
:1028F0001F0518F001501109F1CFA8014F5F5F4F7C
:102900004E195F095C8B4B8BCE14DF0420F4B701AA
:10291000C6010E94191EEF85F8898B899C89E80FF2
:10292000F91F108215CF6DE772E0CE010F960E945D
:102930001D0D8823A9F01092240184E892E00E94E2
:10294000BC0A60E088E00E941C0260E089E00E940E
:102950001C0260E08CE00E941C0285E992E02FCF0F
:102960006EEA72E0CE0101960E94AB0DBE016F5F70
:102970007F4FCE010F960E94020D182FCE010196B7
:102980000E94610A112309F45FC02B893C8944E04D
:1029900050E0BE01615F7F4FCE0109960E94DC0DC1
:1029A00063EB72E0CE0101960E94AB0DBE01675F42
:1029B0007F4FCE0101960E94980D0E94860D0E94C5
:1029C000ED0CCE0101960E94610A0E94250580E06F
:1029D0000E94F40420E130E050E040E0BE01675F77
:1029E0007F4FCE0101960E94DC0D4D815E81698191
:1029F0007A818BE595E00E94E600CE0101960E9467
:102A0000610A8D859E854197D0F081E00E94F40493
:102A100020E230E040E150E0BE01675F7F4FCE0131
:102A200001960E94DC0D4D815E8169817A818BE582
:102A300095E00E94E600CE0101960E94610ACE0157
:102A400009960E94610ABDCE67EC72E0CE01019644
:102A50000E94AB0DBE016F5F7F4FCE010F960E94AB
:102A6000020D182FCE0101960E94610A112309F46C
:102A7000CFC02B893C8943E050E0BE01615F7F4FAE
:102A8000CE0109960E94DC0D6BEC72E0CE0101963E
:102A90000E94AB0DBE01675F7F4FCE0101960E9481
:102AA000980D0E94ED0CCE0101960E94610A65EE20
:102AB00072E0CE0109960E941D0DC12CD12C760129
:102AC000DA94811177C06BEE72E0CE0109960E9414
:102AD0001D0DC12CD12C7601EA9481116BC060EFE1
:102AE00072E0CE0109960E941D0DC12CD12C7601F9
:102AF000CA9481115FC065EF72E0CE0109960E9411
:102B00001D0DC12C75EAD72EEE24EA94F12C81110B
:102B100051C06DEF72E0CE0109960E941D0DC12CCF
:102B2000DD24DA94ED2CF12C811144C066E073E0D1
:102B3000CE0109960E941D0DCC24CA94DC2CE12CF8
:102B4000F12C811137C06EE073E0CE0109960E942E
:102B50001D0D40E8C42ED12C760181112BC066E1F9
:102B600073E0CE0109960E941D0D3BECC32E30ECA4
:102B7000D32EEE24EA94F12C81111CC06BE173E09A
:102B8000CE0109960E941D0DCC24CA94DC2CEC2C9D
:102B9000F12C81110FC062E273E0CE0109960E9410
:102BA0001D0DC12CD12C7601882321F0CC24CA9490
:102BB000D12C760180917F0590918005892B41F081
:102BC000A701960170E060E08DE795E00E94420564
:102BD00080917F0590918005029740F0A7019601B2
:102BE00061E070E08DE795E00E9442058DE795E099
:102BF0000E949E058AE293E00E94BA0A40E1C70162
:102C0000B6010E94760A8BE691E00E94690A17CF0E
:102C100069E373E0CE0101960E94AB0DBE016F5FC8
:102C20007F4FCE010F960E94020D182FCE01019604
:102C30000E94610A112309F40BC12B893C8947E0EA
:102C400050E0BE01615F7F4FCE0109960E94DC0D0E
:102C5000CD84DE84C114D10409F4F1CEE984FA8470
:102C60006CE270E0C7010E94291E8C010E191F0939
:102C7000892B11F40FEF1FEFF701EC0DFD1DB08054
:102C80001082E984FA846CE270E0C7010E94521E4F
:102C9000CE0CDF1CF601B082009721F4EE24EA94FA
:102CA000FE2C05C029853A857C01E21AF30A10162C
:102CB00011060CF0C4CE0E151F050CF0C0CE980105
:102CC00050E040E0BE01675F7F4FCE0101960E9459
:102CD000DC0D89819A81412C512C3201009721F021
:102CE0000E94E2172B013C01CE0101960E94610A6D
:102CF000A8014F5F5F4F9701BE01675F7F4FCE0115
:102D000001960E94DC0D89819A81812C912C5401BD
:102D1000009721F00E94E2174B015C01CE01019661
:102D20000E94610A2D853E85A7014F5F5F4FBE015E
:102D3000675F7F4FCE0101960E94DC0D89819A81E9
:102D4000C12CD12C7601009721F00E94E2176B0173
:102D50007C01CE0101960E94610A409220015092AE
:102D60002101609222017092230180921C019092B5
:102D70001D01A0921E01B0921F01C0921801D092B5
:102D80001901E0921A01F0921B0181E493E00E9484
:102D9000BA0A6091200170912101809122019091E5
:102DA000230142E00E94CA0A83E693E00E94BA0A25
:102DB00060911C0170911D0180911E0190911F0175
:102DC00042E00E94CA0A84E793E00E94BA0A609136
:102DD00018017091190180911A0190911B010E94B4
:102DE000DE0C8FEF91E00E94BA0A60912001709191
:102DF0002101809122019091230142E00E94CA0AA0
:102E000089E092E00E94BA0A60911C0170911D0154
:102E100080911E0190911F0142E00E94CA0A89E040
:102E200092E00E94BA0A6091180170911901809194
:102E30001A0190911B010E94DE0C0E94A60B80E8F3
:102E400093E00E94BC0A80E893E00E94BC0AF7CDA0
:102E50006EE973E0CE0101960E94AB0DBE01615F89
:102E60007F4FCE0101960E94980D0E94ED0CCE017D
:102E700001960E94610AA5CC8091A8049091A904B2
:102E8000A091AA04B091AB04A7019601281B390BAD
:102E90004A0B5B0BDA01C901883B9B40A105B105D8
:102EA00008F4FDCC60E088E00E941C0261E089E04B
:102EB0000E941C028EEB93E00E94BC0A82E090E02C
:102EC000E2CC8091A8049091A904A091AA04B091A9
:102ED000AB04A7019601281B390B4A0B5B0BDA01E7
:102EE000C901883E9340A105B10508F4D8CC60E043
:102EF00089E00E941C0261E08CE00E941C028BE0D1
:102F000092E00E94BC0A1092B1041092B004BFCCAF
:102F10000E94DE020091A4041091A5042091A60451
:102F20003091A7046B017C01C01AD10AE20AF30AAE
:102F300097018601043F11402105310508F4AFCC0B
:102F40006093A4047093A5048093A6049093A704AF
:102F50001091A30481E018271093A304612F88E047
:102F60000E941C02612F89E00E941C02612F8CE0EC
:102F70000E941C0288EC93E0111102C085E992E0E6
:102F80000E94BC0A8CCC80917005909171050E94C2
:102F9000D31C80916D0590916E0597FD03C060E094
:102FA0000E944A0280918605909187050E94D31C59
:102FB000809183059091840597FD03C060E00C9497
:102FC0004A020895662777270C94E617B0E0A0E040
:102FD000ECEEF7E10C948F1A5C017B016115710531
:102FE00019F0DB018D939C9385010F5F1F4FF50155
:102FF000D0818D2F90E00E9436196C01892BB9F594
:10300000DD32B9F50F5F1F4FD5011196DC91C1E09C
:103010005801F1E0AF1AB10843E050E060E770E01A
:10302000C5010E943F19892B69F5680182E0C80E2D
:10303000D11C45E050E06BE670E0C6010E943F19EC
:10304000892B21F4680197E0C90ED11CE114F10429
:1030500019F0D701CD92DC9260E070E080E89FEF3C
:10306000C111FFC060E070E080E89FE7FAC058013E
:10307000BBCFDB3229F485010E5F1F4FF501D181F3
:10308000C0E0C6CF43E050E068E670E0C5010E94B2
:103090003F19892BE9F0F80110E000E020E030E072
:1030A000A9015F01B0ED8B2E8D0E89E08815C8F166
:1030B0009C2E689491F88C2F8870C2FF16C08111E5
:1030C00002C00F5F1F4F3196D501DC91C92DE9CFAA
:1030D000E114F10429F00E5F1F4FF7011183008303
:1030E00060E070E080EC9FE7BCC0882311F00150E5
:1030F0001109A5E0B0E00E947E1A9B01AC01220FED
:10310000331F441F551F280D311D411D511D2839E6
:1031100099E93907490799E15907A8F2C6609C2E39
:10312000D2CFAEEF8A1206C0C3FD3CC09C2E68947D
:1031300093F8C9CFDF7DD534A9F580818D3239F47C
:10314000C061DF011296818162E070E006C0DF019C
:103150008B32C1F3119661E070E080535D01A61AD5
:10316000B70A8A30F8F4E0E8CE16ECE0DE065CF44C
:10317000B601660F771F660F771FC60ED71ECC0CE1
:10318000DD1CC80ED11C5D01FFEFAF1ABF0A8C9188
:1031900080538A30A8F1C4FF03C0D194C194D108F0
:1031A0000C0D1D1DC1FF09C0E114F10431F081E0D7
:1031B000A81AB108D701AD92BC92CA01B9010E9408
:1031C0005C19C370C33009F490584B015C0120E0D6
:1031D00030E0A9010E945719882309F440C0CFE9C3
:1031E000D0E017FF05C0119501951109C7E8D0E09F
:1031F0006E01B8E1CB1AD10880E2E82EF12C0FC0A5
:10320000D501B1CFFE0125913591459154910E190B
:103210001F09C501B4010E94BD194B015C01D50114
:10322000C4010E151F0574F72497F594E794CC1686
:10323000DD06A9F78A2F880F8B2F881F8F3F49F053
:1032400020E030E0A901C501B4010E9457198111A5
:1032500006C082E290E09093B9058093B805C5015D
:10326000B401CDB7DEB7ECE00C94AB1A91110C941D
:103270002A1A803219F089508550C8F70895FB0149
:10328000DC014150504088F08D9181341CF08B3529
:103290000CF4805E659161341CF06B350CF4605E5B
:1032A000861B611171F3990B0895881BFCCF0E9456
:1032B000991908F481E00895E89409C097FB3EF459
:1032C00090958095709561957F4F8F4F9F4F992373
:1032D000A9F0F92F96E9BB279395F69587957795F1
:1032E0006795B795F111F8CFFAF4BB0F11F460FFB1
:1032F0001BC06F5F7F4F8F4F9F4F16C0882311F009
:1033000096E911C0772321F09EE8872F762F05C01C
:10331000662371F096E8862F70E060E02AF09A95B7
:10332000660F771F881FDAF7880F9695879597F9AC
:103330000895990F0008550FAA0BE0E8FEEF161646
:103340001706E807F907C0F012161306E407F50799
:1033500098F0621B730B840B950B39F40A2661F00D
:10336000232B242B252B21F408950A2609F4A140B0
:10337000A6958FEF811D811D08950E94D0190C9490
:10338000441A0E94361A38F00E943D1A20F0952304
:1033900011F00C942D1A0C94331A11240C94781AF1
:1033A0000E94551A70F3959FC1F3950F50E0551F79
:1033B000629FF001729FBB27F00DB11D639FAA278A
:1033C000F00DB11DAA1F649F6627B00DA11D661FD9
:1033D000829F2227B00DA11D621F739FB00DA11DFA
:1033E000621F839FA00D611D221F749F3327A00DB4
:1033F000611D231F849F600D211D822F762F6A2F50
:1034000011249F5750409AF0F1F088234AF0EE0FB4
:10341000FF1FBB1F661F771F881F91505040A9F7E1
:103420009E3F510580F00C942D1A0C94781A5F3F42
:10343000E4F3983ED4F3869577956795B795F7951D
:10344000E7959F5FC1F7FE2B880F911D9695879595
:1034500097F9089599278827089597F99F6780E835
:1034600070E060E008959FEF80EC089500240A94D6
:103470001616170618060906089500240A9412164F
:103480001306140605060895092E0394000C11F482
:10349000882352F0BB0F40F4BF2B11F460FF04C02F
:1034A0006F5F7F4F8F4F9F4F089557FD9058440F88
:1034B000551F59F05F3F71F04795880F97FB991F93
:1034C00061F09F3F79F08795089512161306140650
:1034D000551FF2CF4695F1DF08C0161617061806DD
:1034E000991FF1CF86957105610508940895E894B8
:1034F000BB2766277727CB0197F908950E94C01A4A
:10350000A59F900DB49F900DA49F800D911D112437
:1035100008952F923F924F925F926F927F928F9277
:103520009F92AF92BF92CF92DF92EF92FF920F9352
:103530001F93CF93DF93CDB7DEB7CA1BDB0B0FB65C
:10354000F894DEBF0FBECDBF09942A883988488819
:103550005F846E847D848C849B84AA84B984C884AF
:10356000DF80EE80FD800C811B81AA81B981CE0FA6
:10357000D11D0FB6F894DEBF0FBECDBFED0108958B
:10358000A29FB001B39FC001A39F700D811D1124A4
:10359000911DB29F700D811D1124911D08955058E9
:1035A000BB27AA270E94E71A0C94441A0E94361AD5
:1035B00038F00E943D1A20F039F49F3F19F426F4A8
:1035C0000C94331A0EF4E095E7FB0C942D1AE92FB6
:1035D0000E94551A58F3BA176207730784079507B4
:1035E00020F079F4A6F50C94771A0EF4E0950B2EE2
:1035F000BA2FA02D0B01B90190010C01CA01A00145
:103600001124FF27591B99F0593F50F4503E68F19F
:103610001A16F040A22F232F342F4427585FF3CFE0
:10362000469537952795A795F0405395C9F77EF4B1
:103630001F16BA0B620B730B840BBAF09150A1F0FA
:10364000FF0FBB1F661F771F881FC2F70EC0BA0F80
:10365000621F731F841F48F4879577956795B79508
:10366000F7959E3F08F0B0CF9395880F08F0992703
:10367000EE0F9795879508950E94501B0C94441A5D
:103680000E943D1A58F00E94361A40F029F45F3F1C
:1036900029F00C942D1A51110C94781A0C94331AA9
:1036A0000E94551A68F39923B1F3552391F3951BA2
:1036B000550BBB27AA2762177307840738F09F5F53
:1036C0005F4F220F331F441FAA1FA9F335D00E2EC0
:1036D0003AF0E0E832D091505040E695001CCAF72D
:1036E0002BD0FE2F29D0660F771F881FBB1F2617F0
:1036F00037074807AB07B0E809F0BB0B802DBF01C7
:10370000FF2793585F4F3AF09E3F510578F00C9495
:103710002D1A0C94781A5F3FE4F3983ED4F3869503
:1037200077956795B795F7959F5FC9F7880F911DB6
:103730009695879597F90895E1E0660F771F881FA2
:10374000BB1F621773078407BA0720F0621B730B55
:10375000840BBA0BEE1F88F7E09508950E945D1A5E
:1037600088F09F5798F0B92F9927B751B0F0E1F042
:10377000660F771F881F991F1AF0BA95C9F714C0F2
:10378000B13091F00E94771AB1E008950C94771A45
:10379000672F782F8827B85F39F0B93FCCF386952B
:1037A00077956795B395D9F73EF490958095709588
:1037B00061957F4F8F4F9F4F08950E94991908F48C
:1037C0008FEF08950E949919880B990B0895AA1BF1
:1037D000BB1B51E107C0AA1FBB1FA617B70710F0FC
:1037E000A61BB70B881F991F5A95A9F7809590952E
:1037F000BC01CD01089597FB072E16F4009407D065
:1038000077FD09D00E94E71B07FC05D03EF4909598
:1038100081959F4F0895709561957F4F0895A1E21E
:103820001A2EAA1BBB1BFD010DC0AA1FBB1FEE1F3A
:10383000FF1FA217B307E407F50720F0A21BB30B85
:10384000E40BF50B661F771F881F991F1A9469F701
:1038500060957095809590959B01AC01BD01CF015D
:103860000895EE0FFF1F0590F491E02D09940F933A
:103870001F93CF93DF938230910510F482E090E0A4
:10388000E091BC05F091BD0530E020E0B0E0A0E0A3
:10389000309799F42115310509F44AC0281B390BDA
:1038A00024303105D8F58A819B816115710589F134
:1038B000FB0193838283FE0111C04081518102810B
:1038C000138148175907E0F04817590799F41097E2
:1038D00061F012960C93129713961C933296CF01B7
:1038E000DF91CF911F910F9108950093BC05109324
:1038F000BD05F4CF2115310551F04217530738F0BB
:10390000A901DB019A01BD01DF01F801C1CFEF017F
:10391000F9CF9093BD058093BC05CDCFFE01E20F9A
:10392000F31F819391932250310939832883D7CF94
:103930002091BA053091BB05232B41F42091290138
:1039400030912A013093BB052093BA0520912701BD
:10395000309128012115310541F42DB73EB7409132
:103960002B0150912C01241B350BE091BA05F091ED
:10397000BB05E217F307A0F42E1B3F0B28173907EE
:1039800078F0AC014E5F5F4F2417350748F04E0FBB
:103990005F1F5093BB054093BA05819391939FCFCE
:1039A000F0E0E0E09CCFCF93DF930097E9F0FC01DB
:1039B000329713821282A091BC05B091BD05ED0132
:1039C00030E020E01097A1F420813181820F931F15
:1039D0002091BA053091BB052817390709F061C05D
:1039E000F093BB05E093BA05DF91CF910895EA010A
:1039F000CE17DF07E8F54A815B819E01411551052D
:103A0000B1F7E901FB83EA8349915991C40FD51FAE
:103A1000EC17FD0761F4808191810296840F951F58
:103A2000E90199838883828193819B838A83F0E073
:103A3000E0E012968D919C9113970097B9F52D9126
:103A40003C911197CD010296820F931F2091BA05E8
:103A50003091BB052817390739F6309751F5109288
:103A6000BD051092BC05B093BB05A093BA05BCCFB1
:103A7000D383C28340815181840F951FC817D90712
:103A800061F44E5F5F4F88819981480F591F5183C0
:103A900040838A819B81938382832115310509F0BC
:103AA000B0CFF093BD05E093BC059ECFFD01DC01D6
:103AB000C0CF13821282D7CFB0E0A0E0E2E6FDE1F2
:103AC0000C948B1A8C01009751F4CB010E94371C87
:103AD0008C01C801CDB7DEB7E0E10C94A71AFC0158
:103AE000E60FF71F9C0122503109E217F30708F493
:103AF0009DC0D901CD91DC911197C617D70798F0D9
:103B0000C530D10530F3CE0104978617970708F327
:103B1000C61BD70B2297C193D1936D937C93CF0192
:103B20000E94D31CD6CF5B01AC1ABD0A4C018C0E8F
:103B30009D1EA091BC05B091BD05512C412CF12CCE
:103B4000E12C109731F58091BA059091BB0588154D
:103B5000990509F05CC04616570608F058C08091D8
:103B6000270190912801009741F48DB79EB74091AD
:103B70002B0150912C01841B950BE817F90708F0D5
:103B800055C0F093BB05E093BA05F90171836083DA
:103B9000A0CF8D919C91119712966C9012971396CD
:103BA0007C901397A815B90559F56C0142E0C40E35
:103BB000D11CCA14DB0420F1AC014A195B09DA01FB
:103BC0001296159780F06282738251834083D901E7
:103BD0006D937C93E114F10471F0D7011396FC937B
:103BE000EE93129776CF22968C0F9D1FF901918349
:103BF0008083F301EFCFF093BD05E093BC0569CF5F
:103C00004816590608F42C017D01D3019ACFCB0147
:103C10000E94371C7C01009749F0AE01B8010E9458
:103C2000191EC8010E94D31C870153CF10E000E089
:103C300050CFFB01DC0102C001900D924150504079
:103C4000D8F70895DC0101C06D9341505040E0F772
:103C50000895FC018191861721F08823D9F79927CF
:103C600008953197CF010895FB01DC018D910190FA
:103C700080190110D9F3990B0895FB01DC01019023
:103C80000D920020E1F70895FB01DC014150504006
:103C900030F08D910190801919F40020B9F7881B3C
:103CA000990B0895FC0181E090E00190061609F45B
:103CB000CF010020D1F70197089510E0C0E9D0E0CE
:103CC00004C0FE010E94311C2196C139D107C9F7F9
:103CD000F894FFCF2862A219FC00009E2851B4304E
:103CE000FF0000CD285FA651FC0000DA00000C4266
:103CF0000000A041000020C10101000000BE0580BD
:103D00000000004000140054005E00BC0077010079
:103D10000000008601E6001301D3014401220136B0
:103D20000100000000D903AC033F058203A5039204
:103D3000038303000000003705E6003F053E050D44
:103D40000A006E616E00696E66006F7666002D2D4A
:103D50002D2D2D2D204C65637475726120646520B6
:103D600054656D706572617475726173202D2D2DAF
:103D70002D2D2D0053656E736F7220313A20002077
:103D8000430053656E736F7220323A200053656EA4
:103D9000736F7220333A20002D2D2D2D2D2D2D2DBA
:103DA0002D2D2D2D2D2D2D2D2D2D2D2D2D2D2D2D43
:103DB0002D2D2D2D2D2D2D2D2D2D2D2D00496E69C7
:103DC0006369616E646F2053656D61666F726F2EFB
:103DD0002E2E00756D6272616C65733A002C004581
:103DE000737461646F2045300043616D6269616482
:103DF0006F2061206D6F646F2046554E43494F4ED2
:103E0000414E444F0043616D626961646F206120DF
:103E10006D6F646F204D414E54454E494D49454E9E
:103E2000544F00436F6D616E646F20726563696209
:103E300069646F3A20270061637469766172005388
:103E4000656D61666F726F20616374697661646F1E
:103E5000006170616761720053656D61666F726FBA
:103E6000206170616761646F0045737461646F20E5
:103E70004D616E74656E696D69656E746F204F6615
:103E800066006C63643A004D6F737472616E646FA8
:103E900020656E204C43443A20270077733A004354
:103EA000616D6269616E646F204C454473205753A5
:103EB0003238313220613A200076657264650072D2
:103EC0006F6A6F00617A756C006E6172616E6A6113
:103ED00000616D6172696C6C6F0063656C65737411
:103EE000650076696F6C65746100726F7361006262
:103EF0006C616E636F006D6167656E74610057532E
:103F00003238313220636F6C6F723A2000756D6207
:103F100072616C3A00556D6272616C657320616309
:103F20007475616C697A61646F73202D3E204E6FE9
:103F3000726D616C3A2000207C2041647665727459
:103F4000656E6369613A2000207C20526965736761
:103F50006F3A200045737461646F3A20556D627248
:103F6000616C65732061637475616C697A61646FFB
:103F70007300436F6D616E646F20646573636F6E71
:103F80006F6369646F3A200045737461646F204504
:103F9000310045737461646F20453200457374616C
:103FA000646F204D616E74656E696D69656E746FC6
:043FB000204F6E0030
:107E0000112484B714BE81FFF0D085E080938100F7
:107E100082E08093C00088E18093C10086E0809377
:107E2000C20080E18093C4008EE0C9D0259A86E02C
:107E300020E33CEF91E0309385002093840096BBD3
:107E4000B09BFECF1D9AA8958150A9F7CC24DD24C4
:107E500088248394B5E0AB2EA1E19A2EF3E0BF2EE7
:107E6000A2D0813461F49FD0082FAFD0023811F036
:107E7000013811F484E001C083E08DD089C08234E0
:107E800011F484E103C0853419F485E0A6D080C0E4
:107E9000853579F488D0E82EFF2485D0082F10E0AE
:107EA000102F00270E291F29000F111F8ED06801E7
:107EB0006FC0863521F484E090D080E0DECF843638
:107EC00009F040C070D06FD0082F6DD080E0C81688
:107ED00080E7D80618F4F601B7BEE895C0E0D1E017
:107EE00062D089930C17E1F7F0E0CF16F0E7DF06D8
:107EF00018F0F601B7BEE89568D007B600FCFDCFD4
:107F0000A601A0E0B1E02C9130E011968C91119780
:107F100090E0982F8827822B932B1296FA010C0160
:107F200087BEE89511244E5F5F4FF1E0A038BF0790
:107F300051F7F601A7BEE89507B600FCFDCF97BE46
:107F4000E89526C08437B1F42ED02DD0F82E2BD052
:107F50003CD0F601EF2C8F010F5F1F4F84911BD097
:107F6000EA94F801C1F70894C11CD11CFA94CF0C13
:107F7000D11C0EC0853739F428D08EE10CD085E9AC
:107F80000AD08FE07ACF813511F488E018D01DD067
:107F900080E101D065CF982F8091C00085FFFCCF94
:107FA0009093C60008958091C00087FFFCCF809118
:107FB000C00084FD01C0A8958091C6000895E0E648
:107FC000F0E098E1908380830895EDDF803219F02E
:107FD00088E0F5DFFFCF84E1DECF1F93182FE3DFCA
:107FE0001150E9F7F2DF1F91089580E0E8DFEE27F6
:047FF000FF270994CA
:027FFE00040479
:00000001FF
