:100000000C9491000C94B9000C94B9000C94B900B4
:100010000C94B9000C94B9000C94B9000C94B9007C
:100020000C94B9000C94B9000C94B9000C94B9006C
:100030000C94B9000C94B9000C94B9000C94B9005C
:100040000C940D0A0C94B9000C94DB090C94B509BE
:100050000C94B9000C94B9000C94B9000C94B9003C
:100060000C94570A0C94B9004E414E494E495459CC
:10007000494E46CDCCCC3D0AD7233C17B7D1387773
:10008000CC2B329595E6241FB14F0A000020410089
:1000900000C84200401C4620BCBE4CCA1B0E5AAED3
:1000A000C59D7400000000240027002A0000000005
:1000B0000800020100000304070000000000000027
:1000C00000005EBCE2613FDD83C29C7E20A3FD1F79
:1000D00041009D23BE46DB65F88C11AF32CA57E95B
:1000E0007400000000250028002B00000000002301
:1000F000002600290004040404040404040202028B
:100100000202020303030303030102040810204058
:100110008001020408102001020408102000D30B03
:10012000E71511241FBECFEFD8E0DEBFCDBF25E01D
:10013000A4E6B3E001C01D92AE33B207E1F713E0CD
:10014000A0E0B1E0E8E3F8E302C005900D92A43628
:10015000B107D9F710E0C0E9D0E004C02197FE0153
:100160000E94E319CF38D107C9F70E94770C0C948D
:100170000F1C0C940000CF93DF93EC016885693766
:1001800001F129853A856150B9F070E08FEF98E769
:100190000E949919F9014C815D81CF01821B930B5B
:1001A0008417950760F44081469FC001479F900DDA
:1001B000112490833196EFCF70E060E0EBCF89E7B8
:1001C0008887DF91CF91089508950895AF92BF92E7
:1001D000CF92DF92EF92FF920F931F93CF93DF9313
:1001E0006C017B018B01040F151FEB015E01AE1842
:1001F000BF08C017D10759F06991D601ED91FC9164
:100200000190F081E02DC6010995892B79F7C50190
:10021000DF91CF911F910F91FF90EF90DF90CF90E2
:10022000BF90AF900895FC01538D448D252F30E091
:10023000842F90E0821B930B541710F0CF960895F3
:1002400001970895FC01918D828D981761F0A28D20
:10025000AE0FBF2FB11D5D968C91928D9F5F9F73E6
:10026000928F90E008958FEF9FEF0895FC01918D9C
:10027000828D981731F0828DE80FF11D858D90E009
:1002800008958FEF9FEF0895FC01918D228D892FA6
:1002900090E0805C9F4F821B91098F73992708958E
:1002A00082E394E00E94440121E0892B09F420E0DC
:1002B000822F089580E090E0892B29F00E94500160
:1002C00081110C9400000895FC01A48DA80FB92F92
:1002D000B11DA35ABF4F2C91848D90E001968F736E
:1002E0009927848FA689B7892C93A089B1898C918D
:1002F000837080648C93938D848D981306C00288DC
:10030000F389E02D80818F7D80830895EF92FF92A5
:100310000F931F93CF93DF93EC0181E0888F9B8D28
:100320008C8D98131AC0E889F989808185FF15C0E2
:100330009FB7F894EE89FF896083E889F989808105
:100340008370806480839FBF81E090E0DF91CF91D4
:100350001F910F91FF90EF900895F62E0B8D10E0F6
:100360000F5F1F4F0F731127E02E8C8D8E110CC065
:100370000FB607FCFACFE889F989808185FFF5CFB0
:10038000CE010E946401F1CFEB8DEC0FFD2FF11D2A
:10039000E35AFF4FF0829FB7F8940B8FEA89FB89ED
:1003A00080818062CFCFCF93DF93EC01888D88234B
:1003B000B9F0AA89BB89E889F9898C9185FD03C0C8
:1003C000808186FD0DC00FB607FCF7CF8C9185FFAD
:1003D000F2CF808185FFEDCFCE010E946401E9CF8D
:1003E000DF91CF910895833081F028F4813099F026
:1003F0008230A9F008958730A9F08830C9F08430A0
:10040000B1F4809180008F7D03C0809180008F7750
:1004100080938000089584B58F7784BD089584B556
:100420008F7DFBCF8091B0008F778093B0000895CF
:100430008091B0008F7DF9CF1F93CF93DF93282F4A
:1004400030E0F901E355FF4F8491F901E75FFE4F7A
:10045000D491F901EB50FF4FC491CC23A9F0162F92
:1004600081110E94F301EC2FF0E0EE0FFF1FEF511E
:10047000FF4FA591B4918FB7F894EC91111108C07A
:10048000D095DE23DC938FBFDF91CF911F9108952C
:10049000DE2BF8CFCF93DF9390E0FC01E75FFE4FB8
:1004A00024918B509F4FFC0184918823C9F090E0E8
:1004B000880F991FFC01ED55FF4FA591B491FC01E8
:1004C000EF51FF4FC591D49161110DC09FB7F894C2
:1004D0008C91209582238C938881282328839FBF29
:1004E000DF91CF910895623051F49FB7F8943C9119
:1004F000822F809583238C93E8812E2BEFCF8FB7AB
:10050000F894EC912E2B2C938FBFEACF3FB7F89441
:1005100080911B0490911C04A0911D04B0911E04B5
:1005200026B5A89B05C02F3F19F00196A11DB11D4E
:100530003FBFBA2FA92F982F8827BC01CD01620F8A
:10054000711D811D911D42E0660F771F881F991F45
:100550004A95D1F708958F929F92AF92BF92CF9212
:10056000DF92EF92FF926B017C010E9486024B01A9
:100570005C01C114D104E104F104B9F00E948602C7
:10058000681979098A099B09683E734081059105BC
:1005900080F321E0C21AD108E108F10888EE880E44
:1005A00083E0981EA11CB11CE4CFFF90EF90DF9078
:1005B000CF90BF90AF909F908F9008952FB7F894F1
:1005C00060911704709118048091190490911A0495
:1005D0002FBF08950F931F930E94DE0260933A0489
:1005E00070933B0480933C0490933D0482E394E039
:1005F0000E94220197FF1DC00E94DE0200913A0472
:1006000010913B0420913C0430913D04601B710B20
:10061000820B930B0091360410913704209138041B
:10062000309139046017710782079307F8F28FEF52
:100630009FEF1F910F9108952091CC03260F332730
:10064000331F21323105ECF42091F003FC0190E0DE
:1006500080E0243069F082E00895A091CC032191DC
:10066000AC0144555C4FA40FB52FB11D2C930196DE
:10067000861798F38091CC03680F6093CC0380E0D9
:10068000089581E008951092F00381E08093F203D1
:100690001092F10361E082E10E941C0261E083E1BB
:1006A0000E941C02E9EBF0E080818E7F80838081D4
:1006B0008D7F808388E48093B80085E48093BC00BC
:1006C0000895CF93DF9391E09093AB038823B9F023
:1006D000C091B800D091BA008091BC008A7B809311
:1006E000BC0060E082E10E941C0260E083E10E94A5
:1006F0001C020E944303D093BA00C093B800DF915C
:10070000CF9108950895E091260480912504E8177B
:1007100030F4F0E0EA57FC4F808190E008958FEFCD
:100720009FEF089590912604809125042FEF3FEFCD
:10073000981748F4E92FF0E0EA57FC4F208130E0A9
:100740009F5F90932604C90108958091250490919C
:100750002604891B990B0895CF92DF92EF92FF92A6
:100760000F931F93CF93DF937C01CB018A012091DC
:100770008503222389F0EB016B01C40ED51ECC1535
:10078000DD0569F06991D701ED91FC910190F0814F
:10079000E02DC7010995F3CF642F0E941C03C80107
:1007A000DF91CF911F910F91FF90EF90DF90CF904D
:1007B0000895CF93DF931F92CDB7DEB76983209161
:1007C00085032223F9F020912304203258F021E000
:1007D00030E0FC013383228390E080E00F90DF91D2
:1007E000CF91089580912404E82FF0E0EB59FC4F5D
:1007F000998190838F5F809324048093230481E008
:1008000090E0ECCF61E0CE0101960E941C03F7CF8F
:10081000CF92DF92EF92FF920F931F93CF93DF93CC
:10082000D62F672FFC01C48181E080938503C0939C
:10083000640310922404109223048FEC94E00E942D
:10084000D9036D2F8FEC94E00E94D903D09123043B
:10085000D13208F092C00E9486026B017C01809127
:10086000F003811165C082E08093F00381E0809302
:10087000F2038FEF8093EF0310921404D0931304CC
:10088000A5E6B3E0E3EFF3E080E0D81385C0109273
:10089000150480911504CC0FC82BC09315048091CA
:1008A000F103813009F07CC01092F1030E948602AE
:1008B0006B017C01809115048093BB008091A7039C
:1008C0009091A803A091A903B091AA03892B8A2B28
:1008D0008B2B99F00E9486020091A7031091A80328
:1008E0002091A9033091AA036C197D098E099F09F3
:1008F0000617170728073907E0F18091BC0083FD30
:10090000D9CF85EC8093BC000E9486026B017C01EC
:100910008091F003823009F445C08091EF038F3F4E
:1009200061F18091EF03803241F18091EF0325C0A6
:100930008091A7039091A803A091A903B091AA0365
:10094000892B8A2B8B2B09F48ACF0E948602009177
:10095000A7031091A8032091A9033091AA036C1951
:100960007D098E099F09061717072807390708F020
:1009700076CF8091A6030E94610310922404109206
:10098000230410928503DF91CF911F910F91FF9067
:10099000EF90DF90CF9008959D9191938F5F75CFE9
:1009A00085EEB0CF8091A7039091A803A091A903F1
:1009B000B091AA03892B8A2B8B2B09F4A9CF0E9413
:1009C00086020091A7031091A8032091A9033091FA
:1009D000AA036C197D098E099F09061717072807B6
:1009E000390708F095CFC5CFCF93DF93CDB7DEB7EA
:1009F00028970FB6F894DEBF0FBECDBF98E0E9E4AC
:100A0000F1E0DE01119601900D929A95E1F7909137
:100A1000E304981708F48FEF90E0880F991F21E006
:100A200030E02C0F3D1F820F931FFC016081606836
:100A300070E08BED94E028960FB6F894DEBF0FBE01
:100A4000CDBFDF91CF910C94080461E070E08BED95
:100A500094E00E9408048BE39FE10197F1F78091F5
:100A6000E404882319F080E00C94F404089570E005
:100A700070640E94080481E090E00895089590E079
:100A800080E008958F929F92AF92BF92CF92DF92B3
:100A9000EF92FF921F93CF93DF93FC014A01AA24A8
:100AA000BB24C82DC32ED42EE52EFF241C2DD22FFF
:100AB0008085882361F0889E40011124C92D8C9D7A
:100AC000600111241D2D829FD0011124DB2FA685EA
:100AD000E184F2849385A91322C0CB01880F991F6A
:100AE000680F791F6E0D7F1DA385A60FB72FB11D4F
:100AF000CC93A485A60FB72FB11D1C938585680FD5
:100B0000711DFB01D083DF91CF911F91FF90EF907A
:100B1000DF90CF90BF90AF909F908F900895660F19
:100B2000771F660F771F6E0D7F1D252F33274427F4
:100B30005527882349F090E0829F7001839FF00C35
:100B4000929FF00C11242F2DA60FB72FB11D2C93BF
:100B5000CBCFCF92DF92EF92FF920F931F93CF9361
:100B6000DF93CDB7DEB729970FB6F894DEBF0FBE7F
:100B7000CDBF8C01DC0119968D919C91892B09F4D4
:100B800073C00E948602F801C784D088E188F28889
:100B90006C157D058E059F0520F46787708B818B12
:100BA000928BF801C784D088E188F2886C197D099E
:100BB0008E099F096C3271408105910510F3F894FC
:100BC000D80114968D919C9115979A8389831996D3
:100BD000ED91FC917F01BFEFEB1AFB0A80818987C1
:100BE000F80190810388F489E02DD80155968C9105
:100BF000992309F448C09081982B9887908180951B
:100C000089238F838F818C8388E08B8358856F81C4
:100C100049853B812C8189819A81D701508347FD89
:100C2000252F3A952083262F39F0441F00C000005D
:100C30006083000000C0F2CF38E04D916083000077
:100C4000019761F7D8015496FC93EE935397498727
:100C50003B832C839A83898378940E948602F801CF
:100C60006787708B818B928B29960FB6F894DEBFC5
:100C70000FBECDBFDF91CF911F910F91FF90EF90ED
:100C8000DF90CF9008959081982B988790818095E0
:100C900089238F838F818E8388E08D8358856F8130
:100CA00049853D812E8189819A81D701508347FDF5
:100CB000252F00C000C0208300C000C000C000C0BD
:100CC00000C060830000262F3A9541F0441F0000C9
:100CD00000C000C000C000C000C0E8CF38E04D91A7
:100CE00000C0608300C0019709F7D8015496FC93B7
:100CF000EE93539749873D832E83ACCFCF93DF93F9
:100D0000EC018E819F8197FD0CC061E00E944A0238
:100D100060E08E810E941C0281E08983DF91CF9187
:100D20000895198280E0FACF8F929F92AF92BF927E
:100D3000CF92DF92EF92FF920F931F93CF93DF93A7
:100D4000DC0128E030E081E088248A94912C0FE0D7
:100D500010E053E2E52EF12C77EDC72ED12C9C91BB
:100D60001196ED91FC911297792F7095562F58237B
:100D700009F438C0F8945281572352835181592B7A
:100D80005183E7012197F1F75281952B9283789453
:100D9000F6013197F1F7880F2150310901F7411120
:100DA00014C0F8941196ED91FC91129791818C9159
:100DB0008095892381831196ED91FC911297928100
:100DC0008C918095892382837894DF91CF911F91B4
:100DD0000F91FF90EF90DF90CF90BF90AF909F90DA
:100DE0008F900895F8945281572352835181592B43
:100DF0005183E4012197F1F75281952B92837894E6
:100E0000F801C7CFDC012C911196ED91FC91F8947B
:100E10008181822B81839281322F3095932392831B
:100E200087E090E00197F1F781818323818383E25A
:100E300090E00197F1F790817894EFECF0E0319732
:100E4000F1F7922381E009F480E00895FC0190819C
:100E50000180F281E02DF8948181292F2095822351
:100E6000818378943DE743E050E0315029F1DA0185
:100E70001197F1F780818923C1F3F894828182234D
:100E800082838181892B81837894ABE7B7E01197C6
:100E9000F1F7F894818182238183A3E1B1E0119776
:100EA000F1F78081982381E009F080E07894E3E60F
:100EB000F6E03197F1F7089580E00895CF93DF933E
:100EC000EC0188819981009711F00E94851A19829E
:100ED00018821D821C821B821A82DF91CF91089595
:100EE000FC0180819181009711F00C94851A08957E
:100EF000FC0101900020E9F73197AF01481B590B25
:100F0000BC0182E394E00C94E6008F929F92AF9232
:100F1000BF920F931F93CF93DF93CDB7DEB7A19707
:100F20000FB6F894DEBF0FBECDBF19A2423008F451
:100F30004AE08E010F5D1F4F842E912CB12CA12C05
:100F4000A50194010E94C119E62FB901CA01EA3036
:100F5000F4F4E05DD801EE938D01232B242B252B97
:100F600079F790E080E0109719F0CD010E947807A2
:100F7000A1960FB6F894DEBF0FBECDBFDF91CF9123
:100F80001F910F91BF90AF909F908F900895E95C53
:100F9000E1CFCF93DF930E947807EC0187E891E0DF
:100FA0000E9478078C0F9D1FDF91CF910895CF93FA
:100FB000DF93FC01448155816081718182E394E07B
:100FC0000E94E600EC0187E891E00E9478078C0F10
:100FD0009D1FDF91CF910895DF92EF92FF920F93C3
:100FE0001F93CF93DF93FC01E480F580E114F104BB
:100FF00051F48FEF9FEFDF91CF911F910F91FF90F1
:10100000EF90DF900895EC010190F081E02DEE0D5E
:10101000FF1DD0801082088119816CE270E0C80148
:101020000E94041C0E0D1F1DF801D082009709F3C9
:1010300028813981821B930BDECFCF93DF93FC0194
:1010400024813581232B79F0C081D181062E000CBB
:10105000770BCE010E94DB1B009729F08C1B9D0BA8
:10106000DF91CF9108958FEF9FEFFACFFC01808140
:101070009181009711F00C94061660E070E0CB01AE
:101080000895FB0144815581FC0124813581241799
:10109000350778F080819181009759F0FB016081DC
:1010A00071816115710529F00E94F61B21E0892BE1
:1010B00009F020E0822F0895FC0124813581232B43
:1010C00039F421E0FB018081882349F020E007C04A
:1010D000808191810E94E61B21E0892BB9F7822F44
:1010E00008950F931F93CF93DF93EC01888199812B
:1010F000009759F02A813B812617370730F081E0AD
:10110000DF91CF911F910F9108958B016F5F7F4FFA
:101110000E940E1B009759F0998388831B830A83D2
:101120002C813D81232B59F7FC011082E8CF80E010
:10113000E7CFEF92FF920F931F93CF93DF93611549
:10114000710541F480E0DF91CF911F910F91FF90E5
:10115000EF90089541155105B1F07B01EC010C8130
:101160001D81040F151FB8010E947108882351F3D7
:10117000288139818C819D81B701820F931F0E9444
:10118000EF1B1D830C8381E0DECFCF93DF93EC0157
:1011900041E050E06AE572E00E949908811103C0C5
:1011A000CE010E945E07CE01DF91CF910895CF93CB
:1011B000DF93EC01FB0144815581608171810E94C4
:1011C0009908811103C0CE010E945E07CE01DF9114
:1011D000CF910895EF92FF920F931F93CF93DF93D8
:1011E000EC017B01198218821B821A821D821C82EB
:1011F000FB0101900020E9F731978F01061B170BC7
:10120000B8010E947108811109C0CE01DF91CF9110
:101210001F910F91FF90EF900C945E071D830C833C
:10122000B70188819981DF91CF911F910F91FF9034
:10123000EF900C94EF1B9F92AF92BF92CF92DF92F0
:10124000EF92FF920F931F93CF93DF937C016B017B
:101250005A0189012417350720F48B2D5901042FD9
:10126000182F69E871E0C7010E94EA08D6011496B8
:10127000CD91DC91AC16BD0650F50C171D0708F496
:10128000E801D601ED91FC911197EC0FFD1F9080C4
:1012900010820D911C910A0D1B1D0115110571F095
:1012A000F80101900020E9F731975F01A01AB10A17
:1012B000B501C7010E947108811116C0C7010E94C3
:1012C0005E07D6018D919C91C80FD91F9882C701E6
:1012D000DF91CF911F910F91FF90EF90DF90CF9012
:1012E000BF90AF909F900895F701B582A482B80196
:1012F000808191810E94EF1BE4CF85ED8093BC003B
:101300008091A7039091A803A091A903B091AA038B
:101310000796A11DB11D23E0B695A79597958795D2
:101320002A95D1F72091BC0024FD03C01092F00350
:1013300008954091A7035091A8036091A90370916B
:10134000AA03452B462B472B69F30097A105B1054E
:1013500041F025E32A95F1F700000197A109B109B1
:10136000E1CF8091A6030C9461031F920F920FB6F8
:101370000F9211242F933F934F935F936F937F931B
:101380008F939F93AF93BF93EF93FF9382E394E088
:101390000E946401FF91EF91BF91AF919F918F9156
:1013A0007F916F915F914F913F912F910F900FBE61
:1013B0000F901F9018951F920F920FB60F92112445
:1013C0002F938F939F93EF93FF93E0914204F091BB
:1013D00043048081E0914804F091490482FD1BC0E0
:1013E000908180914B048F5F8F7320914C04821702
:1013F00041F0E0914B04F0E0EE5CFB4F958F809361
:101400004B04FF91EF919F918F912F910F900FBE01
:101410000F901F9018958081F4CF1F920F920FB6F6
:101420000F9211242F933F938F939F93AF93BF936A
:101430008091170490911804A0911904B0911A0496
:101440003091160423E0230F2D3758F50196A11D86
:10145000B11D209316048093170490931804A09351
:101460001904B0931A0480911B0490911C04A0915C
:101470001D04B0911E040196A11DB11D80931B0493
:1014800090931C04A0931D04B0931E04BF91AF91D0
:101490009F918F913F912F910F900FBE0F901F90B2
:1014A000189526E8230F0296A11DB11DD2CF1F92D9
:1014B0000F920FB60F9211242F933F934F935F9388
:1014C0006F937F938F939F93AF93BF93EF93FF930C
:1014D0008091B900887F803609F44AC0F0F58832DF
:1014E00009F4A7C018F5803109F49BC0B8F488232B
:1014F00009F4F9C0883009F494C0FF91EF91BF91CD
:10150000AF919F918F917F916F915F914F913F919B
:101510002F910F900FBE0F901F901895883109F4EE
:1015200088C0803251F78093EF0314C0803409F4EF
:101530009DC040F48033B9F38833F9F68093EF030C
:1015400085ECB0C0803509F485C0883509F496C0B3
:10155000883499F60E947D09D0CF883909F48CC06F
:1015600038F5883729F050F4883611F0803729F69D
:1015700083E08093F0031092EE0357C0883809F49B
:101580007BC0803919F0803809F0B7CF8091EE0325
:10159000803208F071C0E091EE0381E08E0F8093FD
:1015A000EE038091BB00F0E0E253FC4F80833DC02E
:1015B000803B39F0E0F4803A09F479C0883A09F0C8
:1015C0009CCF84E08093F0031092CD031092CC0363
:1015D000E0912104F091220409958091CC038111BE
:1015E0000FC081E08093CC031092AC0309C0803C13
:1015F00009F4A6CF883C09F4A3CF883B09F07DCF3E
:10160000E091CD0381E08E0F8093CD03F0E0E455AF
:10161000FC4F80818093BB009091CD038091CC03DF
:1016200029C0809115048093BB0085EC8093BC0099
:1016300064CF9091140480911304981758F5E091A9
:10164000140481E08E0F80931404F0E0ED50FC4F01
:101650008081E9CFE091140481E08E0F809314041F
:101660008091BB00F0E0ED50FC4F8083909114041A
:10167000809113049817C8F285E8D8CFE09114043C
:1016800081E08E0F809314048091BB00F0E0ED5058
:10169000FC4F80838091F20381115CCF81E08093C5
:1016A000F10384EA8093BC001092F00326CF85EC0E
:1016B0008093BC001092F0038091EE03803230F4EE
:1016C000E091EE03F0E0E253FC4F10826091EE03F4
:1016D00070E0E0911F04F09120048EEC93E00995F6
:1016E0001092EE030ACF1092EF0334CFCF92DF9225
:1016F000EF92FF920F931F93CF93DF93EC016B0157
:10170000F42EE52E198218861F86188A198A1A8ADD
:1017100081E08E878B871C8692E09D8788838B0172
:10172000000F111F060F171F1D830C83C8010E9495
:10173000E9199A878987009789F1A80170E060E02C
:101740000E94D41BDB82CA82FE82EF8289818823B9
:1017500041F061E08F2D0E944A0260E08F2D0E94CF
:101760001C028F2D9E2DFC01EB50FF4FE491F0E009
:10177000EE0FFF1FEF51FF4F259134913C8B2B8BC8
:10178000FC01E75FFE4FE491ED8BDF91CF911F915C
:101790000F91FF90EF90DF90CF9008951D821C82F3
:1017A0001B821A82D1CFE2E3F4E01382128288EE28
:1017B00093E0A0E0B0E084839583A683B7832BE514
:1017C00031E03183208325EC30E03587248724EC19
:1017D00030E03787268720EC30E0318B208B21ECFE
:1017E00030E0338B228B22EC30E0358B248B26ECDF
:1017F00030E0378B268B118E128E138E148EEFEC09
:10180000F4E01382128284839583A683B7838DE6E6
:1018100091E0918380834AE050E062E070E082E2F0
:1018200095E00E94760B45E050E063E070E08CE0CC
:1018300095E00E94760B60E087E00E944A02E0E1BA
:10184000F1E0E491AEEFB4E0EC93ECEFF0E0E49182
:10185000F0E0EE0FFF1FE551FF4F85919491129636
:101860009C938E9311971B961C921B971D961C920E
:101870001D971C961C921C971A961C921A971996E3
:101880001C92199718961C92189717961C921797E6
:1018900016961C92169715961C92159714961C92E4
:1018A000149713961C921397E7EEF4E017821086B4
:1018B000108289E0838381E084838583868311821B
:1018C000168A158A8FEF838B148AB287A187EBED76
:1018D000F4E0138212828FE791E091838083118676
:1018E0008EE3848380E1828782E083870895CF93AB
:1018F000DF93CDB7DEB7A9970FB6F894DEBF0FBE62
:10190000CDBF789484B5826084BD84B5816084BD88
:1019100085B5826085BD85B5816085BD80916E008D
:10192000816080936E0010928100809181008260BE
:1019300080938100809181008160809381008091FB
:1019400080008160809380008091B10084608093EA
:10195000B1008091B00081608093B00080917A00E6
:10196000846080937A0080917A00826080937A000C
:1019700080917A00816080937A0080917A008068FB
:1019800080937A001092C10061E088E00E944A02D0
:1019900061E089E00E944A0261E08CE00E944A0214
:1019A00062E082E00E944A02E0914204F091430426
:1019B00082E08083E0913E04F0913F041082E09148
:1019C0004004F09141048FEC808310924A04E0912E
:1019D0004604F091470486E08083E0914404F0914E
:1019E0004504808180618083E0914404F091450446
:1019F000808188608083E0914404F0914504808177
:101A000080688083E0914404F091450480818F7D5B
:101A100080838AE891E00E94C90710922604109200
:101A2000250410922404109223040E94430384EEA0
:101A300090E0909322048093210485EE90E09093AF
:101A4000200480931F0480E18093E0048091E604E9
:101A5000823018F098E19093E0048093E3048BE3E4
:101A60009DE00197F1F76091E004606270E08BED1A
:101A700094E00E9408048BE496E40197F1F76091EA
:101A8000E004606270E08BED94E00E94080483E55E
:101A900092E00197F1F76091E004606270E08BEDF5
:101AA00094E00E9408046091E004606270E08BEDB5
:101AB00094E00E94080484E08093E1046CE070E00C
:101AC0008BED94E00E9408040E94250582E080933B
:101AD000E20466E070E08BED94E00E94080462E0AE
:101AE00070E08BED94E00E9408048BE39FE1019786
:101AF000F1F782E295E00E947E0682E295E00E9484
:101B0000A90582E295E00E94BB0082E295E00E9476
:101B1000A9058CE095E00E947E068CE095E00E948D
:101B2000A9058CE095E00E94BB008CE095E00E9446
:101B3000A90561E08CE00E941C0280EA91E00E940D
:101B4000C907EFEAF0E08491EBE0F1E00491E7EF00
:101B5000F0E0149111112FC0809141019091420148
:101B6000019709F43AC090E080E09093420180939D
:101B7000410182E394E00E944401181619060CF01A
:101B8000DBC369E871E0CE014C960E94EA080E942E
:101B9000EA0297FD4FC08A30910509F44BC0898352
:101BA0001A8241E050E0BE016F5F7F4FCE014C963C
:101BB0000E949908ECCF81110E94F301E12FF0E01F
:101BC000EE0FFF1FE551FF4FA591B491EC91E0237B
:101BD00009F4C2CF81E090E0C8CF62E370E080E01A
:101BE00090E00E94AB021091400181E01827109311
:101BF000400160E088E00E941C0260E089E00E94F1
:101C00001C0260E08CE00E941C0286EC91E0112333
:101C100071F08AEA91E00E94C90710923104109293
:101C2000300461E08CE00E941C0280EA91E00E9496
:101C3000C90799CFCC8CDD8CC114D10439F008A12F
:101C400019A176010115110509F0F2C064EE71E0E9
:101C5000CE0101960E94EA08BE01645E7F4FCE016C
:101C600001960E94D7080E94C5080E94D707CE019E
:101C700001960E94700768EF71E0CE014C960E94B9
:101C80005C08882309F40AC181E08093400180E068
:101C900092E00E94C907109231041092300460E073
:101CA00088E00E941C0260E089E00E941C0261E062
:101CB0008CE00E941C0280EA91E00E94C9076FEB51
:101CC00072E0CE0101960E94EA08BE016F5F7F4F6D
:101CD000CE014C960E944108182FCE0101960E9419
:101CE0007007112309F47CC428A139A147E050E012
:101CF000BE01645E7F4FCE0146960E941B096BE3D6
:101D0000CE0146960E941D088C01F12CE12C0F3F5C
:101D1000100709F491C29801A701BE016A5E7F4FC6
:101D2000CE0140960E941B096CE2CE0140960E94B3
:101D30001D086C01CE0140960E94EC077C012FEF3C
:101D4000C216D20609F455C0019609F452C0960194
:101D500050E040E0BE01605F7F4FCE010A960E94D6
:101D60001B09A6014F5F5F4F9701BE01605F7F4F68
:101D7000CE0101960E941B09CE0101960E943608F1
:101D80004B015C01CE0101960E9470072C893D89B0
:101D9000A7014F5F5F4FBE01605F7F4FCE0101968D
:101DA0000E941B09CE0101960E9436086B017C013E
:101DB000CE0101960E9470076AE772E0CE010A9692
:101DC0000E945C08882309F4D2C180923C01909261
:101DD0003D01A0923E01B0923F01C0923801D092E5
:101DE0003901E0923A01F0923B01CE010A960E943D
:101DF000700778014FEFE41AF40A8A8D9B8DE8167C
:101E0000F90670F4CE88DF886BE370E0C6018E0DB2
:101E10009F1D0E94DB1B8C010C191D09892B11F4DD
:101E20000FEF1FEFCE0140960E94700770CF750133
:101E300057012FEFA21AB20AD7018C91082E000C7D
:101E4000990B0E945A17892B91F7015011090C0D1B
:101E50001D1DF8018081082E000C990B0E945A1755
:101E6000892B31F00E151F0518F001501109F1CF23
:101E7000A8014F5F5F4F4E195F0959A348A3CE14C5
:101E8000DF0420F4B701C6010E94CB1BEC8DFD8D51
:101E900088A199A1E80FF91F1082D8CE62E172E003
:101EA000CE014C960E945C088823A9F01092400154
:101EB00089E192E00E94C90760E088E00E941C026C
:101EC00060E089E00E941C0260E08CE00E941C023D
:101ED0008AE292E0F2CE63E472E0CE0101960E94C3
:101EE000EA08BE016F5F7F4FCE014C960E94410809
:101EF000182FCE0101960E947007112309F45FC0CC
:101F000028A139A144E050E0BE01645E7F4FCE01BC
:101F10000A960E941B0968E472E0CE0101960E94B5
:101F2000EA08BE01665F7F4FCE0101960E94D70886
:101F30000E94C5080E94D707CE0101960E94700733
:101F40000E94250580E00E94F40420E130E050E08A
:101F500040E0BE01665F7F4FCE0101960E941B09E3
:101F60004D815E8169817A818BED94E00E94E6006B
:101F7000CE0101960E9470078E859F854197D0F013
:101F800081E00E94F40420E230E040E150E0BE0134
:101F9000665F7F4FCE0101960E941B094D815E81D5
:101FA00069817A818BED94E00E94E600CE01019672
:101FB0000E947007CE010A960E94700780CE6CE5E1
:101FC00072E0CE0101960E94EA08BE016F5F7F4F6A
:101FD000CE014C960E944108182FCE0101960E9416
:101FE0007007112309F46BCE28A139A143E050E01A
:101FF000BE01645E7F4FCE010A960E941B0960E617
:1020000072E0CE0101960E94EA08BE01665F7F4F32
:10201000CE0101960E94D7080E94D707CE010196F3
:102020000E9470076AE772E0CE010A960E945C087F
:10203000C12CD12C7601DA94811178C060E872E06D
:10204000CE010A960E945C08C12CD12C7601EA943C
:1020500081116CC065E872E0CE010A960E945C08AE
:10206000C12CD12C7601CA94811160C06AE872E05B
:10207000CE010A960E945C08C12C35EAD32EEE24CC
:10208000EA94F12C811152C062E972E0CE010A9605
:102090000E945C08C12CDD24DA94ED2CF12C811116
:1020A00045C06BE972E0CE010A960E945C08CC2420
:1020B000CA94DC2CE12CF12C811138C063EA72E067
:1020C000CE010A960E945C0881112CC06BEA72E076
:1020D000CE010A960E945C080BECC02E00ECD02EBC
:1020E000EE24EA94F12C811121C060EB72E0CE0164
:1020F0000A960E945C08CC24CA94DC2CEC2CF12CAF
:10210000811114C067EB72E0CE010A960E945C0850
:10211000CC24CA94D12C7601811108C0C12CD12CB9
:10212000760104C080E8C82ED12C76018091240568
:1021300090912505892B41F0A701960170E060E0A0
:1021400082E295E00E944205809124059091250548
:10215000029740F0A701960161E070E082E295E00D
:102160000E94420582E295E00E94A90523CF67EC18
:1021700072E0CE010A960E945C08882389F0809262
:10218000340190923501A0923601B0923701C0928D
:102190003001D0923101E0923201F092330125CE2C
:1021A00060ED72E0CE010A960E945C08882389F0F7
:1021B00080922C0190922D01A0922E01B0922F01BD
:1021C000C0922801D0922901E0922A01F0922B01BD
:1021D0000CCE69ED72E0CE010A960E945C0888235D
:1021E00089F08092240190922501A0922601B0925C
:1021F0002701C0922001D0922101E0922201F092A9
:102200002301F3CD6FED72E0CE010A960E945C08C7
:10221000882309F4EACD80921C0190921D01A092BE
:102220001E01B0921F01C0921801D0921901E092D4
:102230001A01F0921B01D9CD2A8D3B8DA701BE0159
:102240006A5E7F4FCE0140960E941B096CE2CE0170
:1022500040960E941D087C01CE0140960E94EC072A
:102260008C015FEFE516F50609F456C00F3F100725
:1022700009F452C0970150E040E0BE01605F7F4F1B
:10228000CE010A960E941B09A7014F5F5F4F98017C
:10229000BE01605F7F4FCE0101960E941B09CE01F7
:1022A00001960E9436084B015C01CE0101960E9406
:1022B00070072C893D89A8014F5F5F4FBE01605FA9
:1022C0007F4FCE0101960E941B09CE0101960E940C
:1022D00036086B017C01CE0101960E9470076AE707
:1022E00072E0CE010A960E945C08882309F413C1AB
:1022F00080923C0190923D01A0923E01B0923F013C
:10230000C0923801D0923901E0923A01F0923B013B
:10231000CE010A960E94700785EE92E00E94C907DE
:10232000CE0140960E947007CE0146960E9470072B
:10233000CE014C960E94700780914001882309F4D9
:102340000CC40E94DE026B017C01809130049091EC
:1023500031048130910509F457C18230910509F4A7
:1023600078C1892B79F580912C0490912D04A0914E
:102370002E04B0912F04A7019601281B390B4A0B9C
:102380005B0BDA01C90188389341A105B105D0F092
:1023900060E08CE00E941C0261E088E00E941C0268
:1023A0008FE193E00E94C90781E090E090933104AF
:1023B00080933004C0922C04D0922D04E0922E041D
:1023C000F0922F048091F0049091F1040E9426076E
:1023D00040E06CEC8091F0049091F1040E9494062E
:1023E0004091E70464E48091F0049091F1040E942C
:1023F00094060E94DE026B017C018091EB0488232D
:10240000E1F08091EC04882309F44AC18091E7044B
:10241000811146C18091F0049091F1040E9402075D
:10242000813059F00E94DE026C197D098E099F09E6
:102430006E3E72408105910568F300E011E01CA238
:102440001DA21EA21FA2DE011A96BBA3AAA32CA046
:102450003DA08091F0049091F1040E942607F801BC
:102460003896F9A7E8A7882309F44EC0C090F00475
:10247000D090F10440E065E5C6010E949406780121
:10248000D7016D917D0140E0C6010E949406E8A548
:10249000F9A5EE15FF05A1F740E06EEB8091F00481
:1024A0009091F1040E9494069E012F5F3F4F5901C5
:1024B00079016090F0047090F104A8E0CA2ED12C4C
:1024C000912C88248394C3010E94020781119828CB
:1024D000880C31E0C31AD108B1F7D7019D927D0174
:1024E000CAA0DBA0CA16DB0621F78091F004909108
:1024F000F1040E942607813039F4F50181918111A0
:10250000F8C0EE16FF06D1F7C12CD12C8EEFE82EC5
:1025100082ECF82E44C167EC72E0CE010A960E946C
:102520005C08882389F08092340190923501A09252
:102530003601B0923701C0923001D0923101E09261
:102540003201F0923301E4CE60ED72E0CE010A96E2
:102550000E945C08882389F080922C0190922D01C2
:10256000A0922E01B0922F01C0922801D092290191
:10257000E0922A01F0922B01CBCE69ED72E0CE0100
:102580000A960E945C08882389F080922401909228
:102590002501A0922601B0922701C0922001D0927D
:1025A0002101E0922201F0922301B2CE6FED72E0A0
:1025B000CE010A960E945C08882309F4A9CE809275
:1025C0001C0190921D01A0921E01B0921F01C092A9
:1025D0001801D0921901E0921A01F0921B0198CED5
:1025E00069E073E0CE0101960E94EA08BE01645ED4
:1025F0007F4FCE0101960E94D7080E94D707CE01D7
:1026000001960E94700794CE80912C0490912D0425
:10261000A0912E04B0912F04A7019601281B390B1D
:102620004A0B5B0BDA01C901883B9B40A105B10550
:1026300008F4C8CE60E088E00E941C0261E089E0F6
:102640000E941C0289E293E00E94C90782E090E0A8
:10265000ADCE80912C0490912D04A0912E04B091C8
:102660002F04A7019601281B390B4A0B5B0BDA01DB
:10267000C901883E9340A105B10508F4A3CE60E0EE
:1026800089E00E941C0261E08CE00E941C0280EA4A
:1026900091E00E94C90710923104109230048ACE52
:1026A000E091EA04E9508EEE92E0E33038F4F0E095
:1026B000EE0FFF1FEF5AFE4F808191816C01F12CCC
:1026C000E12C8091E804882329F060E08091E904FE
:1026D0000E941C02C701B6010E94AB028091E8046F
:1026E000882309F4AACE61E08091E9040E941C02CB
:1026F000A4CE99E0E0E0915009F010C18985E8137B
:1027000003CF9A81C12CD12C760197FF06C0C12C32
:10271000D12CF8EFEF2EFF24FA94F80140810981C3
:102720004B3309F00EC18D8187FF0BC100FDECCE4C
:1027300010E030E020E073E0000F111F221F331F74
:102740007A95D1F7007E177022273327892F90E0E2
:10275000B0E0A0E0EBE0880F991FAA1FBB1FEA952D
:10276000D1F7802B912BA22BB32B8C019D010C292F
:102770001D292E293F29013854EE15075FEF250743
:1027800035070CF4C1CEC901B8010E94821720E0C0
:1027900030E040E05CE30E94E1176B017C0183E3E1
:1027A00093E00E9478078CA19DA1AEA1BFA10196E4
:1027B000A11DB11D8CA39DA3AEA3BFA34AE0BC0184
:1027C000CD010E94850787E792E00E947807A70164
:1027D0009601C701B6010E949419882309F4F7C035
:1027E00080E493E00E94780787E891E00E947807F0
:1027F000A701960160913C0170913D0180913E01DD
:1028000090913F010E947B17181694F0A701960142
:10281000609138017091390180913A0190913B01AA
:102820000E948F1920E03FEF40E050E087FF65C134
:10283000A7019601609134017091350180913601B4
:10284000909137010E947B17181674F0A70196012A
:10285000609130017091310180913201909133018A
:102860000E948F1987FF45C1A701960160912C0135
:1028700070912D0180912E0190912F010E947B1764
:10288000181674F0A7019601609128017091290132
:1028900080912A0190912B010E948F1987FF29C1F5
:1028A000A701960160912401709125018091260174
:1028B000909127010E947B17181674F0A7019601CA
:1028C000609120017091210180912201909123015A
:1028D0000E948F1987FF1DC020911C0130911D019E
:1028E00040911E0150911F01C701B6010E948F192E
:1028F00087FD2EC1209118013091190140911A01D4
:1029000050911B01C701B6010E947B1718160CF4E9
:102910001FC120E030E04FEF50E0EFC0D5018D91B6
:102920005D018E27E82FEF70F0E0EF53FF4F249109
:10293000E82FE295EF70F0E0EF52FF4FE491E227CD
:10294000DACE892F90E0982F8827990F990F990F49
:10295000F8E00F9F80011124082B192B012E000C89
:10296000220B330B0C291D292E293F29403109F058
:1029700002CF6885662309F4FECE70E08F81AB013B
:10298000481B5109CA019695982F882797958795D6
:102990000E94AD19CB01770FAA0BBB0B53E0000FC0
:1029A000111F221F331F5A95D1F700782770332744
:1029B0000052110921093109800F911FA21FB31F75
:1029C00097018601082B192B2A2B3B2BD4CE4601CD
:1029D0005701E894B7F82FEF3FEF4FE75FE7C501E6
:1029E000B4010E94941981110DC02FEF3FEF4FE702
:1029F0005FE7C501B4010E947B1718161CF484E43C
:102A000093E0F0CE2FEF3FEF4FE75FE4C701B60151
:102A10000E948F1918161CF488E493E0E3CE2FEF80
:102A20003FEF4FE75FECC701B6010E947B1787FDC0
:102A3000F3CF20E030E0A901C701B6010E947B1767
:102A400087FF54C06DE282E394E00E948601C701D3
:102A5000B60190582AE037ED43EA5BE30E94F41890
:102A60002B013C010E9460194B015C010E94801700
:102A70009B01AC01C301B2010E94F3182B013C0180
:102A80004AE0C501B4010E9485076EE282E394E04A
:102A90000E94860120E030E040E251E4C301B2012F
:102AA0000E94E1172B013C010E9460194B01B12CDF
:102AB000A12C4AE0C501B4010E948507C501B401FB
:102AC0000E9480179B01AC01C301B2010E94F31860
:102AD00020E030E040E251E40E94E1170E946019DA
:102AE00090E080E04AE00E9485077ECEC701B601F3
:102AF000B1CF20E035EA4FEF50E080910E05909184
:102B00000F052816390628F4B1018CE095E00E94E3
:102B1000420508A519A58CA19DA1AEA1BFA103974F
:102B2000A105B10509F093CC8CE095E00E94A905C0
:102B300080E090E0892B11F40C94A10D0E945001CB
:102B4000882311F40C94A10D0E9400000C94A10D97
:102B50002FEF30E040E050E0D0CF0E94DE02009145
:102B600028041091290420912A0430912B046B0130
:102B70007C01C01AD10AE20AF30A97018601043FD8
:102B8000114021053105A0F26093280470932904B7
:102B900080932A0490932B041091270481E0182736
:102BA00010932704612F88E00E941C02612F89E0A6
:102BB0000E941C02612F8CE00E941C028CE493E0B6
:102BC000111102C08AE292E00E94C907B1CF809140
:102BD0001505909116050E94851A80911205909115
:102BE000130597FD03C060E00E944A0280912B0507
:102BF00090912C050E94851A8091280590912905B5
:102C000097FD03C060E00C944A0208956627772779
:102C10000C940A16B0E0A0E0E0E1F6E10C94B318E1
:102C20005C017B016115710519F0DB018D939C93AB
:102C300085010F5F1F4FF501D0818D2F90E00E941D
:102C40005A176C01892BB9F5DD32B9F50F5F1F4FAB
:102C5000D5011196DC91C1E05801F1E0AF1AB1083D
:102C600043E050E060E770E0C5010E946317892BE4
:102C700069F5680182E0C80ED11C45E050E06BE6C2
:102C800070E0C6010E946317892B21F4680197E068
:102C9000C90ED11CE114F10419F0D701CD92DC92D8
:102CA00060E070E080E89FEFC111FFC060E070E07D
:102CB00080E89FE7FAC05801BBCFDB3229F48501D9
:102CC0000E5F1F4FF501D181C0E0C6CF43E050E059
:102CD00068E670E0C5010E946317892BE9F0F801EE
:102CE00010E000E020E030E0A9015F01B0ED8B2EA4
:102CF0008D0E89E08815C8F19C2E689491F88C2F70
:102D00008870C2FF16C0811102C00F5F1F4F31963D
:102D1000D501DC91C92DE9CFE114F10429F00E5F52
:102D20001F4FF7011183008360E070E080EC9FE7A4
:102D3000BCC0882311F001501109A5E0B0E00E9449
:102D4000A2189B01AC01220F331F441F551F280DF1
:102D5000311D411D511D283999E93907490799E16C
:102D60005907A8F2C6609C2ED2CFAEEF8A1206C0D9
:102D7000C3FD3CC09C2E689493F8C9CFDF7DD53449
:102D8000A9F580818D3239F4C061DF01129681810D
:102D900062E070E006C0DF018B32C1F3119661E0A2
:102DA00070E080535D01A61AB70A8A30F8F4E0E8B3
:102DB000CE16ECE0DE065CF4B601660F771F660FF8
:102DC000771FC60ED71ECC0CDD1CC80ED11C5D01B2
:102DD000FFEFAF1ABF0A8C9180538A30A8F1C4FF6D
:102DE00003C0D194C194D1080C0D1D1DC1FF09C0B1
:102DF000E114F10431F081E0A81AB108D701AD92D5
:102E0000BC92CA01B9010E948017C370C33009F493
:102E100090584B015C0120E030E0A9010E947B1733
:102E2000882309F440C0CFE9D0E017FF05C0119511
:102E300001951109C7E8D0E06E01B8E1CB1AD108BD
:102E400080E2E82EF12C0FC0D501B1CFFE01259113
:102E50003591459154910E191F09C501B4010E9485
:102E6000E1174B015C01D501C4010E151F0574F774
:102E70002497F594E794CC16DD06A9F78A2F880FDE
:102E80008B2F881F8F3F49F020E030E0A901C5015A
:102E9000B4010E947B17811106C082E290E09093FA
:102EA000390580933805C501B401CDB7DEB7ECE034
:102EB0000C94CF1891110C944E18803219F089504F
:102EC0008550C8F70895FB01DC014150504088F05F
:102ED0008D9181341CF08B350CF4805E65916134EA
:102EE0001CF06B350CF4605E861B611171F3990B5D
:102EF0000895881BFCCF0E94BD1708F481E0089557
:102F0000E89409C097FB3EF4909580957095619583
:102F10007F4F8F4F9F4F9923A9F0F92F96E9BB2739
:102F20009395F695879577956795B795F111F8CFB5
:102F3000FAF4BB0F11F460FF1BC06F5F7F4F8F4F20
:102F40009F4F16C0882311F096E911C0772321F016
:102F50009EE8872F762F05C0662371F096E8862FAE
:102F600070E060E02AF09A95660F771F881FDAF705
:102F7000880F9695879597F90895990F0008550F32
:102F8000AA0BE0E8FEEF16161706E807F907C0F0EF
:102F900012161306E407F50798F0621B730B840BF7
:102FA000950B39F40A2661F0232B242B252B21F4D1
:102FB00008950A2609F4A140A6958FEF811D811D71
:102FC00008950E94F4170C9468180E945A1838F05B
:102FD0000E94611820F0952311F00C9451180C9464
:102FE000571811240C949C180E94791870F3959F1F
:102FF000C1F3950F50E0551F629FF001729FBB27F0
:10300000F00DB11D639FAA27F00DB11DAA1F649F8B
:103010006627B00DA11D661F829F2227B00DA11D3E
:10302000621F739FB00DA11D621F839FA00D611DC4
:10303000221F749F3327A00D611D231F849F600DE5
:10304000211D822F762F6A2F11249F5750409AF00E
:10305000F1F088234AF0EE0FFF1FBB1F661F771F9A
:10306000881F91505040A9F79E3F510580F00C9465
:1030700051180C949C185F3FE4F3983ED4F3869566
:1030800077956795B795F795E7959F5FC1F7FE2B05
:10309000880F911D9695879597F908959927882708
:1030A000089597F99F6780E870E060E008959FEFCA
:1030B00080EC089500240A941616170618060906CF
:1030C000089500240A94121613061406050608959E
:1030D000092E0394000C11F4882352F0BB0F40F426
:1030E000BF2B11F460FF04C06F5F7F4F8F4F9F4F66
:1030F000089557FD9058440F551F59F05F3F71F0E8
:103100004795880F97FB991F61F09F3F79F087954E
:103110000895121613061406551FF2CF4695F1DFD7
:1031200008C0161617061806991FF1CF8695710567
:10313000610508940895E894BB2766277727CB019B
:1031400097F908950E94E418A59F900DB49F900DE3
:10315000A49F800D911D112408952F923F924F92AC
:103160005F926F927F928F929F92AF92BF92CF9217
:10317000DF92EF92FF920F931F93CF93DF93CDB720
:10318000DEB7CA1BDB0B0FB6F894DEBF0FBECDBF98
:1031900009942A88398848885F846E847D848C8469
:1031A0009B84AA84B984C884DF80EE80FD800C8172
:1031B0001B81AA81B981CE0FD11D0FB6F894DEBF55
:1031C0000FBECDBFED010895A29FB001B39FC00116
:1031D000A39F700D811D1124911DB29F700D811D43
:1031E0001124911D08955058BB27AA270E940B193E
:1031F0000C9468180E945A1838F00E94611820F048
:1032000039F49F3F19F426F40C9457180EF4E09506
:10321000E7FB0C945118E92F0E94791858F3BA175C
:10322000620773078407950720F079F4A6F50C94DC
:103230009B180EF4E0950B2EBA2FA02D0B01B901AF
:1032400090010C01CA01A0011124FF27591B99F01C
:10325000593F50F4503E68F11A16F040A22F232F28
:10326000342F4427585FF3CF469537952795A79578
:10327000F0405395C9F77EF41F16BA0B620B730B1F
:10328000840BBAF09150A1F0FF0FBB1F661F771F90
:10329000881FC2F70EC0BA0F621F731F841F48F445
:1032A000879577956795B795F7959E3F08F0B0CFCE
:1032B0009395880F08F09927EE0F979587950895B5
:1032C0000E94811888F09F5798F0B92F9927B7511D
:1032D000B0F0E1F0660F771F881F991F1AF0BA95BA
:1032E000C9F714C0B13091F00E949B18B1E0089565
:1032F0000C949B18672F782F8827B85F39F0B93F57
:10330000CCF3869577956795B395D9F73EF490956C
:103310008095709561957F4F8F4F9F4F08950E94C4
:10332000BD1708F48FEF08950E94BD17880B990B05
:103330000895AA1BBB1B51E107C0AA1FBB1FA617FC
:10334000B70710F0A61BB70B881F991F5A95A9F74E
:1033500080959095BC01CD01089597FB072E16F43A
:10336000009407D077FD09D00E94991907FC05D079
:103370003EF4909581959F4F0895709561957F4F8C
:103380000895A1E21A2EAA1BBB1BFD010DC0AA1FA6
:10339000BB1FEE1FFF1FA217B307E407F50720F0BE
:1033A000A21BB30BE40BF50B661F771F881F991F39
:1033B0001A9469F760957095809590959B01AC0182
:1033C000BD01CF010895EE0FFF1F0590F491E02D90
:1033D00009940F931F93CF93DF938230910510F4DC
:1033E00082E090E0E0913C05F0913D0530E020E086
:1033F000B0E0A0E0309799F42115310509F44AC0F6
:10340000281B390B24303105D8F58A819B81611541
:10341000710589F1FB0193838283FE0111C0408114
:1034200051810281138148175907E0F04817590765
:1034300099F4109761F012960C93129713961C93BF
:103440003296CF01DF91CF911F910F910895009394
:103450003C0510933D05F4CF2115310551F042177D
:10346000530738F0A901DB019A01BD01DF01F80122
:10347000C1CFEF01F9CF90933D0580933C05CDCFAF
:10348000FE01E20FF31F819391932250310939839A
:103490002883D7CF20913A0530913B05232B41F467
:1034A000209145013091460130933B0520933A0528
:1034B00020914301309144012115310541F42DB78C
:1034C0003EB74091470150914801241B350BE091D4
:1034D0003A05F0913B05E217F307A0F42E1B3F0BD2
:1034E0002817390778F0AC014E5F5F4F2417350776
:1034F00048F04E0F5F1F50933B0540933A05819370
:1035000091939FCFF0E0E0E09CCFCF93DF930097C3
:10351000E9F0FC01329713821282A0913C05B09130
:103520003D05ED0130E020E01097A1F420813181CC
:10353000820F931F20913A0530913B0528173907D8
:1035400009F061C0F0933B05E0933A05DF91CF911C
:103550000895EA01CE17DF07E8F54A815B819E01F5
:1035600041155105B1F7E901FB83EA83499159916E
:10357000C40FD51FEC17FD0761F48081918102967D
:10358000840F951FE90199838883828193819B83AE
:103590008A83F0E0E0E012968D919C91139700975A
:1035A000B9F52D913C911197CD010296820F931F91
:1035B00020913A0530913B052817390739F63097A5
:1035C00051F510923D0510923C05B0933B05A09338
:1035D0003A05BCCFD383C28340815181840F951FAC
:1035E000C817D90761F44E5F5F4F88819981480FF2
:1035F000591F518340838A819B8193838283211544
:10360000310509F0B0CFF0933D05E0933C059ECF26
:10361000FD01DC01C0CF13821282D7CFB0E0A0E061
:10362000E4E1FBE10C94AF188C01009751F4CB015D
:103630000E94E9198C01C801CDB7DEB7E0E10C9416
:10364000CB18FC01E60FF71F9C0122503109E2174D
:10365000F30708F49DC0D901CD91DC911197C617ED
:10366000D70798F0C530D10530F3CE0104978617FF
:10367000970708F3C61BD70B2297C193D1936D937D
:103680007C93CF010E94851AD6CF5B01AC1ABD0A8C
:103690004C018C0E9D1EA0913C05B0913D05512C16
:1036A000412CF12CE12C109731F580913A05909145
:1036B0003B058815990509F05CC04616570608F0C9
:1036C00058C08091430190914401009741F48DB717
:1036D0009EB74091470150914801841B950BE81714
:1036E000F90708F055C0F0933B05E0933A05F9015E
:1036F00071836083A0CF8D919C91119712966C90ED
:10370000129713967C901397A815B90559F56C017B
:1037100042E0C40ED11CCA14DB0420F1AC014A19EA
:103720005B09DA011296159780F0628273825183E9
:103730004083D9016D937C93E114F10471F0D701BA
:103740001396FC93EE93129776CF22968C0F9D1FC3
:10375000F90191838083F301EFCFF0933D05E0936E
:103760003C0569CF4816590608F42C017D01D301A8
:103770009ACFCB010E94E9197C01009749F0AE0174
:10378000B8010E94CB1BC8010E94851A870153CF44
:1037900010E000E050CFFB01DC0102C001900D926F
:1037A00041505040D8F70895DC0101C06D9341505D
:1037B0005040E0F70895FC018191861721F088239D
:1037C000D9F7992708953197CF010895FB01DC01BE
:1037D0008D91019080190110D9F3990B0895FB0187
:1037E000DC0101900D920020E1F70895FB01DC015E
:1037F0004150504030F08D910190801919F4002013
:10380000B9F7881B990B0895FC0181E090E00190C5
:10381000061609F4CF010020D1F70197089510E0B2
:10382000C0E9D0E004C0FE010E94E3192196C1392D
:08383000D107C9F7F894FFCF9E
:10383800285FA651FC0000DA2851B430FF0000CD03
:103848002862A219FC00009E00007042000020427D
:10385800000020410000A0C1000020420000F0410B
:103868000000A041000020410000F0410000A041FC
:1038780001010000003E05800000004000140054D3
:10388800005E00BC007701000000008601E600131E
:1038980001D30144012201360100000000D903AC24
:1038A800033F058203A5039203830300000000374A
:1038B80005E6003F053E050D0A00496E696369612A
:1038C8006E646F2053656D61666F726F2E2E2E00C9
:1038D80045737461646F2045300043616D626961AE
:1038E800646F2061206D6F646F2046554E43494FC9
:1038F8004E414E444F0043616D626961646F2061BF
:10390800206D6F646F204D414E54454E494D4945D9
:103918004E544F00436F6D616E646F20726563692A
:103928006269646F3A202700616374697661720086
:1039380053656D61666F726F206163746976616447
:103948006F006170616761720053656D61666F72C7
:103958006F206170616761646F0045737461646FA3
:10396800204D616E74656E696D69656E746F204F68
:103978006666006C63643A004D6F737472616E64BE
:103988006F20656E204C43443A20270077733A0035
:1039980043616D6269616E646F204C4544732057C2
:1039A800533238313220613A2000766572646500FE
:1039B800726F6A6F00617A756C006E6172616E6A0F
:1039C8006100616D6172696C6C6F0063656C657331
:1039D80074650076696F6C65746100726F7361005D
:1039E800626C616E636F006D6167656E746100750E
:1039F8006D6272616C3A006E6172616E6A6131006B
:103A08006E6172616E6A613200726F6A6F31007244
:103A18006F6A6F3200556D6272616C657320616305
:103A28007475616C697A61646F7320636F72726513
:103A38006374616D656E746500436F6D616E646F6C
:103A480020646573636F6E6F6369646F3A20004525
:103A5800737461646F2045310045737461646F202D
:103A680045320054656D702053656E736F72200087
:103A78006E616E00696E66006F76660045737461EC
:103A8800646F204D616E74656E696D69656E746FE3
:043A9800204F6E004D
:00000001FF
