:020000040000FA
:100000000C9491000C94B9000C94B9000C94B900B4
:100010000C94B9000C94B9000C94B9000C94B9007C
:100020000C94B9000C94B9000C94B9000C94B9006C
:100030000C94B9000C94B9000C94B9000C94B9005C
:100040000C942B100C94B9000C94F90F0C94D30F52
:100050000C94B9000C94B9000C94B9000C94B9003C
:100060000C9475100C94B9004E414E494E495459A8
:10007000494E46CDCCCC3D0AD7233C17B7D1387773
:10008000CC2B329595E6241FB14F0A000020410089
:1000900000C84200401C4620BCBE4CCA1B0E5AAED3
:1000A000C59D74005EBCE2613FDD83C29C7E20A3DF
:1000B000FD1F41009D23BE46DB65F88C11AF32CA9F
:1000C00057E97400000000240027002A0000000007
:1000D0000800020100000304070000000000000007
:1000E0000000000000250028002B00000000002375
:1000F000002600290004040404040404040202028B
:100100000202020303030303030102040810204058
:100110008001020408102001020408102000F111DF
:10012000FF1911241FBECFEFD8E0DEBFCDBF25E001
:10013000ACEDB3E001C01D92AD3BB207E1F713E0B7
:10014000A0E0B1E0E4EDF1E402C005900D92AC3D19
:10015000B107D9F710E0C0E9D0E004C02197FE0153
:100160000E94A91ECF38D107C9F70E9495120C949E
:10017000DD200C940000CF93DF93EC016885693794
:1001800001F129853A856150B9F070E08FEF98E769
:100190000E945F1EF9014C815D81CF01821B930B90
:1001A0008417950760F44081469FC001479F900DDA
:1001B000112490833196EFCF70E060E0EBCF89E7B8
:1001C0008887DF91CF91089508950895AF92BF92E7
:1001D000CF92DF92EF92FF920F931F93CF93DF9313
:1001E0006C017B018B01040F151FEB015E01AE1842
:1001F000BF08C017D10759F06991D601ED91FC9164
:100200000190F081E02DC6010995892B79F7C50190
:10021000DF91CF911F910F91FF90EF90DF90CF90E2
:10022000BF90AF900895FC01538D448D252F30E091
:10023000842F90E0821B930B541710F0CF960895F3
:1002400001970895FC01918D828D981761F0A28D20
:10025000AE0FBF2FB11D5D968C91928D9F5F9F73E6
:10026000928F90E008958FEF9FEF0895FC01918D9C
:10027000828D981731F0828DE80FF11D858D90E009
:1002800008958FEF9FEF0895FC01918D228D892FA6
:1002900090E0805C9F4F821B91098F73992708958E
:1002A00081EB94E00E94440121E0892B09F420E0D5
:1002B000822F089580E090E0892B29F00E94500160
:1002C00081110C9400000895FC01A48DA80FB92F92
:1002D000B11DA35ABF4F2C91848D90E001968F736E
:1002E0009927848FA689B7892C93A089B1898C918D
:1002F000837080648C93938D848D981306C00288DC
:10030000F389E02D80818F7D80830895EF92FF92A5
:100310000F931F93CF93DF93EC0181E0888F9B8D28
:100320008C8D98131AC0E889F989808185FF15C0E2
:100330009FB7F894EE89FF896083E889F989808105
:100340008370806480839FBF81E090E0DF91CF91D4
:100350001F910F91FF90EF900895F62E0B8D10E0F6
:100360000F5F1F4F0F731127E02E8C8D8E110CC065
:100370000FB607FCFACFE889F989808185FFF5CFB0
:10038000CE010E946401F1CFEB8DEC0FFD2FF11D2A
:10039000E35AFF4FF0829FB7F8940B8FEA89FB89ED
:1003A00080818062CFCFCF93DF93EC01888D88234B
:1003B000B9F0AA89BB89E889F9898C9185FD03C0C8
:1003C000808186FD0DC00FB607FCF7CF8C9185FFAD
:1003D000F2CF808185FFEDCFCE010E946401E9CF8D
:1003E000DF91CF910895833081F028F4813099F026
:1003F0008230A9F008958730A9F08830C9F08430A0
:10040000B1F4809180008F7D03C0809180008F7750
:1004100080938000089584B58F7784BD089584B556
:100420008F7DFBCF8091B0008F778093B0000895CF
:100430008091B0008F7DF9CF1F93CF93DF93282F4A
:1004400030E0F901E353FF4F8491F901E75FFE4F7C
:10045000D491F901EB50FF4FC491CC23A9F0162F92
:1004600081110E94F301EC2FF0E0EE0FFF1FEF511E
:10047000FF4FA591B4918FB7F894EC91111108C07A
:10048000D095DE23DC938FBFDF91CF911F9108952C
:10049000DE2BF8CFCF93DF9390E0FC01E75FFE4FB8
:1004A00024918B509F4FFC0184918823C9F090E0E8
:1004B000880F991FFC01ED53FF4FA591B491FC01EA
:1004C000EF51FF4FC591D49161110DC09FB7F894C2
:1004D0008C91209582238C938881282328839FBF29
:1004E000DF91CF910895623051F49FB7F8943C9119
:1004F000822F809583238C93E8812E2BEFCF8FB7AB
:10050000F894EC912E2B2C938FBFEACF1F93CF93AF
:10051000DF93182FEB0161E00E944A02209739F423
:1005200060E0812FDF91CF911F910C941C02CF3F8F
:10053000D10511F461E0F5CFE12FF0E0E353FF4F77
:10054000E491E33031F140F4E130B1F0E230E1F038
:10055000C038D1057CF7E4CFE73029F1E83059F114
:10056000E430B1F780918000806280938000D09366
:100570008B00C0938A0004C084B5806884BDC7BD69
:10058000DF91CF911F91089584B5806284BDC8BD6D
:10059000F7CF80918000806880938000D09389009D
:1005A000C0938800EDCF8091B00080688093B00048
:1005B000C093B300E5CF8091B00080628093B0001B
:1005C000C093B400DDCF3FB7F8948091930490912D
:1005D0009404A0919504B091960426B5A89B05C0FB
:1005E0002F3F19F00196A11DB11D3FBFBA2FA92FB2
:1005F000982F8827BC01CD01620F711D811D911DAF
:1006000042E0660F771F881F991F4A95D1F708951A
:100610008F929F92AF92BF92CF92DF92EF92FF9212
:100620006B017C010E94E3024B015C01C114D10407
:10063000E104F104B9F00E94E302681979098A091A
:100640009B09683E73408105910580F321E0C21A41
:10065000D108E108F10888EE880E83E0981EA11CFD
:10066000B11CE4CFFF90EF90DF90CF90BF90AF90A0
:100670009F908F9008952FB7F89460918F04709198
:10068000900480919104909192042FBF08950F934C
:100690001F930E943B036093B9047093BA04809344
:1006A000BB049093BC0481EB94E00E94220197FF6D
:1006B0001DC00E943B030091B9041091BA0420911F
:1006C000BB043091BC04601B710B820B930B009137
:1006D000B5041091B6042091B7043091B8046017A6
:1006E000710782079307F8F28FEF9FEF1F910F9129
:1006F000089520914404260F3327331F21323105FA
:10070000ECF420916804FC0190E080E0243069F072
:1007100082E00895A09144042191AC014C5D5B4FAF
:10072000A40FB52FB11D2C930196861798F38091D5
:100730004404680F6093440480E0089581E00895C4
:100740001092680481E080936A041092690461E069
:1007500082E10E941C0261E083E10E941C02E9EB3D
:10076000F0E080818E7F808380818D7F808388E42C
:100770008093B80085E48093BC000895CF93DF9305
:1007800091E0909323048823B9F0C091B800D091F0
:10079000BA008091BC008A7B8093BC0060E082E15B
:1007A0000E941C0260E083E10E941C020E94A003E0
:1007B000D093BA00C093B800DF91CF910895089507
:1007C000E0919E0480919D04E81730F4F0E0E2503F
:1007D000FC4F808190E008958FEF9FEF08959091F6
:1007E0009E0480919D042FEF3FEF981748F4E92F66
:1007F000F0E0E250FC4F208130E09F5F90939E0438
:10080000C901089580919D0490919E04891B990BC4
:100810000895CF92DF92EF92FF920F931F93CF93A1
:10082000DF937C01CB018A012091FD03222389F013
:10083000EB016B01C40ED51ECC15DD0569F0699185
:10084000D701ED91FC910190F081E02DC701099550
:10085000F3CF642F0E947903C801DF91CF911F91DC
:100860000F91FF90EF90DF90CF900895CF93DF939B
:100870001F92CDB7DEB769832091FD032223F9F0E3
:1008800020919B04203258F021E030E0FC013383BA
:10089000228390E080E00F90DF91CF9108958091C6
:1008A0009C04E82FF0E0E352FC4F998190838F5F26
:1008B00080939C0480939B0481E090E0ECCF61E006
:1008C000CE0101960E947903F7CFCF92DF92EF928B
:1008D000FF920F931F93CF93DF93D62F672FFC01C7
:1008E000C48181E08093FD03C093DC0310929C04DB
:1008F00010929B048EE495E00E9436046D2F8EE4E6
:1009000095E00E943604D0919B04D13208F092C049
:100910000E94E3026B017C0180916804811165C033
:1009200082E08093680481E080936A048FEF809373
:10093000670410928C04D0938B04ADEDB3E0EBE62A
:10094000F4E080E0D81385C010928D0480918D046E
:10095000CC0FC82BC0938D0480916904813009F0BD
:100960007CC0109269040E94E3026B017C018091BB
:100970008D048093BB0080911F0490912004A0916E
:100980002104B0912204892B8A2B8B2B99F00E9491
:10099000E30200911F041091200420912104309162
:1009A00022046C197D098E099F090617170728076D
:1009B0003907E0F18091BC0083FDD9CF85EC8093AD
:1009C000BC000E94E3026B017C01809168048230CC
:1009D00009F445C0809167048F3F61F180916704FD
:1009E000803241F18091670425C080911F0490916D
:1009F0002004A0912104B0912204892B8A2B8B2BF7
:100A000009F48ACF0E94E30200911F041091200490
:100A100020912104309122046C197D098E099F09CF
:100A2000061717072807390708F076CF80911E04AC
:100A30000E94BE0310929C0410929B041092FD032E
:100A4000DF91CF911F910F91FF90EF90DF90CF90AA
:100A500008959D9191938F5F75CF85EEB0CF809172
:100A60001F0490912004A0912104B0912204892BAD
:100A70008A2B8B2B09F4A9CF0E94E30200911F045B
:100A80001091200420912104309122046C197D09D9
:100A90008E099F09061717072807390708F095CF11
:100AA000C5CFCF93DF93CDB7DEB728970FB6F894B5
:100AB000DEBF0FBECDBF98E0EEE2F1E0DE011196A1
:100AC00001900D929A95E1F790916205981708F4BC
:100AD0008FEF90E0880F991F21E030E02C0F3D1F31
:100AE000820F931FFC016081606870E08AE595E0E9
:100AF00028960FB6F894DEBF0FBECDBFDF91CF9121
:100B00000C94650461E070E08AE595E00E9465045C
:100B10008BE39FE10197F1F780916305882319F03A
:100B200080E00C945105089570E070640E946504A3
:100B300081E090E00895089590E080E008958F921C
:100B40009F92AF92BF92CF92DF92EF92FF921F934C
:100B5000CF93DF93FC014A01AA24BB24C82DC32EE6
:100B6000D42EE52EFF241C2DD22F8085882361F002
:100B7000889E40011124C92D8C9D600111241D2DDA
:100B8000829FD0011124DB2FA685E184F284938516
:100B9000A91322C0CB01880F991F680F791F6E0D12
:100BA0007F1DA385A60FB72FB11DCC93A485A60FDB
:100BB000B72FB11D1C938585680F711DFB01D08374
:100BC000DF91CF911F91FF90EF90DF90CF90BF907A
:100BD000AF909F908F900895660F771F660F771FD5
:100BE0006E0D7F1D252F332744275527882349F075
:100BF00090E0829F7001839FF00C929FF00C112473
:100C00002F2DA60FB72FB11D2C93CBCFCF92DF92F4
:100C1000EF92FF920F931F93CF93DF93CDB7DEB781
:100C200029970FB6F894DEBF0FBECDBF8C01DC0153
:100C300019968D919C91892B09F473C00E94E3024F
:100C4000F801C784D088E188F2886C157D058E058F
:100C50009F0520F46787708B818B928BF801C78486
:100C6000D088E188F2886C197D098E099F096C3261
:100C700071408105910510F3F894D80114968D9177
:100C80009C9115979A8389831996ED91FC917F0128
:100C9000BFEFEB1AFB0A80818987F80190810388F6
:100CA000F489E02DD80155968C91992309F448C018
:100CB0009081982B98879081809589238F838F814D
:100CC0008C8388E08B8358856F8149853B812C819B
:100CD00089819A81D701508347FD252F3A9520833A
:100CE000262F39F0441F00C000006083000000C0C0
:100CF000F2CF38E04D9160830000019761F7D80191
:100D00005496FC93EE93539749873B832C839A83A5
:100D1000898378940E94E302F8016787708B818B46
:100D2000928B29960FB6F894DEBF0FBECDBFDF9130
:100D3000CF911F910F91FF90EF90DF90CF9008958A
:100D40009081982B98879081809589238F838F81BC
:100D50008E8388E08D8358856F8149853D812E8102
:100D600089819A81D701508347FD252F00C000C09B
:100D7000208300C000C000C000C000C0608300002D
:100D8000262F3A9541F0441F000000C000C000C06B
:100D900000C000C0E8CF38E04D9100C0608300C0C3
:100DA000019709F7D8015496FC93EE93539749871E
:100DB0003D832E83ACCFCF93DF93EC018E819F8157
:100DC00097FD0CC061E00E944A0260E08E810E94A3
:100DD0001C0281E08983DF91CF910895198280E020
:100DE000FACFDC0180E0615090F09D919827E92FC7
:100DF000EF70F0E0ED55FF4F2491E92FE295EF7091
:100E0000F0E0ED54FF4FE491822F8E27ECCF089550
:100E1000DC012C911196ED91FC91F8948181822B4B
:100E200081839281322F30959323928387E090E0E3
:100E30000197F1F781818323818383E290E0019719
:100E4000F1F790817894EFECF0E03197F1F792238D
:100E500081E009F480E00895FC0190810180F28135
:100E6000E02D292F209560FF14C0F8948281822301
:100E700082838181892B8183A3E2B0E01197F1F70E
:100E80008281982B9283789487ED90E00197F1F717
:100E90000895F8948281822382838181892B8183C2
:100EA000AFEFB0E01197F1F78281982B928378949D
:100EB0008FE090E0EBCFDF92EF92FF920F931F93C2
:100EC000CF93DF93EC01D62EE42E08E010E0FF2450
:100ED000F39461E08D2D8F2109F460E0CE010E9432
:100EE0002C07FF0C01501109A1F7E11010C0F89474
:100EF000E981FA8191818881809589238183E981C3
:100F0000FA81928188818095892382837894DF9108
:100F1000CF911F910F91FF90EF90DF900895EF9286
:100F2000FF920F931F93CF93DF938C017B0140E0DF
:100F300065E50E945B07E70188E0E80EF11C699116
:100F400040E0C8010E945B07CE15DF05C1F7DF91C5
:100F5000CF911F910F91FF90EF900895FC01908128
:100F60000180F281E02DF8948181292F2095822340
:100F7000818378943DE743E050E0315029F1DA0174
:100F80001197F1F780818923C1F3F894828182233C
:100F900082838181892B81837894ABE7B7E01197B5
:100FA000F1F7F894818182238183A3E1B1E0119765
:100FB000F1F78081982381E009F080E07894E3E6FE
:100FC000F6E03197F1F7089580E008956F927F92EF
:100FD0008F929F92AF92BF92CF92DF92EF92FF9249
:100FE0000F931F93CF93DF938C01EB0180919B05AF
:100FF00090919C050E94AE07882309F43FC0B80178
:1010000080919B0590919C050E948F0740E06EEBBC
:1010100080919B0590919C050E945B077E016E016B
:1010200089E0C80ED11C8E01A0909B05B0909C0554
:1010300088E0882E912C712C66246394C5010E944F
:10104000080781117628660CE1E08E1A9108B1F745
:10105000F80171928F01CE16DF0631F780919B0562
:1010600090919C050E94AE07813041F4F701819177
:101070007F01811105C0E017F107C1F790E008C0BA
:1010800068E0CE010E94F10691E028852813F6CF92
:10109000892FDF91CF911F910F91FF90EF90DF90FB
:1010A000CF90BF90AF909F908F907F906F9008955A
:1010B000CF92DF92EF92FF920F931F93CF93DF9324
:1010C000CDB7DEB729970FB6F894DEBF0FBECDBF00
:1010D0008C01BE016F5F7F4F0E94E607811105C042
:1010E00060E070E08EEF92EC4EC08A81C12CD12C72
:1010F000760187FF06C0C12CD12CF8EFEF2EFF241C
:10110000FA94F801908149819B3309F04BC02D81FD
:1011100027FF48C040FDE4CF042F10E030E020E07E
:1011200073E0000F111F221F331F7A95D1F7B90109
:10113000A801407E57706627772790E0B0E0A0E0D6
:101140008C019D01EBE0000F111F221F331FEA9558
:10115000D1F7042B152B262B372B0C291D292E29D3
:101160003F29013854EE15075FEF250735070CF4CA
:10117000B7CFC901B8010E94D61B20E030E040E0A3
:101180005CE30E94351C29960FB6F894DEBF0FBEB3
:10119000CDBFDF91CF911F910F91FF90EF90DF9026
:1011A000CF900895082F10E0102F0027110F110F76
:1011B000110FF8E04F9FA0011124042B152B012ED5
:1011C000000C220B330B0C291D292E293F299031AD
:1011D00041F66885662329F270E08F81AB01481BD8
:1011E0005109CA019695982F8827979587950E944F
:1011F000731ECB01770FAA0BBB0B53E0000F111F1F
:10120000221F331F5A95D1F70078277033270052D9
:10121000110921093109800F911FA21FB31F9701E6
:101220008601082B192B2A2B3B2B9BCF0F931F9347
:10123000CF93DF93CDB7DEB729970FB6F894DEBF13
:101240000FBECDBF8C01BE016F5F7F4F0E94E607CE
:10125000882361F08D81F80190819B3311F487FD23
:101260000BC08F3359F020F48F31A1F080E007C01C
:101270008F3591F08F37D1F78CE001C08AE0299645
:101280000FB6F894DEBF0FBECDBFDF91CF911F9197
:101290000F91089589E0F3CF8BE0F1CFBF92CF9209
:1012A000DF92EF92FF920F931F93CF93DF93EC01A6
:1012B000B62EC72E8D85811105C0CE010E94AE07C6
:1012C00081110EC01B861D861C8680E0DF91CF91A8
:1012D0001F910F91FF90EF90DF90CF90BF900895F6
:1012E00040E060EFCE010E945B0701E0E12CD12CD1
:1012F00011E0CE010E940807F82ECE010E940807D7
:1013000091E0F91218C0813099F51134D8F2DB86DA
:10131000D11002C081E08D878B81882399F22396BA
:10132000EB2DFC2DCF01089629912193E817F907A1
:10133000D9F781E0CBCFEE2DF0E0F8120FC08B850E
:101340001817A0F4DE01AE0FBF1F13968C918023F7
:1013500079F4F12C193008F41C87D12EEC0FFD1F05
:101360008381902F9095892383830AC08113F1CFC5
:10137000FE01EE0DF11D8381802B8383FF24F39406
:101380006F2DCE010E942C071F5F000F11F4E39414
:1013900001E087E08E1508F0ACCFB7CF0F931F9315
:1013A000CF93DF93CDB7DEB729970FB6F894DEBFA2
:1013B0000FBECDBF8C01FC018081803109F46CC06F
:1013C000BE016F5F7F4FC8010E94E607882309F4C2
:1013D000C3C08D818F3709F45FC08FE78D83809103
:1013E0009B0590919C050E94AE07B80180919B05DA
:1013F00090919C050E948F0740E06EE480919B05D0
:1014000090919C050E945B0740E06B8180919B0559
:1014100090919C050E945B0740E06C8180919B0548
:1014200090919C050E945B07F8018081803141F01A
:1014300040E06D8180919B0590919C050E945B0727
:1014400080919B0590919C0520919805222311F194
:101450000E94AE07882301F1B80180919B0590910D
:101460009C050E948F074091920568E480919B053E
:1014700090919C050E945B078091920581114FC05D
:1014800064E170E080E090E00E94080380919B0599
:1014900090919C050E94AE078CE080939505809109
:1014A0009905823008F457C0E0919B05F0919C05A6
:1014B0001386158614861286118610861782168268
:1014C00015821482138210E080919905181708F094
:1014D00042C0809195058C30F1F1BE016F5F7F4F66
:1014E00080919B0590919C050E944E098823A9F04C
:1014F00067E0CE0101960E94F106988589130DC020
:101500008981803131F1CE0101960E9416099091B6
:101510009505981710F4809395051F5FD5CF80919E
:101520009305882329F060E0809194050E941C02B5
:1015300064E170E080E090E00E94080380919305F0
:10154000882309F4A3CF61E0809194050E941C02D6
:101550009DCF8CE0DCCF81E029960FB6F894DEBFFA
:101560000FBECDBFDF91CF911F910F910895CF9303
:10157000DF93EC0188819981009711F00E944B1F45
:10158000198218821D821C821B821A82DF91CF91E0
:101590000895FC0180819181009711F00C944B1FFC
:1015A0000895FC0101900020E9F73197AF01481B35
:1015B000590BBC0181EB94E00C94E6008F929F9252
:1015C000AF92BF920F931F93CF93DF93CDB7DEB748
:1015D000A1970FB6F894DEBF0FBECDBF19A242305F
:1015E00008F44AE08E010F5D1F4F842E912CB12C20
:1015F000A12CA50194010E94871EE62FB901CA0102
:10160000EA30F4F4E05DD801EE938D01232B242B16
:10161000252B79F790E080E0109719F0CD010E941A
:10162000D10AA1960FB6F894DEBF0FBECDBFDF91F1
:10163000CF911F910F91BF90AF909F908F90089581
:10164000E95CE1CF009711F00C94D10A90E080E0C2
:101650000895CF93DF930E94D10AEC018CE691E0CC
:101660000E94D10A8C0F9D1FDF91CF9108954F9258
:101670005F926F927F928F929F92AF92BF92CF9222
:10168000DF92EF92FF920F931F93CF936B017C0138
:10169000742EAC019B010E945A1E882399F08FE69C
:1016A00091E0CF911F910F91FF90EF90DF90CF903D
:1016B000BF90AF909F908F907F906F905F904F9072
:1016C0000C94D10A46015701E894B7F82FEF3FEF89
:1016D0004FE75FE7C501B4010E945A1E81110DC09A
:1016E0002FEF3FEF4FE75FE7C501B4010E94CF1B2B
:1016F00018161CF483E791E0D4CF2FEF3FEF4FE7AC
:101700005FE4C701B6010E94551E18161CF487E756
:1017100091E0C7CF2FEF3FEF4FE75FECC701B60176
:101720000E94CF1B87FDF3CF20E030E0A901C70165
:10173000B6010E94CF1B10E000E087FF0AC06DE2F7
:1017400081EB94E00E9486018C01F7FAF094F7F89F
:10175000F094C0E060E070E080E09FE37C1641F030
:1017600020E030E040E251E40E94B41DCF5FF6CFAC
:10177000A70196010E94481D2B013C010E94261ED4
:101780004B015C014AE00E94DE0A7C01E00EF11E82
:10179000CC23C1F1C501B4010E94D41B9B01AC0153
:1017A000C301B2010E94471D4B015C016EE281EB57
:1017B00094E00E948601E80EF91EC15018F120E065
:1017C00030E040E251E4C501B4010E94351C2B0118
:1017D0003C010E94261E4B01B12CA12C4AE0C50100
:1017E000B4010E94DE0AE80EF91EC501B4010E9490
:1017F000D41B9B01AC01C301B2010E94471D4B01E8
:101800005C01DBCFC701CF911F910F91FF90EF904B
:10181000DF90CF90BF90AF909F908F907F906F9010
:101820005F904F900895CF93DF9342E00E94370B73
:10183000EC018CE691E00E94D10A8C0F9D1FDF9194
:10184000CF9108954F925F926F927F928F929F9265
:10185000AF92BF92CF92DF92EF92FF920F931F93BE
:10186000CF93DF93CDB7DEB72C970FB6F894DEBFDA
:101870000FBECDBF80919B0590919C050E94AE0745
:1018800040E06CEC80919B0590919C050E945B0769
:101890004091920564E480919B0590919C050E9483
:1018A0005B070E943B036B017C01809196058823B6
:1018B000E1F080919705882309F49FC080919205FB
:1018C00081119BC080919B0590919C050E94080707
:1018D000813059F00E943B036C197D098E099F09E4
:1018E0006E3E72408105910568F380E191E00E94AF
:1018F00058082B013C0188E091E00E9458084B01F8
:101900005C0180E091E00E9458086B017C018BE74C
:1019100091E00E94290B81EA91E00E94220B42E0B3
:10192000C301B2010E94370B8FEA91E00E94290B9C
:1019300082EB91E00E94220B42E0C501B4010E94BB
:10194000370B8FEA91E00E94290B85EC91E00E9411
:10195000220B42E0C701B6010E94370B8FEA91E0EB
:101960000E94290B49825A826B827C828D829E82E0
:10197000AF82B886C986DA86EB86FC86CE010196F0
:101980007C0110E000E0F70181909190A190B1906E
:101990007F01209122013091230140912401509137
:1019A0002501C501B4010E94CF1B87FD4FC02091C6
:1019B0001A0130911B0140911C0150911D01C5017C
:1019C000B4010E94551E18160CF440C020911E014F
:1019D00030911F014091200150912101C501B401B6
:1019E0000E94CF1B20E035EA4FEF50E0181694F12B
:1019F00020E03FEF40E050E02DC0E0919505E95038
:101A00008EEE92E0E33038F4F0E0EE0FFF1FEA5C78
:101A1000FE4F808191816C01F12CE12C8091930526
:101A2000882329F060E0809194050E941C02C70180
:101A3000B6010E94080380919305882309F455CFCD
:101A400061E0809194050E941C024FCF20E030E0BD
:101A50004FEF50E0809168059091690508171907CC
:101A600028F4B80186E695E00E949F050F5F1F4F9E
:101A70000330110509F087CF86E695E02C960FB666
:101A8000F894DEBF0FBECDBFDF91CF911F910F91B4
:101A9000FF90EF90DF90CF90BF90AF909F908F908E
:101AA0007F906F905F904F900C940606CF93DF93DA
:101AB000FC01448155816081718181EB94E00E9439
:101AC000E600EC018CE691E00E94D10A8C0F9D1F8C
:101AD000DF91CF910895CF92DF92EF92FF928091A4
:101AE000A104882339F0E0909F04F090A004E11451
:101AF000F10491F470E060E086E00E94860270E0FC
:101B000060E083E00E9486028BED91E0FF90EF9011
:101B1000DF90CF900C94290B809126018823E9F166
:101B2000B70186E00E94860270E060E083E00E94D8
:101B300086028EEE91E00E94220B80912601811197
:101B400033C087ED91E00E94220B8DEF91E00E945F
:101B5000220BC0909F04D090A0040D2C000CEE0826
:101B6000FF084AE0C701B601F7FE0DC06DE281EB48
:101B700094E00E94860166277727CB016C197D09C6
:101B80008E099F094AE00E94DE0A8CE691E0FF90F0
:101B9000EF90DF90CF900C94D10A70E060E086E087
:101BA0000E948602B701C2CF88ED91E0CCCFDF92D0
:101BB000EF92FF920F931F93CF93DF93FC01E4808A
:101BC000F580E114F10451F48FEF9FEFDF91CF9195
:101BD0001F910F91FF90EF90DF900895EC0101901D
:101BE000F081E02DEE0DFF1DD0801082088119815B
:101BF0006CE270E0C8010E94D2200E0D1F1DF8019A
:101C0000D082009709F328813981821B930BDECFA4
:101C1000AF92BF92CF92DF92EF92FF920F931F93FA
:101C2000CF93DF93DC01CD90DC901197C114D104E8
:101C300039F01496CD91DC918C017601209761F4F6
:101C4000DF91CF911F910F91FF90EF90DF90CF9098
:101C5000BF90AF90089575015701BFEFAB1ABB0A53
:101C6000F7018081082E000C990B0E94AE1B892B76
:101C700091F72197CC0DDD1D8881082E000C990B62
:101C80000E94AE1B892B29F0CE15DF0510F021979D
:101C9000F3CFAE014F5F5F4F4E195F09D801159624
:101CA0005C934E931497CE14DF0420F4B701C60161
:101CB0000E949920D801ED91FC91119714968D9175
:101CC0009C91E80FF91F1082BBCFFB014481558125
:101CD000FC01248135812417350778F080819181BA
:101CE000009759F0FB01608171816115710529F040
:101CF0000E94C42021E0892B09F020E0822F089562
:101D0000FC0124813581232B39F421E0FB01808102
:101D1000882349F020E007C0808191810E94B4208F
:101D200021E0892BB9F7822F08950F931F93CF934A
:101D3000DF93EC0188819981009759F02A813B81DA
:101D40002617370730F081E0DF91CF911F910F9177
:101D500008958B016F5F7F4F0E94D41F009759F049
:101D6000998388831B830A832C813D81232B59F718
:101D7000FC011082E8CF80E0E7CFEF92FF920F9353
:101D80001F93CF93DF936115710541F480E0DF91DC
:101D9000CF911F910F91FF90EF900895411551053C
:101DA000B1F07B01EC010C811D81040F151FB801FE
:101DB0000E94950E882351F3288139818C819D8161
:101DC000B701820F931F0E94BD201D830C8381E009
:101DD000DECFCF93DF93EC01FB014481558160811D
:101DE00071810E94BD0E811103C0CE010E94B70A0D
:101DF000CE01DF91CF910895EF92FF920F931F9341
:101E0000CF93DF93EC017B01198218821B821A8227
:101E10001D821C82FB0101900020E9F731978F01A0
:101E2000061B170BB8010E94950E811109C0CE0147
:101E3000DF91CF911F910F91FF90EF900C94B70A13
:101E40001D830C83B70188819981DF91CF911F9108
:101E50000F91FF90EF900C94BD209F92AF92BF9294
:101E6000CF92DF92EF92FF920F931F93CF93DF9366
:101E70007C016B015A0189012417350720F48B2D51
:101E80005901042F182F6EE671E0C7010E94FC0E65
:101E9000D6011496CD91DC91AC16BD0650F50C1709
:101EA0001D0708F4E801D601ED91FC911197EC0FA4
:101EB000FD1F908010820D911C910A0D1B1D0115B4
:101EC000110571F0F80101900020E9F731975F01E9
:101ED000A01AB10AB501C7010E94950E811116C062
:101EE000C7010E94B70AD6018D919C91C80FD91FD6
:101EF0009882C701DF91CF911F910F91FF90EF90D2
:101F0000DF90CF90BF90AF909F900895F701B5827A
:101F1000A482B801808191810E94BD20E4CFCF933B
:101F2000DF93EC01FB01248135810E942D0FCE014E
:101F3000DF91CF91089585ED8093BC0080911F04BF
:101F400090912004A0912104B09122040796A11D34
:101F5000B11D23E0B695A795979587952A95D1F75A
:101F60002091BC0024FD03C01092680408954091A4
:101F70001F04509120046091210470912204452B8C
:101F8000462B472B69F30097A105B10541F025E3E6
:101F90002A95F1F700000197A109B109E1CF8091DD
:101FA0001E040C94BE031F920F920FB60F921124C1
:101FB0002F933F934F935F936F937F938F939F9351
:101FC000AF93BF93EF93FF9381EB94E00E94640182
:101FD000FF91EF91BF91AF919F918F917F916F9101
:101FE0005F914F913F912F910F900FBE0F901F90D7
:101FF00018951F920F920FB60F9211242F938F9363
:102000009F93EF93FF93E091C104F091C20480810C
:10201000E091C704F091C80482FD1BC090818091BB
:10202000CA048F5F8F732091CB04821741F0E09137
:10203000CA04F0E0EF54FB4F958F8093CA04FF91E0
:10204000EF919F918F912F910F900FBE0F901F9046
:1020500018958081F4CF1F920F920FB60F92112422
:102060002F933F938F939F93AF93BF9380918F0450
:1020700090919004A0919104B091920430918E04BB
:1020800023E0230F2D3758F50196A11DB11D209394
:102090008E0480938F0490939004A0939104B09346
:1020A00092048091930490919404A0919504B0912E
:1020B00096040196A11DB11D8093930490939404FE
:1020C000A0939504B0939604BF91AF919F918F9187
:1020D0003F912F910F900FBE0F901F90189526E8FB
:1020E000230F0296A11DB11DD2CF1F920F920FB6E2
:1020F0000F9211242F933F934F935F936F937F938E
:102100008F939F93AF93BF93EF93FF938091B90009
:10211000887F803609F44AC0F0F5883209F4A7C0F8
:1021200018F5803109F49BC0B8F4882309F4F9C08C
:10213000883009F494C0FF91EF91BF91AF919F91C6
:102140008F917F916F915F914F913F912F910F9060
:102150000FBE0F901F901895883109F488C0803207
:1021600051F78093670414C0803409F49DC040F493
:102170008033B9F38833F9F68093670485ECB0C0F7
:10218000803509F485C0883509F496C0883499F6FD
:102190000E949B0FD0CF883909F48CC038F588375E
:1021A00029F050F4883611F0803729F683E08093C7
:1021B00068041092660457C0883809F47BC08039DF
:1021C00019F0803809F0B7CF80916604803208F0AA
:1021D00071C0E091660481E08E0F80936604809167
:1021E000BB00F0E0EA5BFB4F80833DC0803B39F0F1
:1021F000E0F4803A09F479C0883A09F09CCF84E091
:10220000809368041092450410924404E09199046C
:10221000F0919A0409958091440481110FC081E0E6
:10222000809344041092240409C0803C09F4A6CF92
:10223000883C09F4A3CF883B09F07DCFE0914504A9
:1022400081E08E0F80934504F0E0EC5DFB4F8081D0
:102250008093BB00909145048091440429C08091F3
:102260008D048093BB0085EC8093BC0064CF90917B
:102270008C0480918B04981758F5E0918C0481E0D0
:102280008E0F80938C04F0E0E559FB4F8081E9CFFD
:10229000E0918C0481E08E0F80938C048091BB00D0
:1022A000F0E0E559FB4F808390918C0480918B0482
:1022B0009817C8F285E8D8CFE0918C0481E08E0FA2
:1022C00080938C048091BB00F0E0E559FB4F808344
:1022D00080916A0481115CCF81E08093690484EA73
:1022E0008093BC001092680426CF85EC8093BC00DC
:1022F0001092680480916604803230F4E0916604A4
:10230000F0E0EA5BFB4F10826091660470E0E091C0
:102310009704F091980486E494E00995109266047D
:102320000ACF1092670434CFCF92DF92EF92FF92E0
:102330000F931F93CF93DF93EC016B01F42EE52EE7
:10234000198218861F86188A198A1A8A81E08E8750
:102350008B871C8692E09D8788838B01000F111F5D
:10236000060F171F1D830C83C8010E94AF1E9A879A
:102370008987009789F1A80170E060E00E94A2209F
:10238000DB82CA82FE82EF828981882341F061E08C
:102390008F2D0E944A0260E08F2D0E941C028F2D1B
:1023A0009E2DFC01EB50FF4FE491F0E0EE0FFF1F7C
:1023B000EF51FF4F259134913C8B2B8BFC01E75F54
:1023C000FE4FE491ED8BDF91CF911F910F91FF9024
:1023D000EF90DF90CF9008951D821C821B821A829D
:1023E000D1CFE1EBF4E01382128288EE93E0A0E01B
:1023F000B0E084839583A683B78320E431E0318302
:10240000208325EC30E03587248724EC30E03787C3
:10241000268720EC30E0318B208B21EC30E0338BB1
:10242000228B22EC30E0358B248B26EC30E0378B8E
:10243000268B118E128E138E148EEEE4F5E013822D
:10244000128284839583A683B78382E591E091838A
:10245000808360E087E00E944A02E0E1F1E0E491DD
:10246000A9EAB5E0EC93ECEFF0E0E491F0E0EE0FD8
:10247000FF1FE551FF4F8591949112969C938E9387
:1024800011971B961C921B971D961C921D971C96CC
:102490001C921C971A961C921A9719961C921997BF
:1024A00018961C92189717961C92179716961C92BE
:1024B000169715961C92159714961C9214971396BE
:1024C0001C921397E2E9F5E017821086108289E0EA
:1024D000838381E08483858386831182168A158AAB
:1024E0008FEF838B148AB287A1874AE050E062E0C5
:1024F00070E08CE795E00E94941145E050E063E0C5
:1025000070E086E695E00E949411EAE5F5E013821A
:10251000128284E691E09183808311868EE3848326
:1025200080E1828782E083870895CF93DF93CDB7E0
:10253000DEB7A6970FB6F894DEBF0FBECDBF789476
:1025400084B5826084BD84B5816084BD85B58260B8
:1025500085BD85B5816085BD80916E008160809369
:102560006E001092810080918100826080938100D2
:1025700080918100816080938100809180008160E2
:10258000809380008091B10084608093B10080913D
:10259000B00081608093B00080917A008460809365
:1025A0007A0080917A00826080937A0080917A002C
:1025B000816080937A0080917A00806880937A00AD
:1025C0001092C10061E088E00E944A0261E089E067
:1025D0000E944A0261E08CE00E944A0262E082E0CE
:1025E0000E944A0261E086E00E944A0261E083E0C4
:1025F0000E944A02E091C104F091C20482E080830B
:10260000E091BD04F091BE041082E091BF04F0910E
:10261000C0048FEC80831092C904E091C504F0914E
:10262000C60486E08083E091C304F091C4048081F5
:1026300080618083E091C304F091C404808188604C
:102640008083E091C304F091C4048081806880831A
:10265000E091C304F091C40480818F7D8083109247
:102660009E0410929D0410929C0410929B040E9460
:10267000A00384EE90E090939A048093990485EEF1
:1026800090E0909398048093970480E180935F0595
:1026900080916505823018F098E190935F058093F2
:1026A00062058BE39DE00197F1F760915F05606241
:1026B00070E08AE595E00E9465048BE496E401975A
:1026C000F1F760915F05606270E08AE595E00E9435
:1026D000650483E592E00197F1F760915F05606220
:1026E00070E08AE595E00E94650460915F05606294
:1026F00070E08AE595E00E94650484E080936005BF
:102700006CE070E08AE595E00E9465040E94820515
:1027100082E08093610566E070E08AE595E00E94C2
:10272000650462E070E08AE595E00E9465048BE351
:102730009FE10197F1F78CE795E00E94DB068CE7BB
:1027400095E00E9406068CE795E00E94BB0086E6B5
:1027500095E00E94DB0686E695E00E94060686E686
:1027600095E00E94BB0013E001E0E0919B05F09131
:102770009C0513861586148612861186108617828C
:1027800016821582148213821092990510929A056E
:1027900062E370E080E090E00E940803BE016F5F9A
:1027A0007F4F80919B0590919C050E944E09882344
:1027B00009F45FC067E0CE0101960E94F10698859A
:1027C0008913ECCF809199058F5F8093990589815A
:1027D000883231F008F044C0803111F08232F1F6D5
:1027E00080919A058F5F80939A058091920581115F
:1027F00028C080919B0590919C050E94AE07BE0168
:102800006F5F7F4F80919B0590919C050E948F0781
:1028100040E064EB80919B0590919C050E945B07D2
:1028200080919B0590919C050E940807F82E80914D
:102830009B0590919C050E94AE07F11002C0009389
:1028400092058981803199F0CE0101960E94160986
:1028500090919505981708F0A1CF809395059ECF8C
:102860008B3309F4BDCF823409F098CFB9CF8CE017
:10287000EFCF80919905811103C0115009F075CFF8
:1028800080E191E00E94CE0988E091E00E94CE09AB
:1028900080E091E00E94CE0980E392E00E94220B4A
:1028A0006091220170912301809124019091250172
:1028B00042E00E94370B8DEF91E00E94220B609165
:1028C0001E0170911F01809120019091210142E031
:1028D0000E94370B8DEF91E00E94220B60911A014C
:1028E00070911B0180911C0190911D010E94130C9D
:1028F00061E08CE00E941C0285EA92E00E94290BB4
:102900000E946B0DEFECF0E08491EBE0F1E00491BC
:10291000E7EFF0E0149111112FC080911801909110
:102920001901019709F43AC090E080E090931901F1
:102930008093180181EB94E00E9444011816190657
:102940000CF0A1C06EE671E0CE0181960E94FC0EF3
:102950000E94470397FD4FC08A30910509F44BC090
:1029600089831A8241E050E0BE016F5F7F4FCE0144
:1029700081960E94BD0EECCF81110E94F301E12FE0
:10298000F0E0EE0FFF1FE551FF4FA591B491EC91E0
:10299000E02309F4C2CF81E090E0C8CF62E370E0A9
:1029A00080E090E00E9408031091270181E0182741
:1029B0001093270160E088E00E941C0260E089E03B
:1029C0000E941C0260E08CE00E941C0286E592E0FE
:1029D000112371F08AE392E00E94290B1092A70460
:1029E0001092A60461E08CE00E941C0285EA92E04D
:1029F0000E94290B99CFCE0181960E94080E64E7B0
:102A000072E0CE0101960E94FC0EBE016F5D7F4F09
:102A1000CE0101960E94E90E8C0141E050E066E88B
:102A200072E00E94BD0E811103C0C8010E94B70A66
:102A3000C8010E94560DCE0101960E94C90A68E89D
:102A400072E0CE0181960E94800E882309F48DC029
:102A500081E0809327011092A7041092A60460E001
:102A600088E00E941C0260E089E00E941C0261E094
:102A70008CE00E941C0280E992E00E94290BCE01AA
:102A800081960E94C90A80912701882309F47CC499
:102A90000E943B030091A8041091A9042091AA046C
:102AA0003091AB04601B710B820B930B683E73403B
:102AB0008105910560F00E94220C0E943B03609307
:102AC000A8047093A9048093AA049093AB040E9475
:102AD0003B036B017C018091A6049091A704813097
:102AE000910509F405C48230910509F426C4892BA7
:102AF00079F58091A2049091A304A091A404B091CF
:102B0000A504A7019601281B390B4A0B5B0BDA01C0
:102B1000C90188389341A105B105D0F060E08CE08F
:102B20000E941C0261E088E00E941C0287EC93E096
:102B30000E94290B81E090E09093A7048093A60463
:102B4000C092A204D092A304E092A404F092A5043F
:102B500080E090E0892B09F4D5CE0E9450018823B3
:102B600009F4D0CE0E940000CDCE6FEA72E0CE0113
:102B700081960E94800E882389F01092270160E0E0
:102B800088E00E941C0260E089E00E941C0260E074
:102B90008CE00E941C0286EB92E06FCF6CED72E03D
:102BA000CE0101960E94FC0EBE016F5F7F4FCE01E9
:102BB00081960E94650E182FCE0101960E94C90AC7
:102BC000112309F446C044E050E0BE016F5D7F4F21
:102BD000CE0109960E948F0F0E94820580E00E941C
:102BE000510520E130E050E040E0BE01675F7F4FDB
:102BF000CE0101960E942D0F4D815E8169817A81FF
:102C00008AE595E00E94E600CE0101960E94C90A7D
:102C10008D859E854197D0F081E00E94510520E28C
:102C200030E040E150E0BE01675F7F4FCE0101968A
:102C30000E942D0F4D815E8169817A818AE595E040
:102C40000E94E600CE0101960E94C90ACE010996B3
:102C5000D0C061EE72E0CE0101960E94FC0EBE0172
:102C60006F5F7F4FCE0181960E94650E182FCE01B7
:102C700001960E94C90A112309F4BEC043E050E046
:102C8000BE016F5D7F4FCE0101960E948F0F65EEF2
:102C900072E0CE0101960E94800EC12CD12C7601EB
:102CA000DA94811177C06BEE72E0CE0101960E943A
:102CB000800EC12CD12C7601EA9481116BC060EF9B
:102CC00072E0CE0101960E94800EC12CD12C7601BB
:102CD000CA9481115FC065EF72E0CE0101960E9437
:102CE000800EC12CE5EADE2EEE24EA94F12C81114F
:102CF00051C06DEF72E0CE0101960E94800EC12C92
:102D0000DD24DA94ED2CF12C811144C066E073E0EF
:102D1000CE0101960E94800ECC24CA94DC2CE12CBA
:102D2000F12C811137C06EE073E0CE0101960E9454
:102D3000800E50E8C52ED12C760181112BC066E1A2
:102D400073E0CE0101960E94800E4BECC42E40EC45
:102D5000D42EEE24EA94F12C81111CC06BE173E0B7
:102D6000CE0101960E94800ECC24CA94DC2CEC2C5F
:102D7000F12C81110FC062E273E0CE0101960E9436
:102D8000800EC12CD12C7601882321F0CC24CA944A
:102D9000D12C760180917E0590917F05892B41F0A1
:102DA000A701960170E060E08CE795E00E949F0526
:102DB00080917E0590917F05029740F0A7019601D2
:102DC00061E070E08CE795E00E949F058CE795E05C
:102DD0000E9406068AE293E00E94220B40E1C701AE
:102DE000B6010E94DE0A8CE691E00E94D10ACE0173
:102DF00001960E94C90A43CE69E373E0CE010196B1
:102E00000E94FC0EBE016F5F7F4FCE0181960E9433
:102E1000650E182FCE0101960E94C90A112309F4EC
:102E2000EBC047E050E0BE016F5D7F4FCE010996D9
:102E30000E948F0F8D859E85892B09F4DAC0098544
:102E40001A856CE270E0C8010E94A920009709F47D
:102E5000D0C06C01C01AD10A8601CE0109960E9429
:102E6000D70D7C01101611060CF0F0CE08171907CB
:102E70000CF0ECCE980150E040E0BE01675F7F4F60
:102E8000CE0101960E942D0F89819A81812C912C6F
:102E90005401009721F00E941E1A4B015C01CE01E3
:102EA00001960E94C90AA8014F5F5F4F9701BE01BA
:102EB000675F7F4FCE0101960E942D0F89819A8115
:102EC000412C512C3201009721F00E941E1A2B0137
:102ED0003C01CE0101960E94C90AA7014F5F5F4FD6
:102EE000BE01675F7F4FCE0101960E948F0F8981DF
:102EF0009A81C12CD12C7601009721F00E941E1AD4
:102F00006B017C01CE0101960E94C90A80922201C8
:102F100090922301A0922401B092250140921E01BB
:102F200050921F016092200170922101C0921A01FB
:102F3000D0921B01E0921C01F0921D0181E493E00C
:102F40000E94220B60912201709123018091240143
:102F50009091250142E00E94370B83E693E00E94A6
:102F6000220B60911E0170911F01809120019091B0
:102F7000210142E00E94370B84E793E00E94220B7C
:102F800060911A0170911B0180911C0190911D01AB
:102F90000E94130C80E392E00E94220B60912201B8
:102FA00070912301809124019091250142E00E94BB
:102FB000370B8DEF91E00E94220B60911E01709102
:102FC0001F01809120019091210142E00E94370B66
:102FD0008DEF91E00E94220B60911A0170911B010C
:102FE00080911C0190911D010E94130C0E94220CE3
:102FF0002DCE0FEF1FEF31CF60E873E0CE010196C9
:103000000E94FC0EBE016F5F7F4FCE0181960E9431
:10301000650E182FCE0101960E94C90A112309F4EA
:1030200053C146E050E0BE016F5D7F4FCE014B962D
:103030000E948F0FCE014B960E94080E0B8D1C8DA7
:103040000115110571F0F80181918F01882349F074
:10305000082E000C990B0E949120F8013197808373
:10306000F2CF67E873E0CE014B960E94800E882372
:10307000A1F081E08093A10480919F049091A0042D
:10308000892B31F486E990E09093A00480939F040B
:103090000E946B0DCE014B96ACCE6AE873E0CE0178
:1030A0004B960E94800E882319F01092A104F0CF55
:1030B00068ED71E0CE014B960E94800E882321F0CE
:1030C00081E080932601E4CF67ED71E0CE014B965D
:1030D0000E94800E882319F010922601D9CF6EE845
:1030E00073E0CE0101960E94FC0EBE016F5F7F4F20
:1030F000CE014B960E94650E182FCE0101960E94BC
:10310000C90A112341F146E050E0BE01655E7F4FE0
:10311000CE0101960E948F0F89819A81C12CD12CFA
:103120007601009719F00E94221A6B01CE010196D8
:103130000E94C90AFFEFCF16D10421F01CF0CC2465
:10314000CA94D12CD7FE02C0D12CC12CD092A0049D
:10315000C0929F049DCF65E973E0CE0101960E9465
:10316000FC0EBE016F5F7F4FCE014B960E94650E35
:10317000182FCE0101960E94C90A112309F490C0AC
:1031800044E050E0BE01655E7F4FCE0145960E944F
:103190008F0F898D9A8D892B09F47FC00D891E8927
:1031A0006CE270E0C8010E94A920009709F475C084
:1031B0006C01C01AD10A8601CE0145960E94D70D36
:1031C0007C01101611060CF063C0081719070CF0EB
:1031D0005FC0980150E040E0BE016B5E7F4FCE01C2
:1031E0000F960E942D0FA8014F5F5F4F9701BE0100
:1031F0006B5E7F4FCE0109960E942D0FA7014F5F96
:103200005F4FBE016B5E7F4FCE0101960E948F0F14
:1032100089819A81C12CD12C7601009719F00E94E6
:10322000221A6B01CE0101960E94C90A67E873E079
:10323000CE010F960E94800E91E0811101C090E0B6
:103240009093A10468ED71E0CE0109960E94800E72
:1032500091E0811101C090E0909326012FEFC216FA
:10326000D10421F01CF0CC24CA94D12CD7FE02C08A
:10327000D12CC12CD092A004C0929F040E946B0D4F
:10328000CE0109960E94C90ACE010F960E94C90A72
:10329000CE0145960E94C90AFDCE0FEF1FEF8CCFDD
:1032A0006AE973E0CE0101960E94FC0EBE01655EE4
:1032B0007F4FCE0101960E94E90E0E94560DCE016D
:1032C00001960E94C90AE6CE61EB73E0CE01019639
:1032D0000E94FC0EBE016F5D7F4FCE0101960E94E1
:1032E000E90E0E94560DCE0101960E94C90AC7CB75
:1032F0008091A2049091A304A091A404B091A5048C
:10330000A7019601281B390B4A0B5B0BDA01C90197
:10331000883B9B40A105B10508F41ACC60E088E029
:103320000E941C0261E089E00E941C0281ED93E092
:103330000E94290B82E090E0FFCB8091A204909143
:10334000A304A091A404B091A504A7019601281B91
:10335000390B4A0B5B0BDA01C901883E9340A1058A
:10336000B10508F4F5CB60E089E00E941C0261E041
:103370008CE00E941C0285EA92E00E94290B1092C8
:10338000A7041092A604DCCB0E943B030091AD047D
:103390001091AE042091AF043091B0046B017C0118
:1033A000C01AD10AE20AF30A97018601043F1140CC
:1033B0002105310508F4CCCB6093AD047093AE04C5
:1033C0008093AF049093B0041091AC0481E018276F
:1033D0001093AC04612F88E00E941C02612F89E0E9
:1033E0000E941C02612F8CE00E941C0287E192E087
:1033F000112311F08FEF91E00E94290BA9CB80914E
:103400006F05909170050E944B1F80916C05909103
:103410006D0597FD03C060E00E944A02809185051A
:10342000909186050E944B1F8091820590918305A3
:1034300097FD03C060E00C944A0208956627772741
:103440000C945E1A1F93FC0199278827BC01E8940D
:1034500011911032E9F3193010F01E30C8F31B320D
:1034600051F01D3249F4689406C00E94491A610F58
:10347000711D811D911D119110531A30B0F33EF44E
:1034800090958095709561957F4F8F4F9F4F1F91BD
:103490000895592F482F372F262F660F771F881F23
:1034A000991F660F771F881F991F620F731F841F54
:1034B000951F660F771F881F991F0895B0E0A0E041
:1034C000E4E6FAE10C94071D5C017B0161157105CE
:1034D00019F0DB018D939C9385010F5F1F4FF50160
:1034E000D0818D2F90E00E94AE1B6C01892BB9F525
:1034F000DD32B9F50F5F1F4FD5011196DC91C1E0A8
:103500005801F1E0AF1AB10843E050E060E770E025
:10351000C5010E94B71B892B69F5680182E0C80EBE
:10352000D11C45E050E06BE670E0C6010E94B71B7D
:10353000892B21F4680197E0C90ED11CE114F10434
:1035400019F0D701CD92DC9260E070E080E89FEF47
:10355000C111FFC060E070E080E89FE7FAC0580149
:10356000BBCFDB3229F485010E5F1F4FF501D181FE
:10357000C0E0C6CF43E050E068E670E0C5010E94BD
:10358000B71B892BE9F0F80110E000E020E030E003
:10359000A9015F01B0ED8B2E8D0E89E08815C8F171
:1035A0009C2E689491F88C2F8870C2FF16C08111F0
:1035B00002C00F5F1F4F3196D501DC91C92DE9CFB5
:1035C000E114F10429F00E5F1F4FF701118300830E
:1035D00060E070E080EC9FE7BCC0882311F00150F0
:1035E0001109A5E0B0E00E94F61C9B01AC01220F7E
:1035F000331F441F551F280D311D411D511D2839F2
:1036000099E93907490799E15907A8F2C6609C2E44
:10361000D2CFAEEF8A1206C0C3FD3CC09C2E689488
:1036200093F8C9CFDF7DD534A9F580818D3239F487
:10363000C061DF011296818162E070E006C0DF01A7
:103640008B32C1F3119661E070E080535D01A61AE0
:10365000B70A8A30F8F4E0E8CE16ECE0DE065CF457
:10366000B601660F771F660F771FC60ED71ECC0CEC
:10367000DD1CC80ED11C5D01FFEFAF1ABF0A8C9193
:1036800080538A30A8F1C4FF03C0D194C194D108FB
:103690000C0D1D1DC1FF09C0E114F10431F081E0E2
:1036A000A81AB108D701AD92BC92CA01B9010E9413
:1036B000D41BC370C33009F490584B015C0120E067
:1036C00030E0A9010E94CF1B882309F440C0CFE954
:1036D000D0E017FF05C0119501951109C7E8D0E0AA
:1036E0006E01B8E1CB1AD10880E2E82EF12C0FC0B0
:1036F000D501B1CFFE0125913591459154910E1917
:103700001F09C501B4010E94351C4B015C01D501A4
:10371000C4010E151F0574F72497F594E794CC1691
:10372000DD06A9F78A2F880F8B2F881F8F3F49F05E
:1037300020E030E0A901C501B4010E94CF1B811136
:1037400006C082E290E09093B8058093B705C5016A
:10375000B401CDB7DEB7ECE00C94231D91110C94AD
:10376000A21C803219F089508550C8F70895FB01DA
:10377000DC014150504088F08D9181341CF08B3534
:103780000CF4805E659161341CF06B350CF4605E66
:10379000861B611171F3990B0895881BFCCF0E9461
:1037A000111C08F481E00895E89409C097FB3EF4E9
:1037B00090958095709561957F4F8F4F9F4F99237E
:1037C000A9F0F92F96E9BB279395F69587957795FC
:1037D0006795B795F111F8CFFAF4BB0F11F460FFBC
:1037E0001BC06F5F7F4F8F4F9F4F16C0882311F014
:1037F00096E911C0772321F09EE8872F762F05C028
:10380000662371F096E8862F70E060E02AF09A95C2
:10381000660F771F881FDAF7880F9695879597F9B7
:103820000895990F0008550FAA0BE0E8FEEF161651
:103830001706E807F907C0F012161306E407F507A4
:1038400098F0621B730B840B950B39F40A2661F018
:10385000232B242B252B21F408950A2609F4A140BB
:10386000A6958FEF811D811D08950E94481C0C9420
:10387000BC1C0E94AE1C38F00E94B51C20F09523A1
:1038800011F00C94A51C0C94AB1C11240C94F01C8E
:103890000E94CD1C70F3959FC1F3950F50E0551F0A
:1038A000629FF001729FBB27F00DB11D639FAA2795
:1038B000F00DB11DAA1F649F6627B00DA11D661FE4
:1038C000829F2227B00DA11D621F739FB00DA11D05
:1038D000621F839FA00D611D221F749F3327A00DBF
:1038E000611D231F849F600D211D822F762F6A2F5B
:1038F00011249F5750409AF0F1F088234AF0EE0FC0
:10390000FF1FBB1F661F771F881F91505040A9F7EC
:103910009E3F510580F00C94A51C0C94F01C5F3F59
:10392000E4F3983ED4F3869577956795B795F79528
:10393000E7959F5FC1F7FE2B880F911D96958795A0
:1039400097F9089599278827089597F99F6780E840
:1039500070E060E008959FEF80EC089500240A94E1
:103960001616170618060906089500240A9412165A
:103970001306140605060895092E0394000C11F48D
:10398000882352F0BB0F40F4BF2B11F460FF04C03A
:103990006F5F7F4F8F4F9F4F089557FD9058440F93
:1039A000551F59F05F3F71F04795880F97FB991F9E
:1039B00061F09F3F79F0879508951216130614065B
:1039C000551FF2CF4695F1DF08C0161617061806E8
:1039D000991FF1CF86957105610508940895E894C3
:1039E000BB2766277727CB0197F908950E94381DDA
:1039F000A59F900DB49F900DA49F800D911D112443
:103A000008952F923F924F925F926F927F928F9282
:103A10009F92AF92BF92CF92DF92EF92FF920F935D
:103A20001F93CF93DF93CDB7DEB7CA1BDB0B0FB667
:103A3000F894DEBF0FBECDBF09942A883988488824
:103A40005F846E847D848C849B84AA84B984C884BA
:103A5000DF80EE80FD800C811B81AA81B981CE0FB1
:103A6000D11D0FB6F894DEBF0FBECDBFED01089596
:103A7000A29FB001B39FC001A39F700D811D1124AF
:103A8000911DB29F700D811D1124911D08955058F4
:103A9000BB27AA270E945F1D0C94BC1C0E94AE1C71
:103AA00038F00E94B51C20F039F49F3F19F426F439
:103AB0000C94AB1C0EF4E095E7FB0C94A51CE92FCD
:103AC0000E94CD1C58F3BA17620773078407950745
:103AD00020F079F4A6F50C94EF1C0EF4E0950B2E73
:103AE000BA2FA02D0B01B90190010C01CA01A00150
:103AF0001124FF27591B99F0593F50F4503E68F1AB
:103B00001A16F040A22F232F342F4427585FF3CFEB
:103B1000469537952795A795F0405395C9F77EF4BC
:103B20001F16BA0B620B730B840BBAF09150A1F005
:103B3000FF0FBB1F661F771F881FC2F70EC0BA0F8B
:103B4000621F731F841F48F4879577956795B79513
:103B5000F7959E3F08F0B0CF9395880F08F099270E
:103B6000EE0F9795879508950E94C81D0C94BC1C74
:103B70000E94B51C58F00E94AE1C40F029F45F3F33
:103B800029F00C94A51C51110C94F01C0C94AB1C46
:103B90000E94CD1C68F39923B1F3552391F3951B33
:103BA000550BBB27AA2762177307840738F09F5F5E
:103BB0005F4F220F331F441FAA1FA9F335D00E2ECB
:103BC0003AF0E0E832D091505040E695001CCAF738
:103BD0002BD0FE2F29D0660F771F881FBB1F2617FB
:103BE00037074807AB07B0E809F0BB0B802DBF01D2
:103BF000FF2793585F4F3AF09E3F510578F00C94A1
:103C0000A51C0C94F01C5F3FE4F3983ED4F386951A
:103C100077956795B795F7959F5FC9F7880F911DC1
:103C20009695879597F90895E1E0660F771F881FAD
:103C3000BB1F621773078407BA0720F0621B730B60
:103C4000840BBA0BEE1F88F7E09508950E94D51CEF
:103C500088F09F5798F0B92F9927B751B0F0E1F04D
:103C6000660F771F881F991F1AF0BA95C9F714C0FD
:103C7000B13091F00E94EF1CB1E008950C94EF1C5C
:103C8000672F782F8827B85F39F0B93FCCF3869536
:103C900077956795B395D9F73EF490958095709593
:103CA00061957F4F8F4F9F4F08950E94111C08F41C
:103CB0008FEF08950E94111C880B990B0895AA1B81
:103CC000BB1B51E107C0AA1FBB1FA617B70710F007
:103CD000A61BB70B881F991F5A95A9F78095909539
:103CE000BC01CD01089597FB072E16F4009407D070
:103CF00077FD09D00E945F1E07FC05D03EF4909529
:103D000081959F4F0895709561957F4F0895A1E229
:103D10001A2EAA1BBB1BFD010DC0AA1FBB1FEE1F45
:103D2000FF1FA217B307E407F50720F0A21BB30B90
:103D3000E40BF50B661F771F881F991F1A9469F70C
:103D400060957095809590959B01AC01BD01CF0168
:103D50000895EE0FFF1F0590F491E02D09940F9345
:103D60001F93CF93DF938230910510F482E090E0AF
:103D7000E091BB05F091BC0530E020E0B0E0A0E0B0
:103D8000309799F42115310509F44AC0281B390BE5
:103D900024303105D8F58A819B816115710589F13F
:103DA000FB0193838283FE0111C040815181028116
:103DB000138148175907E0F04817590799F41097ED
:103DC00061F012960C93129713961C933296CF01C2
:103DD000DF91CF911F910F9108950093BB05109330
:103DE000BC05F4CF2115310551F04217530738F0C7
:103DF000A901DB019A01BD01DF01F801C1CFEF018B
:103E0000F9CF9093BC058093BB05CDCFFE01E20FA7
:103E1000F31F819391932250310939832883D7CF9F
:103E20002091B9053091BA05232B41F420912A0144
:103E300030912B013093BA052093B90520912801C8
:103E4000309129012115310541F42DB73EB740913C
:103E50002C0150912D01241B350BE091B905F091F7
:103E6000BA05E217F307A0F42E1B3F0B28173907FA
:103E700078F0AC014E5F5F4F2417350748F04E0FC6
:103E80005F1F5093BA054093B905819391939FCFDB
:103E9000F0E0E0E09CCFCF93DF930097E9F0FC01E6
:103EA000329713821282A091BB05B091BC05ED013F
:103EB00030E020E01097A1F420813181820F931F20
:103EC0002091B9053091BA052817390709F061C06A
:103ED000F093BA05E093B905DF91CF910895EA0117
:103EE000CE17DF07E8F54A815B819E014115510538
:103EF000B1F7E901FB83EA8349915991C40FD51FBA
:103F0000EC17FD0761F4808191810296840F951F63
:103F1000E90199838883828193819B838A83F0E07E
:103F2000E0E012968D919C9113970097B9F52D9131
:103F30003C911197CD010296820F931F2091B905F4
:103F40003091BA052817390739F6309751F5109294
:103F5000BC051092BB05B093BA05A093B905BCCFC0
:103F6000D383C28340815181840F951FC817D9071D
:103F700061F44E5F5F4F88819981480F591F5183CB
:103F800040838A819B81938382832115310509F0C7
:103F9000B0CFF093BC05E093BB059ECFFD01DC01E3
:103FA000C0CF13821282D7CFB0E0A0E0EAEDFFE1EC
:103FB0000C94031D8C01009751F4CB010E94AF1E9D
:103FC0008C01C801CDB7DEB7E0E10C941F1DFC01E8
:103FD000E60FF71F9C0122503109E217F30708F49E
:103FE0009DC0D901CD91DC911197C617D70798F0E4
:103FF000C530D10530F3CE0104978617970708F333
:10400000C61BD70B2297C193D1936D937C93CF019D
:104010000E944B1FD6CF5B01AC1ABD0A4C018C0E1F
:104020009D1EA091BB05B091BC05512C412CF12CDB
:10403000E12C109731F58091B9059091BA0588155A
:10404000990509F05CC04616570608F058C08091E3
:10405000280190912901009741F48DB79EB74091B6
:104060002C0150912D01841B950BE817F90708F0DE
:1040700055C0F093BA05E093B905F90171836083E7
:10408000A0CF8D919C91119712966C9012971396D8
:104090007C901397A815B90559F56C0142E0C40E40
:1040A000D11CCA14DB0420F1AC014A195B09DA0106
:1040B0001296159780F06282738251834083D901F2
:1040C0006D937C93E114F10471F0D7011396FC9386
:1040D000EE93129776CF22968C0F9D1FF901918354
:1040E0008083F301EFCFF093BC05E093BB0569CF6C
:1040F0004816590608F42C017D01D3019ACFCB0153
:104100000E94AF1E7C01009749F0AE01B8010E94E9
:104110009920C8010E944B1F870153CF10E000E097
:1041200050CF9111089581548A5108F4805E855AC8
:104130000895FB01DC0102C001900D9241505040F6
:10414000D8F70895DC0101C06D9341505040E0F76D
:104150000895FC018191861721F08823D9F79927CA
:1041600008953197CF010895FB01DC018D910190F5
:1041700080190110D9F3990B0895FB01DC0101901E
:104180000D920020E1F70895FB01DC014150504001
:1041900030F08D910190801919F40020B9F7881B37
:1041A000990B0895FC0181E090E00190061609F456
:1041B000CF010020D1F70197089510E0C0E9D0E0C9
:1041C00004C0FE010E94A91E2196C139D107C9F77A
:1041D000F894FFCF2862A219FC00009E2851B43049
:1041E000FF0000CD285FA651FC0000DA01000000AE
:1041F0000C420000A041000020C101010000BD05EB
:10420000800000004000140054005E00BC007701F4
:10421000000000008601E6001301D30144012201E1
:10422000360100000000360409049C05DF03020487
:10423000EF03E003000000009405E6009C059B05E9
:104240000D0A006E616E00696E66006F7666002D65
:104250002D2D2D2D2D204C656374757261206465A4
:104260002054656D706572617475726173202D2DB7
:104270002D2D2D2D0054656D7020436F63696E6187
:104280003A200020430054656D70204861626974D3
:10429000616369C3B36E3A200054656D7020446F4A
:1042A000726D69746F72696F3A2000636377006D95
:1042B0006F746F722D7374617475733A6F66662CC8
:1042C00030006D6F746F722D7374617475733A6F13
:1042D0006E2C0045737461646F204D616E74656E61
:1042E000696D69656E746F204F6E0045737461640B
:1042F0006F204D616E74656E696D69656E746F20B7
:104300004F666600756D6272616C65733A00436159
:104310006D626961646F2061206D6F646F20465526
:104320004E43494F4E414E444F0043616D626961B7
:10433000646F2061206D6F646F204D414E54454E77
:10434000494D49454E544F00436F6D616E646F2077
:10435000726563696269646F3A20270061637469FA
:104360007661720053656D61666F726F2061637470
:10437000697661646F202D3E2045737461646F20FF
:104380004530006170616761720053656D61666FF1
:10439000726F206170616761646F202D3E204D61F6
:1043A0006E74656E696D69656E746F204F66660028
:1043B0006C63643A0077733A0076657264650072E4
:1043C0006F6A6F00617A756C006E6172616E6A610E
:1043D00000616D6172696C6C6F0063656C6573740C
:1043E000650076696F6C65746100726F736100625D
:1043F0006C616E636F006D6167656E746100575329
:104400003238313220636F6C6F723A2000756D6202
:1044100072616C3A00556D6272616C657320616304
:104420007475616C697A61646F73202D3E204E6FE4
:10443000726D616C3A2000207C2041647665727454
:10444000656E6369613A2000207C2052696573675C
:104450006F3A20006D6F746F723A006F6E006F6676
:10446000660073706565643A007365743A006D6F39
:10447000746F722D636D642D646573636F6E6F630B
:1044800069646F3A00436F6D616E646F2064657399
:10449000636F6E6F6369646F3A2000457374616483
:1044A0006F2045310045737461646F204532000010
:107E0000112484B714BE81FFF0D085E080938100F7
:107E100082E08093C00088E18093C10086E0809377
:107E2000C20080E18093C4008EE0C9D0259A86E02C
:107E300020E33CEF91E0309385002093840096BBD3
:107E4000B09BFECF1D9AA8958150A9F7CC24DD24C4
:107E500088248394B5E0AB2EA1E19A2EF3E0BF2EE7
:107E6000A2D0813461F49FD0082FAFD0023811F036
:107E7000013811F484E001C083E08DD089C08234E0
:107E800011F484E103C0853419F485E0A6D080C0E4
:107E9000853579F488D0E82EFF2485D0082F10E0AE
:107EA000102F00270E291F29000F111F8ED06801E7
:107EB0006FC0863521F484E090D080E0DECF843638
:107EC00009F040C070D06FD0082F6DD080E0C81688
:107ED00080E7D80618F4F601B7BEE895C0E0D1E017
:107EE00062D089930C17E1F7F0E0CF16F0E7DF06D8
:107EF00018F0F601B7BEE89568D007B600FCFDCFD4
:107F0000A601A0E0B1E02C9130E011968C91119780
:107F100090E0982F8827822B932B1296FA010C0160
:107F200087BEE89511244E5F5F4FF1E0A038BF0790
:107F300051F7F601A7BEE89507B600FCFDCF97BE46
:107F4000E89526C08437B1F42ED02DD0F82E2BD052
:107F50003CD0F601EF2C8F010F5F1F4F84911BD097
:107F6000EA94F801C1F70894C11CD11CFA94CF0C13
:107F7000D11C0EC0853739F428D08EE10CD085E9AC
:107F80000AD08FE07ACF813511F488E018D01DD067
:107F900080E101D065CF982F8091C00085FFFCCF94
:107FA0009093C60008958091C00087FFFCCF809118
:107FB000C00084FD01C0A8958091C6000895E0E648
:107FC000F0E098E1908380830895EDDF803219F02E
:107FD00088E0F5DFFFCF84E1DECF1F93182FE3DFCA
:107FE0001150E9F7F2DF1F91089580E0E8DFEE27F6
:047FF000FF270994CA
:027FFE00040479
:00000001FF
