:100000000C9491000C94B9000C94B9000C94B900B4
:100010000C94B9000C94B9000C94B9000C94B9007C
:100020000C94B9000C94B9000C94B9000C94B9006C
:100030000C94B9000C94B9000C94B9000C94B9005C
:100040000C94AC100C94B9000C947A100C945410CD
:100050000C94B9000C94B9000C94B9000C94B9003C
:100060000C94F6100C94B9004E414E494E49545927
:10007000494E46CDCCCC3D0AD7233C17B7D1387773
:10008000CC2B329595E6241FB14F0A000020410089
:1000900000C84200401C4620BCBE4CCA1B0E5AAED3
:1000A000C59D74005EBCE2613FDD83C29C7E20A3DF
:1000B000FD1F41009D23BE46DB65F88C11AF32CA9F
:1000C00057E97400000000240027002A0000000007
:1000D0000800020100000304070000000000000007
:1000E0000000000000250028002B00000000002375
:1000F000002600290004040404040404040202028B
:100100000202020303030303030102040810204058
:10011000800102040810200102040810200072125D
:10012000C21A11241FBECFEFD8E0DEBFCDBF27E03B
:10013000A0E2B5E001C01D92A130B207E1F715E0E1
:10014000A0E0B1E0EAE5F3E402C005900D92A03230
:10015000B107D9F710E0C0E9D0E004C02197FE0153
:100160000E946C1FCF38D107C9F70E9416130C9458
:10017000A0210C940000CF93DF93EC0168856937D0
:1001800001F129853A856150B9F070E08FEF98E769
:100190000E94221FF9014C815D81CF01821B930BCC
:1001A0008417950760F44081469FC001479F900DDA
:1001B000112490833196EFCF70E060E0EBCF89E7B8
:1001C0008887DF91CF91089508950895DB011496F3
:1001D0004D915C9115976D917C91DC01ED91FC91B5
:1001E0000280F381E02D0994AF92BF92CF92DF920B
:1001F000EF92FF920F931F93CF93DF936C017B01DC
:100200008B01040F151FEB015E01AE18BF08C0176C
:10021000D10759F06991D601ED91FC910190F081DF
:10022000E02DC6010995892B79F7C501DF91CF91A2
:100230001F910F91FF90EF90DF90CF90BF90AF9004
:100240000895FC01538D448D252F30E0842F90E0DC
:10025000821B930B541710F0CF96089501970895C1
:10026000FC01918D828D981761F0A28DAE0FBF2F8A
:10027000B11D5D968C91928D9F5F9F73928F90E0E0
:1002800008958FEF9FEF0895FC01918D828D98174F
:1002900031F0828DE80FF11D858D90E008958FEF8C
:1002A0009FEF0895FC01918D228D892F90E0805C55
:1002B0009F4F821B91098F739927089585EF95E0D1
:1002C0000E94520121E0892B09F420E0822F089539
:1002D00080E090E0892B29F00E945E0181110C944E
:1002E00000000895FC01A48DA80FB92FB11DA35AD9
:1002F000BF4F2C91848D90E001968F739927848F46
:10030000A689B7892C93A089B1898C918370806468
:100310008C93938D848D981306C00288F389E02D09
:1003200080818F7D80830895EF92FF920F931F93BA
:10033000CF93DF93EC0181E0888F9B8D8C8D981398
:100340001AC0E889F989808185FF15C09FB7F894A4
:10035000EE89FF896083E889F989808183708064F0
:1003600080839FBF81E090E0DF91CF911F910F913B
:10037000FF90EF900895F62E0B8D10E00F5F1F4F4A
:100380000F731127E02E8C8D8E110CC00FB607FC59
:10039000FACFE889F989808185FFF5CFCE010E94E7
:1003A0007201F1CFEB8DEC0FFD2FF11DE35AFF4FE2
:1003B000F0829FB7F8940B8FEA89FB898081806275
:1003C000CFCFCF93DF93EC01888D8823B9F0AA8932
:1003D000BB89E889F9898C9185FD03C0808186FD00
:1003E0000DC00FB607FCF7CF8C9185FFF2CF80814F
:1003F00085FFEDCFCE010E947201E9CFDF91CF9151
:100400000895833081F028F4813099F08230A9F08A
:1004100008958730A9F08830C9F08430B1F4809114
:1004200080008F7D03C0809180008F778093800053
:10043000089584B58F7784BD089584B58F7DFBCFF3
:100440008091B0008F778093B00008958091B000C4
:100450008F7DF9CF1F93CF93DF93282F30E0F901E1
:10046000E353FF4F8491F901E75FFE4FD491F90107
:10047000EB50FF4FC491CC23A9F0162F81110E949D
:100480000102EC2FF0E0EE0FFF1FEF51FF4FA5919F
:10049000B4918FB7F894EC91111108C0D095DE2378
:1004A000DC938FBFDF91CF911F910895DE2BF8CFA2
:1004B000CF93DF9390E0FC01E75FFE4F24918B50D8
:1004C0009F4FFC0184918823C9F090E0880F991F09
:1004D000FC01ED53FF4FA591B491FC01EF51FF4F8B
:1004E000C591D49161110DC09FB7F8948C9120955E
:1004F00082238C938881282328839FBFDF91CF910B
:100500000895623051F49FB7F8943C91822F809502
:1005100083238C93E8812E2BEFCF8FB7F894EC9147
:100520002E2B2C938FBFEACF1F93CF93DF93182FDF
:10053000EB0161E00E945802209739F460E0812FBE
:10054000DF91CF911F910C942A02CF3FD10511F476
:1005500061E0F5CFE12FF0E0E353FF4FE491E330AA
:1005600031F140F4E130B1F0E230E1F0C038D105D2
:100570007CF7E4CFE73029F1E83059F1E430B1F706
:1005800080918000806280938000D0938B00C09324
:100590008A0004C084B5806884BDC7BDDF91CF9157
:1005A0001F91089584B5806284BDC8BDF7CF809146
:1005B0008000806880938000D0938900C093880079
:1005C000EDCF8091B00080688093B000C093B300FD
:1005D000E5CF8091B00080628093B000C093B400FA
:1005E000DDCF3FB7F8948091D7059091D805A091C1
:1005F000D905B091DA0526B5A89B05C02F3F19F0A3
:100600000196A11DB11D3FBFBA2FA92F982F882792
:10061000BC01CD01620F711D811D911D42E0660F6D
:10062000771F881F991F4A95D1F708958F929F923F
:10063000AF92BF92CF92DF92EF92FF926B017C015B
:100640000E94F1024B015C01C114D104E104F104E8
:10065000B9F00E94F102681979098A099B09683E7C
:1006600073408105910580F321E0C21AD108E108A9
:10067000F10888EE880E83E0981EA11CB11CE4CF1F
:10068000FF90EF90DF90CF90BF90AF909F908F90B2
:1006900008952FB7F8946091D3057091D405809197
:1006A000D5059091D6052FBF08950F931F930E94F3
:1006B00049036093FD057093FE058093FF059093B9
:1006C000000685EF95E00E94300197FF1DC00E9453
:1006D00049030091FD051091FE052091FF05309121
:1006E0000006601B710B820B930B0091F9051091B2
:1006F000FA052091FB053091FC0560177107820710
:100700009307F8F28FEF9FEF1F910F9108952091BB
:100710008805260F3327331F21323105ECF4209151
:10072000AC05FC0190E080E0243069F082E008959F
:10073000A09188052191AC0148595A4FA40FB52FBB
:10074000B11D2C930196861798F380918805680F48
:100750006093880580E0089581E008951092AC05CB
:1007600081E08093AE051092AD0561E082E10E94C8
:100770002A0261E083E10E942A02E9EBF0E0808135
:100780008E7F808380818D7F808388E48093B80012
:1007900085E48093BC000895CF93DF9391E090931C
:1007A00067058823B9F0C091B800D091BA00809154
:1007B000BC008A7B8093BC0060E082E10E942A0238
:1007C00060E083E10E942A020E94AE03D093BA0047
:1007D000C093B800DF91CF9108950895E091E205AC
:1007E0008091E105E81730F4F0E0EE5BFA4F80818C
:1007F00090E008958FEF9FEF08959091E20580912A
:10080000E1052FEF3FEF981748F4E92FF0E0EE5B9A
:10081000FA4F208130E09F5F9093E205C90108956F
:100820008091E1059091E205891B990B0895CF9283
:10083000DF92EF92FF920F931F93CF93DF937C0190
:10084000CB018A0120914105222389F0EB016B0144
:10085000C40ED51ECC15DD0569F06991D701ED9167
:10086000FC910190F081E02DC7010995F3CF642F31
:100870000E948703C801DF91CF911F910F91FF90D4
:10088000EF90DF90CF900895CF93DF931F92CDB775
:10089000DEB76983209141052223F9F02091DF051D
:1008A000203258F021E030E0FC013383228390E0D5
:1008B00080E00F90DF91CF9108958091E005E82FBF
:1008C000F0E0EF5DFA4F998190838F5F8093E005B0
:1008D0008093DF0581E090E0ECCF61E0CE010196EE
:1008E0000E948703F7CFCF92DF92EF92FF920F9390
:1008F0001F93CF93DF93D62F672FFC01C48181E034
:1009000080934105C09320051092E0051092DF0509
:1009100082E996E00E9444046D2F82E996E00E94ED
:100920004404D091DF05D13208F092C00E94F10258
:100930006B017C018091AC05811165C082E08093E0
:10094000AC0581E08093AE058FEF8093AB051092EC
:10095000D005D093CF05A1E2B5E0EFEAF5E080E065
:10096000D81385C01092D1058091D105CC0FC82B2A
:10097000C093D1058091AD05813009F07CC0109203
:10098000AD050E94F1026B017C018091D10580933D
:10099000BB008091630590916405A0916505B091BD
:1009A0006605892B8A2B8B2B99F00E94F10200910E
:1009B00063051091640520916505309166056C19F9
:1009C0007D098E099F090617170728073907E0F1E7
:1009D0008091BC0083FDD9CF85EC8093BC000E9440
:1009E000F1026B017C018091AC05823009F445C0B5
:1009F0008091AB058F3F61F18091AB05803241F171
:100A00008091AB0525C08091630590916405A0910C
:100A10006505B0916605892B8A2B8B2B09F48ACF4B
:100A20000E94F10200916305109164052091650513
:100A3000309166056C197D098E099F090617170705
:100A40002807390708F076CF809162050E94CC0311
:100A50001092E0051092DF0510924105DF91CF91D1
:100A60001F910F91FF90EF90DF90CF9008959D918F
:100A700091938F5F75CF85EEB0CF80916305909194
:100A80006405A0916505B0916605892B8A2B8B2B97
:100A900009F4A9CF0E94F102009163051091640549
:100AA00020916505309166056C197D098E099F09B5
:100AB000061717072807390708F095CFC5CFCF933A
:100AC000DF93CDB7DEB728970FB6F894DEBF0FBE21
:100AD000CDBF98E0EFE2F1E0DE01119601900D92BA
:100AE0009A95E1F79091A606981708F48FEF90E099
:100AF000880F991F21E030E02C0F3D1F820F931FBC
:100B0000FC016081606870E08EE996E028960FB67F
:100B1000F894DEBF0FBECDBFDF91CF910C9473046C
:100B200061E070E08EE996E00E9473048BE39FE140
:100B30000197F1F78091A706882319F080E00C94C3
:100B40005F05089570E070640E94730481E090E096
:100B50000895089590E080E008958F929F92AF925B
:100B6000BF92CF92DF92EF92FF921F93CF93DF93CA
:100B7000FC014A01AA24BB24C82DC32ED42EE52E85
:100B8000FF241C2DD22F8085882361F0889E400190
:100B90001124C92D8C9D600111241D2D829FD0012F
:100BA0001124DB2FA685E184F2849385A91322C04A
:100BB000CB01880F991F680F791F6E0D7F1DA385CC
:100BC000A60FB72FB11DCC93A485A60FB72FB11DCB
:100BD0001C938585680F711DFB01D083DF91CF9138
:100BE0001F91FF90EF90DF90CF90BF90AF909F90BC
:100BF0008F900895660F771F660F771F6E0D7F1D0C
:100C0000252F332744275527882349F090E0829FDA
:100C10007001839FF00C929FF00C11242F2DA60FD2
:100C2000B72FB11D2C93CBCFCF92DF92EF92FF92D3
:100C30000F931F93CF93DF93CDB7DEB729970FB6EE
:100C4000F894DEBF0FBECDBF8C01DC0119968D91EB
:100C50009C91892B09F473C00E94F102F801C784AA
:100C6000D088E188F2886C157D058E059F0520F4FB
:100C70006787708B818B928BF801C784D088E1885D
:100C8000F2886C197D098E099F096C3271408105CB
:100C9000910510F3F894D80114968D919C911597B5
:100CA0009A8389831996ED91FC917F01BFEFEB1A2E
:100CB000FB0A80818987F80190810388F489E02DFF
:100CC000D80155968C91992309F448C09081982BAE
:100CD00098879081809589238F838F818C8388E08A
:100CE0008B8358856F8149853B812C8189819A81CD
:100CF000D701508347FD252F3A952083262F39F0C1
:100D0000441F00C000006083000000C0F2CF38E044
:100D10004D9160830000019761F7D8015496FC93D0
:100D2000EE93539749873B832C839A8389837894E6
:100D30000E94F102F8016787708B818B928B299654
:100D40000FB6F894DEBF0FBECDBFDF91CF911F91DC
:100D50000F91FF90EF90DF90CF9008959081982BA6
:100D600098879081809589238F838F818E8388E0F7
:100D70008D8358856F8149853D812E8189819A8136
:100D8000D701508347FD252F00C000C0208300C03D
:100D900000C000C000C000C060830000262F3A954C
:100DA00041F0441F000000C000C000C000C000C0EF
:100DB000E8CF38E04D9100C0608300C0019709F78B
:100DC000D8015496FC93EE93539749873D832E8325
:100DD000ACCFCF93DF93EC018E819F8197FD0CC048
:100DE00061E00E94580260E08E810E942A0281E048
:100DF0008983DF91CF910895198280E0FACFDC01D9
:100E000080E0615090F09D919827E92FEF70F0E01D
:100E1000ED55FF4F2491E92FE295EF70F0E0ED548E
:100E2000FF4FE491822F8E27ECCF0895DC012C91A7
:100E30001196ED91FC91F8948181822B81839281AE
:100E4000322F30959323928387E090E00197F1F75A
:100E500081818323818383E290E00197F1F7908180
:100E60007894EFECF0E03197F1F7922381E009F408
:100E700080E00895FC0190810180F281E02D292F0E
:100E8000209560FF14C0F89482818223828381813F
:100E9000892B8183A3E2B0E01197F1F78281982B2F
:100EA0009283789487ED90E00197F1F70895F89494
:100EB0008281822382838181892B8183AFEFB0E09D
:100EC0001197F1F78281982B928378948FE090E0CC
:100ED000EBCFDF92EF92FF920F931F93CF93DF93AD
:100EE000EC01D62EE42E08E010E0FF24F39461E03C
:100EF0008D2D8F2109F460E0CE010E943A07FF0C8E
:100F000001501109A1F7E11010C0F894E981FA81AC
:100F100091818881809589238183E981FA819281F9
:100F200088818095892382837894DF91CF911F9166
:100F30000F91FF90EF90DF900895EF92FF920F9343
:100F40001F93CF93DF938C017B0140E065E50E9406
:100F50006907E70188E0E80EF11C699140E0C801EB
:100F60000E946907CE15DF05C1F7DF91CF911F9170
:100F70000F91FF90EF900895FC0190810180F28124
:100F8000E02DF8948181292F209582238183789404
:100F90003DE743E050E0315029F1DA011197F1F7D4
:100FA00080818923C1F3F8948281822382838181A5
:100FB000892B81837894ABE7B7E01197F1F7F89428
:100FC000818182238183A3E1B1E01197F1F78081D0
:100FD000982381E009F080E07894E3E6F6E0319729
:100FE000F1F7089580E008956F927F928F929F921B
:100FF000AF92BF92CF92DF92EF92FF920F931F9327
:10100000CF93DF938C01EB018091DF069091E00696
:101010000E94BC07882309F43FC0B8018091DF0615
:101020009091E0060E949D0740E06EEB8091DF0604
:101030009091E0060E9469077E016E0189E0C80E6A
:10104000D11C8E01A090DF06B090E00688E0882ECB
:10105000912C712C66246394C5010E94160781119E
:101060007628660CE1E08E1A9108B1F7F8017192CA
:101070008F01CE16DF0631F78091DF069091E006F2
:101080000E94BC07813041F4F70181917F018111F9
:1010900005C0E017F107C1F790E008C068E0CE0195
:1010A0000E94FF0691E028852813F6CF892FDF9153
:1010B000CF911F910F91FF90EF90DF90CF90BF9055
:1010C000AF909F908F907F906F900895CF92DF9216
:1010D000EF92FF920F931F93CF93DF93CDB7DEB7BD
:1010E00029970FB6F894DEBF0FBECDBF8C01BE01AD
:1010F0006F5F7F4F0E94F407811105C060E070E0D0
:101100008EEF92EC4EC08A81C12CD12C760187FFE4
:1011100006C0C12CD12CF8EFEF2EFF24FA94F80171
:10112000908149819B3309F04BC02D8127FF48C036
:1011300040FDE4CF042F10E030E020E073E0000F2A
:10114000111F221F331F7A95D1F7B901A801407EE4
:1011500057706627772790E0B0E0A0E08C019D01F2
:10116000EBE0000F111F221F331FEA95D1F7042B6C
:10117000152B262B372B0C291D292E293F29013809
:1011800054EE15075FEF250735070CF4B7CFC901FB
:10119000B8010E94991C20E030E040E05CE30E942E
:1011A000F81C29960FB6F894DEBF0FBECDBFDF91B5
:1011B000CF911F910F91FF90EF90DF90CF90089506
:1011C000082F10E0102F0027110F110F110FF8E05A
:1011D0004F9FA0011124042B152B012E000C220B74
:1011E000330B0C291D292E293F29903141F66885A2
:1011F000662329F270E08F81AB01481B5109CA01B7
:101200009695982F8827979587950E94361FCB0132
:10121000770FAA0BBB0B53E0000F111F221F331FC8
:101220005A95D1F700782770332700521109210908
:101230003109800F911FA21FB31F97018601082B50
:10124000192B2A2B3B2B9BCF0F931F93CF93DF930D
:10125000CDB7DEB729970FB6F894DEBF0FBECDBF6E
:101260008C01BE016F5F7F4F0E94F407882361F0FD
:101270008D81F80190819B3311F487FD0BC08F3372
:1012800059F020F48F31A1F080E007C08F3591F044
:101290008F37D1F78CE001C08AE029960FB6F89419
:1012A000DEBF0FBECDBFDF91CF911F910F9108958B
:1012B00089E0F3CF8BE0F1CFBF92CF92DF92EF9234
:1012C000FF920F931F93CF93DF93EC01B62EC72E9F
:1012D0008D85811105C0CE010E94BC0781110EC011
:1012E0001B861D861C8680E0DF91CF911F910F9198
:1012F000FF90EF90DF90CF90BF90089540E060EFB7
:10130000CE010E94690701E0E12CD12C11E0CE0151
:101310000E941607F82ECE010E94160791E0F912DE
:1013200018C0813099F51134D8F2DB86D11002C093
:1013300081E08D878B81882399F22396EB2DFC2DFC
:10134000CF01089629912193E817F907D9F781E091
:10135000CBCFEE2DF0E0F8120FC08B851817A0F45C
:10136000DE01AE0FBF1F13968C91802379F4F12C10
:10137000193008F41C87D12EEC0FFD1F8381902FAC
:101380009095892383830AC08113F1CFFE01EE0D6E
:10139000F11D8381802B8383FF24F3946F2DCE0175
:1013A0000E943A071F5F000F11F4E39401E087E009
:1013B0008E1508F0ACCFB7CF0F931F93CF93DF9369
:1013C000CDB7DEB729970FB6F894DEBF0FBECDBFFD
:1013D0008C01FC018081803109F46CC0BE016F5F1B
:1013E0007F4FC8010E94F407882309F4C3C08D8190
:1013F0008F3709F45FC08FE78D838091DF0690916E
:10140000E0060E94BC07B8018091DF069091E006DB
:101410000E949D0740E06EE48091DF069091E00617
:101420000E94690740E06B818091DF069091E006A1
:101430000E94690740E06C818091DF069091E00690
:101440000E946907F8018081803141F040E06D81A0
:101450008091DF069091E0060E9469078091DF0687
:101460009091E0062091DC06222311F10E94BC0736
:10147000882301F1B8018091DF069091E0060E9477
:101480009D074091D60668E48091DF069091E006C2
:101490000E9469078091D60681114FC064E170E017
:1014A00080E090E00E9416038091DF069091E006B4
:1014B0000E94BC078CE08093D9068091DD068230C3
:1014C00008F457C0E091DF06F091E0061386158618
:1014D000148612861186108617821682158214824F
:1014E000138210E08091DD06181708F042C0809149
:1014F000D9068C30F1F1BE016F5F7F4F8091DF061E
:101500009091E0060E945C098823A9F067E0CE0173
:1015100001960E94FF06988589130DC0898180314C
:1015200031F1CE0101960E9424099091D9069817B5
:1015300010F48093D9061F5FD5CF8091D7068823FA
:1015400029F060E08091D8060E942A0264E170E0F0
:1015500080E090E00E9416038091D706882309F46A
:10156000A3CF61E08091D8060E942A029DCF8CE033
:10157000DCCF81E029960FB6F894DEBF0FBECDBF59
:10158000DF91CF911F910F910895CF93DF93EC01DD
:1015900088819981009711F00E940E20198218828B
:1015A0001D821C821B821A82DF91CF910895FC015B
:1015B00080819181009711F00C940E200895FC0118
:1015C00001900020E9F73197AF01481B590BBC018E
:1015D00085EF95E00C94F4008F929F92AF92BF92AA
:1015E0000F931F93CF93DF93CDB7DEB7A1970FB6BD
:1015F000F894DEBF0FBECDBF19A2423008F44AE016
:101600008E010F5D1F4F842E912CB12CA12CA501B2
:1016100094010E944A1FE62FB901CA01EA30F4F48E
:10162000E05DD801EE938D01232B242B252B79F738
:1016300090E080E0109719F0CD010E94DF0AA1969A
:101640000FB6F894DEBF0FBECDBFDF91CF911F91D3
:101650000F91BF90AF909F908F900895E95CE1CF7C
:101660000C94DF0ACF92DF92EF92FF92CF93DF9339
:101670006C01990FEE08FF08F7FE1FC06DE285EFC1
:1016800095E00E949401EC0166277727CB016C1945
:101690007D098E099F094AE00E94EC0AC80FD91FF4
:1016A0008DE691E00E94DF0A8C0F9D1FDF91CF91A4
:1016B000FF90EF90DF90CF9008954AE0C701B60108
:1016C0000E94EC0AEC01ECCFCF93DF930E94DF0A7B
:1016D000EC018DE691E00E94DF0A8C0F9D1FDF91E7
:1016E000CF9108951F93CF93DF9386E791E00E94F7
:1016F000300B8091E505811140C085EC91E00E949E
:10170000300B88E991E00E94300B80912701811114
:1017100037C083E791E00E94300B85EA91E00E9498
:10172000300B8091E3059091E4050E94320B80918B
:10173000E505882339F0C091E305D091E4051C1636
:101740001D060CF170E060E08BE00E94940270E0F6
:1017500060E083E00E94940270E060E089E00E9413
:10176000940270E060E086E00E94940284EB91E0D5
:10177000DF91CF911F910C94640B83E195E0BFCF73
:1017800080E791E0C8CF1091270180910001811777
:10179000E1F070E060E08BE00E94940270E060E0B5
:1017A00089E00E94940270E060E083E00E9494026D
:1017B00070E060E086E00E94940264E670E080E001
:1017C00090E00E94160310930001CF3FD10519F05D
:1017D00014F0CFEFD0E0BE01112339F18BE00E946D
:1017E000940270E060E083E00E94940270E060E0A8
:1017F00089E00E949402BE0186E00E94940287EC78
:1018000091E00E94300B8091270181111EC083E777
:1018100091E00E94300B86ED91E00E94300BCE01EA
:10182000DF91CF911F910C94320B89E00E949402BA
:1018300070E060E086E00E94940270E060E08BE07F
:101840000E949402BE0183E0D8CF80E791E0E1CF0F
:101850004F925F926F927F928F929F92AF92BF92C0
:10186000CF92DF92EF92FF920F931F93CF936B0172
:101870007C01742EAC019B010E941D1F882399F0EE
:1018800088ED91E0CF911F910F91FF90EF90DF9045
:10189000CF90BF90AF909F908F907F906F905F9010
:1018A0004F900C94DF0A46015701E894B7F82FEFE8
:1018B0003FEF4FE75FE7C501B4010E941D1F811193
:1018C0000DC02FEF3FEF4FE75FE7C501B4010E9466
:1018D000921C18161CF48CED91E0D4CF2FEF3FEF43
:1018E0004FE75FE4C701B6010E94181F18161CF4E9
:1018F00080EE91E0C7CF2FEF3FEF4FE75FECC701DE
:10190000B6010E94921C87FDF3CF20E030E0A901D0
:10191000C701B6010E94921C10E000E087FF0AC0D8
:101920006DE285EF95E00E9494018C01F7FAF09446
:10193000F7F8F094C0E060E070E080E09FE37C1690
:1019400041F020E030E040E251E40E94771ECF5F9A
:10195000F6CFA70196010E940B1E2B013C010E94AD
:10196000E91E4B015C014AE00E94EC0A7C01E00E9A
:10197000F11ECC23C1F1C501B4010E94971C9B014B
:10198000AC01C301B2010E940A1E4B015C016EE270
:1019900085EF95E00E949401E80EF91EC15018F100
:1019A00020E030E040E251E4C501B4010E94F81C9F
:1019B0002B013C010E94E91E4B01B12CA12C4AE0F5
:1019C000C501B4010E94EC0AE80EF91EC501B4017C
:1019D0000E94971C9B01AC01C301B2010E940A1E28
:1019E0004B015C01DBCFC701CF911F910F91FF909D
:1019F000EF90DF90CF90BF90AF909F908F907F90AF
:101A00006F905F904F9008954F925F926F927F9288
:101A10008F929F92AF92BF92CF92DF92EF92FF92FE
:101A20000F931F93CF93DF93CDB7DEB72C970FB6ED
:101A3000F894DEBF0FBECDBF8091DF069091E00627
:101A40000E94BC0740E06CEC8091DF069091E006BC
:101A50000E9469074091D60664E48091DF06909168
:101A6000E0060E9469070E9449036B017C01809196
:101A7000DA068823E1F08091DB06882309F49FC011
:101A80008091D60681119BC08091DF069091E0067F
:101A90000E941607813059F00E9449036C197D0994
:101AA0008E099F096E3E72408105910568F381E1C0
:101AB00091E00E9466082B013C0189E091E00E94C0
:101AC00066084B015C0181E091E00E9466086B01B1
:101AD0007C0184EE91E00E94640B8AE092E00E9417
:101AE000300B42E0C301B2010E94280C88E192E071
:101AF0000E94640B8BE192E00E94300B42E0C50132
:101B0000B4010E94280C88E192E00E94640B8EE2EE
:101B100092E00E94300B42E0C701B6010E94280CFF
:101B200088E192E00E94640B49825A826B827C8237
:101B30008D829E82AF82B886C986DA86EB86FC8665
:101B4000CE0101967C0110E000E0F70181909190B8
:101B5000A190B1907F012091230130912401409107
:101B6000250150912601C501B4010E94921C87FDF8
:101B70004FC020911B0130911C0140911D015091DB
:101B80001E01C501B4010E94181F18160CF440C0B4
:101B900020911F013091200140912101509122019B
:101BA000C501B4010E94921C20E035EA4FEF50E0DD
:101BB000181694F120E03FEF40E050E02DC0E09196
:101BC000D906E9508EEE92E0E33038F4F0E0EE0F03
:101BD000FF1FE95CFE4F808191816C01F12CE12CAB
:101BE0008091D706882329F060E08091D8060E9472
:101BF0002A02C701B6010E9416038091D7068823E6
:101C000009F455CF61E08091D8060E942A024FCF97
:101C100020E030E04FEF50E08091AC069091AD06AF
:101C20000817190728F4B8018AEA96E00E94AD0562
:101C30000F5F1F4F0330110509F087CF8AEA96E046
:101C40002C960FB6F894DEBF0FBECDBFDF91CF91BB
:101C50001F910F91FF90EF90DF90CF90BF90AF90CA
:101C60009F908F907F906F905F904F900C94140690
:101C7000CF93DF9342E00E94280CEC018DE691E0C7
:101C80000E94DF0A8C0F9D1FDF91CF910895CF93A3
:101C9000DF93BC0185EF95E00E94E600EC018DE644
:101CA00091E00E94DF0A8C0F9D1FDF91CF91089574
:101CB000DF92EF92FF920F931F93CF93DF93FC017C
:101CC000E480F580E114F10451F48FEF9FEFDF9190
:101CD000CF911F910F91FF90EF90DF900895EC014D
:101CE0000190F081E02DEE0DFF1DD0801082088163
:101CF00019816CE270E0C8010E9495210E0D1F1D34
:101D0000F801D082009709F328813981821B930B57
:101D1000DECFAF92BF92CF92DF92EF92FF920F93FE
:101D20001F93CF93DF93DC01CD90DC901197C1140A
:101D3000D10439F01496CD91DC918C017601209775
:101D400061F4DF91CF911F910F91FF90EF90DF90A1
:101D5000CF90BF90AF90089575015701BFEFAB1AB8
:101D6000BB0AF7018081082E000C990B0E94711CA0
:101D7000892B91F72197CC0DDD1D8881082E000C51
:101D8000990B0E94711C892B29F0CE15DF0510F0EC
:101D90002197F3CFAE014F5F5F4F4E195F09D80116
:101DA00015965C934E931497CE14DF0420F4B7017C
:101DB000C6010E945C21D801ED91FC911197149607
:101DC0008D919C91E80FF91F1082BBCFFB014481DC
:101DD0005581FC01248135812417350778F08081F5
:101DE0009181009759F0FB01608171816115710546
:101DF00029F00E94872121E0892B09F020E0822F21
:101E00000895FC0124813581232B39F421E0FB0165
:101E10008081882349F020E007C0808191810E9461
:101E2000772121E0892BB9F7822F08950F931F9313
:101E3000CF93DF93EC0188819981009759F02A8133
:101E40003B812617370730F081E0DF91CF911F915A
:101E50000F9108958B016F5F7F4F0E94972000972D
:101E600059F0998388831B830A832C813D81232B1E
:101E700059F7FC011082E8CF80E0E7CFEF92FF92A4
:101E80000F931F93CF93DF936115710541F480E0A9
:101E9000DF91CF911F910F91FF90EF900895411521
:101EA0005105B1F07B01EC010C811D81040F151F60
:101EB000B8010E94160F882351F3288139818C8143
:101EC0009D81B701820F931F0E9480211D830C8387
:101ED00081E0DECFCF93DF93EC01FB01448155819C
:101EE000608171810E943E0F811103C0CE010E946A
:101EF000C50ACE01DF91CF910895EF92FF920F9323
:101F00001F93CF93DF93EC017B01198218821B8210
:101F10001A821D821C82FB0101900020E9F7319793
:101F20008F01061B170BB8010E94160F811109C003
:101F3000CE01DF91CF911F910F91FF90EF900C9404
:101F4000C50A1D830C83B70188819981DF91CF91E8
:101F50001F910F91FF90EF900C9480219F92AF9270
:101F6000BF92CF92DF92EF92FF920F931F93CF9386
:101F7000DF937C016B015A0189012417350720F496
:101F80008B2D5901042F182F6FE671E0C7010E94B5
:101F90007D0FD6011496CD91DC91AC16BD0650F59F
:101FA0000C171D0708F4E801D601ED91FC9111977B
:101FB000EC0FFD1F908010820D911C910A0D1B1DCE
:101FC0000115110571F0F80101900020E9F7319732
:101FD0005F01A01AB10AB501C7010E94160F811155
:101FE00016C0C7010E94C50AD6018D919C91C80FE9
:101FF000D91F9882C701DF91CF911F910F91FF9058
:10200000EF90DF90CF90BF90AF909F900895F70131
:10201000B582A482B801808191810E948021E4CFA1
:10202000CF93DF93EC01FB01248135810E94AE0F39
:10203000CE01DF91CF91089585ED8093BC00809112
:10204000630590916405A0916505B09166050796BA
:10205000A11DB11D23E0B695A795979587952A9563
:10206000D1F72091BC0024FD03C01092AC05089567
:102070004091630550916405609165057091660516
:10208000452B462B472B69F30097A105B10541F07D
:1020900025E32A95F1F700000197A109B109E1CFE5
:1020A000809162050C94CC031F920F920FB60F9291
:1020B00011242F933F934F935F936F937F938F934D
:1020C0009F93AF93BF93EF93FF9385EF95E00E94AB
:1020D0007201FF91EF91BF91AF919F918F917F918D
:1020E0006F915F914F913F912F910F900FBE0F9085
:1020F0001F9018951F920F920FB60F9211242F93D5
:102100008F939F93EF93FF93E0910506F09106065E
:102110008081E0910B06F0910C0682FD1BC090813E
:1021200080910E068F5F8F7320910F06821741F00A
:10213000E0910E06F0E0EB50FA4F958F80930E067B
:10214000FF91EF919F918F912F910F900FBE0F9064
:102150001F9018958081F4CF1F920F920FB60F92A7
:1021600011242F933F938F939F93AF93BF938091AD
:10217000D3059091D405A091D505B091D6053091A5
:10218000D20523E0230F2D3758F50196A11DB11D6F
:102190002093D2058093D3059093D405A093D505C1
:1021A000B093D6058091D7059091D805A091D90517
:1021B000B091DA050196A11DB11D8093D7059093CA
:1021C000D805A093D905B093DA05BF91AF919F913F
:1021D0008F913F912F910F900FBE0F901F901895E8
:1021E00026E8230F0296A11DB11DD2CF1F920F9298
:1021F0000FB60F9211242F933F934F935F936F93DA
:102200007F938F939F93AF93BF93EF93FF938091AF
:10221000B900887F803609F44AC0F0F5883209F4A5
:10222000A7C018F5803109F49BC0B8F4882309F4DD
:10223000F9C0883009F494C0FF91EF91BF91AF913C
:102240009F918F917F916F915F914F913F912F91CE
:102250000F900FBE0F901F901895883109F488C019
:10226000803251F78093AB0514C0803409F49DC0CF
:1022700040F48033B9F38833F9F68093AB0585ECED
:10228000B0C0803509F485C0883509F496C088341B
:1022900099F60E941C10D0CF883909F48CC038F50B
:1022A000883729F050F4883611F0803729F683E01A
:1022B0008093AC051092AA0557C0883809F47BC0FA
:1022C000803919F0803809F0B7CF8091AA058032A3
:1022D00008F071C0E091AA0581E08E0F8093AA05F5
:1022E0008091BB00F0E0E657FA4F80833DC0803B11
:1022F00039F0E0F4803A09F479C0883A09F09CCFCB
:1023000084E08093AC051092890510928805E091D5
:10231000DD05F091DE0509958091880581110FC0DA
:1023200081E0809388051092680509C0803C09F41B
:10233000A6CF883C09F4A3CF883B09F07DCFE0917C
:10234000890581E08E0F80938905F0E0E859FA4F06
:1023500080818093BB00909189058091880529C078
:102360008091D1058093BB0085EC8093BC0064CF45
:102370009091D0058091CF05981758F5E091D00540
:1023800081E08E0F8093D005F0E0E155FA4F808117
:10239000E9CFE091D00581E08E0F8093D005809148
:1023A000BB00F0E0E155FA4F80839091D005809119
:1023B000CF059817C8F285E8D8CFE091D00581E025
:1023C0008E0F8093D0058091BB00F0E0E155FA4F6D
:1023D00080838091AE0581115CCF81E08093AD0553
:1023E00084EA8093BC001092AC0526CF85EC8093E4
:1023F000BC001092AC058091AA05803230F4E091C7
:10240000AA05F0E0E657FA4F10826091AA0570E045
:10241000E091DB05F091DC058AE895E009951092E2
:10242000AA050ACF1092AB0534CFCF92DF92EF927C
:10243000FF920F931F93CF93DF93EC016B01F42E68
:10244000E52E198218861F86188A198A1A8A81E051
:102450008E878B871C8692E09D8788838B01000F77
:10246000111F060F171F1D830C83C8010E94721FC6
:102470009A878987009789F1A80170E060E00E943F
:102480006521DB82CA82FE82EF828981882341F046
:1024900061E08F2D0E94580260E08F2D0E942A0279
:1024A0008F2D9E2DFC01EB50FF4FE491F0E0EE0FDD
:1024B000FF1FEF51FF4F259134913C8B2B8BFC017B
:1024C000E75FFE4FE491ED8BDF91CF911F910F916C
:1024D000FF90EF90DF90CF9008951D821C821B82A9
:1024E0001A82D1CFE5EFF5E01382128288EE93E0F5
:1024F000A0E0B0E084839583A683B78321E431E034
:102500003183208325EC30E03587248724EC30E0CC
:102510003787268720EC30E0318B208B21EC30E0B0
:10252000338B228B22EC30E0358B248B26EC30E091
:10253000378B268B118E128E138E148EE2E9F6E005
:102540001382128284839583A683B78383E591E007
:102550009183808360E087E00E945802E0E1F1E02F
:10256000E491ADEEB6E0EC93ECEFF0E0E491F0E056
:10257000EE0FFF1FE551FF4F8591949112969C93AA
:102580008E9311971B961C921B971D961C921D975C
:102590001C961C921C971A961C921A9719961C92BC
:1025A000199718961C92189717961C9217971696BB
:1025B0001C92169715961C92159714961C921497B8
:1025C00013961C921397E6EDF6E0178210861082A0
:1025D00089E0838381E08483858386831182168AE0
:1025E000158A8FEF838B148AB287A1874AE050E067
:1025F00062E070E080EC96E00E94151245E050E049
:1026000063E070E08AEA96E00E941512EEE9F6E0D7
:102610001382128285E691E09183808311868EE396
:10262000848380E1828782E083870895CF93DF935C
:10263000CDB7DEB7A6970FB6F894DEBF0FBECDBFFD
:10264000789484B5826084BD84B5816084BD85B58D
:10265000826085BD85B5816085BD80916E00816099
:1026600080936E001092810080918100826080933F
:102670008100809181008160809381008091800041
:102680008160809380008091B10084608093B1006C
:102690008091B00081608093B00080917A00846066
:1026A00080937A0080917A00826080937A00809192
:1026B0007A00816080937A0080917A0080688093AC
:1026C0007A001092C10061E088E00E94580261E047
:1026D00084E00E94580261E08CE00E94580262E0AF
:1026E00082E00E94580261E08BE00E94580261E0A3
:1026F00083E00E94580261E089E00E94580261E094
:1027000086E00E9458020E94720BE0910506F0914B
:10271000060682E08083E0910106F09102061082B5
:10272000E0910306F09104068FEC808310920D0671
:10273000E0910906F0910A0686E08083E0910706A1
:10274000F0910806808180618083E0910706F09116
:102750000806808188608083E0910706F091080672
:10276000808180688083E0910706F091080680816F
:102770008F7D80831092E2051092E1051092E005B2
:102780001092DF050E94AE0384EE90E09093DE0588
:102790008093DD0585EE90E09093DC058093DB056A
:1027A00080E18093A3068091A906823018F098E119
:1027B0009093A3068093A6068BE39DE00197F1F723
:1027C0006091A306606270E08EE996E00E94730457
:1027D0008BE496E40197F1F76091A306606270E0E4
:1027E0008EE996E00E94730483E592E00197F1F789
:1027F0006091A306606270E08EE996E00E94730427
:102800006091A306606270E08EE996E00E94730416
:1028100084E08093A4066CE070E08EE996E00E946C
:1028200073040E94900582E08093A50666E070E044
:102830008EE996E00E94730462E070E08EE996E013
:102840000E9473048BE39FE10197F1F780EC96E01F
:102850000E94E90680EC96E00E94140680EC96E067
:102860000E94BB008AEA96E00E94E9068AEA96E0A6
:102870000E9414068AEA96E00E94BB0013E001E081
:10288000E091DF06F091E006138615861486128625
:102890001186108617821682158214821382109276
:1028A000DD061092DE0662E370E080E090E00E94B8
:1028B0001603BE016F5F7F4F8091DF069091E006A7
:1028C0000E945C09882309F45FC067E0CE0101968D
:1028D0000E94FF0698858913ECCF8091DD068F5FFB
:1028E0008093DD068981883231F008F044C0803160
:1028F00011F08232F1F68091DE068F5F8093DE0662
:102900008091D606811128C08091DF069091E00663
:102910000E94BC07BE016F5F7F4F8091DF069091E0
:10292000E0060E949D0740E064EB8091DF069091F5
:10293000E0060E9469078091DF069091E0060E9400
:102940001607F82E8091DF069091E0060E94BC07E2
:10295000F11002C00093D6068981803199F0CE0132
:1029600001960E9424099091D906981708F0A1CFEA
:102970008093D9069ECF8B3309F4BDCF823409F002
:1029800098CFB9CF8CE0EFCF8091DD06811103C0E5
:10299000115009F075CF81E191E00E94DC0989E0D6
:1029A00091E00E94DC0981E091E00E94DC0981E76E
:1029B00092E00E94300B609123017091240180917C
:1029C00025019091260142E00E94280C86ED91E0BD
:1029D0000E94300B60911F017091200180912101B4
:1029E0009091220142E00E94280C86ED91E00E9425
:1029F000300B60911B0170911C0180911D01909121
:102A00001E010E94380E61E08CE00E942A0286EED0
:102A100092E00E94640B0E94720BEFECF0E0849154
:102A2000EBE0F1E00491E7EFF0E0149111112FC019
:102A30008091190190911A01019709F43AC090E030
:102A400080E090931A018093190185EF95E00E9430
:102A50005201181619060CF0A1C06FE671E0CE0104
:102A600081960E947D0F0E94550397FD4FC08A30CA
:102A7000910509F44BC089831A8241E050E0BE0100
:102A80006F5F7F4FCE0181960E943E0FECCF811188
:102A90000E940102E12FF0E0EE0FFF1FE551FF4F12
:102AA000A591B491EC91E02309F4C2CF81E090E0CC
:102AB000C8CF62E370E080E090E00E9416031091BE
:102AC000280181E018271093280160E088E00E9427
:102AD0002A0260E084E00E942A0260E08CE00E940A
:102AE0002A0287E992E0112371F08BE792E00E94BD
:102AF000640B1092EB051092EA0561E08CE00E94F5
:102B00002A0286EE92E00E94640B99CFCE01819654
:102B10000E94890E65EB72E0CE0101960E947D0F46
:102B2000BE016F5D7F4FCE0101960E946A0F8C013E
:102B300041E050E067EC72E00E943E0F811103C05B
:102B4000C8010E94C50AC8010E94470ECE01019625
:102B50000E94D70A69EC72E0CE0181960E94010FB3
:102B6000882309F48DC081E0809328011092EB0541
:102B70001092EA0560E088E00E942A0260E084E0AA
:102B80000E942A0261E08CE00E942A0281ED92E01C
:102B90000E94640BCE0181960E94D70A8091280181
:102BA000882309F4B4C40E9449030091EC051091F4
:102BB000ED052091EE053091EF05601B710B820B46
:102BC000930B683E73408105910560F00E94040DEF
:102BD0000E9449036093EC057093ED058093EE0528
:102BE0009093EF050E9449036B017C018091EA05F7
:102BF0009091EB058130910509F43DC48230910537
:102C000009F45EC4892B79F58091E6059091E7057A
:102C1000A091E805B091E905A7019601281B390BA1
:102C20004A0B5B0BDA01C90188389341A105B10554
:102C3000D0F060E08CE00E942A0261E088E00E940F
:102C40002A028BE095E00E94640B81E090E0909373
:102C5000EB058093EA05C092E605D092E705E09285
:102C6000E805F092E90580E090E0892B09F4D5CEE3
:102C70000E945E01882309F4D0CE0E940000CDCED0
:102C800060EF72E0CE0181960E94010F882389F0E7
:102C90001092280160E088E00E942A0260E084E04F
:102CA0000E942A0260E08CE00E942A0287EF92E0F4
:102CB0006FCF6DE173E0CE0101960E947D0FBE01E2
:102CC0006F5F7F4FCE0181960E94E60E182FCE01D6
:102CD00001960E94D70A112309F444C044E050E051
:102CE000BE016F5D7F4FCE0109960E9410100E94B9
:102CF000900580E00E945F0520E130E050E040E078
:102D0000BE01675F7F4FCE0101960E94AE0FBE01EC
:102D10006F5F7F4F8EE996E00E94E600CE0101963C
:102D20000E94D70A8D859E854197C8F081E00E9458
:102D30005F0520E230E040E150E0BE01675F7F4F79
:102D4000CE0101960E94AE0FBE016F5F7F4F8EE9EC
:102D500096E00E94E600CE0101960E94D70ACE01BD
:102D60000996D0C062E273E0CE0101960E947D0F09
:102D7000BE016F5F7F4FCE0181960E94E60E182F35
:102D8000CE0101960E94D70A112309F4BEC043E088
:102D900050E0BE016F5D7F4FCE0101960E94101082
:102DA00066E273E0CE0101960E94010FC12CD12C86
:102DB0007601DA94811177C06CE273E0CE0101965E
:102DC0000E94010FC12CD12C7601EA9481116BC0B5
:102DD00061E373E0CE0101960E94010FC12CD12C5A
:102DE0007601CA9481115FC066E373E0CE0101965B
:102DF0000E94010FC12CE5EADE2EEE24EA94F12CAC
:102E0000811151C06EE373E0CE0101960E94010F63
:102E1000C12CDD24DA94ED2CF12C811144C067E43F
:102E200073E0CE0101960E94010FCC24CA94DC2CE1
:102E3000E12CF12C811137C06FE473E0CE010196D3
:102E40000E94010F50E8C52ED12C760181112BC0B4
:102E500067E573E0CE0101960E94010F4BECC42E92
:102E600040ECD42EEE24EA94F12C81111CC06CE5C8
:102E700073E0CE0101960E94010FCC24CA94DC2C91
:102E8000EC2CF12C81110FC063E673E0CE010196AA
:102E90000E94010FC12CD12C7601882321F0CC2473
:102EA000CA94D12C76018091C2069091C306892BD9
:102EB00041F0A701960170E060E080EC96E00E948E
:102EC000AD058091C2069091C306029740F0A7011C
:102ED000960161E070E080EC96E00E94AD0580EC28
:102EE00096E00E9414068BE693E00E94300B40E1CE
:102EF000C701B6010E94EC0A8DE691E00E94DF0A4C
:102F0000CE0101960E94D70A45CE6AE773E0CE0152
:102F100001960E947D0FBE016F5F7F4FCE018196AB
:102F20000E94E60E182FCE0101960E94D70A1123A7
:102F300009F4EBC047E050E0BE016F5D7F4FCE016A
:102F400009960E9410108D859E85892B09F4DAC0A0
:102F500009851A856CE270E0C8010E946C21009717
:102F600009F4D0C06C01C01AD10A8601CE010996BD
:102F70000E94580E7C01101611060CF0F0CE0817B6
:102F800019070CF0ECCE980150E040E0BE01675FFD
:102F90007F4FCE0101960E94AE0F89819A81812CCC
:102FA000912C5401009721F00E94E11A4B015C0121
:102FB000CE0101960E94D70AA8014F5F5F4F97018B
:102FC000BE01675F7F4FCE0101960E94AE0F8981DF
:102FD0009A81412C512C3201009721F00E94E11A74
:102FE0002B013C01CE0101960E94D70AA7014F5F39
:102FF0005F4FBE01675F7F4FCE0101960E941010A8
:1030000089819A81C12CD12C7601009721F00E94F0
:10301000E11A6B017C01CE0101960E94D70A8092D1
:10302000230190922401A0922501B09226014092A2
:103030001F01509220016092210170922201C092E2
:103040001B01D0921C01E0921D01F0921E0182E84A
:1030500093E00E94300B60912301709124018091D4
:1030600025019091260142E00E94280C84EA93E019
:103070000E94300B60911F0170912001809121010D
:103080009091220142E00E94280C85EB93E00E947F
:10309000300B60911B0170911C0180911D0190917A
:1030A0001E010E94380E81E792E00E94300B609171
:1030B000230170912401809125019091260142E025
:1030C0000E94280C86ED91E00E94300B60911F0158
:1030D00070912001809121019091220142E00E9493
:1030E000280C86ED91E00E94300B60911B017091DD
:1030F0001C0180911D0190911E010E94380E0E94BA
:10310000040D2DCE0FEF1FEF31CF61EC73E0CE0138
:1031100001960E947D0FBE016F5F7F4FCE018196A9
:103120000E94E60E182FCE0101960E94D70A1123A5
:1031300009F48DC146E050E0BE016F5D7F4FCE01C6
:103140004B960E941010CE014B960E94890E0B8D5B
:103150001C8D0115110571F0F80181918F018823F3
:1031600049F0082E000C990B0E945421F801319768
:103170008083F2CF88EC93E00E94300BCE014B9617
:103180000E94470E6DED73E0CE014B960E94010F39
:10319000882341F081E08093E5050E94720BCE0107
:1031A0004B96B0CE60EE73E0CE014B960E94010FBD
:1031B000882319F01092E505F0CF60E771E0CE01A9
:1031C0004B960E94010F882381F081E080932701B4
:1031D00084EE93E00E94640B8091E5058111DDCFC0
:1031E00084E194E00E94640BDACF63E771E0CE01E2
:1031F0004B960E94010F882329F01092270182E448
:1032000094E0E8CF66E774E0CE0101960E947D0F5E
:10321000BE016F5F7F4FCE014B960E94E60E182FC6
:10322000CE0101960E94D70A1123C1F146E050E079
:10323000BE01655E7F4FCE0101960E94101089810C
:103240009A81C12CD12C7601009719F00E94E51AC1
:103250006B01CE0101960E94D70AFFEFCF16D10471
:1032600021F01CF0CC24CA94D12CD7FE02C0D12C62
:10327000C12CD092E405C092E3058DE794E00E9452
:10328000300B8091E3059091E4050E94320B809110
:10329000E505811182CF89E994E0A4CF65EC74E063
:1032A000CE0101960E947D0FBE016F5F7F4FCE0160
:1032B0004B960E94E60E182FCE0101960E94D70A67
:1032C000112309F4B0C044E050E0BE01655E7F4FB9
:1032D000CE0145960E941010898D9A8D892B09F494
:1032E0009FC00D891E896CE270E0C8010E946C21AC
:1032F000009709F495C06C01C01AD10A8601CE016D
:1033000045960E94580E7C01101611060CF083C0E1
:10331000081719070CF07FC0980150E040E0BE018B
:103320006B5E7F4FCE010F960E94AE0FA8014F5FDC
:103330005F4F9701BE016B5E7F4FCE0109960E94E1
:10334000AE0FA7014F5F5F4FBE016B5E7F4FCE0197
:1033500001960E94101089819A81C12CD12C76018E
:10336000009719F00E94E51A6B01CE0101960E94A8
:10337000D70A6DED73E0CE010F960E94010F91E028
:10338000811101C090E09093E5056AEC74E0CE01F4
:1033900009960E94010F91E0811101C090E0909385
:1033A00027012FEFC216D10421F01CF0CC24CA94BF
:1033B000D12CD7FE02C0D12CC12CD092E405C092F2
:1033C000E3058DEC94E00E94300BBE01615F7F4FFE
:1033D00085EF95E00E94E6008BED94E00E94300BB3
:1033E000BE01675F7F4F85EF95E00E94E6008BEDA1
:1033F00094E00E94300B8091E3059091E4050E94D7
:10340000320B0E94720BCE0109960E94D70ACE01A0
:103410000F960E94D70ACE0145960E94D70ABFCECA
:103420000FEF1FEF6CCF6EED74E0CE0101960E949E
:103430007D0FBE01655E7F4FCE0101960E946A0F2F
:103440000E94470ECE0101960E94D70AA8CE65EFD2
:1034500074E0CE0101960E947D0FBE016F5D7F4F2B
:10346000CE0101960E946A0F0E94470ECE0101967E
:103470000E94D70A8FCB8091E6059091E705A09135
:10348000E805B091E905A7019601281B390B4A0B05
:103490005B0BDA01C901883B9B40A105B10508F42B
:1034A000E2CB60E088E00E942A0261E084E00E94B2
:1034B0002A0285E195E00E94640B82E090E0C7CB90
:1034C0008091E6059091E705A091E805B091E905A6
:1034D000A7019601281B390B4A0B5B0BDA01C901C6
:1034E000883E9340A105B10508F4BDCB60E084E0BF
:1034F0000E942A0261E08CE00E942A0286EE92E09D
:103500000E94640B1092EB051092EA05A4CB0E9476
:1035100049030091F1051091F2052091F3053091D6
:10352000F4056B017C01C01AD10AE20AF30A970183
:103530008601043F11402105310508F494CB6093C6
:10354000F1057093F2058093F3059093F4051091C3
:10355000F00581E018271093F005612F88E00E94A4
:103560002A02612F84E00E942A02612F8CE00E94CF
:103570002A0288E592E0112311F080E492E00E9493
:10358000640B71CB8091B3069091B4060E940E201B
:103590008091B0069091B10697FD03C060E00E9453
:1035A00058028091C9069091CA060E940E2080910F
:1035B000C6069091C70697FD03C060E00C945802C0
:1035C0000895662777270C94211B1F93FC019927E8
:1035D0008827BC01E89411911032E9F3193010F0FA
:1035E0001E30C8F31B3251F01D3249F4689406C0F6
:1035F0000E940C1B610F711D811D911D11911053B3
:103600001A30B0F33EF490958095709561957F4F98
:103610008F4F9F4F1F910895592F482F372F262FD7
:10362000660F771F881F991F660F771F881F991FC6
:10363000620F731F841F951F660F771F881F991FC6
:103640000895B0E0A0E0E7E2FBE10C94CA1D5C0144
:103650007B016115710519F0DB018D939C93850148
:103660000F5F1F4FF501D0818D2F90E00E94711CDC
:103670006C01892BB9F5DD32B9F50F5F1F4FD5010C
:103680001196DC91C1E05801F1E0AF1AB10843E0B6
:1036900050E060E770E0C5010E947A1C892B69F553
:1036A000680182E0C80ED11C45E050E06BE670E096
:1036B000C6010E947A1C892B21F4680197E0C90E8B
:1036C000D11CE114F10419F0D701CD92DC9260E035
:1036D00070E080E89FEFC111FFC060E070E080E81B
:1036E0009FE7FAC05801BBCFDB3229F485010E5F9A
:1036F0001F4FF501D181C0E0C6CF43E050E068E63E
:1037000070E0C5010E947A1C892BE9F0F80110E0F5
:1037100000E020E030E0A9015F01B0ED8B2E8D0EBE
:1037200089E08815C8F19C2E689491F88C2F8870D8
:10373000C2FF16C0811102C00F5F1F4F3196D50125
:10374000DC91C92DE9CFE114F10429F00E5F1F4F80
:10375000F7011183008360E070E080EC9FE7BCC05C
:10376000882311F001501109A5E0B0E00E94B91DB5
:103770009B01AC01220F331F441F551F280D311D23
:10378000411D511D283999E93907490799E1590720
:10379000A8F2C6609C2ED2CFAEEF8A1206C0C3FD3F
:1037A0003CC09C2E689493F8C9CFDF7DD534A9F531
:1037B00080818D3239F4C061DF011296818162E02F
:1037C00070E006C0DF018B32C1F3119661E070E05A
:1037D00080535D01A61AB70A8A30F8F4E0E8CE16E5
:1037E000ECE0DE065CF4B601660F771F660F771F0C
:1037F000C60ED71ECC0CDD1CC80ED11C5D01FFEF20
:10380000AF1ABF0A8C9180538A30A8F1C4FF03C05D
:10381000D194C194D1080C0D1D1DC1FF09C0E11444
:10382000F10431F081E0A81AB108D701AD92BC9241
:10383000CA01B9010E94971CC370C33009F49058A3
:103840004B015C0120E030E0A9010E94921C88231A
:1038500009F440C0CFE9D0E017FF05C011950195EC
:103860001109C7E8D0E06E01B8E1CB1AD10880E2B7
:10387000E82EF12C0FC0D501B1CFFE012591359175
:10388000459154910E191F09C501B4010E94F81CFD
:103890004B015C01D501C4010E151F0574F7249777
:1038A000F594E794CC16DD06A9F78A2F880F8B2FA5
:1038B000881F8F3F49F020E030E0A901C501B40125
:1038C0000E94921C811106C082E290E09093FC0657
:1038D0008093FB06C501B401CDB7DEB7ECE00C94D4
:1038E000E61D91110C94651D803219F089508550A8
:1038F000C8F70895FB01DC014150504088F08D91DC
:1039000081341CF08B350CF4805E659161341CF0C1
:103910006B350CF4605E861B611171F3990B089591
:10392000881BFCCF0E94D41C08F481E00895E89421
:1039300009C097FB3EF490958095709561957F4FF7
:103940008F4F9F4F9923A9F0F92F96E9BB279395A5
:10395000F695879577956795B795F111F8CFFAF4B5
:10396000BB0F11F460FF1BC06F5F7F4F8F4F9F4FE6
:1039700016C0882311F096E911C0772321F09EE844
:10398000872F762F05C0662371F096E8862F70E0AA
:1039900060E02AF09A95660F771F881FDAF7880F84
:1039A0009695879597F90895990F0008550FAA0BDA
:1039B000E0E8FEEF16161706E807F907C0F0121642
:1039C0001306E407F50798F0621B730B840B950B45
:1039D00039F40A2661F0232B242B252B21F408959A
:1039E0000A2609F4A140A6958FEF811D811D089537
:1039F0000E940B1D0C947F1D0E94711D38F00E94C7
:103A0000781D20F0952311F00C94681D0C946E1D08
:103A100011240C94B31D0E94901D70F3959FC1F367
:103A2000950F50E0551F629FF001729FBB27F00D6C
:103A3000B11D639FAA27F00DB11DAA1F649F6627C1
:103A4000B00DA11D661F829F2227B00DA11D621F10
:103A5000739FB00DA11D621F839FA00D611D221FCA
:103A6000749F3327A00D611D231F849F600D211DAE
:103A7000822F762F6A2F11249F5750409AF0F1F031
:103A800088234AF0EE0FFF1FBB1F661F771F881F9A
:103A900091505040A9F79E3F510580F00C94681D4D
:103AA0000C94B31D5F3FE4F3983ED4F3869577956D
:103AB0006795B795F795E7959F5FC1F7FE2B880F40
:103AC000911D9695879597F90895992788270895C8
:103AD00097F99F6780E870E060E008959FEF80ECC1
:103AE000089500240A941616170618060906089564
:103AF00000240A9412161306140605060895092ECA
:103B00000394000C11F4882352F0BB0F40F4BF2B38
:103B100011F460FF04C06F5F7F4F8F4F9F4F089578
:103B200057FD9058440F551F59F05F3F71F047956E
:103B3000880F97FB991F61F09F3F79F08795089553
:103B4000121613061406551FF2CF4695F1DF08C072
:103B5000161617061806991FF1CF8695710561058F
:103B600008940895E894BB2766277727CB0197F937
:103B700008950E94FB1DA59F900DB49F900DA49FDA
:103B8000800D911D112408952F923F924F925F92C4
:103B90006F927F928F929F92AF92BF92CF92DF925D
:103BA000EF92FF920F931F93CF93DF93CDB7DEB7C2
:103BB000CA1BDB0B0FB6F894DEBF0FBECDBF099456
:103BC0002A88398848885F846E847D848C849B84AD
:103BD000AA84B984C884DF80EE80FD800C811B81BB
:103BE000AA81B981CE0FD11D0FB6F894DEBF0FBEEA
:103BF000CDBFED010895A29FB001B39FC001A39F67
:103C0000700D811D1124911DB29F700D811D112415
:103C1000911D08955058BB27AA270E94221E0C947C
:103C20007F1D0E94711D38F00E94781D20F039F42C
:103C30009F3F19F426F40C946E1D0EF4E095E7FBFB
:103C40000C94681DE92F0E94901D58F3BA17620763
:103C500073078407950720F079F4A6F50C94B21D3C
:103C60000EF4E0950B2EBA2FA02D0B01B901900197
:103C70000C01CA01A0011124FF27591B99F0593FDB
:103C800050F4503E68F11A16F040A22F232F342F23
:103C90004427585FF3CF469537952795A795F04071
:103CA0005395C9F77EF41F16BA0B620B730B840B86
:103CB000BAF09150A1F0FF0FBB1F661F771F881F3E
:103CC000C2F70EC0BA0F621F731F841F48F4879596
:103CD00077956795B795F7959E3F08F0B0CF939588
:103CE000880F08F09927EE0F9795879508950E9401
:103CF0008B1E0C947F1D0E94781D58F00E94711D30
:103D000040F029F45F3F29F00C94681D51110C9488
:103D1000B31D0C946E1D0E94901D68F39923B1F39E
:103D2000552391F3951B550BBB27AA2762177307E1
:103D3000840738F09F5F5F4F220F331F441FAA1F75
:103D4000A9F335D00E2E3AF0E0E832D09150504031
:103D5000E695001CCAF72BD0FE2F29D0660F771FDF
:103D6000881FBB1F261737074807AB07B0E809F0C5
:103D7000BB0B802DBF01FF2793585F4F3AF09E3F4A
:103D8000510578F00C94681D0C94B31D5F3FE4F36B
:103D9000983ED4F3869577956795B795F7959F5F8D
:103DA000C9F7880F911D9695879597F90895E1E0D9
:103DB000660F771F881FBB1F621773078407BA0738
:103DC00020F0621B730B840BBA0BEE1F88F7E09593
:103DD00008950E94981D88F09F5798F0B92F992751
:103DE000B751B0F0E1F0660F771F881F991F1AF0E6
:103DF000BA95C9F714C0B13091F00E94B21DB1E07C
:103E000008950C94B21D672F782F8827B85F39F07A
:103E1000B93FCCF3869577956795B395D9F73EF47E
:103E200090958095709561957F4F8F4F9F4F089526
:103E30000E94D41C08F48FEF08950E94D41C880BB4
:103E4000990B0895AA1BBB1B51E107C0AA1FBB1FFA
:103E5000A617B70710F0A61BB70B881F991F5A9516
:103E6000A9F780959095BC01CD01089597FB072E89
:103E700016F4009407D077FD09D00E94221F07FC9A
:103E800005D03EF4909581959F4F0895709561956A
:103E90007F4F0895A1E21A2EAA1BBB1BFD010DC086
:103EA000AA1FBB1FEE1FFF1FA217B307E407F507EA
:103EB00020F0A21BB30BE40BF50B661F771F881FC6
:103EC000991F1A9469F760957095809590959B015C
:103ED000AC01BD01CF010895EE0FFF1F0590F491D5
:103EE000E02D09940F931F93CF93DF9382309105B8
:103EF00010F482E090E0E091FF06F091000730E0DE
:103F000020E0B0E0A0E0309799F42115310509F4E4
:103F10004AC0281B390B24303105D8F58A819B8192
:103F20006115710589F1FB0193838283FE0111C044
:103F3000408151810281138148175907E0F04817E9
:103F4000590799F4109761F012960C9312971396F3
:103F50001C933296CF01DF91CF911F910F9108955D
:103F60000093FF0610930007F4CF2115310551F09F
:103F70004217530738F0A901DB019A01BD01DF01A7
:103F8000F801C1CFEF01F9CF909300078093FF06AE
:103F9000CDCFFE01E20FF31F81939193225031099F
:103FA00039832883D7CF2091FD063091FE06232B3D
:103FB00041F420912B0130912C013093FE06209387
:103FC000FD062091290130912A012115310541F486
:103FD0002DB73EB740912D0150912E01241B350B7A
:103FE000E091FD06F091FE06E217F307A0F42E1B08
:103FF0003F0B2817390778F0AC014E5F5F4F24174D
:10400000350748F04E0F5F1F5093FE064093FD06A4
:10401000819391939FCFF0E0E0E09CCFCF93DF932B
:104020000097E9F0FC01329713821282A091FF06FB
:10403000B0910007ED0130E020E01097A1F420815D
:104040003181820F931F2091FD063091FE062817C3
:10405000390709F061C0F093FE06E093FD06DF9199
:10406000CF910895EA01CE17DF07E8F54A815B8119
:104070009E0141155105B1F7E901FB83EA8349919E
:104080005991C40FD51FEC17FD0761F48081918110
:104090000296840F951FE901998388838281938119
:1040A0009B838A83F0E0E0E012968D919C911397B8
:1040B0000097B9F52D913C911197CD010296820F91
:1040C000931F2091FD063091FE062817390739F617
:1040D000309751F5109200071092FF06B093FE063C
:1040E000A093FD06BCCFD383C28340815181840F4E
:1040F000951FC817D90761F44E5F5F4F888199817A
:10410000480F591F518340838A819B819383828307
:104110002115310509F0B0CFF0930007E093FF06B9
:104120009ECFFD01DC01C0CF13821282D7CFB0E059
:10413000A0E0EDE9F0E20C94C61D8C01009751F46B
:10414000CB010E94721F8C01C801CDB7DEB7E0E140
:104150000C94E21DFC01E60FF71F9C01225031096F
:10416000E217F30708F49DC0D901CD91DC911197B6
:10417000C617D70798F0C530D10530F3CE010497A4
:104180008617970708F3C61BD70B2297C193D193C5
:104190006D937C93CF010E940E20D6CF5B01AC1AA9
:1041A000BD0A4C018C0E9D1EA091FF06B091000728
:1041B000512C412CF12CE12C109731F58091FD060A
:1041C0009091FE068815990509F05CC046165706C1
:1041D00008F058C08091290190912A01009741F47C
:1041E0008DB79EB740912D0150912E01841B950BE8
:1041F000E817F90708F055C0F093FE06E093FD06B6
:10420000F90171836083A0CF8D919C9111971296D3
:104210006C90129713967C901397A815B90559F5D1
:104220006C0142E0C40ED11CCA14DB0420F1AC01C5
:104230004A195B09DA011296159780F0628273823F
:1042400051834083D9016D937C93E114F10471F0A3
:10425000D7011396FC93EE93129776CF22968C0F8C
:104260009D1FF90191838083F301EFCFF093000745
:10427000E093FF0669CF4816590608F42C017D012A
:10428000D3019ACFCB010E94721F7C01009749F0A5
:10429000AE01B8010E945C21C8010E940E20870176
:1042A00053CF10E000E050CF9111089581548A510E
:1042B00008F4805E855A0895FB01DC0102C001907C
:1042C0000D9241505040D8F70895DC0101C06D9324
:1042D00041505040E0F70895FC018191861721F08C
:1042E0008823D9F7992708953197CF010895FB01C5
:1042F000DC018D91019080190110D9F3990B08957B
:10430000FB01DC0101900D920020E1F70895FB0113
:10431000DC014150504030F08D910190801919F42A
:104320000020B9F7881B990B0895FC0181E090E00B
:104330000190061609F4CF010020D1F701970895E6
:1043400010E0C0E9D0E004C0FE010E946C1F21967D
:0A435000C139D107C9F7F894FFCF77
:10435A00012862A219FC00009E2851B430FF000017
:10436A00CD285FA651FC0000DA010000000C4200D3
:10437A0000A041000020C1010100000107800000E7
:10438A00004000140054005E00BC007701000000E9
:10439A00009401F4002101E10152013001440100BD
:1043AA0000000044041704AA05ED031004FD03EEFF
:1043BA000300000000A205F400AA05A9050D0A00E1
:1043CA00686F0061680044454255472061706C6916
:1043DA006361724D6F746F72202D3E20656E636546
:1043EA006E6469646F3A2000207C2073656E74697C
:1043FA00646F3A2000207C2076656C6F6369646183
:10440A00643A20006D6F746F722D737461747573E2
:10441A003A6F66662C30006D6F746F722D7374611B
:10442A007475733A6F6E2C006E616E00696E660069
:10443A006F7666002D2D2D2D2D2D204C65637475FC
:10444A0072612064652054656D706572617475725D
:10445A006173202D2D2D2D2D2D0054656D70204357
:10446A006F63696E613A200020430054656D7020C5
:10447A004861626974616369C3B36E3A2000546526
:10448A006D7020446F726D69746F72696F3A2000A3
:10449A0045737461646F204D616E74656E696D69F0
:1044AA00656E746F204F6E0045737461646F204DA2
:1044BA00616E74656E696D69656E746F204F6666AC
:1044CA0000756D6272616C65733A0043616D626971
:1044DA0061646F2061206D6F646F2046554E4349B9
:1044EA004F4E414E444F0043616D626961646F20D3
:1044FA0061206D6F646F204D414E54454E494D49C0
:10450A00454E544F00436F6D616E646F2072656350
:10451A00696269646F3A202700616374697661721F
:10452A000053656D61666F726F20616374697661AD
:10453A00646F202D3E2045737461646F20453000FE
:10454A006170616761720053656D61666F726F2099
:10455A006170616761646F202D3E204D616E7465E4
:10456A006E696D69656E746F204F6666006C636470
:10457A003A0077733A00766572646500726F6A6F03
:10458A0000617A756C006E6172616E6A6100616DBC
:10459A006172696C6C6F0063656C65737465007633
:1045AA00696F6C65746100726F736100626C616E31
:1045BA00636F006D6167656E7461005753323831FD
:1045CA003220636F6C6F723A2000756D6272616C93
:1045DA003A00556D6272616C65732061637475612E
:1045EA006C697A61646F73202D3E204E6F726D6123
:1045FA006C3A2000207C20416476657274656E6393
:10460A0069613A2000207C2052696573676F3A20FD
:10461A00006D6F746F723A006D6F746F722D636DF7
:10462A006420726563696269646F3A20006F6E0084
:10463A006F6666006D6F746F723A2073656E746987
:10464A00646F202D3E20486F726172696F2028695D
:10465A006E7465726E6F2061637475616C697A61DC
:10466A00646F29006D6F746F723A2063616D6269BD
:10467A0061646F2073656E7469646F2C2070657253
:10468A006F206D6F746F7220657374C3A1204F46DB
:10469A0046006D6F746F723A2073656E7469646F49
:1046AA00202D3E20416E7469686F726172696F20B5
:1046BA0028696E7465726E6F2061637475616C69C6
:1046CA007A61646F290073706565643A006D6F746E
:1046DA006F723A2076656C6F6369646164207365F2
:1046EA007465616461206120006D6F746F723A2095
:1046FA0076656C6F63696461642061637475616C6B
:10470A00697A616461207065726F206D6F746F726F
:10471A00204F4646007365743A006377006D6F74E4
:10472A006F723A736574202D3E20002C20006D6F45
:10473A00746F722D636D642D646573636F6E6F633E
:10474A0069646F3A00436F6D616E646F20646573CC
:10475A00636F6E6F6369646F3A20004573746164B6
:10476A006F2045310045737461646F204532000043
:00000001FF
