:100000000C9491000C94B9000C94B9000C94B900B4
:100010000C94B9000C94B9000C94B9000C94B9007C
:100020000C94B9000C94B9000C94B9000C94B9006C
:100030000C94B9000C94B9000C94B9000C94B9005C
:100040000C94B7100C94B9000C9485100C945F10AC
:100050000C94B9000C94B9000C94B9000C94B9003C
:100060000C9401110C94B9004E414E494E4954591B
:10007000494E46CDCCCC3D0AD7233C17B7D1387773
:10008000CC2B329595E6241FB14F0A000020410089
:1000900000C84200401C4620BCBE4CCA1B0E5AAED3
:1000A000C59D74005EBCE2613FDD83C29C7E20A3DF
:1000B000FD1F41009D23BE46DB65F88C11AF32CA9F
:1000C00057E97400000000240027002A0000000007
:1000D0000800020100000304070000000000000007
:1000E0000000000000250028002B00000000002375
:1000F000002600290004040404040404040202028B
:100100000202020303030303030102040810204058
:1001100080010204081020010204081020007D1252
:10012000CD1A11241FBECFEFD8E0DEBFCDBF26E031
:10013000ACE0B5E001C01D92AD3EB207E1F715E0BD
:10014000A0E0B1E0E0E7F3E402C005900D92AC302E
:10015000B107D9F710E0C0E9D0E004C02197FE0153
:100160000E94771FCF38D107C9F70E9421130C9442
:10017000AB210C940000CF93DF93EC0168856937C5
:1001800001F129853A856150B9F070E08FEF98E769
:100190000E942D1FF9014C815D81CF01821B930BC1
:1001A0008417950760F44081469FC001479F900DDA
:1001B000112490833196EFCF70E060E0EBCF89E7B8
:1001C0008887DF91CF91089508950895DB011496F3
:1001D0004D915C9115976D917C91DC01ED91FC91B5
:1001E0000280F381E02D0994AF92BF92CF92DF920B
:1001F000EF92FF920F931F93CF93DF936C017B01DC
:100200008B01040F151FEB015E01AE18BF08C0176C
:10021000D10759F06991D601ED91FC910190F081DF
:10022000E02DC6010995892B79F7C501DF91CF91A2
:100230001F910F91FF90EF90DF90CF90BF90AF9004
:100240000895FC01538D448D252F30E0842F90E0DC
:10025000821B930B541710F0CF96089501970895C1
:10026000FC01918D828D981761F0A28DAE0FBF2F8A
:10027000B11D5D968C91928D9F5F9F73928F90E0E0
:1002800008958FEF9FEF0895FC01918D828D98174F
:1002900031F0828DE80FF11D858D90E008958FEF8C
:1002A0009FEF0895FC01918D228D892F90E0805C55
:1002B0009F4F821B91098F739927089581EE95E0D6
:1002C0000E94520121E0892B09F420E0822F089539
:1002D00080E090E0892B29F00E945E0181110C944E
:1002E00000000895FC01A48DA80FB92FB11DA35AD9
:1002F000BF4F2C91848D90E001968F739927848F46
:10030000A689B7892C93A089B1898C918370806468
:100310008C93938D848D981306C00288F389E02D09
:1003200080818F7D80830895EF92FF920F931F93BA
:10033000CF93DF93EC0181E0888F9B8D8C8D981398
:100340001AC0E889F989808185FF15C09FB7F894A4
:10035000EE89FF896083E889F989808183708064F0
:1003600080839FBF81E090E0DF91CF911F910F913B
:10037000FF90EF900895F62E0B8D10E00F5F1F4F4A
:100380000F731127E02E8C8D8E110CC00FB607FC59
:10039000FACFE889F989808185FFF5CFCE010E94E7
:1003A0007201F1CFEB8DEC0FFD2FF11DE35AFF4FE2
:1003B000F0829FB7F8940B8FEA89FB898081806275
:1003C000CFCFCF93DF93EC01888D8823B9F0AA8932
:1003D000BB89E889F9898C9185FD03C0808186FD00
:1003E0000DC00FB607FCF7CF8C9185FFF2CF80814F
:1003F00085FFEDCFCE010E947201E9CFDF91CF9151
:100400000895833081F028F4813099F08230A9F08A
:1004100008958730A9F08830C9F08430B1F4809114
:1004200080008F7D03C0809180008F778093800053
:10043000089584B58F7784BD089584B58F7DFBCFF3
:100440008091B0008F778093B00008958091B000C4
:100450008F7DF9CF1F93CF93DF93282F30E0F901E1
:10046000E353FF4F8491F901E75FFE4FD491F90107
:10047000EB50FF4FC491CC23A9F0162F81110E949D
:100480000102EC2FF0E0EE0FFF1FEF51FF4FA5919F
:10049000B4918FB7F894EC91111108C0D095DE2378
:1004A000DC938FBFDF91CF911F910895DE2BF8CFA2
:1004B000CF93DF9390E0FC01E75FFE4F24918B50D8
:1004C0009F4FFC0184918823C9F090E0880F991F09
:1004D000FC01ED53FF4FA591B491FC01EF51FF4F8B
:1004E000C591D49161110DC09FB7F8948C9120955E
:1004F00082238C938881282328839FBFDF91CF910B
:100500000895623051F49FB7F8943C91822F809502
:1005100083238C93E8812E2BEFCF8FB7F894EC9147
:100520002E2B2C938FBFEACF1F93CF93DF93182FDF
:10053000EB0161E00E945802209739F460E0812FBE
:10054000DF91CF911F910C942A02CF3FD10511F476
:1005500061E0F5CFE12FF0E0E353FF4FE491E330AA
:1005600031F140F4E130B1F0E230E1F0C038D105D2
:100570007CF7E4CFE73029F1E83059F1E430B1F706
:1005800080918000806280938000D0938B00C09324
:100590008A0004C084B5806884BDC7BDDF91CF9157
:1005A0001F91089584B5806284BDC8BDF7CF809146
:1005B0008000806880938000D0938900C093880079
:1005C000EDCF8091B00080688093B000C093B300FD
:1005D000E5CF8091B00080628093B000C093B400FA
:1005E000DDCF3FB7F8948091C3059091C405A091E9
:1005F000C505B091C60526B5A89B05C02F3F19F0CB
:100600000196A11DB11D3FBFBA2FA92F982F882792
:10061000BC01CD01620F711D811D911D42E0660F6D
:10062000771F881F991F4A95D1F708958F929F923F
:10063000AF92BF92CF92DF92EF92FF926B017C015B
:100640000E94F1024B015C01C114D104E104F104E8
:10065000B9F00E94F102681979098A099B09683E7C
:1006600073408105910580F321E0C21AD108E108A9
:10067000F10888EE880E83E0981EA11CB11CE4CF1F
:10068000FF90EF90DF90CF90BF90AF909F908F90B2
:1006900008952FB7F8946091BF057091C0058091BF
:1006A000C1059091C2052FBF08950F931F930E941B
:1006B00049036093E9057093EA058093EB059093F5
:1006C000EC0581EE95E00E94300197FF1DC00E946D
:1006D00049030091E9051091EA052091EB0530915D
:1006E000EC05601B710B820B930B0091E5051091DB
:1006F000E6052091E7053091E8056017710782074C
:100700009307F8F28FEF9FEF1F910F9108952091BB
:100710007405260F3327331F21323105ECF4209165
:100720009805FC0190E080E0243069F082E00895B3
:10073000A09174052191AC014C5A5A4FA40FB52FCA
:10074000B11D2C930196861798F380917405680F5C
:100750006093740580E0089581E0089510929805F3
:1007600081E080939A051092990561E082E10E94F0
:100770002A0261E083E10E942A02E9EBF0E0808135
:100780008E7F808380818D7F808388E48093B80012
:1007900085E48093BC000895CF93DF9391E090931C
:1007A00053058823B9F0C091B800D091BA00809168
:1007B000BC008A7B8093BC0060E082E10E942A0238
:1007C00060E083E10E942A020E94AE03D093BA0047
:1007D000C093B800DF91CF9108950895E091CE05C0
:1007E0008091CD05E81730F4F0E0E25DFA4F8081AA
:1007F00090E008958FEF9FEF08959091CE0580913E
:10080000CD052FEF3FEF981748F4E92FF0E0E25DB8
:10081000FA4F208130E09F5F9093CE05C901089583
:100820008091CD059091CE05891B990B0895CF92AB
:10083000DF92EF92FF920F931F93CF93DF937C0190
:10084000CB018A0120912D05222389F0EB016B0158
:10085000C40ED51ECC15DD0569F06991D701ED9167
:10086000FC910190F081E02DC7010995F3CF642F31
:100870000E948703C801DF91CF911F910F91FF90D4
:10088000EF90DF90CF900895CF93DF931F92CDB775
:10089000DEB7698320912D052223F9F02091CB0545
:1008A000203258F021E030E0FC013383228390E0D5
:1008B00080E00F90DF91CF9108958091CC05E82FD3
:1008C000F0E0E35FFA4F998190838F5F8093CC05CE
:1008D0008093CB0581E090E0ECCF61E0CE01019602
:1008E0000E948703F7CFCF92DF92EF92FF920F9390
:1008F0001F93CF93DF93D62F672FFC01C48181E034
:1009000080932D05C0930C051092CC051092CB0559
:100910008EE796E00E9444046D2F8EE796E00E94D9
:100920004404D091CB05D13208F092C00E94F1026C
:100930006B017C0180919805811165C082E08093F4
:10094000980581E080939A058FEF80939705109228
:10095000BC05D093BB05ADE0B5E0EBE9F5E080E088
:10096000D81385C01092BD058091BD05CC0FC82B52
:10097000C093BD0580919905813009F07CC010922B
:1009800099050E94F1026B017C018091BD05809365
:10099000BB0080914F0590915005A0915105B091F9
:1009A0005205892B8A2B8B2B99F00E94F102009122
:1009B0004F051091500520915105309152056C1949
:1009C0007D098E099F090617170728073907E0F1E7
:1009D0008091BC0083FDD9CF85EC8093BC000E9440
:1009E000F1026B017C0180919805823009F445C0C9
:1009F000809197058F3F61F180919705803241F199
:100A00008091970525C080914F0590915005A09148
:100A10005105B0915205892B8A2B8B2B09F48ACF73
:100A20000E94F10200914F0510915005209151054F
:100A3000309152056C197D098E099F090617170719
:100A40002807390708F076CF80914E050E94CC0325
:100A50001092CC051092CB0510922D05DF91CF910D
:100A60001F910F91FF90EF90DF90CF9008959D918F
:100A700091938F5F75CF85EEB0CF80914F059091A8
:100A80005005A0915105B0915205892B8A2B8B2BD3
:100A900009F4A9CF0E94F10200914F051091500571
:100AA00020915105309152056C197D098E099F09DD
:100AB000061717072807390708F095CFC5CFCF933A
:100AC000DF93CDB7DEB728970FB6F894DEBF0FBE21
:100AD000CDBF98E0EEE2F1E0DE01119601900D92BB
:100AE0009A95E1F790919206981708F48FEF90E0AD
:100AF000880F991F21E030E02C0F3D1F820F931FBC
:100B0000FC016081606870E08AE896E028960FB684
:100B1000F894DEBF0FBECDBFDF91CF910C9473046C
:100B200061E070E08AE896E00E9473048BE39FE145
:100B30000197F1F780919306882319F080E00C94D7
:100B40005F05089570E070640E94730481E090E096
:100B50000895089590E080E008958F929F92AF925B
:100B6000BF92CF92DF92EF92FF921F93CF93DF93CA
:100B7000FC014A01AA24BB24C82DC32ED42EE52E85
:100B8000FF241C2DD22F8085882361F0889E400190
:100B90001124C92D8C9D600111241D2D829FD0012F
:100BA0001124DB2FA685E184F2849385A91322C04A
:100BB000CB01880F991F680F791F6E0D7F1DA385CC
:100BC000A60FB72FB11DCC93A485A60FB72FB11DCB
:100BD0001C938585680F711DFB01D083DF91CF9138
:100BE0001F91FF90EF90DF90CF90BF90AF909F90BC
:100BF0008F900895660F771F660F771F6E0D7F1D0C
:100C0000252F332744275527882349F090E0829FDA
:100C10007001839FF00C929FF00C11242F2DA60FD2
:100C2000B72FB11D2C93CBCFCF92DF92EF92FF92D3
:100C30000F931F93CF93DF93CDB7DEB729970FB6EE
:100C4000F894DEBF0FBECDBF8C01DC0119968D91EB
:100C50009C91892B09F473C00E94F102F801C784AA
:100C6000D088E188F2886C157D058E059F0520F4FB
:100C70006787708B818B928BF801C784D088E1885D
:100C8000F2886C197D098E099F096C3271408105CB
:100C9000910510F3F894D80114968D919C911597B5
:100CA0009A8389831996ED91FC917F01BFEFEB1A2E
:100CB000FB0A80818987F80190810388F489E02DFF
:100CC000D80155968C91992309F448C09081982BAE
:100CD00098879081809589238F838F818C8388E08A
:100CE0008B8358856F8149853B812C8189819A81CD
:100CF000D701508347FD252F3A952083262F39F0C1
:100D0000441F00C000006083000000C0F2CF38E044
:100D10004D9160830000019761F7D8015496FC93D0
:100D2000EE93539749873B832C839A8389837894E6
:100D30000E94F102F8016787708B818B928B299654
:100D40000FB6F894DEBF0FBECDBFDF91CF911F91DC
:100D50000F91FF90EF90DF90CF9008959081982BA6
:100D600098879081809589238F838F818E8388E0F7
:100D70008D8358856F8149853D812E8189819A8136
:100D8000D701508347FD252F00C000C0208300C03D
:100D900000C000C000C000C060830000262F3A954C
:100DA00041F0441F000000C000C000C000C000C0EF
:100DB000E8CF38E04D9100C0608300C0019709F78B
:100DC000D8015496FC93EE93539749873D832E8325
:100DD000ACCFCF93DF93EC018E819F8197FD0CC048
:100DE00061E00E94580260E08E810E942A0281E048
:100DF0008983DF91CF910895198280E0FACFDC01D9
:100E000080E0615090F09D919827E92FEF70F0E01D
:100E1000ED55FF4F2491E92FE295EF70F0E0ED548E
:100E2000FF4FE491822F8E27ECCF0895DC012C91A7
:100E30001196ED91FC91F8948181822B81839281AE
:100E4000322F30959323928387E090E00197F1F75A
:100E500081818323818383E290E00197F1F7908180
:100E60007894EFECF0E03197F1F7922381E009F408
:100E700080E00895FC0190810180F281E02D292F0E
:100E8000209560FF14C0F89482818223828381813F
:100E9000892B8183A3E2B0E01197F1F78281982B2F
:100EA0009283789487ED90E00197F1F70895F89494
:100EB0008281822382838181892B8183AFEFB0E09D
:100EC0001197F1F78281982B928378948FE090E0CC
:100ED000EBCFDF92EF92FF920F931F93CF93DF93AD
:100EE000EC01D62EE42E08E010E0FF24F39461E03C
:100EF0008D2D8F2109F460E0CE010E943A07FF0C8E
:100F000001501109A1F7E11010C0F894E981FA81AC
:100F100091818881809589238183E981FA819281F9
:100F200088818095892382837894DF91CF911F9166
:100F30000F91FF90EF90DF900895EF92FF920F9343
:100F40001F93CF93DF938C017B0140E065E50E9406
:100F50006907E70188E0E80EF11C699140E0C801EB
:100F60000E946907CE15DF05C1F7DF91CF911F9170
:100F70000F91FF90EF900895FC0190810180F28124
:100F8000E02DF8948181292F209582238183789404
:100F90003DE743E050E0315029F1DA011197F1F7D4
:100FA00080818923C1F3F8948281822382838181A5
:100FB000892B81837894ABE7B7E01197F1F7F89428
:100FC000818182238183A3E1B1E01197F1F78081D0
:100FD000982381E009F080E07894E3E6F6E0319729
:100FE000F1F7089580E008956F927F928F929F921B
:100FF000AF92BF92CF92DF92EF92FF920F931F9327
:10100000CF93DF938C01EB018091CB069091CC06BE
:101010000E94BC07882309F43FC0B8018091CB0629
:101020009091CC060E949D0740E06EEB8091CB062C
:101030009091CC060E9469077E016E0189E0C80E7E
:10104000D11C8E01A090CB06B090CC0688E0882EF3
:10105000912C712C66246394C5010E94160781119E
:101060007628660CE1E08E1A9108B1F7F8017192CA
:101070008F01CE16DF0631F78091CB069091CC061A
:101080000E94BC07813041F4F70181917F018111F9
:1010900005C0E017F107C1F790E008C068E0CE0195
:1010A0000E94FF0691E028852813F6CF892FDF9153
:1010B000CF911F910F91FF90EF90DF90CF90BF9055
:1010C000AF909F908F907F906F900895CF92DF9216
:1010D000EF92FF920F931F93CF93DF93CDB7DEB7BD
:1010E00029970FB6F894DEBF0FBECDBF8C01BE01AD
:1010F0006F5F7F4F0E94F407811105C060E070E0D0
:101100008EEF92EC4EC08A81C12CD12C760187FFE4
:1011100006C0C12CD12CF8EFEF2EFF24FA94F80171
:10112000908149819B3309F04BC02D8127FF48C036
:1011300040FDE4CF042F10E030E020E073E0000F2A
:10114000111F221F331F7A95D1F7B901A801407EE4
:1011500057706627772790E0B0E0A0E08C019D01F2
:10116000EBE0000F111F221F331FEA95D1F7042B6C
:10117000152B262B372B0C291D292E293F29013809
:1011800054EE15075FEF250735070CF4B7CFC901FB
:10119000B8010E94A41C20E030E040E05CE30E9423
:1011A000031D29960FB6F894DEBF0FBECDBFDF91A9
:1011B000CF911F910F91FF90EF90DF90CF90089506
:1011C000082F10E0102F0027110F110F110FF8E05A
:1011D0004F9FA0011124042B152B012E000C220B74
:1011E000330B0C291D292E293F29903141F66885A2
:1011F000662329F270E08F81AB01481B5109CA01B7
:101200009695982F8827979587950E94411FCB0127
:10121000770FAA0BBB0B53E0000F111F221F331FC8
:101220005A95D1F700782770332700521109210908
:101230003109800F911FA21FB31F97018601082B50
:10124000192B2A2B3B2B9BCF0F931F93CF93DF930D
:10125000CDB7DEB729970FB6F894DEBF0FBECDBF6E
:101260008C01BE016F5F7F4F0E94F407882361F0FD
:101270008D81F80190819B3311F487FD0BC08F3372
:1012800059F020F48F31A1F080E007C08F3591F044
:101290008F37D1F78CE001C08AE029960FB6F89419
:1012A000DEBF0FBECDBFDF91CF911F910F9108958B
:1012B00089E0F3CF8BE0F1CFBF92CF92DF92EF9234
:1012C000FF920F931F93CF93DF93EC01B62EC72E9F
:1012D0008D85811105C0CE010E94BC0781110EC011
:1012E0001B861D861C8680E0DF91CF911F910F9198
:1012F000FF90EF90DF90CF90BF90089540E060EFB7
:10130000CE010E94690701E0E12CD12C11E0CE0151
:101310000E941607F82ECE010E94160791E0F912DE
:1013200018C0813099F51134D8F2DB86D11002C093
:1013300081E08D878B81882399F22396EB2DFC2DFC
:10134000CF01089629912193E817F907D9F781E091
:10135000CBCFEE2DF0E0F8120FC08B851817A0F45C
:10136000DE01AE0FBF1F13968C91802379F4F12C10
:10137000193008F41C87D12EEC0FFD1F8381902FAC
:101380009095892383830AC08113F1CFFE01EE0D6E
:10139000F11D8381802B8383FF24F3946F2DCE0175
:1013A0000E943A071F5F000F11F4E39401E087E009
:1013B0008E1508F0ACCFB7CF0F931F93CF93DF9369
:1013C000CDB7DEB729970FB6F894DEBF0FBECDBFFD
:1013D0008C01FC018081803109F46CC0BE016F5F1B
:1013E0007F4FC8010E94F407882309F4C3C08D8190
:1013F0008F3709F45FC08FE78D838091CB06909182
:10140000CC060E94BC07B8018091CB069091CC0617
:101410000E949D0740E06EE48091CB069091CC063F
:101420000E94690740E06B818091CB069091CC06C9
:101430000E94690740E06C818091CB069091CC06B8
:101440000E946907F8018081803141F040E06D81A0
:101450008091CB069091CC060E9469078091CB06C3
:101460009091CC062091C806222311F10E94BC075E
:10147000882301F1B8018091CB069091CC060E949F
:101480009D074091C20668E48091CB069091CC06FE
:101490000E9469078091C20681114FC064E170E02B
:1014A00080E090E00E9416038091CB069091CC06DC
:1014B0000E94BC078CE08093C5068091C9068230EB
:1014C00008F457C0E091CB06F091CC061386158640
:1014D000148612861186108617821682158214824F
:1014E000138210E08091C906181708F042C080915D
:1014F000C5068C30F1F1BE016F5F7F4F8091CB0646
:101500009091CC060E945C098823A9F067E0CE0187
:1015100001960E94FF06988589130DC0898180314C
:1015200031F1CE0101960E9424099091C5069817C9
:1015300010F48093C5061F5FD5CF8091C306882322
:1015400029F060E08091C4060E942A0264E170E004
:1015500080E090E00E9416038091C306882309F47E
:10156000A3CF61E08091C4060E942A029DCF8CE047
:10157000DCCF81E029960FB6F894DEBF0FBECDBF59
:10158000DF91CF911F910F910895CF93DF93EC01DD
:1015900088819981009711F00E9419201982188280
:1015A0001D821C821B821A82DF91CF910895FC015B
:1015B00080819181009711F00C9419200895FC010D
:1015C00001900020E9F73197AF01481B590BBC018E
:1015D00081EE95E00C94F4008F929F92AF92BF92AF
:1015E0000F931F93CF93DF93CDB7DEB7A1970FB6BD
:1015F000F894DEBF0FBECDBF19A2423008F44AE016
:101600008E010F5D1F4F842E912CB12CA12CA501B2
:1016100094010E94551FE62FB901CA01EA30F4F483
:10162000E05DD801EE938D01232B242B252B79F738
:1016300090E080E0109719F0CD010E94DF0AA1969A
:101640000FB6F894DEBF0FBECDBFDF91CF911F91D3
:101650000F91BF90AF909F908F900895E95CE1CF7C
:101660000C94DF0ACF92DF92EF92FF92CF93DF9339
:101670006C01990FEE08FF08F7FE1FC06DE281EEC6
:1016800095E00E949401EC0166277727CB016C1945
:101690007D098E099F094AE00E94EC0AC80FD91FF4
:1016A0008CE691E00E94DF0A8C0F9D1FDF91CF91A5
:1016B000FF90EF90DF90CF9008954AE0C701B60108
:1016C0000E94EC0AEC01ECCFCF93DF930E94DF0A7B
:1016D000EC018CE691E00E94DF0A8C0F9D1FDF91E8
:1016E000CF9108950F931F93CF93DF9383E791E0FA
:1016F0000E94300B8091D1058823D1F180E095E0E4
:101700000E94300B85E991E00E94300B8091260108
:10171000882389F180E791E00E94300B82EA91E012
:101720000E94300B8091CF059091D0050E94320B22
:101730008091D105811122C06FEF70E08BE00E9493
:10174000940270E060E083E00E9494026FEF70E02A
:1017500089E00E94940270E060E086E00E949402BA
:1017600081EB91E0DF91CF911F910F910C94640B6D
:1017700082EC91E0C5CF8FE691E0CECFC091CF054E
:10178000D091D0051C161D0634F16FEF70E08BE090
:101790000E94940270E060E083E00E9494026FEF88
:1017A00070E089E00E94940270E060E086E00E94B0
:1017B000940284EC91E00E94300B809126018823F2
:1017C00039F080E791E00E94300B81EC91E0CACFC4
:1017D0008FE691E0F8CFCF3FD10519F014F0CFEFAD
:1017E000D0E00FEF10E00C1B1D0B80912601882329
:1017F00041F1B8018BE00E94940270E060E083E068
:101800000E949402B80189E00E949402BE0186E021
:101810000E94940284EC91E00E94300B809126019A
:101820008823F1F080E791E00E94300B83ED91E096
:101830000E94300BCE01DF91CF911F910F910C943C
:10184000320BBE018BE00E949402B80183E00E943B
:101850009402BE0189E00E94940270E060E0D7CF5C
:101860008FE691E0E1CF4F925F926F927F928F92DD
:101870009F92AF92BF92CF92DF92EF92FF920F931F
:101880001F93CF936B017C01742EAC019B010E94CE
:10189000281F882399F085ED91E0CF911F910F913A
:1018A000FF90EF90DF90CF90BF90AF909F908F9080
:1018B0007F906F905F904F900C94DF0A4601570124
:1018C000E894B7F82FEF3FEF4FE75FE7C501B401AA
:1018D0000E94281F81110DC02FEF3FEF4FE75FE7F8
:1018E000C501B4010E949D1C18161CF489ED91E0FD
:1018F000D4CF2FEF3FEF4FE75FE4C701B6010E945F
:10190000231F18161CF48DED91E0C7CF2FEF3FEF8A
:101910004FE75FECC701B6010E949D1C87FDF3CF26
:1019200020E030E0A901C701B6010E949D1C10E033
:1019300000E087FF0AC06DE281EE95E00E9494010D
:101940008C01F7FAF094F7F8F094C0E060E070E0F2
:1019500080E09FE37C1641F020E030E040E251E47B
:101960000E94821ECF5FF6CFA70196010E94161E2D
:101970002B013C010E94F41E4B015C014AE00E94D5
:10198000EC0A7C01E00EF11ECC23C1F1C501B401CB
:101990000E94A21C9B01AC01C301B2010E94151E52
:1019A0004B015C016EE281EE95E00E949401E80E2D
:1019B000F91EC15018F120E030E040E251E4C501C9
:1019C000B4010E94031D2B013C010E94F41E4B0137
:1019D000B12CA12C4AE0C501B4010E94EC0AE80E2A
:1019E000F91EC501B4010E94A21C9B01AC01C301F8
:1019F000B2010E94151E4B015C01DBCFC701CF91E4
:101A00001F910F91FF90EF90DF90CF90BF90AF901C
:101A10009F908F907F906F905F904F9008954F921E
:101A20005F926F927F928F929F92AF92BF92CF926E
:101A3000DF92EF92FF920F931F93CF93DF93CDB777
:101A4000DEB72C970FB6F894DEBF0FBECDBF8091E6
:101A5000CB069091CC060E94BC0740E06CEC8091D4
:101A6000CB069091CC060E9469074091C20664E4BF
:101A70008091CB069091CC060E9469070E94490391
:101A80006B017C018091C6068823E1F08091C70636
:101A9000882309F49FC08091C20681119BC0809168
:101AA000CB069091CC060E941607813059F00E9417
:101AB00049036C197D098E099F096E3E72408105AC
:101AC000910568F380E191E00E9466082B013C01DA
:101AD00088E091E00E9466084B015C0180E091E0A3
:101AE0000E9466086B017C0181EE91E00E94640B0C
:101AF00087E092E00E94300B42E0C301B2010E94F5
:101B0000330C85E192E00E94640B88E192E00E9430
:101B1000300B42E0C501B4010E94330C85E192E034
:101B20000E94640B8BE292E00E94300B42E0C701FE
:101B3000B6010E94330C85E192E00E94640B498259
:101B40005A826B827C828D829E82AF82B886C986E1
:101B5000DA86EB86FC86CE0101967C0110E000E07F
:101B6000F70181909190A190B1907F012091220185
:101B7000309123014091240150912501C501B40108
:101B80000E949D1C87FD4FC020911A0130911B01BE
:101B900040911C0150911D01C501B4010E94231FF9
:101BA00018160CF440C020911E0130911F01409185
:101BB000200150912101C501B4010E949D1C20E02B
:101BC00035EA4FEF50E0181694F120E03FEF40E087
:101BD00050E02DC0E091C506E9508EEE92E0E33072
:101BE00038F4F0E0EE0FFF1FEA5CFE4F8081918138
:101BF0006C01F12CE12C8091C306882329F060E070
:101C00008091C4060E942A02C701B6010E941603F1
:101C10008091C306882309F455CF61E08091C40602
:101C20000E942A024FCF20E030E04FEF50E0809139
:101C30009806909199060817190728F4B80186E9C3
:101C400096E00E94AD050F5F1F4F0330110509F0AC
:101C500087CF86E996E02C960FB6F894DEBF0FBECC
:101C6000CDBFDF91CF911F910F91FF90EF90DF904B
:101C7000CF90BF90AF909F908F907F906F905F902C
:101C80004F900C941406CF93DF9342E00E94330CE4
:101C9000EC018CE691E00E94DF0A8C0F9D1FDF9122
:101CA000CF910895CF93DF93BC0181EE95E00E9420
:101CB000E600EC018CE691E00E94DF0A8C0F9D1F8C
:101CC000DF91CF910895DF92EF92FF920F931F93D0
:101CD000CF93DF93FC01E480F580E114F10451F42B
:101CE0008FEF9FEFDF91CF911F910F91FF90EF90BA
:101CF000DF900895EC010190F081E02DEE0DFF1DC5
:101D0000D0801082088119816CE270E0C8010E94C5
:101D1000A0210E0D1F1DF801D082009709F3288124
:101D20003981821B930BDECFAF92BF92CF92DF92AD
:101D3000EF92FF920F931F93CF93DF93DC01CD902F
:101D4000DC901197C114D10439F01496CD91DC9137
:101D50008C017601209761F4DF91CF911F910F9153
:101D6000FF90EF90DF90CF90BF90AF9008957501F6
:101D70005701BFEFAB1ABB0AF7018081082E000C98
:101D8000990B0E947C1C892B91F72197CC0DDD1DAE
:101D90008881082E000C990B0E947C1C892B29F04D
:101DA000CE15DF0510F02197F3CFAE014F5F5F4FE7
:101DB0004E195F09D80115965C934E931497CE1473
:101DC000DF0420F4B701C6010E946721D801ED911C
:101DD000FC91119714968D919C91E80FF91F108238
:101DE000BBCFFB0144815581FC012481358124173F
:101DF000350778F080819181009759F0FB0160816F
:101E000071816115710529F00E94922121E0892BD1
:101E100009F020E0822F0895FC0124813581232BD5
:101E200039F421E0FB018081882349F020E007C0DC
:101E3000808191810E94822121E0892BB9F7822F34
:101E400008950F931F93CF93DF93EC0188819981BD
:101E5000009759F02A813B812617370730F081E03F
:101E6000DF91CF911F910F9108958B016F5F7F4F8D
:101E70000E94A220009759F0998388831B830A83CC
:101E80002C813D81232B59F7FC011082E8CF80E0A3
:101E9000E7CFEF92FF920F931F93CF93DF936115DC
:101EA000710541F480E0DF91CF911F910F91FF9078
:101EB000EF90089541155105B1F07B01EC010C81C3
:101EC0001D81040F151FB8010E94210F882351F3B3
:101ED000288139818C819D81B701820F931F0E94D7
:101EE0008B211D830C8381E0DECFCF93DF93EC0148
:101EF000FB0144815581608171810E94490F8111EC
:101F000003C0CE010E94C50ACE01DF91CF91089592
:101F1000EF92FF920F931F93CF93DF93EC017B011E
:101F2000198218821B821A821D821C82FB01019079
:101F30000020E9F731978F01061B170BB8010E94AB
:101F4000210F811109C0CE01DF91CF911F910F9117
:101F5000FF90EF900C94C50A1D830C83B701888114
:101F60009981DF91CF911F910F91FF90EF900C9489
:101F70008B219F92AF92BF92CF92DF92EF92FF920E
:101F80000F931F93CF93DF937C016B015A0189015B
:101F90002417350720F48B2D5901042F182F6EE6D6
:101FA00071E0C7010E94880FD6011496CD91DC9193
:101FB000AC16BD0650F50C171D0708F4E801D60154
:101FC000ED91FC911197EC0FFD1F908010820D9107
:101FD0001C910A0D1B1D0115110571F0F8010190EE
:101FE0000020E9F731975F01A01AB10AB501C701D6
:101FF0000E94210F811116C0C7010E94C50AD60197
:102000008D919C91C80FD91F9882C701DF91CF9104
:102010001F910F91FF90EF90DF90CF90BF90AF9006
:102020009F900895F701B582A482B80180819181C3
:102030000E948B21E4CFCF93DF93EC01FB0124813D
:1020400035810E94B90FCE01DF91CF91089585EDC2
:102050008093BC0080914F0590915005A09151054F
:10206000B09152050796A11DB11D23E0B695A79525
:10207000979587952A95D1F72091BC0024FD03C040
:1020800010929805089540914F0550915005609128
:10209000510570915205452B462B472B69F300974C
:1020A000A105B10541F025E32A95F1F7000001975C
:1020B000A109B109E1CF80914E050C94CC031F9288
:1020C0000F920FB60F9211242F933F934F935F936C
:1020D0006F937F938F939F93AF93BF93EF93FF93F0
:1020E00081EE95E00E947201FF91EF91BF91AF9157
:1020F0009F918F917F916F915F914F913F912F9120
:102100000F900FBE0F901F9018951F920F920FB651
:102110000F9211242F938F939F93EF93FF93E0914E
:10212000F105F091F2058081E091F705F091F80555
:1021300082FD1BC090818091FA058F5F8F73209183
:10214000FB05821741F0E091FA05F0E0EF51FA4FFC
:10215000958F8093FA05FF91EF919F918F912F9129
:102160000F900FBE0F901F9018958081F4CF1F9293
:102170000F920FB60F9211242F933F938F939F933B
:10218000AF93BF938091BF059091C005A091C10509
:10219000B091C2053091BE0523E0230F2D3758F5CD
:1021A0000196A11DB11D2093BE058093BF0590939C
:1021B000C005A093C105B093C2058091C30590915D
:1021C000C405A091C505B091C6050196A11DB11D1C
:1021D0008093C3059093C405A093C505B093C6052D
:1021E000BF91AF919F918F913F912F910F900FBE13
:1021F0000F901F90189526E8230F0296A11DB11D80
:10220000D2CF1F920F920FB60F9211242F933F93AC
:102210004F935F936F937F938F939F93AF93BF93EE
:10222000EF93FF938091B900887F803609F44AC00C
:10223000F0F5883209F4A7C018F5803109F49BC085
:10224000B8F4882309F4F9C0883009F494C0FF91E8
:10225000EF91BF91AF919F918F917F916F915F911E
:102260004F913F912F910F900FBE0F901F90189597
:10227000883109F488C0803251F78093970514C0E3
:10228000803409F49DC040F48033B9F38833F9F603
:102290008093970585ECB0C0803509F485C08835FA
:1022A00009F496C0883499F60E942710D0CF883957
:1022B00009F48CC038F5883729F050F4883611F0CD
:1022C000803729F683E0809398051092960557C0D1
:1022D000883809F47BC0803919F0803809F0B7CF0D
:1022E00080919605803208F071C0E091960581E0FA
:1022F0008E0F809396058091BB00F0E0EA58FA4F6C
:1023000080833DC0803B39F0E0F4803A09F479C025
:10231000883A09F09CCF84E0809398051092750567
:1023200010927405E091C905F091CA050995809154
:10233000740581110FC081E08093740510925405DB
:1023400009C0803C09F4A6CF883C09F4A3CF883BA0
:1023500009F07DCFE091750581E08E0F80937505C2
:10236000F0E0EC5AFA4F80818093BB0090917505A4
:102370008091740529C08091BD058093BB0085ECD8
:102380008093BC0064CF9091BC058091BB059817E9
:1023900058F5E091BC0581E08E0F8093BC05F0E01C
:1023A000E556FA4F8081E9CFE091BC0581E08E0FC0
:1023B0008093BC058091BB00F0E0E556FA4F808326
:1023C0009091BC058091BB059817C8F285E8D8CFDD
:1023D000E091BC0581E08E0F8093BC058091BB002D
:1023E000F0E0E556FA4F808380919A0581115CCF29
:1023F00081E08093990584EA8093BC00109298054F
:1024000026CF85EC8093BC001092980580919605AC
:10241000803230F4E0919605F0E0EA58FA4F1082ED
:102420006091960570E0E091C705F091C80586E7D8
:1024300095E00995109296050ACF1092970534CF32
:10244000CF92DF92EF92FF920F931F93CF93DF9380
:10245000EC016B01F42EE52E198218861F86188A6E
:10246000198A1A8A81E08E878B871C8692E09D8765
:1024700088838B01000F111F060F171F1D830C830C
:10248000C8010E947D1F9A878987009789F1A8015A
:1024900070E060E00E947021DB82CA82FE82EF82DF
:1024A0008981882341F061E08F2D0E94580260E00D
:1024B0008F2D0E942A028F2D9E2DFC01EB50FF4F85
:1024C000E491F0E0EE0FFF1FEF51FF4F25913491A3
:1024D0003C8B2B8BFC01E75FFE4FE491ED8BDF9192
:1024E000CF911F910F91FF90EF90DF90CF900895C3
:1024F0001D821C821B821A82D1CFE1EEF5E013828D
:10250000128288EE93E0A0E0B0E084839583A683F6
:10251000B78320E431E03183208325EC30E0358738
:10252000248724EC30E03787268720EC30E0318B9D
:10253000208B21EC30E0338B228B22EC30E0358B8A
:10254000248B26EC30E0378B268B118E128E138E67
:10255000148EEEE7F6E01382128284839583A683BD
:10256000B78382E591E09183808360E087E00E94F9
:102570005802E0E1F1E0E491A9EDB6E0EC93ECEF74
:10258000F0E0E491F0E0EE0FFF1FE551FF4F859181
:10259000949112969C938E9311971B961C921B9765
:1025A0001D961C921D971C961C921C971A961C92A5
:1025B0001A9719961C92199718961C9218971796A5
:1025C0001C92179716961C92169715961C921597A3
:1025D00014961C92149713961C921397E2ECF6E053
:1025E00017821086108289E0838381E0848385834B
:1025F00086831182168A158A8FEF838B148AB2879D
:10260000A1874AE050E062E070E08CEA96E00E9428
:10261000201245E050E063E070E086E996E00E9419
:102620002012EAE8F6E01382128284E691E09183B8
:10263000808311868EE3848380E1828782E08387B2
:102640000895CF93DF93CDB7DEB7A6970FB6F89472
:10265000DEBF0FBECDBF789484B5826084BD84B5E3
:10266000816084BD85B5826085BD85B5816085BD8D
:1026700080916E00816080936E0010928100809145
:1026800081008260809381008091810081608093CD
:102690008100809180008160809380008091B100F2
:1026A00084608093B1008091B00081608093B0001D
:1026B00080917A00846080937A0080917A008260B1
:1026C00080937A0080917A00816080937A00809173
:1026D0007A00806880937A001092C10061E088E0FF
:1026E0000E94580261E084E00E94580261E08CE0A0
:1026F0000E94580262E082E00E94580261E08BE092
:102700000E94580261E083E00E94580261E089E083
:102710000E94580261E086E00E9458020E94720BFB
:10272000E091F105F091F20582E08083E091ED0502
:10273000F091EE051082E091EF05F091F0058FEC3D
:1027400080831092F905E091F505F091F60586E099
:102750008083E091F305F091F405808180618083AE
:10276000E091F305F091F405808188608083E09129
:10277000F305F091F405808180688083E091F30592
:10278000F091F40580818F7D80831092CE051092A8
:10279000CD051092CC051092CB050E94AE0384EEBD
:1027A00090E09093CA058093C90585EE90E09093E0
:1027B000C8058093C70580E180938F0680919506B8
:1027C000823018F098E190938F06809392068BE305
:1027D0009DE00197F1F760918F06606270E08AE8F2
:1027E00096E00E9473048BE496E40197F1F7609100
:1027F0008F06606270E08AE896E00E94730483E5C9
:1028000092E00197F1F760918F06606270E08AE8CC
:1028100096E00E94730460918F06606270E08AE81F
:1028200096E00E94730484E0809390066CE070E070
:102830008AE896E00E9473040E94900582E08093EB
:10284000910666E070E08AE896E00E94730462E018
:1028500070E08AE896E00E9473048BE39FE10197A1
:10286000F1F78CEA96E00E94E9068CEA96E00E9475
:1028700014068CEA96E00E94BB0086E996E00E946E
:10288000E90686E996E00E94140686E996E00E9431
:10289000BB0013E001E0E091CB06F091CC0613867B
:1028A0001586148612861186108617821682158266
:1028B000148213821092C9061092CA0662E370E075
:1028C00080E090E00E941603BE016F5F7F4F809111
:1028D000CB069091CC060E945C09882309F45FC066
:1028E00067E0CE0101960E94FF0698858913ECCF20
:1028F0008091C9068F5F8093C9068981883231F043
:1029000008F044C0803111F08232F1F68091CA069D
:102910008F5F8093CA068091C206811128C0809182
:10292000CB069091CC060E94BC07BE016F5F7F4F23
:102930008091CB069091CC060E949D0740E064EB0D
:102940008091CB069091CC060E9469078091CB06BE
:102950009091CC060E941607F82E8091CB0690919C
:10296000CC060E94BC07F11002C00093C206898108
:10297000803199F0CE0101960E9424099091C506FC
:10298000981708F0A1CF8093C5069ECF8B3309F42A
:10299000BDCF823409F098CFB9CF8CE0EFCF8091D2
:1029A000C906811103C0115009F075CF80E191E093
:1029B0000E94DC0988E091E00E94DC0980E091E05F
:1029C0000E94DC098EE692E00E94300B60912201A9
:1029D00070912301809124019091250142E00E9491
:1029E000330C83ED91E00E94300B60911E017091D9
:1029F0001F01809120019091210142E00E94330C3F
:102A000083ED91E00E94300B60911A0170911B01DF
:102A100080911C0190911D010E94430E61E08CE0A9
:102A20000E942A0283EE92E00E94640B0E94720BC5
:102A3000EFECF0E08491EBE0F1E00491E7EFF0E0FF
:102A4000149111112FC080911801909119010197D3
:102A500009F43AC090E080E0909319018093180146
:102A600081EE95E00E945201181619060CF0A1C0E3
:102A70006EE671E0CE0181960E94880F0E94550398
:102A800097FD4FC08A30910509F44BC089831A82A3
:102A900041E050E0BE016F5F7F4FCE0181960E9402
:102AA000490FECCF81110E940102E12FF0E0EE0FFF
:102AB000FF1FE551FF4FA591B491EC91E02309F47C
:102AC000C2CF81E090E0C8CF62E370E080E090E0A8
:102AD0000E9416031091270181E018271093270107
:102AE00060E088E00E942A0260E084E00E942A02FE
:102AF00060E08CE00E942A0284E992E0112371F0E8
:102B000088E792E00E94640B1092D7051092D605D8
:102B100061E08CE00E942A0283EE92E00E94640B46
:102B200099CFCE0181960E94940E62EB72E0CE01A5
:102B300001960E94880FBE016F5D7F4FCE01019606
:102B40000E94750F8C0141E050E064EC72E00E943D
:102B5000490F811103C0C8010E94C50AC8010E9423
:102B6000520ECE0101960E94D70A66EC72E0CE01A9
:102B700081960E940C0F882309F48DC081E0809318
:102B800027011092D7051092D60560E088E00E94D8
:102B90002A0260E084E00E942A0261E08CE00E9448
:102BA0002A028EEC92E00E94640BCE0181960E9474
:102BB000D70A80912701882309F4B4C40E944903ED
:102BC0000091D8051091D9052091DA053091DB05E7
:102BD000601B710B820B930B683E7340810591055E
:102BE00060F00E940F0D0E9449036093D805709316
:102BF000D9058093DA059093DB050E9449036B01A8
:102C00007C018091D6059091D7058130910509F41A
:102C10003DC48230910509F45EC4892B79F5809119
:102C2000D2059091D305A091D405B091D505A70107
:102C30009601281B390B4A0B5B0BDA01C901883856
:102C40009341A105B105D0F060E08CE00E942A021A
:102C500061E088E00E942A0288EF94E00E94640B01
:102C600081E090E09093D7058093D605C092D2057D
:102C7000D092D305E092D405F092D50580E090E0A3
:102C8000892B09F4D5CE0E945E01882309F4D0CEA9
:102C90000E940000CDCE6DEE72E0CE0181960E94C2
:102CA0000C0F882389F01092270160E088E00E94D1
:102CB0002A0260E084E00E942A0260E08CE00E9428
:102CC0002A0284EF92E06FCF6AE173E0CE010196B1
:102CD0000E94880FBE016F5F7F4FCE0181960E94D8
:102CE000F10E182FCE0101960E94D70A112309F484
:102CF00044C044E050E0BE016F5D7F4FCE010996B5
:102D00000E941B100E94900580E00E945F0520E158
:102D100030E050E040E0BE01675F7F4FCE0101969A
:102D20000E94B90FBE016F5F7F4F8AE896E00E9454
:102D3000E600CE0101960E94D70A8D859E854197B7
:102D4000C8F081E00E945F0520E230E040E150E001
:102D5000BE01675F7F4FCE0101960E94B90FBE0191
:102D60006F5F7F4F8AE896E00E94E600CE010196F1
:102D70000E94D70ACE010996D0C06FE173E0CE0160
:102D800001960E94880FBE016F5F7F4FCE01819632
:102D90000E94F10E182FCE0101960E94D70A11232E
:102DA00009F4BEC043E050E0BE016F5D7F4FCE012D
:102DB00001960E941B1063E273E0CE0101960E940F
:102DC0000C0FC12CD12C7601DA94811177C069E205
:102DD00073E0CE0101960E940C0FC12CD12C76011C
:102DE000EA9481116BC06EE273E0CE0101960E94FD
:102DF0000C0FC12CD12C7601CA9481115FC063E302
:102E000073E0CE0101960E940C0FC12CE5EADE2E84
:102E1000EE24EA94F12C811151C06BE373E0CE01F2
:102E200001960E940C0FC12CDD24DA94ED2CF12CBC
:102E3000811144C064E473E0CE0101960E940C0F3E
:102E4000CC24CA94DC2CE12CF12C811137C06CE429
:102E500073E0CE0101960E940C0F50E8C52ED12CD4
:102E6000760181112BC064E573E0CE0101960E94CA
:102E70000C0F4BECC42E40ECD42EEE24EA94F12C33
:102E800081111CC069E573E0CE0101960E940C0F10
:102E9000CC24CA94DC2CEC2CF12C81110FC060E600
:102EA00073E0CE0101960E940C0FC12CD12C76014B
:102EB000882321F0CC24CA94D12C76018091AE06CF
:102EC0009091AF06892B41F0A701960170E060E078
:102ED0008CEA96E00E94AD058091AE069091AF0617
:102EE000029740F0A701960161E070E08CEA96E05D
:102EF0000E94AD058CEA96E00E94140688E693E0F5
:102F00000E94300B40E1C701B6010E94EC0A8CE63A
:102F100091E00E94DF0ACE0101960E94D70A45CEB9
:102F200067E773E0CE0101960E94880FBE016F5FD4
:102F30007F4FCE0181960E94F10E182FCE0101968F
:102F40000E94D70A112309F4EBC047E050E0BE010C
:102F50006F5D7F4FCE0109960E941B108D859E8567
:102F6000892B09F4DAC009851A856CE270E0C80182
:102F70000E947721009709F4D0C06C01C01AD10AD1
:102F80008601CE0109960E94630E7C01101611067F
:102F90000CF0F0CE081719070CF0ECCE980150E0B9
:102FA00040E0BE01675F7F4FCE0101960E94B90FDE
:102FB00089819A81812C912C5401009721F00E94E3
:102FC000EC1A4B015C01CE0101960E94D70AA801C0
:102FD0004F5F5F4F9701BE01675F7F4FCE01019644
:102FE0000E94B90F89819A81412C512C320100979E
:102FF00021F00E94EC1A2B013C01CE0101960E94A7
:10300000D70AA7014F5F5F4FBE01675F7F4FCE01B9
:1030100001960E941B1089819A81C12CD12C7601C6
:10302000009721F00E94EC1A6B017C01CE01019601
:103030000E94D70A8092220190922301A09224013B
:10304000B092250140921E0150921F016092200112
:1030500070922101C0921A01D0921B01E0921C01D2
:10306000F0921D018FE793E00E94300B60912201E6
:1030700070912301809124019091250142E00E94EA
:10308000330C81EA93E00E94300B60911E01709135
:103090001F01809120019091210142E00E94330C98
:1030A00082EB93E00E94300B60911A0170911B013A
:1030B00080911C0190911D010E94430E8EE692E0CA
:1030C0000E94300B609122017091230180912401B4
:1030D0009091250142E00E94330C83ED91E00E9423
:1030E000300B60911E0170911F0180912001909121
:1030F000210142E00E94330C83ED91E00E94300BED
:1031000060911A0170911B0180911C0190911D0129
:103110000E94430E0E940F0D2DCE0FEF1FEF31CFF7
:103120006EEB73E0CE0101960E94880FBE016F5FC7
:103130007F4FCE0181960E94F10E182FCE0101968D
:103140000E94D70A112309F48DC146E050E0BE0168
:103150006F5D7F4FCE014B960E941B10CE014B96A8
:103160000E94940E0B8D1C8D0115110571F0F80154
:1031700081918F01882349F0082E000C990B0E9441
:103180005F21F80131978083F2CF85EC93E00E94B4
:10319000300BCE014B960E94520E6AED73E0CE01C9
:1031A0004B960E940C0F882341F081E08093D1055B
:1031B0000E94720BCE014B96B0CE6DED73E0CE0146
:1031C0004B960E940C0F882319F01092D105F0CF76
:1031D00060E771E0CE014B960E940C0F882381F0CE
:1031E00081E08093260181EE93E00E94640B809140
:1031F000D1058111DDCF8CE094E00E94640BDACF21
:103200006FE671E0CE014B960E940C0F882329F0E7
:10321000109226018AE394E0E8CF66E674E0CE01DE
:1032200001960E94880FBE016F5F7F4FCE014B96C3
:103230000E94F10E182FCE0101960E94D70A112389
:10324000C1F146E050E0BE01655E7F4FCE010196C0
:103250000E941B1089819A81C12CD12C7601009784
:1032600019F00E94F01A6B01CE0101960E94D70A54
:10327000FFEFCF16D10421F01CF0CC24CA94D12C3E
:10328000D7FE02C0D12CC12CD092D005C092CF0560
:103290008DE694E00E94300B8091CF059091D0058F
:1032A0000E94320B8091D105811182CF89E894E090
:1032B000A4CF65EB74E0CE0101960E94880FBE0199
:1032C0006F5F7F4FCE014B960E94F10E182FCE01FB
:1032D00001960E94D70A112309F4B0C044E050E0DF
:1032E000BE01655E7F4FCE0145960E941B10898D01
:1032F0009A8D892B09F49FC00D891E896CE270E0BC
:10330000C8010E947721009709F495C06C01C01A8A
:10331000D10A8601CE0145960E94630E7C011016EB
:1033200011060CF083C0081719070CF07FC0980134
:1033300050E040E0BE016B5E7F4FCE010F960E94D1
:10334000B90FA8014F5F5F4F9701BE016B5E7F4FC2
:10335000CE0109960E94B90FA7014F5F5F4FBE01D2
:103360006B5E7F4FCE0101960E941B1089819A816E
:10337000C12CD12C7601009719F00E94F01A6B0134
:10338000CE0101960E94D70A6AED73E0CE010F9636
:103390000E940C0F91E0811101C090E09093D10543
:1033A00060E771E0CE0109960E940C0F91E0811157
:1033B00001C090E0909326012FEFC216D10421F0B6
:1033C0001CF0CC24CA94D12CD7FE02C0D12CC12C25
:1033D000D092D005C092CF058AEB94E00E94300BCA
:1033E000BE01615F7F4F81EE95E00E94E60088ECB0
:1033F00094E00E94300BBE01675F7F4F81EE95E045
:103400000E94E60088EC94E00E94300B8091CF058A
:103410009091D0050E94320B0E94720BCE0109964A
:103420000E94D70ACE010F960E94D70ACE01459678
:103430000E94D70ABFCE0FEF1FEF6CCF6BEC74E08A
:10344000CE0101960E94880FBE01655E7F4FCE01BE
:1034500001960E94750F0E94520ECE0101960E94A5
:10346000D70AA8CE62EE74E0CE0101960E94880FC2
:10347000BE016F5D7F4FCE0101960E94750F0E94C5
:10348000520ECE0101960E94D70A8FCB8091D205B1
:103490009091D305A091D405B091D505A7019601CF
:1034A000281B390B4A0B5B0BDA01C901883B9B4097
:1034B000A105B10508F4E2CB60E088E00E942A0291
:1034C00061E084E00E942A0282E095E00E94640BA1
:1034D00082E090E0C7CB8091D2059091D305A09176
:1034E000D405B091D505A7019601281B390B4A0BCD
:1034F0005B0BDA01C901883E9340A105B10508F4D0
:10350000BDCB60E084E00E942A0261E08CE00E9472
:103510002A0283EE92E00E94640B1092D70510926B
:10352000D605A4CB0E9449030091DD051091DE056C
:103530002091DF053091E0056B017C01C01AD10AB2
:10354000E20AF30A97018601043F11402105310583
:1035500008F494CB6093DD057093DE058093DF055E
:103560009093E0051091DC0581E018271093DC05AD
:10357000612F88E00E942A02612F84E00E942A02C3
:10358000612F8CE00E942A0285E592E0112311F060
:103590008DE392E00E94640B71CB80919F06909125
:1035A000A0060E94192080919C0690919D0697FD8F
:1035B00003C060E00E9458028091B5069091B60663
:1035C0000E9419208091B2069091B30697FD03C026
:1035D00060E00C9458020895662777270C942C1B02
:1035E0001F93FC0199278827BC01E89411911032A0
:1035F000E9F3193010F01E30C8F31B3251F01D32C0
:1036000049F4689406C00E94171B610F711D811D4B
:10361000911D119110531A30B0F33EF4909580959E
:10362000709561957F4F8F4F9F4F1F910895592F30
:10363000482F372F262F660F771F881F991F660F79
:10364000771F881F991F620F731F841F951F660FB6
:10365000771F881F991F0895B0E0A0E0E2E3FBE127
:103660000C94D51D5C017B016115710519F0DB011E
:103670008D939C9385010F5F1F4FF501D0818D2F96
:1036800090E00E947C1C6C01892BB9F5DD32B9F504
:103690000F5F1F4FD5011196DC91C1E05801F1E099
:1036A000AF1AB10843E050E060E770E0C5010E9446
:1036B000851C892B69F5680182E0C80ED11C45E0A4
:1036C00050E06BE670E0C6010E94851C892B21F456
:1036D000680197E0C90ED11CE114F10419F0D7017B
:1036E000CD92DC9260E070E080E89FEFC111FFC0F6
:1036F00060E070E080E89FE7FAC05801BBCFDB32A2
:1037000029F485010E5F1F4FF501D181C0E0C6CFBE
:1037100043E050E068E670E0C5010E94851C892BFB
:10372000E9F0F80110E000E020E030E0A9015F01DD
:10373000B0ED8B2E8D0E89E08815C8F19C2E689413
:1037400091F88C2F8870C2FF16C0811102C00F5FE4
:103750001F4F3196D501DC91C92DE9CFE114F10459
:1037600029F00E5F1F4FF7011183008360E070E0C6
:1037700080EC9FE7BCC0882311F001501109A5E03F
:10378000B0E00E94C41D9B01AC01220F331F441FF7
:10379000551F280D311D411D511D283999E9390743
:1037A000490799E15907A8F2C6609C2ED2CFAEEF27
:1037B0008A1206C0C3FD3CC09C2E689493F8C9CF02
:1037C000DF7DD534A9F580818D3239F4C061DF0108
:1037D0001296818162E070E006C0DF018B32C1F396
:1037E000119661E070E080535D01A61AB70A8A3035
:1037F000F8F4E0E8CE16ECE0DE065CF4B601660F05
:10380000771F660F771FC60ED71ECC0CDD1CC80EA7
:10381000D11C5D01FFEFAF1ABF0A8C9180538A3033
:10382000A8F1C4FF03C0D194C194D1080C0D1D1D93
:10383000C1FF09C0E114F10431F081E0A81AB10818
:10384000D701AD92BC92CA01B9010E94A21CC370FB
:10385000C33009F490584B015C0120E030E0A9012D
:103860000E949D1C882309F440C0CFE9D0E017FFD7
:1038700005C0119501951109C7E8D0E06E01B8E1C6
:10388000CB1AD10880E2E82EF12C0FC0D501B1CFC0
:10389000FE0125913591459154910E191F09C501DD
:1038A000B4010E94031D4B015C01D501C4010E153A
:1038B0001F0574F72497F594E794CC16DD06A9F755
:1038C0008A2F880F8B2F881F8F3F49F020E030E030
:1038D000A901C501B4010E949D1C811106C082E2AC
:1038E00090E09093E8068093E706C501B401CDB758
:1038F000DEB7ECE00C94F11D91110C94701D803238
:1039000019F089508550C8F70895FB01DC0141503A
:10391000504088F08D9181341CF08B350CF4805E22
:10392000659161341CF06B350CF4605E861B61118F
:1039300071F3990B0895881BFCCF0E94DF1C08F4DB
:1039400081E00895E89409C097FB3EF49095809536
:10395000709561957F4F8F4F9F4F9923A9F0F92F55
:1039600096E9BB279395F695879577956795B795D3
:10397000F111F8CFFAF4BB0F11F460FF1BC06F5FB9
:103980007F4F8F4F9F4F16C0882311F096E911C0CB
:10399000772321F09EE8872F762F05C0662371F0EC
:1039A00096E8862F70E060E02AF09A95660F771F00
:1039B000881FDAF7880F9695879597F90895990FDC
:1039C0000008550FAA0BE0E8FEEF16161706E807E9
:1039D000F907C0F012161306E407F50798F0621B0A
:1039E000730B840B950B39F40A2661F0232B242BDF
:1039F000252B21F408950A2609F4A140A6958FEFFE
:103A0000811D811D08950E94161D0C948A1D0E941F
:103A10007C1D38F00E94831D20F0952311F00C943A
:103A2000731D0C94791D11240C94BE1D0E949B1DC6
:103A300070F3959FC1F3950F50E0551F629FF00101
:103A4000729FBB27F00DB11D639FAA27F00DB11D1A
:103A5000AA1F649F6627B00DA11D661F829F2227A3
:103A6000B00DA11D621F739FB00DA11D621F839F2A
:103A7000A00D611D221F749F3327A00D611D231F00
:103A8000849F600D211D822F762F6A2F11249F574E
:103A900050409AF0F1F088234AF0EE0FFF1FBB1F51
:103AA000661F771F881F91505040A9F79E3F510510
:103AB00080F00C94731D0C94BE1D5F3FE4F3983EA0
:103AC000D4F3869577956795B795F795E7959F5FBA
:103AD000C1F7FE2B880F911D9695879597F908954C
:103AE00099278827089597F99F6780E870E060E03C
:103AF00008959FEF80EC089500240A941616170687
:103B000018060906089500240A94121613061406CE
:103B100005060895092E0394000C11F4882352F031
:103B2000BB0F40F4BF2B11F460FF04C06F5F7F4FE9
:103B30008F4F9F4F089557FD9058440F551F59F0D0
:103B40005F3F71F04795880F97FB991F61F09F3F8A
:103B500079F087950895121613061406551FF2CFB3
:103B60004695F1DF08C0161617061806991FF1CF03
:103B700086957105610508940895E894BB2766272A
:103B80007727CB0197F908950E94061EA59F900DF7
:103B9000B49F900DA49F800D911D112408952F9224
:103BA0003F924F925F926F927F928F929F92AF92CD
:103BB000BF92CF92DF92EF92FF920F931F93CF931A
:103BC000DF93CDB7DEB7CA1BDB0B0FB6F894DEBFB1
:103BD0000FBECDBF09942A88398848885F846E84D7
:103BE0007D848C849B84AA84B984C884DF80EE8021
:103BF000FD800C811B81AA81B981CE0FD11D0FB62A
:103C0000F894DEBF0FBECDBFED010895A29FB001B5
:103C1000B39FC001A39F700D811D1124911DB29F00
:103C2000700D811D1124911D08955058BB27AA279E
:103C30000E942D1E0C948A1D0E947C1D38F00E944B
:103C4000831D20F039F49F3F19F426F40C94791D5C
:103C50000EF4E095E7FB0C94731DE92F0E949B1D69
:103C600058F3BA17620773078407950720F079F4B1
:103C7000A6F50C94BD1D0EF4E0950B2EBA2FA02DC9
:103C80000B01B90190010C01CA01A0011124FF2709
:103C9000591B99F0593F50F4503E68F11A16F04004
:103CA000A22F232F342F4427585FF3CF4695379503
:103CB0002795A795F0405395C9F77EF41F16BA0BC8
:103CC000620B730B840BBAF09150A1F0FF0FBB1F76
:103CD000661F771F881FC2F70EC0BA0F621F731FBF
:103CE000841F48F4879577956795B795F7959E3F1C
:103CF00008F0B0CF9395880F08F09927EE0F9795AD
:103D0000879508950E94961E0C948A1D0E94831D1B
:103D100058F00E947C1D40F029F45F3F29F00C947C
:103D2000731D51110C94BE1D0C94791D0E949B1D96
:103D300068F39923B1F3552391F3951B550BBB27DA
:103D4000AA2762177307840738F09F5F5F4F220F1F
:103D5000331F441FAA1FA9F335D00E2E3AF0E0E816
:103D600032D091505040E695001CCAF72BD0FE2F60
:103D700029D0660F771F881FBB1F261737074807F4
:103D8000AB07B0E809F0BB0B802DBF01FF279358AC
:103D90005F4F3AF09E3F510578F00C94731D0C94E0
:103DA000BE1D5F3FE4F3983ED4F386957795679503
:103DB000B795F7959F5FC9F7880F911D96958795E1
:103DC00097F90895E1E0660F771F881FBB1F621700
:103DD00073078407BA0720F0621B730B840BBA0BBE
:103DE000EE1F88F7E09508950E94A31D88F09F5765
:103DF00098F0B92F9927B751B0F0E1F0660F771F0F
:103E0000881F991F1AF0BA95C9F714C0B13091F004
:103E10000E94BD1DB1E008950C94BD1D672F782F41
:103E20008827B85F39F0B93FCCF3869577956795C9
:103E3000B395D9F73EF490958095709561957F4F35
:103E40008F4F9F4F08950E94DF1C08F48FEF089555
:103E50000E94DF1C880B990B0895AA1BBB1B51E124
:103E600007C0AA1FBB1FA617B70710F0A61BB70BEA
:103E7000881F991F5A95A9F780959095BC01CD018F
:103E8000089597FB072E16F4009407D077FD09D00C
:103E90000E942D1F07FC05D03EF4909581959F4F01
:103EA0000895709561957F4F0895A1E21A2EAA1B7F
:103EB000BB1BFD010DC0AA1FBB1FEE1FFF1FA217DA
:103EC000B307E407F50720F0A21BB30BE40BF50BD7
:103ED000661F771F881F991F1A9469F76095709560
:103EE000809590959B01AC01BD01CF010895EE0F27
:103EF000FF1F0590F491E02D09940F931F93CF932A
:103F0000DF938230910510F482E090E0E091EB06BF
:103F1000F091EC0630E020E0B0E0A0E0309799F4BA
:103F20002115310509F44AC0281B390B243031050D
:103F3000D8F58A819B816115710589F1FB01938315
:103F40008283FE0111C04081518102811381481793
:103F50005907E0F04817590799F4109761F0129645
:103F60000C93129713961C933296CF01DF91CF9149
:103F70001F910F9108950093EB061093EC06F4CF78
:103F80002115310551F04217530738F0A901DB0123
:103F90009A01BD01DF01F801C1CFEF01F9CF909384
:103FA000EC068093EB06CDCFFE01E20FF31F819369
:103FB00091932250310939832883D7CF2091E90684
:103FC0003091EA06232B41F420912A0130912B01F4
:103FD0003093EA062093E9062091280130912901C7
:103FE0002115310541F42DB73EB740912C01509178
:103FF0002D01241B350BE091E906F091EA06E2174A
:10400000F307A0F42E1B3F0B2817390778F0AC01FB
:104010004E5F5F4F2417350748F04E0F5F1F5093D8
:10402000EA064093E906819391939FCFF0E0E0E0A8
:104030009CCFCF93DF930097E9F0FC013297138276
:104040001282A091EB06B091EC06ED0130E020E089
:104050001097A1F420813181820F931F2091E906EE
:104060003091EA062817390709F061C0F093EA0693
:10407000E093E906DF91CF910895EA01CE17DF07BB
:10408000E8F54A815B819E0141155105B1F7E901CF
:10409000FB83EA8349915991C40FD51FEC17FD07A3
:1040A00061F4808191810296840F951FE9019983C3
:1040B0008883828193819B838A83F0E0E0E012967B
:1040C0008D919C9113970097B9F52D913C91119783
:1040D000CD010296820F931F2091E9063091EA06E6
:1040E0002817390739F6309751F51092EC061092DF
:1040F000EB06B093EA06A093E906BCCFD383C28354
:1041000040815181840F951FC817D90761F44E5F14
:104110005F4F88819981480F591F518340838A815D
:104120009B81938382832115310509F0B0CFF093F1
:10413000EC06E093EB069ECFFD01DC01C0CF1382BD
:104140001282D7CFB0E0A0E0E8EAF0E20C94D11DF3
:104150008C01009751F4CB010E947D1F8C01C80196
:10416000CDB7DEB7E0E10C94ED1DFC01E60FF71FC3
:104170009C0122503109E217F30708F49DC0D901D0
:10418000CD91DC911197C617D70798F0C530D105AE
:1041900030F3CE0104978617970708F3C61BD70B99
:1041A0002297C193D1936D937C93CF010E941920E4
:1041B000D6CF5B01AC1ABD0A4C018C0E9D1EA0919E
:1041C000EB06B091EC06512C412CF12CE12C109710
:1041D00031F58091E9069091EA068815990509F074
:1041E0005CC04616570608F058C08091280190918F
:1041F0002901009741F48DB79EB740912C01509151
:104200002D01841B950BE817F90708F055C0F093B2
:10421000EA06E093E906F90171836083A0CF8D91EE
:104220009C91119712966C90129713967C9013970D
:10423000A815B90559F56C0142E0C40ED11CCA1489
:10424000DB0420F1AC014A195B09DA0112961597DB
:1042500080F06282738251834083D9016D937C9395
:10426000E114F10471F0D7011396FC93EE931297C9
:1042700076CF22968C0F9D1FF90191838083F301E5
:10428000EFCFF093EC06E093EB0669CF48165906A2
:1042900008F42C017D01D3019ACFCB010E947D1F30
:1042A0007C01009749F0AE01B8010E946721C80166
:1042B0000E941920870153CF10E000E050CF9111E8
:1042C000089581548A5108F4805E855A0895FB014F
:1042D000DC0102C001900D9241505040D8F7089582
:1042E000DC0101C06D9341505040E0F70895FC019E
:1042F0008191861721F08823D9F79927089531975E
:10430000CF010895FB01DC018D910190801901100E
:10431000D9F3990B0895FB01DC0101900D92002067
:10432000E1F70895FB01DC014150504030F08D91E0
:104330000190801919F40020B9F7881B990B089592
:10434000FC0181E090E00190061609F4CF01002005
:10435000D1F70197089510E0C0E9D0E004C0FE0154
:104360000E94771F2196C139D107C9F7F894FFCF72
:104370002862A219FC00009E2851B430FF0000CD35
:10438000285FA651FC0000DA010000000C4200008A
:10439000A041000020C101010000ED0680000000E6
:1043A0004000140054005E00BC00770100000000D3
:1043B0009401F4002101E1015201300144010000A7
:1043C000000044041704AA05ED031004FD03EE03E6
:1043D00000000000A205F400AA05A9050D0A00636B
:1043E00063770044454255472061706C6963617290
:1043F0004D6F746F72202D3E20656E63656E64692B
:10440000646F3A2000207C2073656E7469646F3A93
:104410002000207C2076656C6F63696461643A20BB
:10442000006D6F746F722D7374617475733A6F667B
:10443000662C30006D6F746F722D737461747573B8
:104440003A6F6E2C006E616E00696E66006F766664
:10445000002D2D2D2D2D2D204C656374757261203E
:1044600064652054656D7065726174757261732046
:104470002D2D2D2D2D2D0054656D7020436F6369FA
:104480006E613A200020430054656D7020486162DF
:104490006974616369C3B36E3A200054656D70201E
:1044A000446F726D69746F72696F3A20004573745E
:1044B00061646F204D616E74656E696D69656E74BF
:1044C0006F204F6E0045737461646F204D616E7490
:1044D000656E696D69656E746F204F666600756DF7
:1044E0006272616C65733A0043616D626961646F09
:1044F0002061206D6F646F2046554E43494F4E41F9
:104500004E444F0043616D626961646F2061206DAC
:104510006F646F204D414E54454E494D49454E54B0
:104520004F00436F6D616E646F20726563696269ED
:10453000646F3A2027006163746976617200536585
:104540006D61666F726F20616374697661646F205C
:104550002D3E2045737461646F20453000617061A9
:104560006761720053656D61666F726F2061706183
:104570006761646F202D3E204D616E74656E696DBC
:1045800069656E746F204F6666006C63643A0077ED
:10459000733A00766572646500726F6A6F00617AC3
:1045A000756C006E6172616E6A6100616D61726945
:1045B0006C6C6F0063656C657374650076696F6C15
:1045C00065746100726F736100626C616E636F008D
:1045D0006D6167656E746100575332383132206304
:1045E0006F6C6F723A2000756D6272616C3A0055A3
:1045F0006D6272616C65732061637475616C697A58
:1046000061646F73202D3E204E6F726D616C3A2095
:1046100000207C20416476657274656E6369613A3E
:104620002000207C2052696573676F3A20006D6F0F
:10463000746F723A006D6F746F722D636D642072C7
:104640006563696269646F3A20006F6E006F666629
:10465000006D6F746F723A2073656E7469646F20B9
:104660002D3E2063772028696E7465726E6F20611D
:10467000637475616C697A61646F29006D6F746F22
:10468000723A2063616D626961646F2073656E7454
:1046900069646F2C207065726F206D6F746F72206B
:1046A000657374C3A1204F4646006D6F746F723AF4
:1046B0002073656E7469646F202D3E2063637720DC
:1046C00028696E7465726E6F2061637475616C69C0
:1046D0007A61646F290073706565643A006D6F7468
:1046E0006F723A2076656C6F6369646164207365EC
:1046F0007465616461206120006D6F746F723A208F
:1047000076656C6F63696461642061637475616C64
:10471000697A616461207065726F206D6F746F7269
:10472000204F4646007365743A006D6F746F723A9D
:10473000736574202D3E20002C20006D6F746F7205
:104740002D636D642D646573636F6E6F6369646F51
:104750003A00436F6D616E646F20646573636F6EC2
:104760006F6369646F3A200045737461646F20451C
:0C477000310045737461646F2045320015
:00000001FF
