:020000040000FA
:100000000C9463000C948B000C948B000C948B006C
:100010000C948B000C948B000C948B000C948B0034
:100020000C948B000C948B000C948B000C948B0024
:100030000C948B000C948B000C948B000C948B0014
:100040000C94A5070C948B000C9473070C944D072B
:100050000C948B000C948B000C948B000C948B00F4
:100060000C94EF070C948B00000000002400270084
:100070002A000000000023002600290000000008DC
:10008000000201000003040700000000000000005F
:10009000010204081020408001020408102001021F
:1000A0000408102000000000250028002B00040494
:1000B0000404040404040202020202020303030310
:1000C00003030E09E30E11241FBECFEFD8E0DEBFFD
:1000D000CDBF24E0ACEBB2E001C01D92A935B20760
:1000E000E1F712E0A0E0B1E0ECECF2E202C0059032
:1000F0000D92AC3BB107D9F710E0C2E6D0E004C0E6
:100100002197FE010E944A0FC136D107C9F70E940C
:10011000D8090C9459110C94000008950895AF92D9
:10012000BF92CF92DF92EF92FF920F931F93CF93E4
:10013000DF936C017B018B01040F151FEB015E0146
:10014000AE18BF08C017D10759F06991D601ED91DB
:10015000FC910190F081E02DC6010995892B79F77A
:10016000C501DF91CF911F910F91FF90EF90DF902C
:10017000CF90BF90AF900895FC01538D448D252FF3
:1001800030E0842F90E0821B930B541710F0CF9631
:10019000089501970895FC01918D828D981761F063
:1001A000A28DAE0FBF2FB11D5D968C91928D9F5F7A
:1001B0009F73928F90E008958FEF9FEF08952FB770
:1001C000F8948091860390918703A0918803B09161
:1001D00089032FBF8093920390939303A09394037A
:1001E000B09395038AE893E00E94CB0097FF26C066
:1001F0002FB7F8948091860390918703A09188038C
:10020000B09189032FBF4091920350919303609165
:10021000940370919503841B950BA60BB70B40912B
:100220008E0350918F036091900370919103841716
:100230009507A607B707B0F28FEF9FEF0895FC016F
:10024000918D828D981731F0828DE80FF11D858D8B
:1002500090E008958FEF9FEF0895FC01918D228D1E
:10026000892F90E0805C9F4F821B91098F739927A3
:1002700008958AE893E00E942D0121E0892B09F47A
:1002800020E0822F089580E090E0892B29F00E94E1
:10029000390181110C9400000895FC01A48DA80F70
:1002A000B92FB11DA35ABF4F2C91848D90E00196B8
:1002B0008F739927848FA689B7892C93A089B189D8
:1002C0008C91837080648C93938D848D981306C079
:1002D0000288F389E02D80818F7D80830895EF92DD
:1002E000FF920F931F93CF93DF93EC0181E0888FF0
:1002F0009B8D8C8D98131AC0E889F989808185FFC0
:1003000015C09FB7F894EE89FF896083E889F98961
:1003100080818370806480839FBF81E090E0DF9163
:10032000CF911F910F91FF90EF900895F62E0B8DB6
:1003300010E00F5F1F4F0F731127E02E8C8D8E1171
:100340000CC00FB607FCFACFE889F989808185FFD8
:10035000F5CFCE010E944D01F1CFEB8DEC0FFD2FBB
:10036000F11DE35AFF4FF0829FB7F8940B8FEA8993
:10037000FB8980818062CFCFCF93DF93EC01888DA2
:100380008823B9F0AA89BB89E889F9898C9185FD10
:1003900003C0808186FD0DC00FB607FCF7CF8C919E
:1003A00085FFF2CF808185FFEDCFCE010E944D0108
:1003B000E9CFDF91CF910895833081F028F4813027
:1003C00099F08230A9F008958730A9F08830C9F0FB
:1003D0008430B1F4809180008F7D03C080918000D3
:1003E0008F7780938000089584B58F7784BD0895BA
:1003F00084B58F7DFBCF8091B0008F778093B00064
:1004000008958091B0008F7DF9CF1F93CF93DF9334
:10041000282F30E0F901E458FF4F8491F901E057AB
:10042000FF4FD491F901E255FF4FC491CC23A9F0BD
:10043000162F81110E94DC01EC2FF0E0EE0FFF1F60
:10044000EC55FF4FA591B4918FB7F894EC91111131
:1004500008C0D095DE23DC938FBFDF91CF911F9131
:100460000895DE2BF8CFCF93DF9390E0FC01E057A7
:10047000FF4F249182559F4FFC0184918823C9F03E
:1004800090E0880F991FFC01E859FF4FA591B491A6
:10049000FC01EC55FF4FC591D49161110DC09FB780
:1004A000F8948C91209582238C938881282328832B
:1004B0009FBFDF91CF910895623051F49FB7F894B8
:1004C0003C91822F809583238C93E8812E2BEFCF54
:1004D0008FB7F894EC912E2B2C938FBFEACF3FB7B8
:1004E000F89480916F0390917003A0917103B09183
:1004F000720326B5A89B05C02F3F19F00196A11DD8
:10050000B11D3FBFBA2FA92F982F8827BC01CD015D
:10051000620F711D811D911D42E0660F771F881FBC
:10052000991F4A95D1F708950F931F93CF93DF93A7
:10053000CDB7DEB729970FB6F894DEBF0FBECDBF9B
:100540008091480490914904892B09F47CC00E9451
:100550006F0200914E0410914F042091500430918D
:100560005104601771078207930740F460934E04AB
:1005700070934F04809350049093510400914E0463
:1005800010914F042091500430915104601B710B65
:10059000820B930B6C32714081059105C0F2F89487
:1005A00080914304909144049A838983E0914804A4
:1005B000F0914904DF0111968081898790913F0471
:1005C000E0915204F091530480915404992309F46A
:1005D00045C09081982B98879081809589238F833F
:1005E0008F818C8388E08B8358856F8149853B811F
:1005F0002C8189819A81508347FD252F3A9520834C
:10060000262F39F0441F00C000006083000000C0A6
:10061000F2CF38E04D9160830000019761F7F093CD
:100620005304E093520449873B832C839A83898344
:1006300078940E946F0260934E0470934F048093ED
:1006400050049093510429960FB6F894DEBF0FBE64
:10065000CDBFDF91CF911F910F9108959081982B7D
:1006600098879081809589238F838F818E8388E0FE
:100670008D8358856F8149853D812E8189819A813D
:10068000508347FD252F00C000C0208300C000C05C
:1006900000C000C000C060830000262F3A9541F0E2
:1006A000441F000000C000C000C000C000C0E8CF70
:1006B00038E04D9100C0608300C0019709F7F093C6
:1006C0005304E093520449873D832E83AFCF20919A
:1006D0002403260F3327331F21323105ECF42091F8
:1006E0004803FC0190E080E0243069F082E0089546
:1006F000A09124032191AC014C5F5C4FA40FB52F56
:10070000B11D2C930196861798F380912403680FEE
:100710006093240380E0089581E0089510924803D7
:1007200081E080934A031092490361E082E10E94D4
:10073000050261E083E10E940502E9EBF0E08081BF
:100740008E7F808380818D7F808388E48093B80052
:1007500085E48093BC000895CF93DF9391E090935C
:1007600003038823B9F0C091B800D091BA008091FA
:10077000BC008A7B8093BC0060E082E10E9405029D
:1007800060E083E10E9405020E948E03D093BA00CC
:10079000C093B800DF91CF9108950895E0917A0356
:1007A00080917903E81730F4F0E0E252FD4F808148
:1007B00090E008958FEF9FEF089590917A038091D4
:1007C00079032FEF3FEF981748F4E92FF0E0E2525A
:1007D000FD4F208130E09F5F90937A03C901089517
:1007E0008091790390917A03891B990B0895CF9298
:1007F000DF92EF92FF920F931F93CF93DF937C01D1
:10080000CB018A012091DD02222389F0EB016B01EB
:10081000C40ED51ECC15DD0569F06991D701ED91A7
:10082000FC910190F081E02DC7010995F3CF642F71
:100830000E946703C801DF91CF911F910F91FF9034
:10084000EF90DF90CF900895CF93DF931F92CDB7B5
:10085000DEB769832091DD022223F9F0209177032E
:10086000203258F021E030E0FC013383228390E015
:1008700080E00F90DF91CF91089580917803E82F69
:10088000F0E0E354FD4F998190838F5F809378036C
:100890008093770381E090E0ECCF61E0CE01019698
:1008A0000E946703F7CFCF92DF92EF92FF920F93F0
:1008B0001F93CF93DF93D62F672FFC01C48181E074
:1008C0008093DD02C093BC021092780310927703EC
:1008D00087E294E00E9424046D2F87E294E00E9456
:1008E0002404D0917703D13208F092C00E946F02A5
:1008F0006B017C0180914803811165C082E0809387
:10090000480381E080934A038FEF8093470310925E
:100910006C03D0936B03ADEBB2E0EBE4F3E080E06B
:10092000D81385C010926D0380916D03CC0FC82B36
:10093000C0936D0380914903813009F07CC010920F
:1009400049030E946F026B017C0180916D038093CB
:10095000BB008091FF0290910003A0910103B09130
:100960000203892B8A2B8B2B99F00E946F02009136
:10097000FF021091000320910103309102036C19D2
:100980007D098E099F090617170728073907E0F127
:100990008091BC0083FDD9CF85EC8093BC000E9480
:1009A0006F026B017C0180914803823009F445C0DD
:1009B000809147038F3F61F180914703803241F17D
:1009C0008091470325C08091FF0290910003A09180
:1009D0000103B0910203892B8A2B8B2B09F48ACF58
:1009E0000E946F020091FF02109100032091010309
:1009F000309102036C197D098E099F0906171707AC
:100A00002807390708F076CF8091FE020E94AC03D8
:100A100010927803109277031092DD02DF91CF914C
:100A20001F910F91FF90EF90DF90CF9008959D91CF
:100A300091938F5F75CF85EEB0CF8091FF0290913B
:100A40000003A0910103B0910203892B8A2B8B2B09
:100A500009F4A9CF0E946F020091FF0210910003D8
:100A600020910103309102036C197D098E099F09C1
:100A7000061717072807390708F095CFC5CFCF937A
:100A8000DF93CDB7DEB728970FB6F894DEBF0FBE61
:100A9000CDBF98E0E9E0F1E0DE01119601900D9202
:100AA0009A95E1F790913B04981708F48FEF90E046
:100AB000880F991F21E030E02C0F3D1F820F931FFC
:100AC000FC016081606870E083E394E028960FB6D3
:100AD000F894DEBF0FBECDBFDF91CF910C945304CD
:100AE00061E070E083E394E00E9453048BE39FE1B4
:100AF0000197F1F780913C04882319F080E00C9471
:100B00003F05089570E070640E94530481E090E016
:100B10000895089590E080E00895CF93DF93EC016D
:100B200088819981009711F00E94EC0F1982188238
:100B30001D821C821B821A82DF91CF910895FC01D5
:100B400080819181009711F00C94EC0F089542E0A0
:100B500050E061E471E08AE893E00C948F00CF9359
:100B6000DF93FC0101900020E9F73197AF01481BAA
:100B7000590BBC018AE893E00E948F00EC010E94AF
:100B8000A7058C0F9D1FDF91CF910895CF93DF9321
:100B9000FC0144815581608171818AE893E00E9463
:100BA0008F00EC010E94A7058C0F9D1FDF91CF9154
:100BB0000895FB0144815581FC012481358124176E
:100BC000350778F080819181009759F0FB016081B1
:100BD00071816115710529F00E944B1121E0892B6B
:100BE00009F020E0822F0895FC0124813581232B18
:100BF00039F421E0FB018081882349F020E007C01F
:100C0000808191810E943B1121E0892BB9F7822FCD
:100C100008950F931F93CF93DF93EC0188819981FF
:100C2000009759F02A813B812617370730F081E081
:100C3000DF91CF911F910F9108958B016F5F7F4FCF
:100C40000E947510009759F0998388831B830A834B
:100C50002C813D81232B59F7FC011082E8CF80E0E5
:100C6000E7CFEF92FF920F931F93CF93DF9361151E
:100C7000710541F480E0DF91CF911F910F91FF90BA
:100C8000EF90089541155105B1F07B01EC010C8105
:100C90001D81040F151FB8010E940906882351F316
:100CA000288139818C819D81B701820F931F0E9419
:100CB00044111D830C8381E0DECFCF93DF93EC01E1
:100CC00041E050E064E172E00E943106811103C00E
:100CD000CE010E948D05CE01DF91CF910895CF9373
:100CE000DF93EC01FB0144815581608171810E9499
:100CF0003106811103C0CE010E948D05CE01DF9126
:100D0000CF910895EF92FF920F931F93CF93DF93AC
:100D1000EC017B01198218821B821A821D821C82BF
:100D2000FB0101900020E9F731978F01061B170B9B
:100D3000B8010E940906811109C0CE01DF91CF914F
:100D40001F910F91FF90EF900C948D051D830C83E4
:100D5000B70188819981DF91CF911F910F91FF9009
:100D6000EF900C9444119F92AF92BF92CF92DF927A
:100D7000EF92FF920F931F93CF93DF937C016B0150
:100D80005A0189012417350720F48B2D5901042FAE
:100D9000182F63E471E0C7010E948206D601149601
:100DA000CD91DC91AC16BD0650F50C171D0708F46B
:100DB000E801D601ED91FC911197EC0FFD1F908099
:100DC00010820D911C910A0D1B1D0115110571F06A
:100DD000F80101900020E9F731975F01A01AB10AEC
:100DE000B501C7010E940906811116C0C7010E9402
:100DF0008D05D6018D919C91C80FD91F9882C7018E
:100E0000DF91CF911F910F91FF90EF90DF90CF90E6
:100E1000BF90AF909F900895F701B582A482B8016A
:100E2000808191810E944411E4CF85ED8093BC00C4
:100E30008091FF0290910003A0910103B091020301
:100E40000796A11DB11D23E0B695A79597958795A7
:100E50002A95D1F72091BC0024FD03C010924803CD
:100E600008954091FF025091000360910103709139
:100E70000203452B462B472B69F30097A105B105CB
:100E800041F025E32A95F1F700000197A109B10986
:100E9000E1CF8091FE020C94AC031F920F920FB62B
:100EA0000F9211242F933F934F935F936F937F93F0
:100EB0008F939F93AF93BF93EF93FF938AE893E051
:100EC0000E944D01FF91EF91BF91AF919F918F9142
:100ED0007F916F915F914F913F912F910F900FBE36
:100EE0000F901F9018951F920F920FB60F9211241A
:100EF0002F938F939F93EF93FF93E0919A03F09139
:100F00009B038081E091A003F091A10382FD1BC0AF
:100F100090818091A3038F5F8F732091A403821728
:100F200041F0E091A303F0E0E657FC4F958F8093EA
:100F3000A303FF91EF919F918F912F910F900FBE7F
:100F40000F901F9018958081F4CF1F920F920FB6CB
:100F50000F9211242F933F938F939F93AF93BF933F
:100F60008091860390918703A0918803B0918903B3
:100F700030916E0323E0230F2D3758F50196A11D04
:100F8000B11D20936E038093860390938703A093F3
:100F90008803B093890380916F0390917003A091AF
:100FA0007103B09172030196A11DB11D80936F036F
:100FB00090937003A0937103B0937203BF91AF91AC
:100FC0009F918F913F912F910F900FBE0F901F9087
:100FD000189526E8230F0296A11DB11DD2CF1F92AE
:100FE0000F920FB60F9211242F933F934F935F935D
:100FF0006F937F938F939F93AF93BF93EF93FF93E1
:101000008091B900887F803609F44AC0F0F58832B3
:1010100009F4A7C018F5803109F49BC0B8F48823FF
:1010200009F4F9C0883009F494C0FF91EF91BF91A1
:10103000AF919F918F917F916F915F914F913F9170
:101040002F910F900FBE0F901F901895883109F4C3
:1010500088C0803251F78093470314C0803409F46C
:101060009DC040F48033B9F38833F9F68093470389
:1010700085ECB0C0803509F485C0883509F496C088
:10108000883499F60E941507D0CF883909F48CC0AE
:1010900038F5883729F050F4883611F0803729F672
:1010A00083E0809348031092460357C0883809F4C0
:1010B0007BC0803919F0803809F0B7CF80914603A2
:1010C000803208F071C0E091460381E08E0F80937A
:1010D00046038091BB00F0E0EA5DFC4F80833DC099
:1010E000803B39F0E0F4803A09F479C0883A09F09D
:1010F0009CCF84E080934803109225031092240330
:10110000E0917503F0917603099580912403811194
:101110000FC081E0809324031092040309C0803C37
:1011200009F4A6CF883C09F4A3CF883B09F07DCF12
:10113000E091250381E08E0F80932503F0E0EC5FC2
:10114000FC4F80818093BB00909125038091240304
:1011500029C080916D038093BB0085EC8093BC0017
:1011600064CF90916C0380916B03981758F5E091D0
:101170006C0381E08E0F80936C03F0E0E55BFC4F25
:101180008081E9CFE0916C0381E08E0F80936C0346
:101190008091BB00F0E0E55BFC4F808390916C0395
:1011A00080916B039817C8F285E8D8CFE0916C0363
:1011B00081E08E0F80936C038091BB00F0E0E55BD3
:1011C000FC4F808380914A0381115CCF81E0809342
:1011D000490384EA8093BC001092480326CF85EC33
:1011E0008093BC001092480380914603803230F413
:1011F000E0914603F0E0EA5DFC4F10826091460307
:1012000070E0E0917303F091740386E293E0099536
:10121000109246030ACF1092470334CF10928D03E9
:1012200010928C0388EE93E0A0E0B0E080938E03F0
:1012300090938F03A0939003B093910325E131E045
:1012400030938B0320938A0325EC30E0309397038F
:101250002093960324EC30E0309399032093980375
:1012600020EC30E030939B0320939A0321EC30E094
:1012700030939D0320939C0322EC30E030939F0336
:1012800020939E0326EC30E03093A1032093A0032B
:101290001092A3031092A4031092A5031092A60328
:1012A00010922A041092290480932B0490932C040A
:1012B000A0932D04B0932E0487E291E0909328042C
:1012C00080932704109240041092470410924E0419
:1012D00010924F04109250041092510481E08093B8
:1012E0004D0480934A0410924B0492E090934C0476
:1012F00080933F0486E090E09093440480934304FD
:101300000E94500F9093490480934804009709F479
:1013100046C026E0FC0111922A95E9F782E090E0B0
:1013200090934204809341048AE090E090934604B5
:101330008093450480914004882341F061E08AE075
:101340000E94330260E08AE00E940502E8EBF0E0D0
:10135000E491F0E0EE0FFF1FEC55FF4F8591949163
:101360009093530480935204EAE9F0E0E491E0930F
:101370005404109236041092350489E391E090935E
:1013800034048093330410923C048EE3809337043A
:1013900080E180933D0482E080933E0408951092A2
:1013A0004404109243041092420410924104BCCFB2
:1013B000CF93DF93CDB7DEB762970FB6F894DEBF59
:1013C0000FBECDBF789484B5826084BD84B5816042
:1013D00084BD85B5826085BD85B5816085BD809100
:1013E0006E00816080936E00109281008091810078
:1013F0008260809381008091810081608093810070
:10140000809180008160809380008091B100846031
:101410008093B1008091B00081608093B000809192
:101420007A00846080937A0080917A008260809351
:101430007A0080917A00816080937A0080917A00AE
:10144000806880937A001092C10061E088E00E9479
:10145000330261E089E00E94330261E08CE00E9487
:10146000330262E082E00E943302E0919A03F0913D
:101470009B0382E08083E0919603F09197031082B2
:10148000E0919803F09199038FEC80831092A2036E
:10149000E0919E03F0919F0386E08083E0919C039E
:1014A000F0919D03808180618083E0919C03F091A5
:1014B0009D03808188608083E0919C03F0919D036F
:1014C000808180688083E0919C03F0919D038081FE
:1014D0008F7D808384E491E00E94AF0510927A03AF
:1014E0001092790310927803109277030E948E0372
:1014F0008DE890E090937603809375038EE890E0FA
:10150000909374038093730380E1809338048091F7
:101510003E04823018F098E19093380480933B04A5
:101520008BE39DE00197F1F760913804606270E011
:1015300083E394E00E9453048BE496E40197F1F76F
:1015400060913804606270E083E394E00E94530489
:1015500083E592E00197F1F760913804606270E0F2
:1015600083E394E00E94530460913804606270E069
:1015700083E394E00E94530484E0809339046CE098
:1015800070E083E394E00E9453040E94700582E0BF
:1015900080933A0466E070E083E394E00E94530491
:1015A00062E070E083E394E00E9453048BE39FE1E8
:1015B0000197F1F7809145049091460497FD30C062
:1015C00061E00E94330260E0809145040E940502C0
:1015D00081E0809340040E9494026091470469373F
:1015E00041F120914804309149046150E1F070E0EC
:1015F0008FEF98E70E94360FF90140914304509114
:101600004404CF01821B930B8417950778F4408123
:10161000469FC001479F900D112490833196EDCFD6
:1016200010924004D8CF70E060E0E6CF89E7809365
:1016300047040E94940261E08CE00E9405028AE562
:1016400091E00E94AF0501E010E0EEE7F0E0849148
:10165000E2E9F0E0E490E0EBF0E0F490F1102FC06C
:101660008091010190910201019709F43AC090E044
:1016700080E090930201809301018AE893E00E9448
:101680002D01181619060CF0C0C063E471E0CE01FC
:101690000D960E9482060E94DF0097FD6DC08A3081
:1016A000910509F469C089831A8241E050E0BE01C6
:1016B0006F5F7F4FCE010D960E943106ECCF8111F6
:1016C0000E94DC01EF2DF0E0EE0FFF1FEE58FF4F00
:1016D000A591B491EC91EE2209F4C2CF81E090E0A3
:1016E000C8CF0E946F024B015C0132E3C32ED12CA4
:1016F000E12CF12C0E946F02681979098A099B0973
:10170000683E734081059105A8F321E0C21AD10813
:10171000E108F10838EE830E33E0931EA11CB11CE2
:10172000C114D104E104F10429F7F090000181E033
:10173000F826F092000160E088E00E94050260E077
:1017400089E00E94050260E08CE00E94050280E8CA
:1017500091E0FF2071F084E691E00E94AF051092C5
:1017600085031092840361E08CE00E9405028AE503
:1017700091E00E94AF057BCFAD84BE84A114B1047B
:1017800039F0E988FA886501E114F10409F096C09E
:101790006EE971E0CE0101960E948206BE01635F90
:1017A0007F4FCE0101960E946F060E945D060E9447
:1017B000C605CE0101960E949F0562EB71E0CE0145
:1017C0000D960E94F405882309F4B0C081E080934F
:1017D00000018AEB91E00E94AF0510928503109200
:1017E000840360E088E00E94050260E089E00E94D6
:1017F000050261E08CE00E9405028AE591E00E940A
:10180000AF05CE010D960E949F05809100018823AF
:1018100009F495C28FB7F894C0908603D0908703DF
:10182000E0908803F09089038FBF809184039091AA
:1018300085038130910509F432C28230910509F4A3
:1018400057C2892B69F58091800390918103A09103
:101850008203B0918303A7019601281B390B4A0B21
:101860005B0BDA01C90188389341A105B105C0F0CD
:1018700060E08CE00E94050261E088E00E940502C1
:101880008FE892E00E94AF051093850300938403D4
:10189000C0928003D0928103E0928203F09283038E
:1018A00080E090E0892B09F4D0CE0E943901882392
:1018B00009F4CBCE0E940000C8CE640146015FEF60
:1018C000851A950AF6018081082E000C990B0E945A
:1018D000F30E892B91F7F1E0EF1AF108EA0CFB1CEB
:1018E000F7018081082E000C990B0E94F30E892BC2
:1018F00039F0EC14FD0420F0F1E0EF1AF108F0CF1C
:10190000A7014F5F5F4F4C195D095A8B498BAC148F
:10191000BD0420F4B601C5010E943211ED85FE859B
:1019200089899A89E80FF91F108232CF6CEC71E037
:10193000CE010D960E94F4058823A9F010920001B3
:1019400083ED91E00E94AF0560E088E00E9405020F
:1019500060E089E00E94050260E08CE00E940502E0
:1019600084EE91E04CCF6DEF71E0CE0101960E94C4
:101970008206BE016F5F7F4FCE010D960E94D90592
:10198000F82ECE0101960E949F05FF2009F45FC04A
:1019900029893A8944E050E0BE01635F7F4FCE0160
:1019A00007960E94B30662E072E0CE0101960E94A3
:1019B0008206BE01695F7F4FCE0101960E946F06CD
:1019C0000E945D060E94C605CE0101960E949F05F9
:1019D0000E94700580E00E943F0520E130E050E069
:1019E00040E0BE01695F7F4FCE0101960E94B306C1
:1019F0004D815E8169817A8183E394E00E948F004A
:101A0000CE0101960E949F058B859C854197D0F061
:101A100081E00E943F0520E230E040E150E0BE015D
:101A2000695F7F4FCE0101960E94B3064D815E81B2
:101A300069817A8183E394E00E948F00CE01019650
:101A40000E949F05CE0107960E949F05DACE66E1AF
:101A500072E0CE0101960E948206BE016F5F7F4F49
:101A6000CE010D960E94D905F82ECE0101960E9456
:101A70009F05FF2009F4FFC029893A8943E050E01F
:101A8000BE01635F7F4FCE0107960E94B3066AE1F5
:101A900072E0CE0101960E948206BE01695F7F4F0F
:101AA000CE0101960E946F060E94C605CE010196E6
:101AB0000E949F0564E372E0CE0107960E94F40540
:101AC00081119AC06AE372E0CE0107960E94F40584
:101AD000811197C06FE372E0CE0107960E94F40572
:101AE000811194C064E472E0CE0107960E94F4056F
:101AF000811191C06CE472E0CE0107960E94F4055A
:101B000081118EC065E572E0CE0107960E94F40552
:101B100081118BC06DE572E0CE0107960E94F4053D
:101B2000811188C065E672E0CE0107960E94F40537
:101B3000811184C06AE672E0CE0107960E94F40526
:101B4000811181C061E772E0CE0107960E94F40521
:101B5000882309F47DC08FEF90E0DC01AD0166279A
:101B60007727842ED92EBA0150E040E0982E20919C
:101B700041043091420442175307C0F5C92C20910B
:101B80004704BD2CA82C222371F0269FF001279F2B
:101B9000F00D1124AF2E2D9DF0011124BF2E289F92
:101BA00090011124C32EE0914D04209148043091FE
:101BB0004904F0914A04EF1352C0FA01EE0FFF1FDF
:101BC000E40FF51F2E0F3F1FE0914A04E20FF32FA1
:101BD000F11DA082E0914B04E20FF32FF11DB082C2
:101BE000E0914C04E20FF32FF11DC082413051050A
:101BF00099F50E94940226CF80E09FEFA0E0B0E02C
:101C0000ADCF80E090E0AFEFB0E0A8CF8FEF90E0F5
:101C1000A0E0B0E0A3CF80E095EAAFEFB0E09ECFC8
:101C200080E09FEFAFEFB0E099CF8FEF9FEFA0E0A4
:101C3000B0E094CF80E890E0DC0190CF8BEC90ECAA
:101C4000AFEFB0E08BCF8FEF9FEFAFEFB0E086CF7D
:101C500080E090E0DC0182CF41E050E088CF7A0163
:101C6000EE0CFF1CEE0CFF1C2E0D3F1DE20FF32FA0
:101C7000F11D1082A9CF69E772E0CE0101960E94A2
:101C80008206BE01635F7F4FCE0101960E946F0600
:101C90000E94C605CE0101960E949F05B2CD80919B
:101CA000800390918103A0918203B0918303A701E7
:101CB0009601281B390B4A0B5B0BDA01C901883BE3
:101CC0009B40A105B10508F4EBCD60E088E00E94DF
:101CD000050261E089E00E94050289E992E00E9424
:101CE000AF0582E090E09093850380938403D0CD8C
:101CF0008091800390918103A0918203B09183032E
:101D0000A7019601281B390B4A0B5B0BDA01C901AD
:101D1000883E9340A105B10508F4C2CD60E089E09A
:101D20000E94050261E08CE00E9405028AE591E0D4
:101D30000E94AF051092850310928403A9CD2FB79E
:101D4000F8948091860390918703A0918803B091C5
:101D500089032FBF40917C0350917D0360917E03E6
:101D600070917F036C017D01C41AD50AE60AF70A57
:101D7000B701A601443F51406105710508F490CDBB
:101D800080937C0390937D03A0937E03B0937F03A5
:101D9000F0907B0381E0F826F0927B036F2D88E0C2
:101DA0000E9405026F2D89E00E9405026F2D8CE0D4
:101DB0000E94050283EA92E0F11002C084EE91E0F5
:101DC0000E94AF056DCD80914804909149040E9416
:101DD000EC0F809145049091460497FD03C060E0AC
:101DE0000C943302089591110C94FC0E803219F07A
:101DF00089508550C8F708959927882708952F920C
:101E00003F924F925F926F927F928F929F92AF928A
:101E1000BF92CF92DF92EF92FF920F931F93CF93D7
:101E2000DF93CDB7DEB7CA1BDB0B0FB6F894DEBF6E
:101E30000FBECDBF09942A88398848885F846E8494
:101E40007D848C849B84AA84B984C884DF80EE80DE
:101E5000FD800C811B81AA81B981CE0FD11D0FB6E7
:101E6000F894DEBF0FBECDBFED010895AA1BBB1BCA
:101E700051E107C0AA1FBB1FA617B70710F0A61B8A
:101E8000B70B881F991F5A95A9F780959095BC01AB
:101E9000CD010895EE0FFF1F0590F491E02D0994F8
:101EA0000F931F93CF93DF938230910510F482E05C
:101EB00090E0E0915704F091580430E020E0B0E069
:101EC000A0E0309799F42115310509F44AC0281B88
:101ED000390B24303105D8F58A819B816115710554
:101EE00089F1FB0193838283FE0111C040815181FE
:101EF0000281138148175907E0F04817590799F4F0
:101F0000109761F012960C93129713961C933296C9
:101F1000CF01DF91CF911F910F9108950093570446
:101F200010935804F4CF2115310551F0421753078F
:101F300038F0A901DB019A01BD01DF01F801C1CF31
:101F4000EF01F9CF9093580480935704CDCFFE0151
:101F5000E20FF31F81939193225031093983288333
:101F6000D7CF2091550430915604232B41F4209172
:101F700005013091060130935604209355042091B9
:101F80000301309104012115310541F42DB73EB70D
:101F90004091070150910801241B350BE091550435
:101FA000F0915604E217F307A0F42E1B3F0B2817FD
:101FB000390778F0AC014E5F5F4F2417350748F0C2
:101FC0004E0F5F1F50935604409355048193919395
:101FD0009FCFF0E0E0E09CCFCF93DF930097E9F054
:101FE000FC01329713821282A0915704B0915804D9
:101FF000ED0130E020E01097A1F420813181820FC3
:10200000931F20915504309156042817390709F081
:1020100061C0F0935604E0935504DF91CF91089589
:10202000EA01CE17DF07E8F54A815B819E01411581
:102030005105B1F7E901FB83EA8349915991C40F36
:10204000D51FEC17FD0761F4808191810296840F02
:10205000951FE90199838883828193819B838A8379
:10206000F0E0E0E012968D919C9113970097B9F5FE
:102070002D913C911197CD010296820F931F2091D3
:102080005504309156042817390739F6309751F521
:102090001092580410925704B0935604A09355041C
:1020A000BCCFD383C28340815181840F951FC81751
:1020B000D90761F44E5F5F4F88819981480F591F9E
:1020C000518340838A819B819383828321153105CB
:1020D00009F0B0CFF0935804E09357049ECFFD0170
:1020E000DC01C0CF13821282D7CFB0E0A0E0EBE7D3
:1020F000F0E10C94010F8C01009751F4CB010E9488
:10210000500F8C01C801CDB7DEB7E0E10C941D0F74
:10211000FC01E60FF71F9C0122503109E217F3077B
:1021200008F49DC0D901CD91DC911197C617D7074E
:1021300098F0C530D10530F3CE0104978617970784
:1021400008F3C61BD70B2297C193D1936D937C9351
:10215000CF010E94EC0FD6CF5B01AC1ABD0A4C0137
:102160008C0E9D1EA0915704B0915804512C412C07
:10217000F12CE12C109731F5809155049091560483
:102180008815990509F05CC04616570608F058C036
:102190008091030190910401009741F48DB79EB79F
:1021A0004091070150910801841B950BE817F9072E
:1021B00008F055C0F0935604E0935504F90171837B
:1021C0006083A0CF8D919C91119712966C9012977D
:1021D00013967C901397A815B90559F56C0142E048
:1021E000C40ED11CCA14DB0420F1AC014A195B09EE
:1021F000DA011296159780F06282738251834083D0
:10220000D9016D937C93E114F10471F0D701139619
:10221000FC93EE93129776CF22968C0F9D1FF901B7
:1022200091838083F301EFCFF0935804E093570438
:1022300069CF4816590608F42C017D01D3019ACFC5
:10224000CB010E94500F7C01009749F0AE01B8010C
:102250000E943211C8010E94EC0F870153CF10E099
:1022600000E050CFFB01DC0102C001900D92415013
:102270005040D8F70895FB01DC018D910190801941
:102280000110D9F3990B0895FB01DC0101900D9227
:102290000020E1F70895FB01DC014150504030F08F
:1022A0008D910190801919F40020B9F7881B990BC2
:1022B000089510E0C2E6D0E004C0FE010E944A0F7B
:1022C0002196C336D107C9F7F894FFCF010100006A
:1022D0000059048000000040001400540000000079
:1022E000006F018F00BC00BC012D01CB001F01005D
:1022F0000000002404F7038A05CD03F003DD03CEBC
:10230000030000000082058F008A0589050D0A0080
:10231000496E696369616E646F2053656D61666FB4
:10232000726F2E2E2E0045737461646F204530004D
:1023300043616D626961646F2061206D6F646F201D
:1023400046554E43494F4E414E444F0043616D62E6
:102350006961646F2061206D6F646F204D414E5440
:10236000454E494D49454E544F00436F6D616E6473
:102370006F20726563696269646F3A202700616348
:1023800074697661720053656D61666F726F20616A
:102390006374697661646F00617061676172005394
:1023A000656D61666F726F206170616761646F0057
:1023B00045737461646F204D616E74656E696D69FB
:1023C000656E746F204F6666006C63643A004D6FF3
:1023D000737472616E646F20656E204C43443A20C2
:1023E000270077733A0043616D6269616E646F2004
:1023F0004C4544732057533238313220613A200023
:10240000766572646500726F6A6F00617A756C0040
:102410006E6172616E6A6100616D6172696C6C6F90
:102420000063656C657374650076696F6C657461D3
:1024300000726F736100626C616E636F006D616743
:10244000656E746100436F6D616E646F20646573C7
:10245000636F6E6F6369646F3A20004573746164E3
:102460006F2045310045737461646F20453200452B
:10247000737461646F204D616E74656E696D69651A
:082480006E746F204F6E000026
:107E0000112484B714BE81FFF0D085E080938100F7
:107E100082E08093C00088E18093C10086E0809377
:107E2000C20080E18093C4008EE0C9D0259A86E02C
:107E300020E33CEF91E0309385002093840096BBD3
:107E4000B09BFECF1D9AA8958150A9F7CC24DD24C4
:107E500088248394B5E0AB2EA1E19A2EF3E0BF2EE7
:107E6000A2D0813461F49FD0082FAFD0023811F036
:107E7000013811F484E001C083E08DD089C08234E0
:107E800011F484E103C0853419F485E0A6D080C0E4
:107E9000853579F488D0E82EFF2485D0082F10E0AE
:107EA000102F00270E291F29000F111F8ED06801E7
:107EB0006FC0863521F484E090D080E0DECF843638
:107EC00009F040C070D06FD0082F6DD080E0C81688
:107ED00080E7D80618F4F601B7BEE895C0E0D1E017
:107EE00062D089930C17E1F7F0E0CF16F0E7DF06D8
:107EF00018F0F601B7BEE89568D007B600FCFDCFD4
:107F0000A601A0E0B1E02C9130E011968C91119780
:107F100090E0982F8827822B932B1296FA010C0160
:107F200087BEE89511244E5F5F4FF1E0A038BF0790
:107F300051F7F601A7BEE89507B600FCFDCF97BE46
:107F4000E89526C08437B1F42ED02DD0F82E2BD052
:107F50003CD0F601EF2C8F010F5F1F4F84911BD097
:107F6000EA94F801C1F70894C11CD11CFA94CF0C13
:107F7000D11C0EC0853739F428D08EE10CD085E9AC
:107F80000AD08FE07ACF813511F488E018D01DD067
:107F900080E101D065CF982F8091C00085FFFCCF94
:107FA0009093C60008958091C00087FFFCCF809118
:107FB000C00084FD01C0A8958091C6000895E0E648
:107FC000F0E098E1908380830895EDDF803219F02E
:107FD00088E0F5DFFFCF84E1DECF1F93182FE3DFCA
:107FE0001150E9F7F2DF1F91089580E0E8DFEE27F6
:047FF000FF270994CA
:027FFE00040479
:00000001FF
